:100000000C94D0060C9417070C9417070C94D72C5B
:100010000C9417070C9417070C9417070C941707E8
:100020000C9417070C9417070C949C160C94531BF4
:100030000C94BE240C9417070C9417070C94170704
:100040000C9417070C9417070C9417070C941707B8
:100050000C9417070C9473170C9417070C9417073C
:100060000C9417070C9417070C9417070C94170798
:100070000C9417070C9417070C9417070C94170788
:100080000C9417070C9417070C9417070C94170778
:100090000C9417070C9417070C9417070C94170768
:1000A0000C9417070C9417070C941707000100FF16
:1000B000FF0106EA80FF0701BFFFFF08052BFFFFD6
:1000C0000D01BFFFFF0E0555FFFF1301BFFFFF141A
:1000D0000580FFFF1905AAFFFF1E08EA80FF26071B
:1000E0002BFFFF2D01BFFFFF2E0655FFFF3401BF81
:1000F000FFFF350580FFFF3A02BFFFFF3C04AAFF68
:10010000FF40060000FF43060000FFFF0000000064
:10011000000100000001060000FF070100000008C8
:10012000050000FF0D010000000E050000FF130197
:1001300000000014050000FF19010000001A010072
:10014000FFFF1B030000001E22000000400600000D
:10015000FF43060000FFFF00000000000100FFFF5A
:100160000104AAFFFF0502BFFFFF07010000FF080F
:1001700005AAFFFF0D01D5FFFF0E03AAFFFF110225
:10018000BFFFFF1301D5FFFF1403AAFFFF1702BF34
:10019000FFFF1901D5FFFF1A010000FF1B02D5FF69
:1001A000FF1D0100FFFF1E2200000040060000FFAF
:1001B00043060000FFFF00000000000100FFFF01F8
:1001C0000480FFFF05022BFFFF07010000FF080569
:1001D00080FFFF0D01D5FFFF0E0380FFFF11022BF3
:1001E000FFFF1301D5FFFF140380FFFF17022BFF52
:1001F000FF1901D5FFFF1A010000FF1B02D5FFFF09
:100200001D0100FFFF1E2200000040060000FF430A
:10021000060000FFFF0000000029001E001F002054
:1002200000210022002300115014001A00080015BC
:10023000001700000004001600070009000A000B68
:10024000000000E1001D001B000500060019000071
:1002500000E00012502C0035002800A60000002409
:10026000002500260027002D002E00310000000090
:10027000000000000000000000000000000000007E
:10028000000F003300340028000000000036003763
:10029000003800E5000000A7008A002C00E600E717
:1002A0000035002A0029001E002400250026002217
:1002B000002300105014001A001C00150017000045
:1002C0000004001600070009000A000B000000E10E
:1002D00000110010000D00060019000000E00012DF
:1002E000502C0035002800A60000004000410042CC
:1002F000004300440045004900000000004600475C
:1003000000480052000000000000004A000F0050AA
:10031000004F000000000000004D004E00510000A2
:10032000000000A700000000000000E7004C0000F3
:100330000029001E001F0020002100270046001396
:100340005018000C00120013000E00000004000FF3
:10035000002F0033000A000B000000E100340036DB
:10036000003700060019000000E00012502C003594
:10037000002800A600000024002500260027002DEC
:10038000002E0031001C0018000C00120013002F7A
:100390000030000B000D000E000F00330034002869
:1003A0000011001000360037003800E5001150A79A
:1003B000002C002C00E600E70035002A0029001E72
:1003C000001F0020002100220023002B0014001A2F
:1003D000000800150017000000E0000400160007E8
:1003E0000009000A000000E1001D001B00060019C2
:1003F0000005000000E0001050E20035002C00A6CF
:1004000000000024002500260027002D002E0031CA
:10041000001C0018000C00120013002F0030000B0D
:10042000000D000E000F00330034002800110010F2
:1004300000360037003800E5001150A7002C002CD2
:1004400000E600E70035002A0000DA0281FFD9F15A
:10045000DB20A4A62EAF00A0C000A1C800AED580AE
:10046000A81FD300408D142000BA015B011001AC1D
:1004700000000000047F3F1F643214643214783C93
:100480001E1E140A058182838485868788898A8B4B
:100490008C8D8E8F909192939495969798999A9B24
:1004A0009C9D9EA1A2A3A4A5A6A7A8A9AAABACADFA
:1004B000AEAFB0B1B2B3B4B5B6B7B8B9BABBBCBDE4
:1004C000BE006E2F61003474680033726400326EB7
:1004D0006400317374004C4159455200000000AE75
:1004E00000010101010101010101020202020202F7
:1004F00002020203030303030303030404040404CA
:100500000404050505050506060606060707070790
:100510000708080808090909090A0A0A0B0B0B0C45
:100520000C0C0D0D0D0E0E0E0F0F0F1010111111E2
:100530001212131314141515161617171818191963
:100540001A1A1B1B1C1D1D1E1E1F202021222223C8
:100550002424252626272829292A2B2C2D2D2E2F09
:1005600030313232333435363738393A3B3C3D3E20
:100570003F404142434445464748494A4C4D4E4F0F
:1005800050515354555658595A5B5D5E5F616264D1
:10059000656668696B6C6D6F7072737577787A7B5E
:1005A0007D7E8082838587888A8C8E8F91939596B5
:1005B000989A9C9EA0A2A3A5A7A9ABADAFB1B3B5D5
:1005C000B7BABCBEC0C2C4C6C9CBCDCFD1D4D6D8B1
:1005D000DBDDDFE2E4E7E9EBEEF0F3F5F8FAFDFF4F
:1005E000FFAA7F5540060504030201000708090A17
:1005F0000B0C1211100F0E0D1314151617181D1CCD
:100600001B1A194041424847461E1F20212223241D
:10061000252D2C2B2A292827262E2F303132333412
:100620003B3A39383736353C3D3E3F454443494AED
:100630004B2223252628292A2C2D2F3032333536DC
:10064000383A3B3D3E4042434547494A4C4E505163
:10065000535557595A5C5E6062646668696B6D6F8A
:1006600071737577797B7D7F81838587898A8C8E8D
:1006700090929496989A9C9E9FA1A3A5A7A8AAAC95
:10068000AEAFB1B3B4B6B8B9BBBCBEBFC1C2C3C5CF
:10069000C6C7C9CACBCCCDCED0D1D2D2D3D4D5D671
:1006A000D7D7D8D9D9DADADBDBDBDCDCDCDCDCDDA4
:1006B000DDDDDDDCDCDCDCDCDBDBDBDADAD9D9D888
:1006C000D7D7D6D5D4D3D2D2D1D0CECDCCCBCAC920
:1006D000C7C6C5C3C2C1BFBEBCBBB9B8B6B4B3B14F
:1006E000AFAEACAAA8A7A5A3A19F9E9C9A989694EA
:1006F00092908E8C8A89878583817F7D7B797775BF
:1007000073716F6D6B6968666462605E5C5A59579D
:10071000555351504E4C4A4947454342403E3D3B5C
:100720003A3836353332302F2D2C2A2928262523E6
:100730002200AF05010902A10185020901A10005FE
:10074000091901290815002501950875018102057F
:1007500001093009311581257F9502750881060947
:10076000381581257F950175088106050C0A380228
:100770001581257F950175088106C0C00501098096
:10078000A101850319012AB700150126B7009501BB
:1007900075108100C0050C0901A101850419012A09
:1007A000A002150126A002950175108100C0050167
:1007B0000906A101050719E029E71500250195089B
:1007C000750181029501750881010507190029FF4E
:1007D000150026FF009506750881000508190129F6
:1007E00005950575019102950175039101C00902F6
:1007F0003B00020100A0FA0904000001030101000E
:100800000921110100012240000705810308000AA7
:100810000904010001030000000921110100012267
:100820007B000705820320000A120100020000007D
:1008300008383934360200010200010A035200650B
:100840000036003400000012036B0075007300686E
:100850000069006D00610038000000040309040015
:1008600000000000003E5B4F5B3E003E6B4F6B3E66
:10087000001C3E7C3E1C00183C7E3C18001C577D32
:10088000571C001C5E7F5E1C0000183C180000FF17
:10089000E7C3E7FF00001824180000FFE7DBE7FFCD
:1008A0000030483A060E00262979292600407F05A7
:1008B000050700407F05253F005A3CE73C5A007F72
:1008C0003E1C1C0800081C1C3E7F0014227F2214C2
:1008D000005F5F005F5F0006097F017F000066899F
:1008E000956A0060606060600094A2FFA2940008B6
:1008F000047E04080010207E20100008082A1C082E
:1009000000081C2A0808001E10101010000C1E0CF5
:100910001E0C0030383E383000060E3E0E06000039
:10092000000000000000005F00000000070007005A
:1009300000147F147F1400242A7F2A120023130836
:10094000646200364956205000000807030000008A
:100950001C224100000041221C00002A1C7F1C2A8E
:100960000008083E080800008070300000080808F1
:100970000808000000606000002010080402003E2B
:100980005149453E0000427F4000007249494946B6
:10099000002141494D33001814127F1000274545AE
:1009A0004539003C4A4949310041211109070036C7
:1009B0004949493600464949291E000000140000F3
:1009C00000004034000000000814224100141414F8
:1009D0001414000041221408000201590906003EC7
:1009E000415D594E007C1211127C007F4949493605
:1009F000003E41414122007F4141413E007F494943
:100A00004941007F09090901003E41415173007FBE
:100A10000808087F0000417F4100002040413F015D
:100A2000007F08142241007F40404040007F021CAC
:100A3000027F007F0408107F003E4141413E007F5D
:100A400009090906003E4151215E007F0919294626
:100A50000026494949320003017F0103003F40401D
:100A6000403F001F2040201F003F4038403F0063B0
:100A700014081463000304780403006159494D43CA
:100A800000007F4141410002040810200000414164
:100A9000417F000402010204004040404040000049
:100AA00003070800002054547840007F284444384D
:100AB00000384444442800384444287F00385454C3
:100AC00054180000087E0902001824241C78007FB6
:100AD000080404780000447D4000002040403D00B0
:100AE000007F102844000000417F4000007C047813
:100AF0000478007C08040478003844444438007CBE
:100B00001824241800182424187C007C08040408E5
:100B10000048545454240004043F4424003C404002
:100B2000207C001C2040201C003C4030403C004405
:100B300028102844004C9090907C004464544C440D
:100B40000000083641000000007700000000413638
:100B50000800000201020402003C2623263C00009B
:100B60000000000000800000000000000000000005
:100B70000000000000000000000000000000000075
:100B80000000800103060C0808080808183040809F
:100B9000F01808080808080808080808080C0603E0
:100BA00001000000000000000000000000808081C3
:100BB0000000000000000000000000000000000035
:100BC000206040C0808090D0D0F0FCFFFFFFFFFF8E
:100BD000FFFFFFFFFEFEE040408080800046C6C66B
:100BE000C4F4FCFEFF7F4FCF7F7F7F7F7F7F7F47F7
:100BF000C7477FFFFFFFF999999919000000007F0F
:100C0000FFFFFFFEFEFEFEFEFEFEFEFEFEFEFEFE01
:100C1000FEFFFFFFFFC1E121010000000000000016
:100C20000000000000000000060C0D0F0707070F72
:100C30000F0F0F0F0F0F0F0F0F0707070B1B3B01B6
:100C400000000000000000000000008080C0C0C064
:100C5000C0C0C0C0C0C0C080800000000000000054
:100C600000000000000207070F0F1F1F1F1F1F1F9C
:100C70001F1F1F1F1F1F0F0F07070200000000008C
:100C80000000000000000000000000000000000064
:100C90000000000000000000000000000000000054
:100CA0000000000000000000000000000000000044
:100CB0000000000000000000000000000000000034
:100CC0000000000000000000000000000000000024
:100CD0000000000000000000000000000000000014
:100CE0000000000000000000000000000000000004
:100CF00000000000000000000000000000000000F4
:100D000000000000000000000000000000000000E3
:100D100000000000000000000000000000000000D3
:100D200000000000000000000000000000000000C3
:100D300000000000000000000000000000000000B3
:100D400000000000000000000000000000000000A3
:100D50000000000000000000000000000000000093
:100D60000000000000000000000000000000000083
:100D70000000000000000000000000000000000073
:100D80000000000000000000000000000000000063
:100D90000000000000000000000000000000000053
:100DA00011241FBECFEFDAE0DEBFCDBF04B603FED5
:100DB00027C08091070690910806A0910906B0917E
:100DC0000A068730904BA740B04BD1F4109207062B
:100DD000109208061092090610920A0614BE84B7F3
:100DE000877F84BF0FB6F894A895809160008861D2
:100DF00080936000109260000FBEE0E0F8E3099578
:100E000011E0A0E0B1E0E8EDFEE502C005900D9232
:100E1000AA3FB107D9F726E0AAEFB1E001C01D92C1
:100E2000A730B207E1F70E94E5240C94602F0C94E0
:100E30000000E8EDF0E080818E7F80831092E20078
:100E40001092DA001092E100A0EEB0E08C91816087
:100E50008C9380818F77808319BCA7EDB0E08C9153
:100E60008E7F8C9380818F7E80831092E203089521
:100E70002091E4003091E50095E6A9012091EC0075
:100E8000822F817020FF06C08091E80080FF06C09D
:100E900080E008952091E80022FD1AC08091EF03C0
:100EA000882389F0853089F08091EB0085FD0FC0A3
:100EB0002091E4003091E50042175307F9F2915078
:100EC000E1F684E0089582E0089583E0089581E0EA
:100ED0000895EF92FF920F931F93CF937C018B01A4
:100EE0000E943807C82F811117C08091E80085FD46
:100EF0000BC08091E8008E778093E8000E9438074D
:100F0000882399F3C82F08C0F70181917F0180934E
:100F1000F1000150110949F78C2FCF911F910F91CA
:100F2000FF90EF9008958091F10387FF13C08091A7
:100F3000E80082FF06C08091E8008B778093E8008C
:100F400004C08091EF038111F2CF08958091EF03E7
:100F50008823D9F38091E80080FFF8CF8091E800E2
:100F60008E77ECCF982F9093E900242F762F50E0C6
:100F7000891731F07091EC002091ED005091F00054
:100F800021FD07C09F5F973071F78093E90081E0F2
:100F900008953091EB003E7F3093EB003091ED00EF
:100FA0003D7F3093ED003091EB0031603093EB00EA
:100FB0007093EC002093ED005093F0002091EE0030
:100FC00027FDE0CF80E00895CF92DF92EF92FF926D
:100FD0000F931F93CF93DF93C8EDD0E088818F7E6E
:100FE0008883E7EDF0E080818160808384E082BFC8
:100FF00081E08093E20388818E7F888302EE10E097
:10100000F80110821092DA0081EEC82ED12CF60180
:10101000108288818F77888388818068888388811F
:101020008F7D888319BC1092EF031092F003109209
:10103000EE031092ED0390EEE92EF12CF701808182
:101040008B7F808388818160888342E060E080E0DC
:101050000E94B207F60180818E7F8083F801808133
:1010600081608083808188608083F70180818E7FAA
:101070008083888180618883DF91CF911F910F9158
:10108000FF90EF90DF90CF900895FC018091F703DF
:101090009091F80386179707A0F06115710529F460
:1010A0009091E8009E779093E80090E061157105BB
:1010B00051F4911108C08091E80082FF34C080E0B3
:1010C0000895BC01F2CF8091EF038823C1F18530F0
:1010D000C1F18091E80083FD30C08091E80082FD7D
:1010E000EACF8091E80080FFE1CF8091F30020916A
:1010F000F200382F6115710519F02830310558F0CC
:1011000091E02830310509F090E02091E8002E7739
:101110002093E800CBCF81918093F1006150710959
:101120002F5F3F4FE7CF8091EF03882341F0853059
:1011300041F08091E80083FFBECF81E0089582E016
:10114000089583E008958091E40308952FB7F894FB
:101150006091DB037091DC038091DD039091DE03ED
:101160002FBF08959C01FC0132969FEF80E04191D2
:10117000461751F09F3F19F4411101C0982F8F5F1E
:101180008630A9F79F3F09F40895290F311D97FD77
:101190003A95F901628308952091D4033091D503E3
:1011A0002817390771F09093D5038093D403E09109
:1011B000D203F091D303309721F00084F185E02D24
:1011C000099408952091D0033091D103281739074D
:1011D00071F09093D1038093D003E091D203F0910A
:1011E000D303309721F00680F781E02D099408950C
:1011F000FC01680F791F8FEF91E32191822728E08E
:1012000030E087FF09C0880F892721503109C9F7CD
:10121000E617F70791F70895880FF7CFFA018111C4
:1012200001C0FB0109940895EAEDF2E01182828188
:101230008460828308958091C503982F9E7F61F416
:10124000817082608093C5038091C803893718F04C
:1012500088E78093C80308958A34B0F38170886466
:10126000F1CFAF92BF92DF92EF92FF920F931F9355
:10127000CF93DF93182F062FE901493708F048E78D
:10128000E42FF0E0E052FB4F011110C0E4915E2F1B
:101290004E2F4983E8835A83DF91CF911F910F919D
:1012A000FF90EF90DF90BF90AF900895202F30E037
:1012B0004491D42EE42EF12C56E0159FC001112448
:1012C000EFEFF0E0BF010E94512E812F90E0880FD8
:1012D000991F55E5569FD001579FB00D11248A1BC9
:1012E0009B0B982F990F890F5F01A21AB30AAE9C2E
:1012F000D001AF9CB00DBE9CB00D11245B2F089F98
:1013000080011124012F11275F01A01AB10AAE9CA0
:101310008001AF9C100DBE9C100D11245F01A81A16
:10132000B108A29EC001A39E900DB29E900D112403
:10133000892F9927E81BF90BEE9DC001EF9D900DB9
:10134000FE9D900D1124E92F62307105A1F050F43B
:101350006115710509F49DCF6130710581F0EB2FA6
:10136000512F97CF6430710569F080F066307105B8
:1013700009F48FCFF4CFE42F4B2F592F8ACFE42FCE
:10138000412F87CFEB2F542F492F83CF4B2F5D2D2C
:10139000E12F7FCF4091CE028D3E59F48091CF0254
:1013A00087FF0DC01092CF0241110BC01092C602F0
:1013B00008C08E3E81F48091CF0218169CF344231E
:1013C00081F08091D0029091D102892B09F05AC00E
:1013D0001092C50208958F3E49F447FFF0CF109256
:1013E000CE028091CF028111ECCFE0CF803F19F483
:1013F0001416ACF3E4CF9091D002893F29F419166A
:10140000F4F61092D002DBCF8A3F19F497FFD7CFC2
:10141000F8CF9091D1028B3F29F497FFD0CF109253
:10142000D102CDCF8C3F19F41916CCF3C8CF9FE071
:10143000980F983090F4815F990B21E030E0B9016A
:1014400002C0660F771F8A95E2F7CB0180959091D5
:10145000CD0289238093CD02B2CF8D3F31F48091AC
:10146000C7028E7F8093C702AACF8E3F21F480915E
:10147000C7028D7FF7CF8F3F09F0A1CF8091C702C0
:101480008B7FF0CF08958091C70280FD16C081FD4B
:1014900016C082FD16C08091C5028823A1F0883253
:1014A00080F428E0829FC001112468E270E00E946D
:1014B0007F2E862F672B39F0089582E0089584E00F
:1014C000089588E0089581E008958091C70280FD25
:1014D00014C081FD14C082FD16C08091C60288230D
:1014E00081F0843180F422E3829FC001112464E101
:1014F00070E00E947F2E862F08958CE0089589E188
:10150000089585E0089582E308958D3E31F40E94A8
:10151000650A81958093CF0208958E3E19F40E944A
:10152000650AF8CF8F3E31F40E94650A8195809359
:10153000CE020895803F19F40E94650AF8CF893FD2
:1015400029F40E94430A8093D00208958A3F21F42F
:101550000E94430A8195F7CF8B3F31F40E94430AE2
:1015600081958093D10208958C3F19F40E94430A1B
:10157000F8CF9FE0980F983070F4815F990B21E0CD
:1015800030E001C0220F8A95EAF78091CD02822BCC
:101590008093CD0208958D3F31F48091C702816020
:1015A0008093C70208958E3F21F48091C702826024
:1015B000F7CF8F3FB9F78091C7028460F1CF80E009
:1015C000089578940895F894E82FE295EF70F0E08C
:1015D00031A1282F2F7081E090E001C0880F2A955B
:1015E000EAF7982F9095932391A392A1892B82A338
:1015F0000C94E10A8238910591F1C0F5813391058F
:1016000009F490C028F58932910509F484C08A3222
:10161000910509F48EC0811520E5920708F0A6C057
:10162000811540E4940708F02CC18F3B910508F028
:1016300087C0883A910508F017C1853A910508F0EE
:101640000AC18430910500F581309105E9F03CC074
:101650008533910509F458C089339105E1F620914D
:101660006F02237089F080EE90E00895833E91052B
:1016700071F158F4803E9105E9F0823E910559F6EA
:1016800020916F0222FD1EC00895863E910551F102
:10169000873E910571F1843E910509F0BCCF209100
:1016A000700221FFF1CF80916F0284FD0DC087EEA3
:1016B00090E0089520916F0220FD0FC130917002DB
:1016C00030FFE2CF24FF0CC190E080E0DDCF20911D
:1016D0006F0222FD08C13091700230FDC4CF24FF9B
:1016E000D3CFF2CF20916F0223FFCECF24FDECCFDA
:1016F000DECF20916F0223FDF9C03091700231FFDF
:10170000EECF84EE90E0089520916F0225FFBCCFCC
:1017100089E290E0089520916F0225FFB5CF85E31F
:1017200090E0089520916F0226FFAECF8AE290E00C
:10173000089520916F0226FFA7CF81E390E00895DE
:101740008F3F910509F060F48D3E910508F097C038
:101750009C01215E31092730310508F495CFB4CFC3
:10176000811520E2920708F48FCFAECF811543E5B3
:10177000940740F5811522E5920708F08AC081158B
:1017800041E5940708F080C09C0164E036952795F8
:101790006A95E1F7922F9370282F2695269523704E
:1017A00040E2249F90011124392B482F437081E09F
:1017B00090E002C0880F991F4A95E2F7822B932B85
:1017C0009C680895811529E59207F0F4811548E594
:1017D000940708F06FC0811524E5920708F074CFD4
:1017E000AC014370552721E030E002C0220F331FC7
:1017F0004A95E2F78695869540E2849FC0011124C0
:10180000822B932B9A68089581154AE5940708F076
:101810005BCF282F2F7040916F0242FF05C083FFDE
:101820004EC0282F277024603091700230FF07C00F
:10183000322F3871383009F048C0277F216044FDCD
:10184000277E34E0969587953A95E1F78F70982F2B
:10185000822F90690895855AE82FF0E0E858FE4FEE
:10186000808190E090640895885AE82FF0E0EE0FB0
:10187000FF1FE558FE4F8081918194640895906523
:1018800008959F70906A0895982F8827816F906AB5
:101890000895AC014370552721E030E002C0220FCB
:1018A000331F4A95E2F78695869540E2849FC001F2
:1018B000112484CF982F8827806F906A089582FF23
:1018C000B3CF282F2B702860AFCF322F317131303A
:1018D00009F0B5CF2E7F2860B2CF89E390E008955C
:1018E00083EE90E0089582EE90E0089586EE90E019
:1018F00008950C94A6088091350290913402892BAA
:1019000090913302892B8093FC01E091D203F091F6
:10191000D303309731F00280F381E02D8CEF91E01A
:1019200009940895AF92BF92CF92DF92EF92FF9207
:101930000F931F93CF93DF93C0909102D0909202A8
:10194000E0909302F0909402409136025091370259
:101950006091380270913902C42AD52AE62AF72A02
:10196000CFE1D0E0082F10E027E0929F000D111D7D
:10197000112496E4A92EBC2ED701C6010C2E04C05A
:10198000B695A795979587950A94D2F780FD0FC0D5
:10199000219788F7B12C8B2DDF91CF911F910F915B
:1019A000FF90EF90DF90CF90BF90AF900895AC9EE6
:1019B000F001AD9EF00D1124E00FF11FEE0FFF1F9F
:1019C000E75EFD4F859194910E94FA0A019701F319
:1019D000E2CF27E0929F800D1124982F9770869573
:1019E0008695869525E0829FF0011124EA5FFD4FE0
:1019F00050E040E080E0219130E0092E02C03695B1
:101A000027950A94E2F721703327042E01C0220F94
:101A10000A94EAF7822B4F5F5F4F4530510559F723
:101A2000089527E0929F800D1124982F977041E030
:101A300001C0440F9A95EAF786958695869595E0BC
:101A4000899FF0011124EA5FFD4F90E080E070E093
:101A50005191DF0111979B01082E02C03695279501
:101A60000A94E2F7217021952527242325272C931A
:101A700001968530910561F70895882341F080959E
:101A8000909135028923809335020C947B0C089544
:101A9000882339F090913502982B909335020C945D
:101AA0007B0C0895CF93DF93682F81E06A3019F0A3
:101AB0006D3029F480E0DF91CF910C94E10D80919D
:101AC00005069091060626E0FC01AFEFB5E0019017
:101AD0000D922A95E1F7603E08F45AC026E0FC0119
:101AE00011922A95E9F7C0910506D091060646E0C5
:101AF00050E0BE018FEF95E00E94022F9E012F5F04
:101B00003340892B41F1C90145E0969587954A9567
:101B1000E1F741E050E0BA0102C0660F771F8A95F5
:101B2000E2F7CB016091FD037091FE03862B972BAA
:101B3000B9016B5F7F4FE5E076956795EA95E1F730
:101B400002C0440F551F6A95E2F7842B952B9093A2
:101B5000FE038093FD032A5F3F4F4091FC03642FF7
:101B600070E0C9010E94512E481B463010F4240F2A
:101B7000311D211572E0370710F030E020E02150D0
:101B80003C4F3093060620930506DF91CF910895D0
:101B9000F6E06F9FB0011124615A774F46E050E0A4
:101BA0000E94EC2EA0CFCF93DF93EC01FE01849135
:101BB000811103C0DF91CF9108950E94520D2196AB
:101BC000F5CFCF93382FE0910506F0910606EF5F31
:101BD000F3402091FC03622F70E0CF010E94512E50
:101BE000281B822F332361F066E00E94652EC82FE8
:101BF000C15010F4CF91089580E20E94520DF8CFA9
:101C00009F01280F311D2115324018F080E0F0E0CF
:101C1000E0E08E0F9F2F911D81509C4F9093060600
:101C200080930506E7CF0E94D30D81E00C94E10D6F
:101C3000CF92DF92EF92FF920F931F93CF93DF9398
:101C40006C017B0164E670E088E70E942E2BEC01BA
:101C500097FD12C010E000E0F601E00FF11F849143
:101C600064E670E00E94A82BEC01892B29F40F5F39
:101C70001F4F0E151F0581F70E942B2CCE01DF91FF
:101C8000CF911F910F91FF90EF90DF90CF9008952B
:101C9000CF93C091CE038091CF038823D1F00E94CF
:101CA000A608605A75418F4F9F4F6093CA03709387
:101CB000CB038093CC039093CD03C11108C062E0A5
:101CC00070E081E397E00E94180E892B29F0C09103
:101CD000CE038C2FCF91089581E08093CE03F7CF70
:101CE0009091EF03943031F58093DF037093E1031B
:101CF0006093E00382E08093E9008FEF9091E80029
:101D0000815095FD06C095ED9A95F1F7000081117F
:101D1000F5CF8091E80085FF0DC050E040E063E022
:101D200070E08FED93E00E9469078091E8008E7764
:101D30008093E8000895BC0184E00C94700EBC010F
:101D400083E00C94700E9C0182E08093E9009FEF89
:101D50008091E800915085FD06C085ED8A95F1F7E8
:101D600000009111F5CF8091E80085FF0CC050E094
:101D700040E066E070E0C9010E9469078091E800D8
:101D80008E778093E8000895CF93DF93EC0181E094
:101D90008093E9008FEF9091E800815095FD06C097
:101DA00095ED9A95F1F700008111F5CF8091E8004B
:101DB00085FF14C050E040E068E070E0CE010E9472
:101DC00069078091E8008E778093E80088E0FE0143
:101DD000A5EEB3E001900D928A95E1F7DF91CF91E6
:101DE00008954F925F926F927F928F929F92AF92DF
:101DF000BF92CF92DF92EF92FF920F931F93CF93F8
:101E0000DF93CDB7DEB7C45ED1090FB6F894DEBF5D
:101E10000FBECDBF509073019091C50390FF5DC080
:101E20008090D2029090D3028114910409F068C08E
:101E3000E5EEF5E09E012F5F3F4FBE016B517F4FF6
:101E4000C901A4914A2F50E0DA01AA0FBB1FA40FC9
:101E5000B51FAF51BD4FCD90DD90EC90D901CD9223
:101E6000DD92ED929D0131966A177B0751F7209123
:101E7000720143E0249F800D911D1124539A2BB1D0
:101E8000277F3BB138605FB7F894BC01549E600D6A
:101E9000711D11248617970709F08BC05FBF8FE56E
:101EA00094E00197F1F700C00000CC51DF4F0FB66E
:101EB000F894DEBF0FBECDBFDF91CF911F910F9180
:101EC000FF90EF90DF90CF90BF90AF909F908F905A
:101ED0007F906F905F904F90089580917401209152
:101EE000750133E0839FF0011124EF51FD4F8217FC
:101EF00008F096CF1182108212828F5F3396F7CF4F
:101F000090FF96CFD12CC12C66246394712C53E0A2
:101F1000452E8091DD0293010C2C01C0220F0A9402
:101F2000EAF7822309F43CC0F601EE0FFF1FE80D2B
:101F3000F91DE590F490E114F10409F479CF45E03E
:101F400050E0B701CE0101960E94EC2E09810F3FAF
:101F500039F18A81800F9927991F8D34910514F0EA
:101F60008CE490E05C01AA0CBB1C8A0D9B1DDC017B
:101F7000AF51BD4F5D01049D800111240F511D4FD4
:101F80000A151B0520F0B5E0EB0EF11CD8CF980127
:101F90004D816C818B810E9431090D5F1F4FF0CF05
:101FA000EFEFCE1ADE0AF4E0CF16D10409F0B1CF7C
:101FB0003FCFFC014191CF01E8E03BB9000000C0F8
:101FC00047FF2BB9440F000000C000C000C02BB970
:101FD00000C0EA9591F75ECF0F931F93CF93DF93E5
:101FE000EC0110E000E0909176019017110609F0E5
:101FF0006CF40E94F10E8C8190E00196817099271B
:102000008C83DF91CF911F910F91089520917401DE
:10201000A801420F511D9A01220F331F240F351FB3
:102020002F513D4F4C816091C7038091C603969517
:102030009017110651F04CF0442349F04091C80329
:102040000E9431090F5F1F4FCECF4423B9F340E008
:10205000F7CF8F929F92AF92BF92CF92DF92EF9283
:10206000FF920F931F93CF93DF93EC014C81042FCA
:1020700010E09801D8010E94C32E9B01AC010E9480
:10208000D92E4B015C01E0E2F0E0E01BF10BA5E58D
:10209000B0E0AC019B010E94D92E6B017C019F0135
:1020A000DF010E94BB2E9B01AC010E94E42E9B012C
:1020B000AC01280D391D4A1D5B1DC701B6010E94E8
:1020C000932EF22E822F90E039E23F1560F143E02B
:1020D000249F9001112435952795122F109500E02B
:1020E00085E5E82EEF1880917601081758F10E94D7
:1020F000F10E9C8181E0992319F0903219F48FEF51
:102100008093710180917101890F8C83DF91CF9150
:102110001F910F91FF90EF90DF90CF90BF90AF9005
:102120009F908F90089525E530E0B901681B790BE9
:102130009B01220F331F260F371F37FFCCCF2F5F96
:102140003F4FC9CF8E2D01FD8F2D20917401622F3D
:10215000600F7727771F9B01220F331F260F371F32
:102160002F513D4F412F6091C7030E9431090F5FEE
:10217000BACFEF92FF920F931F93CF93DF93EC01AF
:102180008C81811109C081E08C831092DF0292E082
:102190009093700180936F0180917401909175010B
:1021A00023E0829FF0011124EF51FD4F891768F160
:1021B00010E003E060917601161768F10E94F10EBD
:1021C00080916F012091DF02280F2093DF02909110
:1021D0007001980F90937001191654F4022E000CA0
:1021E000330B409176014150550B2417350734F0DD
:1021F000819580936F01813009F41C82DF91CF912A
:102200001F910F91FF90EF9008951182108212821A
:102210008F5F3396CBCFE12EF12C70E0C7010E9487
:102220007F2E20917401820F482F50E02091DF0211
:10223000022E000C330BE216F306BCF02091700165
:10224000022E000C330B2E153F057CF0809F900171
:1022500011242F513D4F4091C8036091C7038091D5
:10226000C6030E9431091F5FA5CFFA01EE0FFF1FC1
:10227000E40FF51FEF51FD4F118210821282F3CF50
:102280008F929F92AF92BF92CF92DF92EF92FF9286
:102290000F931F93CF93DF93EC018A81BB24BA94F1
:1022A00080FD02C0BB24B394A09076018C81811183
:1022B00009C081E0B81228C08FEF8A0D8093DE023A
:1022C00081E08C83F12CE12C4CE4942EEA14F8F09C
:1022D0000E94F10E8091DE0291E0B9125FC081117F
:1022E00058C08091760181508093DE021C82DF917C
:1022F000CF911F910F91FF90EF90DF90CF90BF9003
:10230000AF909F908F9008951092DE02D9CF0091E8
:1023100074010E0D1F2D111DC801880F991F080F84
:10232000191F0F511D4FF80111821082128234E0E3
:10233000C32ED12C812C8091DE02880D8D342CF19E
:10234000692D0E94712E892F082E000C990B8E1575
:102350009F0591F48091C8038C9DA0018D9D500D27
:102360001124559547955595479598016091C70358
:102370008091C6030E9431098B0CF1E0CF1AD1087D
:10238000D1F68FEFE81AF80AA1CF87FFDDCF8A0DCB
:10239000DBCF81508093DE02BC82A9CF90E0019612
:1023A0006091760170E00E947F2E8093DE028C8324
:1023B0009ECFEF92FF921F93CF93DF93EC0110E03B
:1023C000EE24EA94F12C60917601161770F00E94C9
:1023D000F10E9A818C8190FF27C08F5F8C83DF91F3
:1023E000CF911F91FF90EF90089520917401422F9B
:1023F000410F5527551FCA019A01220F331F280F7D
:10240000391F2F513D4F70E0C7010E947F2E962F3C
:102410008C814091C8036091C703199F800D1124DE
:102420000E9431091F5FCFCF8150D8CF9091C50353
:1024300090FF14C0909174012091750133E0939F37
:10244000F0011124EF51FD4F921710F00C94F10E92
:102450008183608342839F5F3396F6CF08950F9305
:102460001F93CF93DF9300D00F92CDB7DEB78C01CF
:102470008091E00281110AC09E012F5F3F4F48E723
:102480006FEF0E9431098A818093E002F801648134
:10249000613069F08091E00240E0662361F040E045
:1024A000623011F44091E00280E060E004C060918D
:1024B000E00240E080E00E941612F801848190E082
:1024C000019663E070E00E947F2E84830F900F904E
:1024D0000F90DF91CF911F910F910895CF93DF93CC
:1024E00000D00F92CDB7DEB79091C50390FF0AC020
:1024F0009E012F5F3F4F0E9431094B8169818A8184
:102500000E9416120F900F900F90DF91CF910895B7
:10251000CF93DF93EC01E5ECF3E0438162818C81A2
:102520000E946E128C818F5F8C83DF91CF91089512
:10253000CF93DF93EC01EC81F0E0EF5CF94F449135
:10254000E5ECF3E0628181810E946E128C818F5FE5
:102550008C83DF91CF9108959F92AF92BF92CF92DB
:10256000DF92EF92FF920F931F93CF93DF937C0143
:102570005B016A0180916E0201E010E08A3010F484
:102580000AE010E0C1E0D0E0F894B501C701F6011F
:102590000995982E0E94E10A911004C021960C170B
:1025A0001D076CF4892DDF91CF911F910F91FF9042
:1025B000EF90DF90CF90BF90AF909F900895CC9F09
:1025C0009001CD9F300D300D112490E080E045E367
:1025D0004A95F1F70000019682179307C1F7D4CF0F
:1025E00080914302811110C08091D8008061809356
:1025F000D8008AE18A95F1F700C08091D90080FF68
:102600000AC081E08093430281E0909143029130BF
:1026100009F080E0089582E0809343020E94190748
:102620001092EF03F1CF0F931F930E94F0128823B3
:1026300021F01F910F910C94A6080E94A60800910A
:10264000D6031091D7032091D8033091D903600F9E
:10265000711F821F931F1F910F9108950E94F01206
:10266000882351F0E091D203F091D303309721F009
:102670000190F081E02D099480E00895CF92DF92DF
:10268000EF92FF926B017C010E941B09B701A6012A
:1026900088E090E0FF90EF90DF90CF900C943E2F79
:1026A000AF92BF92CF92DF92EF92FF920F931F9360
:1026B000CF93DF9300D00F92CDB7DEB7182FF62E51
:1026C000042FE22E9091C50390FF3AC0E92FE695C2
:1026D000AE2FB0E0AC52BE4F8C918093DA029E7F59
:1026E0009230E1F59E012F5F3F4F812F0E9431090B
:1026F0004B8169818A810E9416128091C6038113E1
:1027000008C08091C7038F1104C08091C80380174F
:1027100029F08091DC0282608093DC021093C60372
:10272000F092C7030093C803EE2051F06091C503F7
:102730007091C6038091C7039091C8030E943E1315
:102740000F900F900F90DF91CF911F910F91FF90FD
:10275000EF90DF90CF90BF90AF900895823019F442
:102760000091C803CACF863019F41091C603C5CFB3
:102770008930D9F3893109F6E9518E2F8170D82E2D
:10278000E695F0E0E052FA4FA590B490C12CBB243E
:1027900060917601C61618F00E94F10EAECF2C2D76
:1027A00030E0A29EC001A39E900DB29E900D112418
:1027B00070E00E94512E812FD11013C0860F4091DE
:1027C0007401420F532F511D9A01220F331F240F02
:1027D000351F2F513D4F402F6F2D0E943109C3945B
:1027E000D7CF861BECCFE5ECF3E0438128E0421B1A
:1027F00008F440E021E0628181810C945013E5EC03
:10280000F3E0438128E0420F08F44FEF21E06281BA
:1028100081810C945013E5ECF3E0628128E0621BA7
:1028200008F460E021E0438181810C945013E5ECD1
:10283000F3E0628128E0620F08F46FEF21E043814A
:1028400081810C945013E5ECF3E0818121E0438118
:10285000628188500C945013E5ECF3E0818121E013
:1028600043816281885F0C9450138091C90388234F
:1028700019F081508093C9036091C5037091C6031C
:102880008091C7039091C8030C943E138091C903B3
:10289000833018F48F5F8093C9036091C5037091F2
:1028A000C6038091C7039091C8030C943E13E5ECD6
:1028B000F3E083E0808311828FEF828388E7838354
:1028C0001482AAEDB2E012968C9112978360129650
:1028D0008C9360817181828193810C943E13CF939C
:1028E00084E090E00E94182FC82F82E290E00E94BE
:1028F000182F982F8C2FCF910895CF93DF93CDB7BA
:10290000DEB729970FB6F894DEBF0FBECDBF85E0C6
:10291000E5ECF3E0DE01119601900D928A95E1F766
:102920008091DA029091DB02A091DC02B091DD028D
:102930008E839F83A887B987288540916A0250912A
:102940006B0260916C0270916D023FB7F8948091B8
:10295000DB039091DC03A091DD03B091DE033FBF68
:10296000841B950BA60BB70B84369105A105B10509
:1029700010F4222319F18091490190914A018B5A58
:102980009D4F4091480150E04A30510510F049E018
:1029900050E0BE016F5F7F4F0E940F2F85E090E0F7
:1029A0000E949D2D892BB1F40E94A60860936A02B3
:1029B00070936B0280936C0290936D021092DC0214
:1029C00081E029960FB6F894DEBF0FBECDBFDF9130
:1029D000CF91089580E0F5CFCF93DF9300D000D062
:1029E000CDB7DEB74091510250915202609153022F
:1029F000709154022FB7F8948091DB039091DC031F
:102A0000A091DD03B091DE032FBF841B950BA60BB5
:102A1000B70B84369105A105B10568F10E94131327
:102A20006E5F7F4F8F4F9F4F69837A838B839C8329
:102A300080913F01909140018B5A9D4F40913E0102
:102A400050E04530510510F044E050E0BE016F5FAA
:102A50007F4F0E940F2F84E090E00E949D2D892BD4
:102A600061F40E94A6086093510270935202809311
:102A700053029093540281E001C080E00F900F90C8
:102A80000F900F90DF91CF9108956F927F928F9268
:102A90009F92AF92BF92CF92DF92EF92FF920F93ED
:102AA0001F93CF93DF930F92CDB7DEB7862E5A01D7
:102AB0006901682E880F7708C3010E949D2D892B1C
:102AC00009F088C08AE0869DF001879DF00D1124F1
:102AD000EC5EFE4F458150E04115510511F041E09B
:102AE00050E08AE0869DF001879DF00D1124EC5E98
:102AF000FE4F668177816B5A7D4FCE0101960E9411
:102B00000F2FF50140815181628173812FB7F894B5
:102B10008091DB039091DC03A091DD03B091DE0393
:102B20002FBF841B950BA60BB70B84369105A1050F
:102B3000B10540F4B701C8010E94F80899818917CE
:102B400009F44FC0082C000C9908C4010E949D2D67
:102B5000892B91F0B12C8B2D0F90DF91CF911F918C
:102B60000F91FF90EF90DF90CF90BF90AF909F902C
:102B70008F907F906F9008958AE0889DF001899DE5
:102B8000F00D1124EC5EFE4F458150E0E416F50691
:102B900008F4A7018AE0889DF001899DF00D1124B9
:102BA000EC5EFE4F668177816B5A7D4FC6010E94B5
:102BB0000F2FB701C8010E94F80899818913CACF65
:102BC0000E94A608F5016083718382839383BB24EE
:102BD000B394C1CFB12CA701B801C6010E940F2F39
:102BE000BACFBB24B394F7CFCF92DF92EF92FF928C
:102BF0000F931F93CF93DF9300D000D00F92CDB7E8
:102C0000DEB76B0185E0E82EF12C06E512E09E01AF
:102C10002F5F3F4F49E452E061E080E00E9445159C
:102C2000882349F095E0FE013196A4E4B2E00190DA
:102C30000D929A95E1F795E0E4E4F2E0D601019077
:102C40000D929A95E1F70F900F900F900F900F90C3
:102C5000DF91CF911F910F91FF90EF90DF90CF9078
:102C6000089569EE7EEF90E080E00E944A2F60E0D8
:102C700082E090E00E942C2F60E083E090E00E94D0
:102C80002C2F1092360210923702109238021092B6
:102C9000390260E084E090E00E942C2F60E082E244
:102CA00090E00E942C2F60E085E090E00E942C2FA5
:102CB00060E086E090E00E942C2F6FEF87E090E0CC
:102CC0000E942C2F40E050E0BA0188E090E00E9482
:102CD0003E2F60E08DE090E00E942C2F40E050E01D
:102CE000BA0188E190E00E943E2F60E087E190E029
:102CF0000E942C2F40E050E0BA018CE190E00E944D
:102D00003E2F70E060E080E290E00E944A2F40E0B9
:102D100050E0BA0188E190E00E943E2F40E050E090
:102D2000BA018FE090E00E943E2F40E050E0BA01EF
:102D300083E190E00C943E2F1F920F920FB60F92FA
:102D400011242F933F934F935F936F937F938F93B0
:102D50009F93AF93BF93EF93FF938091E10082FF26
:102D600009C08091E20082FF05C08091E1008B7F65
:102D70008093E1008091DA0080FF24C08091D80028
:102D800080FF20C08091DA008E7F8093DA008091EE
:102D9000D90080FF9BC080E189BD82E189BD09B473
:102DA00000FEFDCF81E08093EF038091E20381116B
:102DB00009C00E9419070E94E4078091E200846024
:102DC0008093E2008091E10080FF17C08091E200D3
:102DD00080FF13C08091E2008E7F8093E20080919B
:102DE000E20080618093E2008091D800806280934D
:102DF000D80019BC85E08093EF038091E10084FF47
:102E000029C08091E20084FF25C080E189BD82E174
:102E100089BD89B5982F917080FFFBCF8091D80034
:102E20008F7D8093D8008091E1008F7E8093E100B8
:102E30008091E2008F7E8093E2008091E2008160C9
:102E40008093E2008091F003882309F445C084E078
:102E50008093EF038091E10083FF27C08091E2001F
:102E600083FF23C08091E100877F8093E10082E0AF
:102E70008093EF031092F0038091E1008E7F8093A6
:102E8000E1008091E2008E7F8093E2008091E20079
:102E900080618093E20042E060E080E00E94B2073F
:102EA0008091F00088608093F000FF91EF91BF91D6
:102EB000AF919F918F917F916F915F914F913F91D2
:102EC0002F910F900FBE0F901F90189519BC109264
:102ED000EF031092E20376CF8091E30087FD93E049
:102EE0009093EF03B7CF78941F921FB61F921124CF
:102EF0008F939F93AF93BF938091DB039091DC03FB
:102F0000A091DD03B091DE030196A11DB11D809358
:102F1000DB039093DC03A093DD03B093DE03BF914A
:102F2000AF919F918F911F901FBE1F9018959C018C
:102F30004FB7F8948091DB039091DC03A091DD03FF
:102F4000B091DE034FBF821B930B08952FB7F89407
:102F50008091DB039091DC03A091DD03B091DE034F
:102F60002FBF08950E94F01281110C94A6170E94A1
:102F70001313CB0108956091C503669570E04BE093
:102F800050E084E691E00E94F52E892B19F481E04F
:102F90008093DB020E94B2179093D5028093D402F3
:102FA0008091DC0284608093DC0208959091C503D7
:102FB00090FF3BC0917081112EC092609093C50329
:102FC0008091DC0281608093DC02662351F0609185
:102FD000C5037091C6038091C7039091C8030E94F6
:102FE0003E136091C503669570E04BE050E084E6C7
:102FF00091E00E94F52E892BA9F00E94140981E02E
:103000008093D70220E04091C8036091C70380916C
:10301000C6030C945013853210F09864CFCF880FFC
:10302000982BCCCF0E94BB17EACF08958091C5039F
:103030008695815009F484E261E00C94D617809162
:10304000C50386958F5F853208F081E061E00C94BE
:10305000D6179091C50390FF07C09695981720F05A
:10306000961710F40C941F1861E00C94D6170E9468
:10307000A6179C019091CE028091CF02982B21F04F
:103080003093CB022093CA029091D0028091D1025A
:10309000982B21F03093C9022093C802E091D2030B
:1030A000F091D303309749F082E08093CC02048002
:1030B000F581E02D8CEC92E00994089590E080E099
:1030C0000E94E20890E080E00E94CC081092340256
:1030D000109233020E947B0C86E0ECECF2E0DF0100
:1030E0001D928A95E9F71092C6021092C5021092BD
:1030F000C7020C94371860939102709392028093E8
:103100009302909394020C945E186093360270932D
:10311000370280933802909339020C945E18109213
:103120003502EEEFF1E086E0DF011D928A95E9F7C6
:103130000C945E181F93CF93DF93CDB7DEB7AA9799
:103140000FB6F894DEBF0FBECDBF81EF93E02091A4
:10315000F100FC012193CF01F3E0893F9F07B9F70C
:103160008091F203833009F46FC0B8F4813009F420
:1031700046C0823009F4B0C08091E80083FF7BC272
:103180008091F1039091F2039A3008F074C2E92F14
:10319000F0E0EE59F04D0C94B52E8A3009F48BC056
:1031A0008B3009F46EC0893039F78091F103813298
:1031B00019F78091F5039091F6030297E8F6809154
:1031C000E800877F8093E8008091E80082FF37C0A5
:1031D0009091F3008091F200029729F48091F10020
:1031E0008B7F813021F48091F1008093E403809102
:1031F000E8008B778093E8000E949307BDCF809111
:10320000F103813A09F0B8CF8091E800877F80937D
:10321000E8008091F5039091F603892B61F468E052
:1032200085EE93E070E00E9445088091E8008B777E
:103230008093E800A1CF60E090E080E0F3CF809140
:10324000EF038111C1CF98CF8091F103813A09F04A
:1032500093CF8091F5039091F603892B09F08CCFE1
:103260008091E800877F8093E8008091E80080FFEC
:10327000FCCF809177018093F1008091E8008E77F8
:10328000B9CF8091F103813209F076CF8091F503B7
:103290009091F603892B09F06FCF8091E800877F2A
:1032A0008093E8000E9493078091F3038093770155
:1032B0000E948F1861CF8091F103813209F05CCFB9
:1032C0008091E800877F8093E8000E9493078091B7
:1032D000F4038093E30350CF8091F103813A09F026
:1032E0004BCF8091E800877F8093E8008091E800D1
:1032F00080FFFCCF8091E303BECF803899F0823805
:1033000009F0B9C18091F5038F70873008F0B3C11F
:103310008093E9008091EB0085FB882780F910926B
:10332000E90006C08091ED039091EE039111826057
:103330009091E800977F9093E8008093F1001092BD
:10334000F1008091E8008E7792C1882309F480C152
:10335000823009F090C18091F303811183C1809183
:10336000F5038F702FEF280F263008F084C180936B
:10337000E9002091EB0020FF75C1933031F480917A
:10338000EB0080628093EB006DC19091EB00906147
:103390009093EB0021E030E001C0220F8A95EAF71C
:1033A0002093EA001092EA008091EB008860EACF57
:1033B000811161C11091F3031F778091E300807840
:1033C000812B8093E3008091E800877F8093E80061
:1033D0000E9493078091E80080FFFCCF8091E3007A
:1033E00080688093E30082E0111183E08093EF0313
:1033F00042C18058823008F03EC18091F303909121
:10340000F4038C3D23E09207A1F583E08A838AE2EE
:1034100089834FB7F894DE01139620E03EE051E235
:10342000E32FF0E050935700E49120FF03C0E295B2
:10343000EF703F5FEF708E2F90E0EA30C0F0C796DC
:103440008D939D932F5F243159F74FBF8091E800F2
:10345000877F8093E8006AE270E0CE0101960E94C7
:1034600045088091E8008B778093E80004C1C096FE
:10347000E7CF4091F5035091F603292F33272330EE
:10348000310509F444C078F52130310509F46FC0E5
:103490008BE390E0EEEEF7E02230310509F0EBC06F
:1034A0002091E800277F2093E8002091F7033091D6
:1034B000F8038217930708F49C0140E021153105B9
:1034C00009F064C0411162C08091E80082FDC9CF5B
:1034D0008091EF03882329F2853019F28091E8006A
:1034E00083FFF2CFBECF21323105A9F1223231055F
:1034F00009F0C1C04115510509F443C041305105DF
:1035000009F0B9C08BE790E0E3E3F7E0C9CF992772
:1035100081309105C1F0009759F0029709F0ABC0D6
:10352000EBE3F8E0E4918E2F90E0EBE3F8E007C0E6
:10353000EBE5F8E0E4918E2F90E0EBE5F8E0009702
:1035400009F499C0ADCFE7E4F8E0E4918E2F90E064
:10355000E7E4F8E0F4CF4115510571F04130510531
:1035600009F089C089E090E0E9E1F8E099CF82E1D3
:1035700090E0E9E2F8E094CF89E090E0E0E0F8E064
:103580008FCF80E490E0EEEAF7E08ACF8091EF03FE
:10359000882309F466CF853009F463CF8091E80071
:1035A00083FD5FCF8091E80082FD8ECF8091E8009F
:1035B00080FF84CF9091F3008091F20021153105B6
:1035C00019F08830910550F041E0089709F040E08B
:1035D0008091E8008E778093E80070CF449140930B
:1035E000F1003196215031090196E8CF803809F079
:1035F00042C08091E800877F8093E8008091F003CB
:103600008093F1009ECE811136C01091F3031230E9
:1036100090F58091E800877F8093E8001093F00395
:103620000E949307112311F084E005C08091E3000C
:1036300087FDFACF81E08093EF0342E061EC81E007
:103640000E94B20742E261EC82E00E94B20713C01E
:103650008091F303813079F481E0933009F080E0C8
:103660008093EE031092E9008091E800877F8093B9
:10367000E8000E9493078091E80083FF0AC08091D0
:10368000E800877F8093E8008091EB008062809360
:10369000EB00AA960FB6F894DEBF0FBECDBFDF9148
:1036A000CF911F9108951F920F920FB60F92112480
:1036B0002F933F934F935F936F937F938F939F933A
:1036C000AF93BF93CF93DF93EF93FF93D091E90034
:1036D000DF708091EC00C82FC17080FDC0E81092AF
:1036E000E9008091F000877F8093F00078940E9439
:1036F0009A181092E9008091F00088608093F000A1
:10370000CD2BCF70C093E900FF91EF91DF91CF9166
:10371000BF91AF919F918F917F916F915F914F91E9
:103720003F912F910F900FBE0F901F9018958823F7
:10373000F1F19CEF980F913A78F4EEEFF1E024E08C
:1037400032E09191891303C0DF0111971C922E176B
:103750003F07B9F70C947B0C90E2980F983088F4EF
:10376000877021E030E0A90102C0440F551F8A95FF
:10377000E2F7CA0180959091350289238093350242
:10378000E9CF9BE5980F933020F490E080E00C9413
:10379000E20898E5980F973120F490E080E00C94CF
:1037A000CC088D3E20F00E94CA090C943718089569
:1037B000CF93C82F882309F456C08CEF8C0F813A21
:1037C000F8F4EEEFF1E084E092E0DF012D91C21712
:1037D00059F08A179B07D1F76C2F8CEF91E00E946C
:1037E000B208CF910C947B0C2191C21303C0DF016E
:1037F00011971C928E179F07B9F70E947B0CECCF94
:1038000080E28C0F883068F4C77021E030E001C09E
:10381000220FCA95EAF780913502822B80933502F8
:10382000E0CFEBE5EC0FE33040F4F0E0E858FE4F7A
:10383000808190E0CF910C94E208E8E5EC0FE7314D
:1038400050F4F0E0EE0FFF1FE558FE4F80819181AC
:10385000CF910C94CC08CD3E30F08C2F0E94850A7D
:10386000CF910C943718CF9108951F93CF93DF9386
:10387000182FEB010E94D81B209731F4812FDF9184
:10388000CF911F910C94971B8FE99FE00197F1F75F
:1038900000C000002197F0CF0F931F93CF93DF93C9
:1038A000C62FD42F022FFC0182818823A1F06093C0
:1038B000FB030E94A6179093FA038093F903C77045
:1038C00081E001C0880FCA95EAF7DF91CF911F917F
:1038D0000F910C94480D8091FB03681337C08091C1
:1038E000F9039091FA030E949717883C910570F5AF
:1038F00010E21D0FCD17B9F080E28C0F883040F434
:10390000C77081E001C0880FCA95EAF70E943D0D9B
:10391000183048F481E09D2F977001C0880F9A9568
:10392000EAF70E94480D70E060E0802F0E94351C8D
:10393000183098F4D77081E001C0880FDA95EAF763
:10394000DF91CF911F910F910C943D0DC77081E0D5
:1039500001C0880FCA95EAF7F3CFDF91CF911F918D
:103960000F91089581110CC070E0662331F060E082
:1039700089EF0E94351C81E0089560E08AEFF9CF5D
:103980008130C9F770E0662319F060E089EAF1CF71
:1039900060E08AEAEECFCF92DF92EF92FF920F9330
:1039A0001F93CF93DF930F92CDB7DEB7EE24E3944E
:1039B000F12C0CE512E09E012F5F3F4F4DE452E0E9
:1039C00063E082E00E944515082F882321F1C09012
:1039D0007E028C2D90E09C0124573D4F7901198186
:1039E000F9018081181BD12E80E00AC0DA94F7011A
:1039F00080818F5F808360E08C2D0E94B21C802FBD
:103A00001D14A4F3912F17FD90E0191B11110EC086
:103A100081110E94790C802F0F90DF91CF911F911F
:103A20000F91FF90EF90DF90CF9008951F5FF70107
:103A300080818150808361E08C2D0E94B21C802F98
:103A4000E5CF8F929F92AF92BF92CF92DF92EF928B
:103A5000FF920F931F93CF93DF93CDB7DEB72F97CE
:103A60000FB6F894DEBF0FBECDBF4B875C876D8766
:103A70007E878F8761111092340285E0FE013B96AC
:103A8000DE01169601900D928A95E1F789859A8557
:103A9000892B39F01E81FF80812F8F218F3F09F004
:103AA000CCC32F960FB6F894DEBF0FBECDBFDF910B
:103AB000CF911F910F91FF90EF90DF90CF90BF902B
:103AC000AF909F908F9008950E94920C082F682FBE
:103AD00089819A810E94110DE12FF0E027E0F29E8A
:103AE000E00DF11D112436E4039FE00DF11D1124BA
:103AF000EE0FFF1FE75EFD4F05911491043F8CE52B
:103B0000180709F476C0B0F4093D2CE5120709F452
:103B10006CC00A3D3CE5130709F477C0083D8CE50D
:103B20001807B1F426E241EE61EECE0106960E943E
:103B30004C1CB7CF063F9CE5190709F462C008F496
:103B40005CC027E245EE66EE073F3CE5130769F3EC
:103B50009885992309F482C31092FB0304308DE504
:103B6000180708F055C00B3F2CE5120738F49801F0
:103B700022503C452431310508F04FC00E946F149B
:103B80009093700280936F0200318CE5180709F45E
:103B900018C108F090C008302CE5120709F4FBC0EA
:103BA00008F062C004308CE5180709F4E2C008F0A0
:103BB0004BC002302CE5120709F4D5C080916F028A
:103BC000826003301C4509F4D1C060916F021091EE
:103BD000700284E090E00E942C2F612F82E290E03E
:103BE0000E942C2F0E948F185CCF27E245EE65EED5
:103BF0009CCF26E241EE60EE98CF27E245EE64EEE0
:103C000094CF26E241EE62EE90CF28E241E0EFCF82
:103C100002363DE5130709F4B1CF06318CE51807EC
:103C200009F0FCC3809135028A7A91E009F490E0B2
:103C30009093050269E2811165E38CEF91E00E94A7
:103C4000B2080E947B0C2DCF06308CE5180709F4D2
:103C50009EC080916F02886007301C4508F486C0C2
:103C600080916F02806282C080916F028D7F0C30E4
:103C70002CE5120709F47AC058F40A308CE51807CD
:103C800009F493C008F48BC080916F028E7F6EC0E0
:103C900080916F02877F0E302CE5120709F466C011
:103CA00080916F028B7F0F301C4508F45FC08091BC
:103CB0006F028F7E5BC00D3F8CE5180709F479C059
:103CC00068F504312CE5120709F48FC080F4023145
:103CD0008CE5180709F479C080916F028F7B03315E
:103CE0001C4508F443C080916F02837F3FC00B3FA7
:103CF0002CE5120709F441C008F045C005311C4508
:103D000009F063CF80916F0282FB992790F921E03F
:103D1000922790FB82F990FB83F928C001309DE542
:103D2000190709F458C068F48091700283600F3F4E
:103D30003CE5130729F108F440C0809170028C7FA4
:103D40001FC003309DE5190709F45EC008F456C092
:103D500002361D4509F039CF90916F02892F8F7E71
:103D600094FF806103C080916F02816080936F0235
:103D70002CCF80916F028460F9CF809170028160B6
:103D80008093700222CF809170028260F9CF80917F
:103D90006F028061EBCF80916F028064E7CF0E9459
:103DA0008F1880916F028068E1CF80916F028C60E4
:103DB000DDCF809170028E7FE3CF809170028D7F86
:103DC000DFCF80916F028F7DD1CF0E948F188091BD
:103DD0006F028F77CBCF80917002982F9095917062
:103DE0008E7F892B90FB81F9CBCF0E948F18909109
:103DF0006F02892F97FB87F98058B8CF61E08EE07A
:103E000090E00E942C2FE1CE60E0F9CF8091050276
:103E100081110FC089E2EEEFF1E024E032E09191F0
:103E2000891303C0DF0111971C922E173F07B9F7C2
:103E300008CF85E3F0CF8091C50380FF20C08E7F3F
:103E40008093C5036091C5037091C6038091C70339
:103E50009091C8030E943E130E9414098091DC02D5
:103E600081608093DC029FEF20E732E09150204098
:103E70003040E1F700C000000E94F10E12CE8160D8
:103E80008093C50361E086950E94D6170ACE46E16D
:103E900058E16FE178E10E940E0903CE4FE158E14D
:103EA00066E178E1F8CF4CE254E163E274E1F3CFEC
:103EB0004BE054E167E174E1EECF43EF53E16FEF84
:103EC00073E1E9CF4FEF53E163EF73E1E4CF46E4F1
:103ED00054E165E374E1DFCF61E081E0D5CF65E0D7
:103EE00082E00E942918DDCD68E086E0FACF64E127
:103EF0008FE0F7CF67E185E1F4CF62E289E1F1CFAE
:103F000061E083E2C1CF0E948F188FEF94E32CE031
:103F1000815090402040E1F700C0000087E797E71C
:103F2000909301088093000888E19AE00FB6F89416
:103F3000A895809360000FBE90936000FFCF902FF4
:103F40000E94E90CF82EBAC1183009F46CC019307F
:103F500009F43DC1153009F0D3C1882309F45FC0CD
:103F6000802F0E94850A0E943718CAC1292F2F70FE
:103F7000F22E907F19F0F294F0EFFF228823C9F01F
:103F8000FF2069F080E2800F883010F001110BC033
:103F900080913502F82AF09235020E947B0C802F26
:103FA0000E94D81BADC180913402F82AF0923402ED
:103FB000F4CF802F0E94971BFF2009F4A1C1F09439
:103FC000005E083010F0E11008C080913502F82240
:103FD000F09235020E947B0C93C180913402F8224A
:103FE000F0923402F7CF292F26952695237051F0B1
:103FF000213009F085C1882379F0802F93700E94C9
:10400000CC087EC1882329F0802F93700E94E2089B
:1040100077C190E080E0FACF90E080E0F0CF802F91
:104020000E94CA09A0CF292F237009F065C0811111
:1040300067C1802F829586958770880F880F402FE3
:104040004F7050E070E060E0082E04C0440F551F30
:10405000661F771F0A94D2F7C12CD12C760104FF7A
:1040600010C0EFE0CE2ED12CE12CF12C04C0CC0CF2
:10407000DD1CEE1CFF1C8A95D2F7C094D094E0940E
:10408000F094969596959370923019F1D8F48090AB
:10409000360290903702A0903802B09039029130E9
:1040A00069F04C295D296E297F29CB01BA0168216D
:1040B00079218A219B210E94851822C148295929EA
:1040C0006A297B29CB01BA016C297D298E299F2978
:1040D000F2CF4C295D296E297F29C0903602D090FD
:1040E0003702E0903802F0903902CB01BA016C251A
:1040F0007D258E259F25DFCF2695882311F0292F3A
:104100002170222309F4FCC0802F82958695877048
:10411000880F880F402F4F7050E070E060E0082E4D
:1041200004C0440F551F661F771F0A94D2F7C12C95
:10413000D12C760104FF10C03FE0C32ED12CE12C1E
:10414000F12C04C0CC0CDD1CEE1CFF1C8A95D2F7B0
:10415000C094D094E094F094969596959370923094
:1041600019F1D8F48090910290909202A09093025D
:10417000B0909402913069F04C295D296E297F2915
:10418000CB01BA01682179218A219B210E947B18E9
:10419000B7C0482959296A297B29CB01BA016C2962
:1041A0007D298E299F29F2CF4C295D296E297F29EF
:1041B000C0909102D0909202E0909302F09094020D
:1041C000CB01BA016C257D258E259F25DFCF9F7001
:1041D000C12CD12C7601C39404C0CC0CDD1CEE1C88
:1041E000FF1C9A95D2F7882391F06091910270910B
:1041F000920280919302909194026C297D298E29DC
:104200009F290E947B18802F0E94480D79C0802F23
:104210000E943D0DC701B6016095709580959095FF
:10422000C0909102D0909202E0909302F09094029C
:104230006C217D218E219F21A9CF85E0FE0136963C
:10424000DE01119601900D928A95E1F789819A819C
:1042500061113ACC0E94E90C082F3ECC06312CE5C6
:10426000120709F4D3CD8091350282720D3C3CE5F2
:10427000130709F42CCE08F09CC0073C3CE513075B
:1042800009F411CE08F073C0043C3CE5130709F4AF
:10429000FECD08F05EC0033C1C4509F4CCCD1E8168
:1042A0000F81812F992309F44ACE902F0E94920CFE
:1042B000F82E682F812F902F0E94110DE12FF0E032
:1042C00037E0039FE00DF11D112486E4F89EE00D18
:1042D000F11D1124EE0FFF1FE75EFD4F85919491B4
:1042E0000E94FA0A082FE82E8885192F12951F7050
:1042F000143009F478CE08F027CE123008F436CE08
:10430000212F2850330B2230310510F40E942E1338
:1043100085E0FE013696DE01119601900D928A9598
:10432000E1F789819A810E94E90C9A81E981F0E0A4
:1043300037E0939FE00DF11D112496E4899FE00D75
:10434000F11D1124EE0FFF1FE75EFD4F8591949143
:10435000A8CB053C2CE5120709F4A0CD43E254E1BB
:104360006CE274E1063C1C4509F495CD98CF0A3CFB
:104370002CE5120709F4A1CD70F4083C2CE51207D6
:1043800009F496CD47E154E16BE074E1093C1C452A
:1043900009F481CD84CF0B3C2CE5120709F492CDB2
:1043A00045E354E166E474E10C3C1C4509F473CD2B
:1043B00076CF023D8CE5180709F499CD98F40F3CAF
:1043C0003CE5130709F48BCD08F486CD003D2CE5C0
:1043D000120709F489CD6EE089E0013D1C4509F41E
:1043E00080CD5DCF053D8CE5180709F486CD60F4DE
:1043F000033D3CE5130709F47DCD043D1C4509F060
:104400004ECF61E088E140CD063D2CE5120709F46E
:1044100077CD0E351D4509F444CB41CF01158CE510
:10442000180709F470CD0F3D1C4509F038CF0E94E4
:10443000311637CB9F92AF92BF92CF92DF92EF921D
:10444000FF920F931F93CF93DF93CDB7DEB72F97D4
:104450000FB6F894DEBF0FBECDBF8E010F5F1F4FAA
:104460008AE0D8011D928A95E9F78BEAC82E81E08F
:10447000D82EF12CE12CAA24A394B12CF601819121
:104480006F018F3F09F44AC0F894E82FE295EF706E
:10449000F0E021A18F70A50102C0440F551F8A953D
:1044A000E2F7CA01922F982B91A392A180958923BC
:1044B00082A30E94E10A00C0E5EBF1E030E020E0D9
:1044C000912C41914F3F09F47DC0A42FA295AF706C
:1044D000B0E090968C9190E04F7002C095958795D2
:1044E0004A95E2F780FD6EC08A2D022E01C0880F2A
:1044F0000A94EAF7982A2F5F3F4F2730310509F7D2
:10450000F601319780818F3F11F00E94E30A50EA53
:104510005A95F1F7F801EE0DFF1D90828FEFE81A22
:10452000F80A95E0E916F10409F0A8CF4AE050E056
:10453000B80181E792E00E94022F7C01892B41F0B3
:104540008AE0F801A1E7B2E001900D928A95E1F7C7
:1045500010917C02E114F104B9F181E080933C02F6
:104560000E94A61790933B0280933A0280913A02F0
:1045700090913B020E949717059770F0A1E7B2E077
:10458000E12FF0E0E158FD4F8D91819322E0A637B5
:10459000B207D1F710923C0281E090E0EF28C1F021
:1045A0002F960FB6F894DEBF0FBECDBFDF91CF912F
:1045B0001F910F91FF90EF90DF90CF90BF90AF9041
:1045C0009F90089580E096CF80913C028111CECFDC
:1045D0000E94F012B82EE0917C028E01055F1F4F01
:1045E000882309F4B2C085E0D8011D928A95E9F7C5
:1045F000F0E09F0121583D4F790180916E02AE019C
:10460000405F5F4F6A018A3008F077C044EF55E1A0
:10461000B801C7010E94AC12882309F485C04BEC95
:104620005CE1B801C7010E94AC12882309F47CC088
:104630004CEE54E1B801C7010E94AC12882309F482
:1046400073C04DE754E1B801C7010E94AC12882342
:1046500009F46AC010926E02E0917B02F0E0AF01B3
:1046600041585D4FD80110E0FA019191AF018D9151
:10467000981731F09F0121503109F90180831B2DDA
:10468000AC15BD0589F78091120190911301892B1A
:1046900041F080910F019091100189238F3F09F023
:1046A00053C180910D0190910E01892B41F08091B1
:1046B0000B0190910A0189238F3F09F02BC1809152
:1046C000080190910901892B41F080910501909199
:1046D000060189238F3F09F003C180910301909166
:1046E0000401892B41F080910001909101018923FF
:1046F0008F3F09F0DBC0812F53CF80913D02909115
:104700003E020E949717843F914008F07FCFE091CE
:104710007B02F0E0E158FD4FD80111921D92CA16BC
:10472000DB06D9F71B2DAFCF80916E028F3F31F0A2
:104730008F5F80936E028A3008F48ECF0E94A61796
:1047400090933E0280933D02E2CFF0E0E158FD4FAE
:10475000F89485E0A6E5B2E001900D928A95E1F724
:1047600065E070E086E592E00E94F80880935502CB
:104770000E94E10AF894E0918F02F0E0E457FD4FC7
:1047800080818B8780935C0261E070E0C8010E94A9
:10479000F80880935B020E94E10AF894C0905D02E1
:1047A000D0905E02E0905F02F090600280913F0244
:1047B00090914002A0914102B0914202C816D906E0
:1047C000EA06FB06D1F0C0923F02D0924002E0928E
:1047D0004102F09242020E94F01281110EC00E942A
:1047E000A608C61AD70AE80AF90AC092D603D092D8
:1047F000D703E092D803F092D9030E94E10AF8941B
:10480000809168028823A9F184FF04C09091690215
:104810009093DD0280FF0DC0809161029091C503ED
:1048200080FF2BC091609093C50360E086950E9445
:10483000D6178091680281FF09C020E04091640290
:1048400060916302809162020E945013809168021D
:1048500082FF06C080916702882329F10E94BB175E
:104860008091680283FF03C081E08093D702109299
:1048700068020E94E10A80E093CE9E7F9093C50378
:104880000E9414098091DC0281608093DC02FFEFBA
:1048900020E732E0F15020403040E1F700C0000056
:1048A0000E94F10EC6CF0E941409DACF8091020156
:1048B000882309F420CF109202010E94A61781607C
:1048C000782F90930401809303014091000150914F
:1048D000010160910201809104010E94211D0BCF12
:1048E00080910701882309F4F8CE109207010E94F5
:1048F000A6178160782F9093090180930801409159
:1049000005015091060160910701809109010E9403
:10491000211DE3CE80910C01882309F4D0CE1092A2
:104920000C010E94A6178160782F90930E0180934E
:104930000D0140910A0150910B0160910C01809191
:104940000E010E94211DBBCE80911101882309F424
:10495000A8CE109211010E94A6178160782F909323
:1049600013018093120140910F0150911001609149
:104970001101809113010E94211D93CE1F921FB639
:104980001F9211248F939F93AF93BF938091DA036B
:10499000811113C08091DB039091DC03A091DD03B2
:1049A000B091DE034196A11DB11D8093DB0390936E
:1049B000DC03A093DD03B093DE03BF91AF919F9121
:1049C0008F911F901FBE1F901895CDB7DEB76297CD
:1049D0000FB6F894DEBF0FBECDBF84B7877F84BF0C
:1049E0000FB6F894A895809160008861809360006C
:1049F000109260000FBE80E890E00FB6F8948093AC
:104A00006100909361000FBE85B7806885BF85B750
:104A1000806885BF8FED9AE09093FB018093FA0147
:104A20000E9419070E94E4078091E200846080934D
:104A3000E20078948091EF038823A1F01091E900BF
:104A40001F709091EC00892F817090FD80E8182BE9
:104A50001092E9008091E80083FD0E949A181F706F
:104A60001093E90082E084BD93E095BD9AEF97BD75
:104A700080936E001092D6031092D7031092D80341
:104A80001092D9030E94F01280935001809150013E
:104A9000882309F48AC31092720184E2809373011F
:104AA0000E94F01281110E94902C809150018091FF
:104AB000500195E0811190E090937C0285E0891B84
:104AC00080937B020BEA11E0B0EBEB2EB1E0FB2E02
:104AD000D8018D918D018F3F11F00E94E30AE016FD
:104AE000F106B1F705EB11E0ACEBEA2EA1E0FA2EEE
:104AF000F80181918F018F3F11F00E94E30AE016C7
:104B0000F106B1F7E1E7F2E08BE792E0AFE7B2E060
:104B100011921D928E179F07D9F790E080E00E94B6
:104B2000262F893E9E4F11F00E94311682E090E0C0
:104B30000E94182F8093BA020E946F149093700203
:104B400080936F0283E090E00E94182F682F70E03E
:104B500090E080E00E9485180E94F012811102C04E
:104B60000E94932C0E94F012882309F423C383E04F
:104B70008093B50280FD20C380E88093FC030E94EF
:104B8000282B6DE070E08CE594E00E94180E892BD4
:104B9000E9F58091B50263E070E081FD0FC389E51E
:104BA00094E00E94180E892B89F56DE070E089E48D
:104BB00094E00E94180E892B49F50E94A608605ABD
:104BC00075418F4F9F4F6093CA037093CB038093BF
:104BD000CC039093CD03EFEFF3E080E092E0DF01B0
:104BE0009C011D9221503040E1F7F0930606E093BE
:104BF00005068FEF9FEF9093FE038093FD0381E006
:104C00008093CF038093CE031092B60280917D02F1
:104C100081113BC090E080E00E94262F893E9E4F8C
:104C200021F00E9431160E94571488E090E00E9403
:104C3000202F6093C5037093C6038093C70390939E
:104C4000C8038091DC0283608093DC026E7F71F484
:104C50000E94571488E090E00E94202F6093C503C3
:104C60007093C6038093C7039093C8030E941B09E7
:104C70000E9414098091C50380FF04C060E08695FE
:104C80000E94D61781E080937D02809150018111AE
:104C900006C086E380935C0186E680935B012091E9
:104CA0005C01A22FA295AF70B0E091963C919197D4
:104CB0002F7081E090E0BC01022E01C0660F0A94C3
:104CC000EAF7462F4095432391964C9391979296FD
:104CD0003C919297362B92963C93929740915B0130
:104CE000E42FE295EF70F0E031A14F70042E01C087
:104CF000880F0A94EAF7982F9095932391A392A195
:104D0000892B82A390968C9190E002C0959587950F
:104D10002A95E2F7817020A130E002C035952795F1
:104D20004A95E2F792E020FF90E0892B8093900271
:104D30009091500181E0982790938F02891B809376
:104D40007E0289E694E09093D3028093D20281E5BB
:104D500091E09093D3038093D203F0E46F2E80917F
:104D6000EF0300E112E1853009F462C20E941A22C9
:104D7000E82E81110E94A608EBEBF2E0AFE7B2E06B
:104D800010E000E0B02EDD9081918D1509F45FC236
:104D90008D25C12CFF24F394982F9F2109F452C232
:104DA0000E94F012882399F0CF82B886DF2081E03C
:104DB00009F480E089870E94A6178160782F9B877D
:104DC0008A874F81588569858B850E94211DF8014E
:104DD000E554FD4F8081F826F0828091DB02882324
:104DE00009F464C08091DA02E091C503E695E81BFE
:104DF000E093D602823009F041C2F0E0EF57FB4F5A
:104E0000E4910E2F10E0E8E9CE2EE2E1DE2E809153
:104E1000D702882361F01092D7020E94B2179093B4
:104E2000D5028093D4021092D9021092D8020E9427
:104E3000B217E091D402F091D5029C012E1B3F0BDA
:104E40002F3F3F4798F520918B022223B1F010921B
:104E50008B022091890230918A02821B930B8F3F33
:104E60009F4758F4205D3A4830938A022093890284
:104E70008091DC0288608093DC02A090D802B09020
:104E8000D902E00FF11FF093D502E093D40284ED34
:104E900092E0F60109958091D8029091D902892B70
:104EA00029F4AB2819F081E080938B028091900265
:104EB000E82FEE0FEE0F90915C01A92FA295AF7035
:104EC000B0E090962C9130E09F7002C03595279508
:104ED0009A95E2F72170332790915B01A92FA29553
:104EE000AF70B0E090964C9150E09F7002C0559525
:104EF00047959A95E2F7CA018170992740FF02C051
:104F000082E090E0822B8E2B8093900210918F0292
:104F10008F70E82FF0E0E454FE4F808190918E0274
:104F2000890F80938E02F12C82306CF0E12FF0E03B
:104F3000E457FD4F80818F5F808360E0812F0E9466
:104F4000B21CFF24F39480918E028F3F6CF4E12F0A
:104F5000F0E0E457FD4F80818150808361E0812F34
:104F60000E94B21CFF24F39480918E02082E000C44
:104F7000990B62E070E00E947F2E80938E02F11008
:104F80000E94790C8091CF038823B1F18091B70200
:104F90009091B8020E949717C29708F0C9C120915A
:104FA000FD033091FE032115310509F04EC28091B9
:104FB000CE03882309F10E94A6080091CA0310912C
:104FC000CB032091CC033091CD03601B710B820B7E
:104FD000930B6F3F7F4F8F4F9F4770F48091CF03AC
:104FE000882351F062E070E08EED94E00E94180E8C
:104FF000892B11F41092CE03E11001C0F1100E9430
:10500000480E86E0ECECF2E0DE01119601900D9284
:105010008A95E1F7F090CE02E090CF021091D00295
:105020000091D1021092CE021092CF021092D002C3
:105030001092D1028F2D8E2909F448C08091CA02A6
:105040009091CB020E9497179C019091C6029923E0
:1050500009F4F9C223333105C8F19F3F19F09F5F6E
:105060009093C602FF2059F00E94650A9FEF1F141B
:105070000CF491E0899F802D11248093CE02EE20C4
:1050800059F00E94650A9FEF1E140CF491E0899F6D
:10509000802D11248093CF023091CE023323B1F0C2
:1050A0002091CF02222391F045EB3403C00111245B
:1050B000992309F49DC29093CE0245EB24039001FD
:1050C0001124332309F498C23093CF02812F802B0F
:1050D00009F448C08091C8029091C9020E949717B4
:1050E0009C019091C502992309F4A8C22536310587
:1050F000C8F19F3F19F09F5F9093C502112359F0AB
:105100000E94430A9FEF11160CF491E0899F802DB5
:1051100011248093D002002359F00E94430A9FEF8C
:1051200010160CF491E0899F802D11248093D102F8
:105130003091D0023323B1F02091D102222391F09B
:1051400045EB3403C0011124992309F459C290930B
:10515000D00245EB240390011124332309F454C2F7
:105160003093D1028091CE029091CF02892B909101
:10517000D002892B9091D102892B11F00E9437180F
:1051800086E0FE013196ACECB2E001900D928A957A
:10519000E1F70E942E139091B902891709F4DFCD2F
:1051A0000E942E138093B902DACD84E280937201BB
:1051B00088E274CC80E0DCCC80E2DFCC86E594E051
:1051C000F0CC8091EF03843019F11092DA0388E17A
:1051D00090E00FB6F894A895809360000FBE60929F
:1051E000600083B7817F846083BF83B7816083BFA2
:1051F0007894889583B78E7F83BF0FB6F894A8956F
:1052000080916000886180936000109260000FBE02
:105210008091EE03882361F00E941A22EFE7F2E00A
:1052200081918111F5C1A9E8B2E0AE17BF07C1F7BE
:105230008091EF03853009F4C4CF0E948F180E943B
:105240002E1394CDC394FF0C27E0C212A5CD0F5F9F
:105250001F4F0A30110509F095CD8FEF8C878D8790
:105260001E860E94A6178160782F988B8F874C85A9
:105270005D856E8588890E94211DAFCD863059F4E9
:10528000F0E0E258FB4FE4910E2F10E078E8C72ED3
:1052900072E1D72EBCCD893061F4E695F0E0E55897
:1052A000FB4FE4910E2F10E069EDC62E61E1D62E82
:1052B000AECD8F3061F4E695F0E0E858FB4FE49115
:1052C0000E2F10E050E4C52E51E1D52EA0CD853132
:1052D00059F4F0E0EB58FB4FE4910E2F10E049EB4E
:1052E000C42E40E1D42E93CD08E210E099E2C92EFD
:1052F00090E1D92E883109F48ACD833249F4E3E76D
:10530000F4E0059114913FE2C32E32E1D32E7FCD1C
:1053100004EF11E02CEEC22E2FE0D22E843209F4DD
:1053200076CD00ED17E083E1C82E89E0D82E6FCD51
:105330000E94A6179093B8028093B7028FEF93E074
:1053400090930606809305060E94F012882309F4C4
:105350006DC08DED94E00E94130E8CED94E00E94E0
:10536000130E86ED94E00E94130E4091910250912D
:1053700092026091930270919402CB01AA27BB27FD
:105380000097A105B10509F447C0AC01BD0180E15A
:10539000052F162F272F332701151105210531055C
:1053A00019F0885FB901A8018A019B01A4E0369534
:1053B000279517950795AA95D1F701151105210590
:1053C000310519F08C5FB901A8018A019B01F2E057
:1053D0003695279517950795FA95D1F7011511057B
:1053E0002105310519F08E5FB901A8017695679501
:1053F00057954795452B462B472B09F08F5F8130FA
:10540000D9F0882359F08230D1F08330D9F082EC82
:1054100094E00E94D30D06C080E0BACF82ED94E004
:105420000E94130E85E894E00E94D30D8091CF0373
:10543000882309F4BCCDB3CD8EEC94E0F1CF8AEC97
:1054400094E0EECF86EC94E0EBCF8091B60261E081
:1054500070E08111ACCD082F10E02B01082E02C0A6
:10546000440C551C0A94E2F7A90144215521452B0F
:1054700009F448C09091B50290FD46C08295880F0E
:10548000807680935F01980136952795369527950C
:1054900020936201815E809360011092630124E693
:1054A00030E047E050E06DE571E088E70E94D72BDF
:1054B000892B09F07CCDA80195E0440F551F9A95E2
:1054C000E1F78091B50280FD2DC041505C4F04E6AC
:1054D00010E020E230E060E488E70E94FE2B892B98
:1054E00009F065CD0E94480EC201809590954090CC
:1054F000FD035090FE03482259225092FE03409231
:10550000FD0355CD8F5FA7CF880F880F880F80933D
:105510005F0110926201895F8093600183E0809354
:105520006301BDCFE5E9F2E080E2DF011D928A95DB
:10553000E9F7E0EDF1E0FA8BE98B0CEC11E087E0A4
:10554000A82E99249394A989BA892D91BA8BA98BF5
:10555000F80121908F01240E352E311CC10181509C
:105560009C4F1C01E22FF0E0EB56FD4F30E020E0B5
:105570007A2C721AB92C022E01C0BB0C0A94EAF7DD
:10558000610190E0D6018D916D018B21672D691B22
:105590006770862E062E000C770BB82F01C0BB0F4C
:1055A0008A94EAF78B2E7195619571096770772758
:1055B00001C086956A95EAF7882A8081882A8082C8
:1055C0009F5F9830F9F62F5F3F4F319628303105B5
:1055D00079F6E4EDF1E029893A89E217F30709F059
:1055E000B2CF04E610E020E230E045E952E073CFAC
:1055F00081E08093CE0261CD81E08093CF0266CDC1
:1056000081E08093D002A5CD81E08093D102AACD24
:1056100009BD19BD09B400FEFDCF8091D8008F7D72
:105620008093D8008091E00082608093E0008091B8
:10563000E00081FDFCCF0E948F18FACD2D32314061
:1056400008F059CD8FCD2D32314008F008CD3ECD38
:105650001092B9008CE08093B80008959F92AF92A9
:10566000BF92CF92DF92EF92FF920F931F93CF934F
:10567000DF93B82EEB010E94A6176C01EE24E39491
:10568000F12CC431D10560F025E0E22EF12CCF3FA2
:10569000DC0731F0CE0164E170E00E94512E7B0105
:1056A00084EAA82E94E8992E1092BC00A092BC0027
:1056B0000E94A6178C018091BC0087FF0DC08091CD
:1056C000B900887F883039F18091B900887F8031B6
:1056D00011F10FEF1FEF09C00E94A617801B910B5D
:1056E0008E159F0540F30EEF1FEFCF3FDC07E1F271
:1056F000C6010E9497178C179D07B0F2C801DF9171
:10570000CF911F910F91FF90EF90DF90CF90BF90BE
:10571000AF909F900895B092BB009092BC000E9401
:10572000A6178C018091BC0087FF0AC08091B90048
:10573000887F883111F0803461F610E000E0DECF20
:105740000E94A617801B910B8E159F0558F3CBCF97
:105750000F931F93CF93DF93EB018093BB0084E8FB
:105760008093BC000E94A6178C018091BC0087FF2B
:1057700011C02091B900287F81E090E0283211F417
:1057800090E080E0919581959109DF91CF911F91F3
:105790000F910895CF3FDC0741F30E94A617801BAD
:1057A000910B8C179D0708F38EEF9FEFEECFCF92F2
:1057B000DF92EF92FF920F931F93CF93DF936B01D2
:1057C0008A017901B9010E942E2BE6010C0D1D1DE5
:1057D000C017D10761F424E92093BC00DF91CF9179
:1057E0001F910F91FF90EF90DF90CF90089597FD5C
:1057F000F2CFB70189910E94A82BEACFCF92DF9216
:10580000EF92FF920F931F93CF93DF93C62F6A01FE
:105810007901B8010E942E2B97FD0CC0B8018C2F86
:105820000E94A82BE601EC0CFD1CCE15DF0511F043
:1058300097FF0CC024E92093BC00DF91CF911F910A
:105840000F91FF90EF90DF90CF900895B80189916C
:105850000E94A82BEACF84E98093BC0008958EE1D2
:105860004A9B02C08150E1F74A9BFECF08955A98A7
:1058700080E28A95F1F75A9A0895FC013BE03A9547
:10588000F1F798E020E080E031E040E14A95F1F75F
:10589000880F4A9B02C08160232742E04A95F1F7B6
:1058A000000040E14A95F1F7915079F790E19A951F
:1058B000F1F799B132E03A95F1F7000040E14A95ED
:1058C000F1F792FB992790F992272081920F90830C
:1058D0000895EF92FF920F931F93CF93DF930F9250
:1058E000CDB7DEB719828C017C01E60EF11C0E15D6
:1058F0001F0561F481E09981911180E00F90DF91A3
:10590000CF911F910F91FF90EF9008950E942F2C3F
:10591000CE0101960E943D2CF80181938F01E7CFC3
:10592000529A5A9A089552985A9AEA9AE9E6F0E0F9
:1059300080818F7C808308956150770B91E001C056
:10594000990F6A95EAF720E031E0911108C022230F
:1059500091F05A9A80E28A95F1F75A980895492F62
:10596000482339F05A9A232740E24A95F1F7969551
:10597000ECCF5A98F9CF5A98EDCFFF920F931F931F
:10598000CF93DF93EC018C01060F111DC017D107D7
:1059900031F4DF91CF911F910F91FF900895F9900D
:1059A0000E94372C68E08F2D0E949C2CEFCF1F9215
:1059B0000F920FB60F921124EF92FF920F931F9345
:1059C0002F933F934F935F936F937F938F939F9307
:1059D000AF93BF93EF93FF93CF93DF930F92CDB726
:1059E000DEB719820E942F2CCE0101960E943D2C19
:1059F000A82FA695A695A695282F229525709A2FB3
:105A00009570290F922F937026952695920F9827BF
:105A100097708981982B09F075C0A73008F072C083
:105A200080E18A95F1F75A9A529AB2E0BA95F1F765
:105A300000C05A98EA2EF12CEAE0AE9FD001112462
:105A4000AC5EBE4F1896ED91FC9119973097B1F06E
:105A50006091A9017091AA0116962D913C9117971A
:105A6000260F371F13968D919C911497680F791FFD
:105A700015964C91159712968C9109958AE08E9DFA
:105A8000F0018F9DF00D1124EC5EFE4F65816623C1
:105A900051F02091A9013091AA0186819781820F4E
:105AA000931F0E94BD2C0E94372CF0E1FA95F1F76C
:105AB0005A9852985A9A80E18A95F1F78AE08E9D19
:105AC00080018F9D100D11240C5E1E4FD80112967F
:105AD0006C911297662371F12091A9013091AA016E
