:100000000C9445060C948C060C948C060C94902B46
:100010000C948C060C948C060C948C060C948C0618
:100020000C948C060C948C060C9425140C949D183E
:100030000C9424240C948C060C948C060C948C0642
:100040000C948C060C948C060C948C060C948C06E8
:100050000C948C060C94FC140C948C060C948C065A
:100060000C948C060C948C060C948C060C948C06C8
:100070000C948C060C948C060C948C060C948C06B8
:100080000C948C060C948C060C948C060C948C06A8
:100090000C948C060C948C060C948C060C948C0698
:1000A0000C948C060C948C060C948C06000100FFBA
:1000B000FF0106EA80FF0701BFFFFF08052BFFFFD6
:1000C0000D01BFFFFF0E0555FFFF1301BFFFFF141A
:1000D0000580FFFF1905AAFFFF1E08EA80FF26071B
:1000E0002BFFFF2D01BFFFFF2E0655FFFF3401BF81
:1000F000FFFF350580FFFF3A02BFFFFF3C04AAFF68
:10010000FF40060000FF43060000FFFF0000000064
:10011000000100000001060000FF070100000008C8
:10012000050000FF0D010000000E050000FF130197
:1001300000000014050000FF19010000001A010072
:10014000FFFF1B030000001E22000000400600000D
:10015000FF43060000FFFF00000000000100FFFF5A
:100160000104AAFFFF0502BFFFFF07010000FF080F
:1001700005AAFFFF0D01D5FFFF0E03AAFFFF110225
:10018000BFFFFF1301D5FFFF1403AAFFFF1702BF34
:10019000FFFF1901D5FFFF1A010000FF1B02D5FF69
:1001A000FF1D0100FFFF1E2200000040060000FFAF
:1001B00043060000FFFF00000000000100FFFF01F8
:1001C0000480FFFF05022BFFFF07010000FF080569
:1001D00080FFFF0D01D5FFFF0E0380FFFF11022BF3
:1001E000FFFF1301D5FFFF140380FFFF17022BFF52
:1001F000FF1901D5FFFF1A010000FF1B02D5FFFF09
:100200001D0100FFFF1E2200000040060000FF430A
:10021000060000FFFF0000000029001E001F002054
:1002200000210022002300115014001A00080015BC
:10023000001700000004001600070009000A000B68
:10024000000000E1001D001B000500060019000071
:1002500000E00002512C0035002800A60000002418
:10026000002500260027002D002E00310000000090
:10027000000000000000000000000000000000007E
:10028000000F003300340028000000000036003763
:10029000003800E5000000A7008A002C00E600E717
:1002A0000035002A0029001E002400250026002217
:1002B000002300105014001A000800150017000059
:1002C0000004001600070009000A000B000000E10E
:1002D00000110010000D00060019000000E00001F0
:1002E000002C0035002800A600000040004100421C
:1002F000004300440045004900000000004600475C
:1003000000480052000000000000004A000F0050AA
:10031000004F000000000000004D004E00510000A2
:10032000000000A700000000000000E7004C0000F3
:100330000029001E001F0020002100270046001396
:100340005018000C00120013000E00000004000FF3
:10035000002F0033000A000B000000E100340036DB
:10036000003700060019000000E00001002C0035F5
:10037000002800A600000024002500260027002DEC
:10038000002E0031001C0018000C00120013002F7A
:100390000030000B000D000E000F00330034002869
:1003A0000011001000360037003800E5001150A79A
:1003B000002C002C00E600E70035002A0029001E72
:1003C000001F0020002100220023002B0014001A2F
:1003D000000800150017000000E0000400160007E8
:1003E0000009000A000000E1001D001B00060019C2
:1003F0000005000000E0001050E20035002C00A6CF
:1004000000000024002500260027002D002E0031CA
:10041000001C0018000C00120013002F0030000B0D
:10042000000D000E000F00330034002800110010F2
:1004300000360037003800E5001150A7002C002CD2
:1004400000E600E70035002A0000DA0281FFD9F15A
:10045000DB20A4A62EAF00A0C000A1C800AED580AE
:10046000A81FD300408D142000BA015B011001AC1D
:100470000000008182838485868788898A8B8C8DA1
:100480008E8F909192939495969798999A9B9C9D14
:100490009EA1A2A3A4A5A6A7A8A9AAABACADAEAFE6
:1004A000B0B1B2B3B4B5B6B7B8B9BABBBCBDBE0093
:1004B0006E2F61003474680033726400326E640021
:1004C000317374004C415945520000000023210053
:1004D0000101010101010101010202020202020205
:1004E00002020303030303030303040404040404D8
:1004F000040505050505060606060607070707079E
:1005000008080808090909090A0A0A0B0B0B0C0C50
:100510000C0D0D0D0E0E0E0F0F0F101011111112EC
:100520001213131414151516161717181819191A6B
:100530001A1B1B1C1D1D1E1E1F20202122222324CE
:1005400024252626272829292A2B2C2D2D2E2F300D
:10055000313232333435363738393A3B3C3D3E3F21
:10056000404142434445464748494A4C4D4E4F500E
:10057000515354555658595A5B5D5E5F61626465CC
:100580006668696B6C6D6F7072737577787A7B7D56
:100590007E8082838587888A8C8E8F9193959698AA
:1005A0009A9C9EA0A2A3A5A7A9ABADAFB1B3B5B7C6
:1005B000BABCBEC0C2C4C6C9CBCDCFD1D4D6D8DB9D
:1005C000DDDFE2E4E7E9EBEEF0F3F5F8FAFDFF0634
:1005D0000504030201000708090A0B0C1211100F91
:1005E0000E0D1314151617181D1C1B1A1940414225
:1005F0004847461E1F2021222324252D2C2B2A2943
:100600002827262E2F30313233343B3A39383736CB
:10061000353C3D3E3F454443494A4B0023000501DC
:100620000902A10185020901A10005091901290892
:100630001500250195087501810205010930093170
:100640001581257F95027508810609381581257F5A
:10065000950175088106050C0A38021581257F95DC
:100660000175088106C0C005010980A10185031933
:10067000012AB700150126B700950175108100C049
:10068000050C0901A101850419012AA00215012602
:10069000A002950175108100C005010906A10105A0
:1006A0000719E029E71500250195087501810295D4
:1006B00001750881010507190029FF150026FF00B3
:1006C000950675088100050819012905950575012C
:1006D0009102950175039101C009023B00020100DE
:1006E000A0FA090400000103010100092111010021
:1006F000012240000705810308000A0904010001E6
:1007000003000000092111010001227B000705827E
:100710000320000A120100020000000838393436B4
:100720000200010200010A03520065003600340095
:10073000000012036B0075007300680069006D0013
:1007400061003800000004030904000000000000FC
:100750003E5B4F5B3E003E6B4F6B3E001C3E7C3E63
:100760001C00183C7E3C18001C577D571C001C5E6A
:100770007F5E1C0000183C180000FFE7C3E7FF0085
:10078000001824180000FFE7DBE7FF0030483A06B6
:100790000E00262979292600407F05050700407FA5
:1007A00005253F005A3CE73C5A007F3E1C1C0800D0
:1007B000081C1C3E7F0014227F2214005F5F005F34
:1007C0005F0006097F017F00006689956A0060600E
:1007D0006060600094A2FFA2940008047E040800F8
:1007E00010207E20100008082A1C0800081C2A0877
:1007F00008001E10101010000C1E0C1E0C003038CB
:100800003E383000060E3E0E0600000000000000DC
:1008100000005F000000000700070000147F147F45
:100820001400242A7F2A1200231308646200364928
:1008300056205000000807030000001C2241000061
:100840000041221C00002A1C7F1C2A0008083E08C8
:100850000800008070300000080808080800000048
:10086000606000002010080402003E5149453E002F
:1008700000427F4000007249494946002141494DEC
:1008800033001814127F10002745454539003C4AB3
:1008900049493100412111090700364949493600CB
:1008A000464949291E0000001400000000403400A1
:1008B0000000000814224100141414141400004114
:1008C000221408000201590906003E415D594E00FC
:1008D0007C1211127C007F49494936003E4141415A
:1008E00022007F4141413E007F49494941007F0943
:1008F000090901003E41415173007F0808087F004B
:1009000000417F4100002040413F01007F08142248
:1009100041007F40404040007F021C027F007F0476
:1009200008107F003E4141413E007F090909060051
:100930003E4151215E007F09192946002649494957
:10094000320003017F0103003F4040403F001F2071
:1009500040201F003F4038403F00631408146300EC
:100960000304780403006159494D4300007F41416D
:100970004100020408102000004141417F000402B0
:10098000010204004040404040000003070800000E
:100990002054547840007F2844443800384444446C
:1009A0002800384444287F00385454541800000864
:1009B0007E0902001824241C78007F0804047800B3
:1009C00000447D4000002040403D00007F1028444E
:1009D000000000417F4000007C04780478007C081F
:1009E000040478003844444438007C182424180057
:1009F000182424187C007C0804040800485454542B
:100A0000240004043F4424003C4040207C001C207F
:100A100040201C003C4030403C004428102844004A
:100A20004C9090907C004464544C44000008364143
:100A300000000000770000000041360800000201BD
:100A4000020402003C2623263C00000000000000B7
:100A50008000000000000000000000000000000016
:100A60000000000000000000000000000080010302
:100A7000060C080808080818304080F01808080814
:100A800008080808080808080C0603010000000010
:100A900000000000000000008080810000000000D5
:100AA0000000000000000000000000206040C08046
:100AB0008090D0D0F0FCFFFFFFFFFFFFFFFFFFFEA5
:100AC000FEE040408080800046C6C6C4F4FCFEFFC5
:100AD0007F4FCF7F7F7F7F7F7F7F47C7477FFFFF2E
:100AE000FFF999999919000000007FFFFFFFFEFEB2
:100AF000FEFEFEFEFEFEFEFEFEFEFEFEFFFFFFFF12
:100B0000C1E1210100000000000000000000000021
:100B1000000000060C0D0F0707070F0F0F0F0F0F38
:100B20000F0F0F0F0707070B1B3B01000000000012
:100B30000000000000008080C0C0C0C0C0C0C0C0B5
:100B4000C0C0808000000000000000000000000025
:100B50000207070F0F1F1F1F1F1F1F1F1F1F1F1F12
:100B60001F0F0F0707020000000000000000000038
:100B70000000000000000000000000000000000075
:100B80000000000000000000000000000000000065
:100B90000000000000000000000000000000000055
:100BA0000000000000000000000000000000000045
:100BB0000000000000000000000000000000000035
:100BC0000000000000000000000000000000000025
:100BD0000000000000000000000000000000000015
:100BE0000000000000000000000000000000000005
:100BF00000000000000000000000000000000000F5
:100C000000000000000000000000000000000000E4
:100C100000000000000000000000000000000000D4
:100C200000000000000000000000000000000000C4
:100C300000000000000000000000000000000000B4
:100C400000000000000000000000000000000000A4
:100C50000000000000000000000000000000000094
:100C60000000000000000000000000000000000084
:100C70000000000000000000000000000000000074
:100C80000000000000000000000011241FBECFEF94
:100C9000DAE0DEBFCDBF04B603FE27C08091ED05CC
:100CA0009091EE05A091EF05B091F0058730904B43
:100CB000A740B04BD1F41092ED051092EE051092C2
:100CC000EF051092F00514BE84B7877F84BF0FB67E
:100CD000F894A895809160008861809360001092DC
:100CE00060000FBEE0E0F8E3099511E0A0E0B1E09C
:100CF000E2EAFBE502C005900D92A43BB107D9F7EB
:100D000025E0A4EBB1E001C01D92AD3EB207E1F7D2
:100D10000E944B240C94AB2D0C940000E8EDF0E005
:100D200080818E7F80831092E2001092DA00109210
:100D3000E100A0EEB0E08C9181608C9380818F7790
:100D4000808319BCA7EDB0E08C918E7F8C9380815D
:100D50008F7E80831092C80308952091E400309123
:100D6000E50095E6A9012091EC00822F817020FF1B
:100D700006C08091E80080FF06C080E008952091C1
:100D8000E80022FD1AC08091D503882389F08530C0
:100D900089F08091EB0085FD0FC02091E400309137
:100DA000E50042175307F9F29150E1F684E0089507
:100DB00082E0089583E0089581E00895EF92FF9224
:100DC0000F931F93CF937C018B010E94AD06C82F18
:100DD000811117C08091E80085FD0BC08091E8006B
:100DE0008E778093E8000E94AD06882399F3C82F80
:100DF00008C0F70181917F018093F1000150110932
:100E000049F78C2FCF911F910F91FF90EF9008958C
:100E10008091D70387FF13C08091E80082FF06C04E
:100E20008091E8008B778093E80004C08091D5031F
:100E30008111F2CF08958091D5038823D9F3809151
:100E4000E80080FFF8CF8091E8008E77ECCF982FF4
:100E50009093E900242F762F50E0891731F070919C
:100E6000EC002091ED005091F00021FD07C09F5F44
:100E7000973071F78093E90081E008953091EB009D
:100E80003E7F3093EB003091ED003D7F3093ED00DD
:100E90003091EB0031603093EB007093EC002093C5
:100EA000ED005093F0002091EE0027FDE0CF80E0B0
:100EB0000895CF92DF92EF92FF920F931F93CF93FB
:100EC000DF93C8EDD0E088818F7E8883E7EDF0E086
:100ED00080818160808384E082BF81E08093C80349
:100EE00088818E7F888302EE10E0F80110821092D4
:100EF000DA0081EEC82ED12CF601108288818F771E
:100F0000888388818068888388818F7D888319BCE5
:100F10001092D5031092D6031092D4031092D303EB
:100F200090EEE92EF12CF70180818B7F8083888100
:100F30008160888342E060E080E00E942707F6013C
:100F400080818E7F8083F8018081816080838081B1
:100F500088608083F70180818E7F808388818061B3
:100F60008883DF91CF911F910F91FF90EF90DF90D9
:100F7000CF900895FC018091DD039091DE038617E8
:100F80009707A0F06115710529F49091E8009E770C
:100F90009093E80090E06115710551F4911108C03B
:100FA0008091E80082FF34C080E00895BC01F2CF58
:100FB0008091D5038823C1F18530C1F18091E8008B
:100FC00083FD30C08091E80082FDEACF8091E80087
:100FD00080FFE1CF8091F3002091F200382F61155E
:100FE000710519F02830310558F091E028303105AD
:100FF00009F090E02091E8002E772093E800CBCF15
:1010000081918093F100615071092F5F3F4FE7CFCD
:101010008091D503882341F0853041F08091E8002C
:1010200083FFBECF81E0089582E0089583E00895B4
:101030008091CA0308952FB7F8946091C10370910D
:10104000C2038091C3039091C4032FBF08959C01F4
:10105000FC0132969FEF80E04191461751F09F3F8F
:1010600019F4411101C0982F8F5F8630A9F79F3F77
:1010700009F40895290F311D97FD3A95F90162830E
:1010800008952091BE033091BF032817390771F0EE
:101090009093BF038093BE03E091BC03F091BD0326
:1010A000309721F00084F185E02D09940895209176
:1010B000BA033091BB032817390771F09093BB0333
:1010C0008093BA03E091BC03F091BD03309721F007
:1010D0000680F781E02D09940895FC01680F791FBF
:1010E0008FEF91E32191822728E030E087FF09C04C
:1010F000880F892721503109C9F7E617F70791F7BB
:101100000895880FF7CFFA01811101C0FB010994FE
:101110008091AF03982F9E7F39F48091AF03817047
:1011200082608093AF0308958430B8F70895AF923A
:10113000BF92DF92EF92FF920F931F93CF93DF93B3
:10114000082F162FE901E42FF0E0E153FB4F611166
:1011500010C0E4915E2F4E2F4983E8835A83DF91BC
:10116000CF911F910F91FF90EF90DF90BF90AF90C4
:101170000895E62EF12C4491D42EE42FF0E026E0E1
:10118000829FC00111242FEF30E0B9010E940A2D87
:10119000802F90E0880F991F55E5569FD001579FEB
:1011A000B00D11248A1B9B0B982F990F890F5901A1
:1011B000AE18BF08AE9ED001AF9EB00DBE9EB00D62
:1011C00011245B2F189F80011124012F1127590131
:1011D000A01AB10AAE9E8001AF9E100DBE9E100DEA
:1011E00011245901A81AB108AE9CC001AF9C900D02
:1011F000BE9C900D1124892F9927281B390B2E9FF7
:10120000C0012F9F900D3E9F900D1124E92F623059
:101210007105A1F050F46115710509F49DCF61309D
:10122000710581F0EB2F512F97CF6430710569F074
:1012300080F06630710509F48FCFF4CFE42F4B2F87
:10124000592F8ACFE42F412F87CFEB2F542F492FCF
:1012500083CF4B2F5D2DE12F7FCF4091C1028D3E7B
:1012600059F48091C20287FF0DC01092C202411151
:101270000BC01092B90208C08E3E81F48091C20268
:1012800018169CF3442381F08091C3029091C4020C
:10129000892B09F05AC01092B80208958F3E49F484
:1012A00047FFF0CF1092C1028091C2028111ECCFB2
:1012B000E0CF803F19F41416ACF3E4CF9091C30251
:1012C000893F29F41916F4F61092C302DBCF8A3F46
:1012D00019F497FFD7CFF8CF9091C4028B3F29F430
:1012E00097FFD0CF1092C402CDCF8C3F19F41916BE
:1012F000CCF3C8CF9FE0980F983090F4815F990BA2
:1013000021E030E0B90102C0660F771F8A95E2F74D
:10131000CB0180959091C00289238093C002B2CF07
:101320008D3F31F48091BA028E7F8093BA02AACFAA
:101330008E3F21F48091BA028D7FF7CF8F3F09F065
:10134000A1CF8091BA028B7FF0CF08958091BA022D
:1013500080FD16C081FD16C082FD16C08091B802C6
:101360008823A1F0883280F428E0829FC0011124F4
:1013700068E270E00E942A2D862F672B39F00895CD
:1013800082E0089584E0089588E0089581E008955A
:101390008091BA0280FD14C081FD14C082FD16C088
:1013A0008091B902882381F0843180F422E3829F06
:1013B000C001112464E170E00E942A2D862F089557
:1013C0008CE0089589E1089585E0089582E3089509
:1013D0008D3E31F40E94C80981958093C202089520
:1013E0008E3E19F40E94C809F8CF8F3E31F40E9456
:1013F000C80981958093C1020895803F19F40E9425
:10140000C809F8CF893F29F40E94A6098093C30236
:1014100008958A3F21F40E94A6098195F7CF8B3F5A
:1014200031F40E94A60981958093C40208958C3FEF
:1014300019F40E94A609F8CF9FE0980F983070F435
:10144000815F990B21E030E001C0220F8A95EAF715
:101450008091C002822B8093C00208958D3F31F4A9
:101460008091BA0281608093BA0208958E3F21F480
:101470008091BA028260F7CF8F3FB9F78091BA02AC
:101480008460F1CF80E0089578940895F894E82F6F
:10149000E295EF70F0E031A1282F2F7081E090E00D
:1014A00001C0880F2A95EAF7982F9095932391A36E
:1014B00092A1892B82A30C94440A9091650292FF19
:1014C00006C0282F28712830F9F4877F846093FFA5
:1014D00006C0282F28712831F1F4877E846120917D
:1014E000660220FF06C0382F38713830D9F4877F64
:1014F000816021FF06C0282F28712831D1F4877E12
:10150000816194FD877E0895282F24712430F9F697
:101510008B7F8860DCCF282F2471243101F78B7EEC
:101520008861DDCF382F3171313019F78E7F8860B7
:10153000E0CF282F2171213121F78E7E8861E1CF04
:10154000CF93DF93EC018238910581F1B0F58133BF
:10155000910509F491C020F58932910509F485C0FF
:101560008A9709F490C0C11520E5D20708F0A7C0FA
:10157000C11530E4D30708F0F6C0CF3BD10508F021
:1015800089C0C83AD10508F0E1C0C53AD10508F0D4
:10159000D5C0C430D105F8F4C130D105E1F040C068
:1015A0008533910509F45AC0C997E9F6809165021F
:1015B000837089F0C0EED0E00EC0833E910599F1B2
:1015C00070F4803E910501F1823E910561F68091B3
:1015D000650282FD21C0CE01DF91CF910895863E44
:1015E000910561F1873E910571F1843E910509F005
:1015F000BACF8091660281FFEECF80916502C7EE7F
:10160000D0E084FD0DC0E7CF8091650280FDFEC073
:101610009091660290FFDFCFC3EED0E084FFDBCF76
:10162000D0E0C0E0D8CF8091650282FDF2C09091F9
:10163000660290FDBFCF84FFCECFF2CF80916502CE
:1016400083FDDDCFC8CF8091650283FDE5C0909119
:10165000660291FFF0CFC4EED0E0BDCF809165026D
:1016600085FFB9CFC9E2D0E0B6CF8091650285FF92
:10167000B2CFC5E3D0E0AFCF8091650286FFABCF9C
:10168000CAE2D0E0A8CF8091650286FFA4CFC1E373
:10169000D0E0A1CFCF3FD10509F058F4CD3ED10520
:1016A00008F05FC0CE01805E9109089708F493CFDF
:1016B000B7CFC11540E2D40708F48DCFB1CFC11523
:1016C00084E5D807A0F4C11593E5D90708F07CC0DC
:1016D000C11522E5D20708F066C0C11531E5D30770
:1016E00008F444C0DC2FCC27C16FD06A74CFC11579
:1016F0004AE5D40778F4C11589E5D80708F078C021
:10170000C11598E5D90708F48BCFDC2FCC27C06F23
:10171000D06A61CFCE0190568115904208F080CFFB
:101720008D2F8F710E945D0A90E0982F882788275F
:101730009F719C012C2BE901D0624DCFC55AD0E09E
:10174000CA5ADE4FC881D0E0D06445CFC85AD0E035
:10175000CC0FDD1FC75ADE4F0990D881C02DD4644D
:101760003ACFD06538CFDF70D06A35CFCE0164E094
:10177000969587956A95E1F783702C2F2695269587
:10178000237040E2249F90011124382B8C2F83700A
:10179000C1E0D0E002C0CC0FDD1F8A95E2F7C22B7A
:1017A000D32BDC6818CFCE018370992721E030E07D
:1017B00002C0220F331F8A95E2F7C695C69580E2D4
:1017C000C89FE0011124EBCFCE018370992721E05F
:1017D00030E002C0220F331F8A95E2F7C695C69506
:1017E00090E2C99FE0011124C22BD32BDA68F3CE1B
:1017F0008C2F8F700E945D0A34E0D695C7953A957C
:10180000E1F7CF709C2FEC01D069E5CEC9E3D0E0C1
:10181000E2CEC2EED0E0DFCEC6EED0E0DCCE0C945D
:101820001B088091270290912602892B9091250216
:10183000892B8093B601E091BC03F091BD033097F2
:1018400031F00280F381E02D86EB91E00994089558
:10185000809124029091F301981301C008958F5F45
:101860008770FACFAF92BF92CF92DF92EF92FF9242
:101870000F931F93CF93DF93C0908402D090850283
:10188000E0908602F0908702409128025091290250
:1018900060912A0270912B02C42AD52AE62AF72ADF
:1018A000CFE1D0E0082F10E027E0929F000D111D3E
:1018B000112496E4A92EBC2ED701C6010C2E04C01B
:1018C000B695A795979587950A94D2F780FD0FC096
:1018D000219788F7B12C8B2DDF91CF911F910F911C
:1018E000FF90EF90DF90CF90BF90AF900895AC9EA7
:1018F000F001AD9EF00D1124E00FF11FEE0FFF1F60
:10190000E75EFD4F859194910E94A00A019701F333
:10191000E2CFCF93DF93EC010E94320CEC2FF0E08A
:1019200097E0D99FE00DF11D112496E4899FE00D09
:10193000F11D1124EE0FFF1FE75EFD4F859194917D
:10194000DF91CF910C94A00A27E0929F800D112483
:10195000982F977086958695869525E0829FF00151
:101960001124E054FE4F50E040E080E0219130E04F
:10197000092E02C0369527950A94E2F72170332785
:10198000042E01C0220F0A94EAF7822B4F5F5F4FAB
:101990004530510559F7089527E0929F800D112495
:1019A000982F977041E001C0440F9A95EAF7869509
:1019B0008695869595E0899FF0011124E054FE4FAD
:1019C00090E080E070E05191DF0111979B01082EBB
:1019D00002C0369527950A94E2F7217021952527B4
:1019E000242325272C9301968530910561F70895CE
:1019F000FC01808191810E94890C292F2F70929582
:101A00009F7092509E3078F4E92FF0E0E355F24D4C
:101A10000C943E2D803F19F020F4883E20F481E0A4
:101A20000895843FE1F380E00895883EC0F3813F4C
:101A3000D1F7F5CF822F86958695869508958823D0
:101A400041F08095909127028923809327020C947E
:101A5000110C0895882339F090912702982B9093C8
:101A600027020C94110C0895CF93DF93682F81E027
:101A70006A3019F06D3029F480E0DF91CF910C9439
:101A8000C30D8091EB059091EC0526E0FC01A5EEDD
:101A9000B5E001900D922A95E1F7603E08F45AC036
:101AA00026E0FC0111922A95E9F7C091EB05D0914F
:101AB000EC0546E050E0BE0185EE95E00E944D2D1C
:101AC0009E01255E3340892B41F1C90145E0969581
:101AD00087954A95E1F741E050E0BA0102C0660FF0
:101AE000771F8A95E2F7CB016091E3037091E403DD
:101AF000862B972BB9016B5F7F4FE5E07695679555
:101B0000EA95E1F702C0440F551F6A95E2F7842B6E
:101B1000952B9093E4038093E3032A5F3F4F40911A
:101B2000E203642F70E0C9010E940A2D481B463071
:101B300010F4240F311D211572E0370710F030E04A
:101B400020E02B513C4F3093EC052093EB05DF91C7
:101B5000CF910895F6E06F9FB0011124665B784F36
:101B600046E050E00E94442DA0CFCF93DF93EC01DC
:101B7000FE018491811103C0DF91CF9108950E94ED
:101B8000340D2196F5CFCF93382FE091EB05F091EE
:101B9000EC05E55EF3402091E203622F70E0CF0197
:101BA0000E940A2D281B822F332361F066E00E94D9
:101BB0001E2DC82FC15010F4CF91089580E20E94CD
:101BC000340DF8CF9F01280F311D2115324018F038
:101BD00080E0F0E0E0E08E0F9F2F911D8B519C4F35
:101BE0009093EC058093EB05E7CF0E94B50D81E063
:101BF0000C94C30DCF92DF92EF92FF920F931F933D
:101C0000CF93DF936C017B0164E670E088E70E946C
:101C1000E729EC0197FD12C010E000E0F601E00FAB
:101C2000F11F849164E670E00E94612AEC01892B27
:101C300029F40F5F1F4F0E151F0581F70E94E42A3C
:101C4000CE01DF91CF911F910F91FF90EF90DF9028
:101C5000CF900895CF93C091B8038091B9038823A2
:101C6000D1F00E941B0868517C4F8F4F9F4F6093AB
:101C7000B4037093B5038093B6039093B703C11177
:101C800008C063E070E08BE196E00E94FA0D892BBA
:101C900029F0C091B8038C2FCF91089581E08093F3
:101CA000B803F7CF9091D503943031F58093C503F5
:101CB0007093C7036093C60382E08093E9008FEFBF
:101CC0009091E800815095FD06C095ED9A95F1F749
:101CD00000008111F5CF8091E80085FF0DC050E034
:101CE00040E063E070E085EC93E00E94DE068091C6
:101CF000E8008E778093E8000895BC0184E00C949E
:101D0000520EBC0183E00C94520E9C0182E0809341
:101D1000E9009FEF8091E800915085FD06C085EDB8
:101D20008A95F1F700009111F5CF8091E80085FFC9
:101D30000CC050E040E066E070E0C9010E94DE06A1
:101D40008091E8008E778093E8000895CF93DF9329
:101D5000EC0181E08093E9008FEF9091E8008150E1
:101D600095FD06C095ED9A95F1F700008111F5CF2C
:101D70008091E80085FF14C050E040E068E070E02A
:101D8000CE010E94DE068091E8008E778093E80005
:101D900088E0FE01ABECB3E001900D928A95E1F78B
:101DA000DF91CF9108954F925F926F927F928F92C1
:101DB0009F92AF92BF92CF92DF92EF92FF920F93DA
:101DC0001F93CF93DF93CDB7DEB7C45ED1090FB6B3
:101DD000F894DEBF0FBECDBF509051019091AF037C
:101DE00090FF5DC08090C9029090CA028114910456
:101DF00009F068C0EFECF5E09E012F5F3F4FBE0198
:101E00006B517F4FC901A4914A2F50E0DA01AA0F0C
:101E1000BB1FA40FB51FA553BD4FCD90DD90EC9017
:101E2000D901CD92DD92ED929D0131966A177B0723
:101E300051F72091500143E0249F800D911D112402
:101E4000539A2BB1277F3BB138605FB7F894BC0140
:101E5000549E600D711D11248617970709F08BC0E1
:101E60005FBF8FE594E00197F1F700C00000CC510F
:101E7000DF4F0FB6F894DEBF0FBECDBFDF91CF911D
:101E80001F910F91FF90EF90DF90CF90BF90AF9098
:101E90009F908F907F906F905F904F90089580916A
:101EA00052012091530133E0839FF0011124E55347
:101EB000FD4F821708F096CF1182108212828F5F39
:101EC0003396F7CF90FF96CFD12CC12C6624639424
:101ED000712C53E0452E8091C80293010C2C01C057
:101EE000220F0A94EAF7822309F43CC0F601EE0FB0
:101EF000FF1FE80DF91DE590F490E114F10409F4D9
:101F000079CF45E050E0B701CE0101960E94442D03
:101F100009810F3F39F18A81800F9927991F8D34EC
:101F2000910514F08CE490E05C01AA0CBB1C8A0DB6
:101F30009B1DDC01A553BD4F5D01049D8001112453
:101F400005531D4F0A151B0520F0B5E0EB0EF11CE3
:101F5000D8CF98014D816C818B810E9497080D5FCD
:101F60001F4FF0CFEFEFCE1ADE0AF4E0CF16D10408
:101F700009F0B1CF3FCFFC014191CF01E8E03BB97F
:101F8000000000C047FF2BB9440F000000C000C094
:101F900000C02BB900C0EA9591F75ECF9F92AF9237
:101FA000BF92CF92DF92EF92FF920F931F93CF9346
:101FB000DF937C015B016A018091600201E010E027
:101FC0008A3010F40AE010E0C1E0D0E0F894B501E6
:101FD000C701F6010995982E0E94440A911004C089
:101FE00021960C171D076CF4892DDF91CF911F915D
:101FF0000F91FF90EF90DF90CF90BF90AF909F90A8
:102000000895CC9F9001CD9F300D300D112490E0AC
:1020100080E045E34A95F1F70000019682179307A7
:10202000C1F7D4CF80913502811110C08091D800C2
:1020300080618093D8008AE18A95F1F700C0809191
:10204000D90080FF0AC081E08093350281E0909141
:102050003502913009F080E0089582E080933502E6
:102060000E948E061092D503F1CF0E941210882391
:1020700051F0E091BC03F091BD03309721F0019045
:10208000F081E02D099480E00895CF92DF92EF92E5
:10209000FF926B017C010E948808B701A60188E0CD
:1020A00090E0FF90EF90DF90CF900C94892DEF920D
:1020B000FF920F931F93CF93DF9300D00F92CDB772
:1020C000DEB7F82E062F142FE22E8091AF0380FF8B
:1020D00049C0E82FE695F0E0EE54FE4F90819093D2
:1020E000C5028E7F8230D9F49E012F5F3F4F8F2D26
:1020F0000E9497088091AF0380FF11C02B81398126
:102100004A81809152019091530153E0859FF001E3
:102110001124E553FD4F891778F10E94D30E809169
:10212000B0038F1108C08091B103801304C0809167
:10213000B203811729F08091C70282608093C702A1
:10214000F092B0030093B1031093B203EE2051F06C
:102150006091AF037091B0038091B1039091B2038D
:102160000E9445100F900F900F90DF91CF911F911B
:102170000F91FF90EF9008954183308322838F5F0A
:102180003396C9CFEFEAF3E0438121E1421B08F423
:1021900040E021E0628181810C945710EFEAF3E086
:1021A000438121E1420F08F44FEF21E062818181F8
:1021B0000C945710EFEAF3E0628121E1621B08F40E
:1021C00060E021E0438181810C945710EFEAF3E055
:1021D000628121E1620F08F46FEF21E04381818188
:1021E0000C945710EFEAF3E0818121E04381628192
:1021F00088500C945710EFEAF3E0818121E043818D
:102200006281885F0C9457108091B303882319F082
:1022100081508093B3036091AF037091B0038091BC
:10222000B1039091B2030C9445108091B3038330B5
:1022300018F48F5F8093B3036091AF037091B00384
:102240008091B1039091B2030C9445108091AF033B
:1022500080FF1EC0817082608093AF038091C702AF
:1022600081608093C702662351F06091AF03709143
:10227000B0038091B1039091B2030E94451020E019
:102280004091B2036091B1038091B0030C94571058
:10229000089521E030E0A90102C0440F551F8A953E
:1022A000E2F7CA012091C802662391F0822B809345
:1022B000C8028091C70280618093C7028091C602E4
:1022C000811109C08091AF0360E086950C942611BE
:1022D00080958223ECCF0895CF92DF92EF92FF9208
:1022E0006B017C0161E0C114D104E104F10409F047
:1022F0006C2D617080E00E94491160E0C114D1042E
:10230000E104F10441F0D701C601B695A795979570
:102310008795682F617081E00E94491160E0C114C7
:10232000D104E104F10459F0D701C60132E0B695B9
:10233000A795979587953A95D1F7682F617082E0B8
:102340000E94491160E0C114D104E104F10459F084
:10235000D701C60123E0B695A795979587952A954D
:10236000D1F7682F617083E00E944911C701B6015F
:10237000FF90EF90DF90CF9008958091AF03869506
:10238000815009F481E061E00C94261161E081E064
:102390000C942611EFEAF3E083E0808311828FEF43
:1023A000828383831482A5ECB2E012968C911297FB
:1023B000836012968C9360817181828193810C94E9
:1023C0004510CF9384E090E00E94632DC82F82E2F5
:1023D00090E00E94632D982F8C2FCF910895CF937A
:1023E000DF93CDB7DEB729970FB6F894DEBF0FBEE7
:1023F000CDBF85E0EFEAF3E0DE01119601900D928A
:102400008A95E1F78091C5029091C602A091C7021A
:10241000B091C8028E839F83A887B9872885409191
:102420005C0250915D0260915E0270915F023FB765
:10243000F8948091C1039091C203A091C303B0911D
:10244000C4033FBF841B950BA60BB70B84369105C5
:10245000A105B10510F4222319F180913501909165
:102460003601895B9D4F4091340150E04A3051055F
:1024700010F049E050E0BE016F5F7F4F0E945A2D7F
:1024800085E090E00E94562C892BB1F40E941B0835
:1024900060935C0270935D0280935E0290935F0292
:1024A0001092C70281E029960FB6F894DEBF0FBEE6
:1024B000CDBFDF91CF91089580E0F5CF0F931F93AB
:1024C000CF93DF9300D000D0CDB7DEB74091430269
:1024D0005091440260914502709146022FB7F894E2
:1024E0008091C1039091C203A091C303B091C40332
:1024F0002FBF841B950BA60BB70B84369105A10546
:10250000B10588F10E941210882379F10E941B08FE
:102510006E5F7F4F8F4F9F4F69837A838B839C833E
:1025200080912B0190912C01895B9D4F40912A0154
:1025300050E04530510510F044E050E0BE016F5FBF
:102540007F4F0E945A2D84E090E00E94562C892BE8
:10255000D9F40E941B086093430270934402809355
:1025600045029093460281E010C00E941B08009132
:102570006102109162022091630230916402600F47
:10258000711F821F931FC4CF80E00F900F900F9098
:102590000F90DF91CF911F910F9108956F927F92CD
:1025A0008F929F92AF92BF92CF92DF92EF92FF9263
:1025B0000F931F93CF93DF930F92CDB7DEB7862E85
:1025C0005A016901682E880F7708C3010E94562CB2
:1025D000892B09F088C08AE0869DF001879DF00D67
:1025E0001124E050FF4F458150E04115510511F095
:1025F00041E050E08AE0869DF001879DF00D1124B6
:10260000E050FF4F66817781695B7D4FCE01019677
:102610000E945A2DF50140815181628173812FB74B
:10262000F8948091C1039091C203A091C303B0912B
:10263000C4032FBF841B950BA60BB70B84369105E3
:10264000A105B10540F4B701C8010E946D08998148
:10265000891709F44FC0082C000C9908C4010E9486
:10266000562C892B91F0B12C8B2D0F90DF91CF91AF
:102670001F910F91FF90EF90DF90CF90BF90AF90A0
:102680009F908F907F906F9008958AE0889DF001D1
:10269000899DF00D1124E050FF4F458150E0E41674
:1026A000F50608F4A7018AE0889DF001899DF00DE8
:1026B0001124E050FF4F66817781695B7D4FC60131
:1026C0000E945A2DB701C8010E946D089981891393
:1026D000CACF0E941B08F5016083718382839383B4
:1026E000BB24B394C1CFB12CA701B801C6010E948D
:1026F0005A2DBACFBB24B394F7CFCF92DF92EF928B
:10270000FF920F931F93CF93DF9300D000D00F92CF
:10271000CDB7DEB76B0185E0E82EF12C08E412E0BE
:102720009E012F5F3F4F4BE352E061E080E00E944B
:10273000CE12882349F095E0FE013196A6E3B2E07F
:1027400001900D929A95E1F795E0E6E3F2E0D6016B
:1027500001900D929A95E1F70F900F900F900F90C6
:102760000F90DF91CF911F910F91FF90EF90DF902D
:10277000CF90089569EE7EEF90E080E00E94952D65
:1027800060E082E090E00E94772D60E083E090E0DE
:102790000E94772D109228021092290210922A028C
:1027A00010922B0260E084E090E00E94772D60E0C0
:1027B00082E290E00E94772D60E085E090E00E9448
:1027C000772D60E086E090E00E94772D6FEF87E044
:1027D00090E00E94772D40E050E0BA0188E090E060
:1027E0000E94892D60E08DE090E00E94772D40E00E
:1027F00050E0BA0188E190E00E94892D60E087E115
:1028000090E00E94772D40E050E0BA018CE190E02A
:102810000E94892D70E060E080E290E00E94952D9A
:1028200040E050E0BA0188E190E00E94892D40E04C
:1028300050E0BA018FE090E00E94892D40E050E026
:10284000BA0183E190E00C94892D1F920F920FB68C
:102850000F9211242F933F934F935F936F937F9326
:102860008F939F93AF93BF93EF93FF938091E1007A
:1028700082FF09C08091E20082FF05C08091E100E3
:102880008B7F8093E1008091DA0080FF24C08091EB
:10289000D80080FF20C08091DA008E7F8093DA001C
:1028A0008091D90080FF9BC080E189BD82E189BD14
:1028B00009B400FEFDCF81E08093D5038091C80369
:1028C000811109C00E948E060E9459078091E20082
:1028D00084608093E2008091E10080FF17C08091C6
:1028E000E20080FF13C08091E2008E7F8093E200BF
:1028F0008091E20080618093E2008091D800806244
:102900008093D80019BC85E08093D5038091E100C5
:1029100084FF29C08091E20084FF25C080E189BD49
:1029200082E189BD89B5982F917080FFFBCF80919E
:10293000D8008F7D8093D8008091E1008F7E8093B6
:10294000E1008091E2008F7E8093E2008091E200BE
:1029500081608093E2008091D603882309F445C00A
:1029600084E08093D5038091E10083FF27C08091AC
:10297000E20083FF23C08091E100877F8093E10024
:1029800082E08093D5031092D6038091E1008E7F80
:102990008093E1008091E2008E7F8093E20080913D
:1029A000E20080618093E20042E060E080E00E940B
:1029B00027078091F00088608093F000FF91EF91ED
:1029C000BF91AF919F918F917F916F915F914F9147
:1029D0003F912F910F900FBE0F901F90189519BC2B
:1029E0001092D5031092C80376CF8091E30087FD43
:1029F00093E09093D503B7CF78941F921FB61F92A0
:102A000011248F939F93AF93BF938091C1039091B3
:102A1000C203A091C303B091C4030196A11DB11DCF
:102A20008093C1039093C203A093C303B093C403E4
:102A3000BF91AF919F918F911F901FBE1F901895CE
:102A40009C014FB7F8948091C1039091C203A0916B
:102A5000C303B091C4034FBF821B930B08952FB7DC
:102A6000F8948091C1039091C203A091C303B091E7
:102A7000C4032FBF08950E942F159C019091C1029D
:102A80008091C202982B21F03093BE022093BD02A8
:102A90009091C3028091C402982B21F03093BC0224
:102AA0002093BB02E091BC03F091BD03309749F045
:102AB00082E08093BF020480F581E02D8FEB92E0ED
:102AC0000994089590E080E00E94570890E080E02B
:102AD0000E94410810922602109225020E94110CB9
:102AE00086E0EFEBF2E0DF011D928A95E9F71092A4
:102AF000B9021092B8021092BA020C943B150E94CF
:102B00006C11609384027093850280938602909387
:102B100087020C9462150F931F9341E050E060E030
:102B200070E004C0440F551F661F771F8A95D2F7C7
:102B3000CB01BA01609570958095909500918402C3
:102B400010918502209186023091870260237123C3
:102B5000822393231F910F910C947F150F931F9342
:102B600041E050E060E070E004C0440F551F661F74
:102B7000771F8A95D2F78091840290918502A09167
:102B80008602B09187028A019B01082B192B2A2B00
:102B90003B2BC901B8011F910F910C947F156093D5
:102BA00028027093290280932A0290932B020C949E
:102BB000621510922702E8EBF1E086E0DF011D923A
:102BC0008A95E9F70C9462151F93CF93DF93CDB7E5
:102BD000DEB7AA970FB6F894DEBF0FBECDBF87ED64
:102BE00093E02091F100FC012193CF01F3E08F3DB0
:102BF0009F07B9F78091D803833009F46FC0B8F408
:102C0000813009F446C0823009F4B0C08091E800F8
:102C100083FF7BC28091D7039091D8039A3008F04C
:102C200074C2E92FF0E0E554F24D0C943E2D8A3049
:102C300009F48BC08B3009F46EC0893039F780916C
:102C4000D703813219F78091DB039091DC0302975F
:102C5000E8F68091E800877F8093E8008091E800A3
:102C600082FF37C09091F3008091F200029729F41F
:102C70008091F1008B7F813021F48091F10080936D
:102C8000CA038091E8008B778093E8000E940807D0
:102C9000BDCF8091D703813A09F0B8CF8091E80089
:102CA000877F8093E8008091DB039091DC03892B80
:102CB00061F468E08BEC93E070E00E94BA078091C9
:102CC000E8008B778093E800A1CF60E090E080E09F
:102CD000F3CF8091D5038111C1CF98CF8091D703D5
:102CE000813A09F093CF8091DB039091DC03892B2B
:102CF00009F08CCF8091E800877F8093E800809175
:102D0000E80080FFFCCF809155018093F100809115
:102D1000E8008E77B9CF8091D703813209F076CF62
:102D20008091DB039091DC03892B09F06FCF8091B8
:102D3000E800877F8093E8000E9408078091D9030C
:102D4000809355010E94D91561CF8091D7038132BC
:102D500009F05CCF8091E800877F8093E8000E94B3
:102D600008078091DA038093C90350CF8091D7037D
:102D7000813A09F04BCF8091E800877F8093E8008B
:102D80008091E80080FFFCCF8091C903BECF8038DE
:102D900099F0823809F0B9C18091DB038F708730D8
:102DA00008F0B3C18093E9008091EB0085FB882790
:102DB00080F91092E90006C08091D3039091D4036A
:102DC000911182609091E800977F9093E800809342
:102DD000F1001092F1008091E8008E7792C1882373
:102DE00009F480C1823009F090C18091D90381112A
:102DF00083C18091DB038F702FEF280F263008F0FE
:102E000084C18093E9002091EB0020FF75C19330CD
:102E100031F48091EB0080628093EB006DC1909162
:102E2000EB0090619093EB0021E030E001C0220FB5
:102E30008A95EAF72093EA001092EA008091EB006D
:102E40008860EACF811161C11091D9031F77809109
:102E5000E3008078812B8093E3008091E800877FF6
:102E60008093E8000E9408078091E80080FFFCCF73
:102E70008091E30080688093E30082E0111183E099
:102E80008093D50342C18058823008F03EC18091C2
:102E9000D9039091DA038C3D23E09207A1F583E0FA
:102EA0008A838AE289834FB7F894DE01139620E083
:102EB0003EE051E2E32FF0E050935700E49120FF11
:102EC00003C0E295EF703F5FEF708E2F90E0EA3025
:102ED000C0F0C7968D939D932F5F243159F74FBF54
:102EE0008091E800877F8093E8006AE270E0CE017D
:102EF00001960E94BA078091E8008B778093E800E2
:102F000004C1C096E7CF4091DB035091DC03292F29
:102F100033272330310509F444C078F521303105D9
:102F200009F46FC08BE390E0E9EDF6E02230310563
:102F300009F0EBC02091E800277F2093E800209162
:102F4000DD033091DE038217930708F49C0140E013
:102F50002115310509F064C0411162C08091E8007B
:102F600082FDC9CF8091D503882329F2853019F2DB
:102F70008091E80083FFF2CFBECF21323105A9F165
:102F80002232310509F0C1C04115510509F443C091
:102F90004130510509F0B9C08BE790E0EEE1F6E071
:102FA000C9CF992781309105C1F0009759F0029758
:102FB00009F0ABC0E6E2F7E0E4918E2F90E0E6E2A4
:102FC000F7E007C0E6E4F7E0E4918E2F90E0E6E456
:102FD000F7E0009709F499C0ADCFE2E3F7E0E491A0
:102FE0008E2F90E0E2E3F7E0F4CF4115510571F048
:102FF0004130510509F089C089E090E0E4E0F7E054
:1030000099CF82E190E0E4E1F7E094CF89E090E0AD
:10301000EBEEF6E08FCF80E490E0E9E9F6E08ACFCE
:103020008091D503882309F466CF853009F463CFF6
:103030008091E80083FD5FCF8091E80082FD8ECF14
:103040008091E80080FF84CF9091F3008091F2009E
:103050002115310519F08830910550F041E00897AD
:1030600009F040E08091E8008E778093E80070CF0F
:1030700044914093F1003196215031090196E8CFF7
:10308000803809F042C08091E800877F8093E80093
:103090008091D6038093F1009ECE811136C01091AD
:1030A000D903123090F58091E800877F8093E80083
:1030B0001093D6030E940807112311F084E005C085
:1030C0008091E30087FDFACF81E08093D50342E051
:1030D00061EC81E00E94270742E261EC82E00E94FD
:1030E000270713C08091D903813079F481E09330B0
:1030F00009F080E08093D4031092E9008091E80009
:10310000877F8093E8000E9408078091E80083FF92
:103110000AC08091E800877F8093E8008091EB00EF
:1031200080628093EB00AA960FB6F894DEBF0FBEC4
:10313000CDBFDF91CF911F9108951F920F920FB6CF
:103140000F9211242F933F934F935F936F937F932D
:103150008F939F93AF93BF93CF93DF93EF93FF939F
:10316000D091E900DF708091EC00C82FC17080FD24
:10317000C0E81092E9008091F000877F8093F00012
:1031800078940E94E4151092E9008091F000886024
:103190008093F000CD2BCF70C093E900FF91EF91A9
:1031A000DF91CF91BF91AF919F918F917F916F915F
:1031B0005F914F913F912F910F900FBE0F901F90F5
:1031C00018958823F1F19CEF980F913A78F4E8EB89
:1031D000F1E02EEB31E09191891303C0DF011197EB
:1031E0001C922E173F07B9F70C94110C90E2980F20
:1031F000983088F4877021E030E0A90102C0440FC4
:10320000551F8A95E2F7CA0180959091270289237C
:1032100080932702E9CF9BE5980F933020F490E04C
:1032200080E00C94570898E5980F973120F490E0CF
:1032300080E00C9441088D3E20F00E942D090C94F2
:103240003B150895CF93C82F882309F456C08CEFFF
:103250008C0F813AF8F4E8EBF1E08EEB91E0DF01BE
:103260002D91C21759F08A179B07D1F76C2F86EB67
:1032700091E00E942708CF910C94110C2191C21368
:1032800003C0DF0111971C928E179F07B9F70E94A8
:10329000110CECCF80E28C0F883068F4C77021E00D
:1032A00030E001C0220FCA95EAF780912702822BF5
:1032B00080932702E0CFEBE5EC0FE33040F4F0E041
:1032C000EA5AFE4F808190E0CF910C945708E8E5D0
:1032D000EC0FE73150F4F0E0EE0FFF1FE75AFE4F1E
:1032E00080819181CF910C944108CD3E30F08C2F9C
:1032F0000E94E809CF910C943B15CF9108951F933C
:10330000CF93DF93182FEB010E942219209731F4FD
:10331000812FDF91CF911F910C94E1188FE99FE0ED
:103320000197F1F700C000002197F0CF0F931F9392
:10333000CF93DF93C62FD42F022FFC0182818823E5
:10334000A1F06093E1030E942F159093E003809316
:10335000DF03C77081E001C0880FCA95EAF7DF91EB
:10336000CF911F910F910C942A0D8091E103681366
:1033700037C08091DF039091E0030E942015883CC4
:10338000910570F510E21D0FCD17B9F080E28C0F9A
:10339000883040F4C77081E001C0880FCA95EAF711
:1033A0000E941F0D183048F481E09D2F977001C0D6
:1033B000880F9A95EAF70E942A0D70E060E0802F4E
:1033C0000E947F19183098F4D77081E001C0880FEF
:1033D000DA95EAF7DF91CF911F910F910C941F0DB1
:1033E000C77081E001C0880FCA95EAF7F3CFDF917B
:1033F000CF911F910F91089581110CC070E0662349
:1034000031F060E089EF0E947F1981E0089560E06B
:103410008AEFF9CF8130C9F770E0662319F060E0D8
:1034200089EAF1CF60E08AEAEECFCF92DF92EF92A5
:10343000FF920F931F93CF93DF930F92CDB7DEB719
:10344000EE24E394F12C0EE412E09E012F5F3F4F37
:103450004FE352E063E082E00E94CE12082F8823FF
:1034600021F1C09074028C2D90E09C0121583D4FB9
:1034700079011981F9018081181BD12E80E00AC0E1
:10348000DA94F70180818F5F808360E08C2D0E9449
:10349000FC19802F1D14A4F3912F17FD90E0191B28
:1034A00011110EC081110E940F0C802F0F90DF911F
:1034B000CF911F910F91FF90EF90DF90CF900895E3
:1034C0001F5FF70180818150808361E08C2D0E9415
:1034D000FC19802FE5CF8F929F92AF92BF92CF922F
:1034E000DF92EF92FF920F931F93CF93DF9300D061
:1034F00000D00F92CDB7DEB77C01FC0183819481AF
:10350000892B39F01081D180812F8D218F3F09F0D7
:1035100069C40F900F900F900F900F90DF91CF9193
:103520001F910F91FF90EF90DF90CF90BF90AF90E1
:103530009F908F9008950E94320C082F682F8981E8
:103540009A810E94CC0CE12FF0E027E0D29EE00DA2
:10355000F11D112446E4049FE00DF11D1124EE0F2E
:10356000FF1FE75EFD4F05911491043F5CE51507D1
:1035700009F496C028F5093D9CE5190709F48CC0AB
:103580000A3DECE51E0709F497C0083DFCE51F075E
:1035900029F526E241EE61EEC7010F900F900F90E2
:1035A0000F900F90DF91CF911F910F91FF90EF90AF
:1035B000DF90CF90BF90AF909F908F900C94961912
:1035C000063F2CE5120709F473C008F46DC027E22A
:1035D00045EE66EE073F5CE51507F1F2F7019281D3
:1035E000992309F410C41092E1030430FDE51F078C
:1035F00008F065C00B3F2CE5120738F49801225003
:103600003C452431310508F05FC00E94E1119093E0
:1036100066028093650200315CE5150709F436C146
:1036200008F0AEC008309CE5190709F41DC108F088
:1036300082C00430FCE51F0709F404C108F06BC028
:1036400002304CE5140709F4F7C0809165028260EE
:1036500003301C4509F4F3C06091650210916602C5
:1036600084E090E00E94772D612F82E290E00E943A
:10367000772D0F900F900F900F900F90DF91CF91BB
:103680001F910F91FF90EF90DF90CF90BF90AF9080
:103690009F908F900C94D91527E245EE65EE7CCF74
:1036A00026E241EE60EE78CF27E245EE64EE74CF7D
:1036B00026E241EE62EE70CF28E241E0EFCF023623
:1036C0004DE5140709F4A1CF0631FCE51F0709F009
:1036D000B2C3809127028A7A91E009F490E0909336
:1036E000BF0169E2811165E386EB91E00E94270842
:1036F0000F900F900F900F900F90DF91CF911F912F
:103700000F91FF90EF90DF90CF90BF90AF909F9080
:103710008F900C94110C06308CE5180709F4A0C0AA
:1037200080916502886007301C4508F488C080914C
:103730006502806284C0809165028D7F0C30ECE56B
:103740001E0709F47CC070F4809165028C600A3019
:103750002CE5120709F473C008F48AC08091650251
:103760008E7F6DC080916502877F0E305CE5150706
:1037700009F465C008F482C0809165028F7E5FC045
:103780000D3F9CE5190709F47DC068F50431FCE59F
:103790001F0709F48FC080F402314CE5140709F4C7
:1037A00079C0809165028F7B03311C4508F447C0C6
:1037B00080916502837F43C00B3F8CE5180709F4B5
:1037C00045C008F049C005311C4509F045CF80913E
:1037D000650282FB992790F921E0922790FB82F9FC
:1037E00090FB83F92CC00130FDE51F0709F458C098
:1037F00088F48091660283600F3F4CE5140749F11D
:10380000809166028D7F01151D4518F18091660239
:103810008C7F1FC003308DE5180709F45AC008F4E7
:1038200052C002361D4509F017CF90916502892FCD
:103830008F7E94FF806103C08091650281608093D8
:1038400065020ACF809165028460F9CF809166029B
:1038500081608093660200CF809166028260F9CF1A
:10386000809165028061EBCF809165028064E7CF33
:103870000E94D915809165028068E1CF8091650230
:103880008B7FDDCF809166028E7FE3CF80916502D2
:103890008F7DD5CF0E94D915809165028F77CFCFCC
:1038A00080916602982F909591708E7F892B90FB66
:1038B00081F9CFCF0E94D91590916502892F97FB8E
:1038C00087F98058BCCF61E08EE090E00E94772DB0
:1038D000C3CE60E0F9CF85E3A0C281608093AF03DF
:1038E00061E086950F900F900F900F900F90DF91F1
:1038F000CF911F910F91FF90EF90DF90CF90BF90ED
:10390000AF909F908F900C9426114DEB51E166EC97
:1039100071E10F900F900F900F900F90DF91CF916A
:103920001F910F91FF90EF90DF90CF90BF90AF90DD
:103930009F908F900C94830846EC51E16DEB71E100
:10394000E8CF42EF50E16BEF70E1E3CF42EC50E1A2
:103950006EEC70E1DECF4EEC50E162EC70E1D9CF5D
:1039600044E051E165E171E1D4CF61E081E0BACF9B
:103970000E94D9158FEF94E3ECE081509040E04035
:10398000E1F700C0000087E797E790930108809374
:10399000000888E19AE00FB6F894A895809360003B
:1039A0000FBE90936000FFCF0F900F900F900F907D
:1039B0000F90DF91CF911F910F91FF90EF90DF90CB
:1039C000CF90BF90AF909F908F900C94BA13902F90
:1039D0000E94A40CD82E48C2092F0F70907F11F0BE
:1039E0000295007F812F2223C9F0002369F090E225
:1039F000910F983010F011110BC080912702082B05
:103A0000009327020E94110C812F0E94221917C0D7
:103A100080912602082B00932602F4CF0E94E11821
:103A2000002369F00095105E183010F0B11030C01E
:103A3000809127020823009327020E94110CE8E0DE
:103A4000CE1AD108F4E0CF16D10410F40E9435103C
:103A500085E0F701DE01119601900D928A95E1F75C
:103A600089819A810E94A40C9A81E981F0E027E083
:103A7000929FE00DF11D112446E4849FE00DF11D9D
:103A80001124EE0FFF1FE75EFD4F8591949141CD0C
:103A900080912602082300932602CFCF892F8F70B2
:103AA000907F903211F08295807FF1E0BF120EC0BE
:103AB000222331F0363008F0C2CF0E942A0DBFCF4A
:103AC000353008F0BCCF0E941F0DB9CF222341F042
:103AD000332399F340FF98CF4F70F7014583EDCF23
:103AE000332389F3193349F4FFEF27EE43E0F15014
:103AF00020404040E1F700C00000812F0E94E11803
:103B00009ECF892F86958695837061F0813009F06C
:103B100096CF812F9370211102C090E080E00E9427
:103B200041088DCF812F9370211102C090E080E079
:103B30000E94570884CF812F222329F00E94E80990
:103B40000E943B157CCF0E942D09FACF892F8370EC
:103B500009F065C0211173CF812F829586958770FA
:103B6000880F880F612F6F70862E912CB12CA12C9D
:103B7000082E04C0880C991CAA1CBB1C0A94D2F7FE
:103B800040E050E0BA0114FF0FC04FE050E060E0A9
:103B900070E004C0440F551F661F771F8A95D2F747
:103BA0004095509560957095969596959370923046
:103BB00019F1D8F4009128021091290220912A02CB
:103BC00030912B02913069F0482959296A297B29C3
:103BD000CB01BA0160237123822393230E94CF1566
:103BE0002ECF802A912AA22AB32ACB01BA016829B2
:103BF00079298A299B29F2CF482959296A297B29C1
:103C0000009128021091290220912A0230912B0262
:103C1000CB01BA016027712782279327DFCF8695D2
:103C2000222311F0892F8170882309F408CF812F76
:103C3000829586958770880F880F612F6F70862E0A
:103C4000912CB12CA12C082E04C0880C991CAA1C04
:103C5000BB1C0A94D2F740E050E0BA0114FF0FC039
:103C60004FE050E060E070E004C0440F551F661F55
:103C7000771F8A95D2F740955095609570959695E7
:103C800096959370923019F1D8F4009184021091B6
:103C900085022091860230918702913069F048298F
:103CA00059296A297B29CB01BA0160237123822318
:103CB00093230E947F15C3CE802A912AA22AB32A79
:103CC000CB01BA01682979298A299B29F2CF482991
:103CD00059296A297B29009184021091850220913B
:103CE000860230918702CB01BA01602771278227B3
:103CF0009327DFCF092F0F70222329F0802F0E94F6
:103D0000AE15812FDACE812F0E941F0D802F0E94C9
:103D10008B1595CE812F51EF151709F442C051171D
:103D200058F0E0EF1E17F1F0222309F44BC03111D7
:103D30006BCE892F8F713AC0F2EF1F17D1F143EF8D
:103D40001413F2CF2223D1F1292F2F7161E070E0FB
:103D500080E090E004C0660F771F881F991F2A95A6
:103D6000D2F7A7CF2223C9F0353008F068CE292F2B
:103D70002F7161E070E080E090E004C0660F771F73
:103D8000881F991F2A95D2F700918402109185020D
:103D90002091860230918702A8CF363008F04FCEAE
:103DA000E6CF892F8F71222309F4B1CF0E94AE157F
:103DB00046CE892F8F712223C9F3A9CF60E070E02E
:103DC000CB0177CF332359F0893309F096CE5FEFDB
:103DD00087EE93E0515080409040E1F78CCE892FE0
:103DE0008F7195CF85E0DE01119601900D928A9535
:103DF000E1F7F701228189819A8121119CCB0E94F0
:103E0000A40C082FA0CB0631FCE51F0709F055C014
:103E10008091BF0181115FCD89E2E8EBF1E02EEBEB
:103E200031E09191891303C0DF0111971C922E1785
:103E30003F07B9F75DCC01152CE5120709F498CDC1
:103E40000F3D1C4509F4B0CDF70110810181812F90
:103E5000992309F4BCCD902F0E94320CD82E682FE4
:103E6000812F902F0E94CC0CE12FF0E027E0029FE1
:103E7000E00DF11D112446E4D49EE00DF11D112446
:103E8000EE0FFF1FE75EFD4F859194910E94A00AFF
:103E9000182FB82EF70122814581342F32953F70BB
:103EA000892F82958F70C82ED12C8C3008F0C7CD09
:103EB000F601EB53F24D0C943E2D80912702827255
:103EC0000A3C5CE5150709F441CD08F059C0063CF1
:103ED000FCE51F0709F435CDE8F5043C4CE5140773
:103EE00009F413CD08F028CD033C1C4509F0ACCFF4
:103EF0008091AF0380FFF1CC8E7F8093AF03609100
:103F0000AF037091B0038091B1039091B2030E940E
:103F100045108091C70281608093C7022FEF40E770
:103F200052E0215040405040E1F700C000000F90A7
:103F30000F900F900F900F90DF91CF911F910F91E5
:103F4000FF90EF90DF90CF90BF90AF909F908F90B9
:103F50000C94D30E4AED50E166EE70E1083C9CE50E
:103F6000190709F4D6CC4BEF50E162EF70E1093C40
:103F70001C4508F4CECC46EE50E16AED70E1C9CCA8
:103F80000E3CFCE51F0709F4F0CC60F40C3C4CE55A
:103F9000140709F4E5CC08F4DECC45E151E164E016
:103FA00071E1B7CC073D8CE5180708F4B2CA0E35AD
:103FB0001D4509F4AECA48CF1F93CF93DF9380917C
:103FC000F201807FA9F48091EF01882389F080912C
:103FD0002402D091F3016091ED017091EE01A09166
:103FE000F001B091F101C62FC72316E0D81304C029
:103FF000DF91CF911F91089590E0109711F0CF3F7E
:1040000019F401968770F2CF189F9001199F300D17
:104010001124F901EC50FE4F41814713F2CF40814A
:104020004613EFCF42814111ECCF438154814A1BAB
:104030005B0B483C510528F78091F2018F7080613D
:104040008093F201F901E750FE4F80818F7080610B
:1040500080838DEE91E00E946B1ADF91CF911F91CA
:104060000C94280CAF92BF92CF92DF92EF92FF9206
:104070000F931F93CF93DF93CDB7DEB761970FB642
:10408000F894DEBF0FBECDBF8C0185E0F801DE01E4
:104090001D9601900D928A95E1F7F801E2808DEE70
:1040A000A82E81E0B82E6091F0017091F1016115A8
:1040B000710509F432C19091ED014091EE01892F13
:1040C00084238F3F09F429C120813181C380D480AA
:1040D000F090EF01F601E61BF70BFF2009F4E8C0B2
:1040E0008091F201582F507FE83CF10508F0ABC0F9
:1040F000511177C0FE2C431321C092131FC0E11051
:104100001DC08F7080618093F201C5010E946B1AFF
:104110008091F201F80185838F2D61960FB6F89496
:10412000DEBF0FBECDBFDF91CF911F910F91FF90EA
:10413000EF90DF90CF90BF90AF900895CD2829F0F9
:10414000822F83238F3F09F003C180E0F82FF170A5
:10415000DF2E80FF3CC0809124024091F30156E0A5
:10416000841315C02D873E878D859E850E94890CFE
:10417000292F22952F702230F0F0243018F59F70EF
:10418000F1F0F8019581907FD1F4D12C1EC090E020
:10419000589FF001599FF00D1124EC50FE4F6181A2
:1041A000361306C06081261303C06281E6120FC079
:1041B00001968770D5CF9F7011F0882331F3805E10
:1041C000883018F3C8010E946B1AFD2CA5CFEE2091
:1041D00009F4A2CF8091F20181608093F201F12C69
:1041E0009BCF431306C0921304C0F801EE2009F4DC
:1041F00079C0C8010E94F80C882309F1EE20F9F07B
:104200008091F201803270F02091ED013091EE0149
:1042100038872F831986DB86CA868C87CE0107965E
:104220000E946B1A86E0F801ADEEB1E001900D92AC
:104230008A95E1F70E94DC1FFF24F3946DCFC8013B
:104240000E946B1AF9CF51110AC08DEE91E00E94C5
:104250006B1A86E0F50111928A95E9F7C0CF4313F6
:104260000FC092130DC0E1100BC0F8018583C80187
:104270000E946B1A86E0F50111928A95E9F74CCFFE
:10428000C8010E94F80C8823D1F2EE20C1F280917F
:10429000F201803238F22091ED013091EE013A8343
:1042A00029831B82DD82CC828E83CE010196B8CF1A
:1042B000E83CF105F8F6FE2CEE2009F243131FC08E
:1042C00092131DC08091F20180FD10C0982F907F45
:1042D00069F0F8018583903F31F0982F907F905FCF
:1042E0008F70892B8583C8010E946B1A86E0F801C4
:1042F000ADEEB1E001900D928A95E1F70DCFC801C6
:104300000E94F80C81118ECF8091F2018160809320
:10431000F201C8010E946B1AFFCEEE2009F48FCF84
:10432000C8010E94F80CF82E882309F488CF86E093
:10433000F801ADEEB1E001900D928A95E1F7809120
:10434000ED019091EE010E94890C0E94DC1FE4CEE9
:1043500081E08E25FBCE1F93CF93DF93CDB7DEB7E1
:1043600067970FB6F894DEBF0FBECDBF4B8B5C8B4B
:104370006D8B7E8B8F8B6111109226021A8A198A9F
:1043800085E0FE017396DE011D9601900D928A95DF
:10439000E1F786E0FE013D96DE01179601900D9251
:1043A0008A95E1F7CE0107960E943220882389F092
:1043B00016E0809124029091F301891349C0679619
:1043C0000FB6F894DEBF0FBECDBFDF91CF911F9126
:1043D000089586E0FE013796DE01119601900D9258
:1043E0008A95E1F78A859B85892B11F38F819885C2
:1043F00089238F3FE9F22091F30130E0C901019652
:1044000087709927409124024817190671F40E9479
:10441000D9151092F3011092240286E0EDEEF1E03E
:10442000DF011D928A95E9F7C3CF96E0929FD001F4
:10443000939FB00D1124AC50BE4FFE0131960190F8
:104440000D929A95E1F78093F3010E94280CB0CF6A
:10445000819FC00111248C509E4F0E9432208823DE
:1044600009F4ADCF8091240290E0019687709927DE
:10447000809324029ECF9F92AF92BF92CF92DF9201
:10448000EF92FF920F931F93CF93DF93CDB7DEB7D9
:104490002F970FB6F894DEBF0FBECDBF8E010F5F12
:1044A0001F4F8AE0D8011D928A95E9F789E8C82E46
:1044B00081E0D82EF12CE12CAA24A394B12CF60192
:1044C00081916F018F3F09F44AC0F894E82FE2957B
:1044D000EF70F0E021A18F70A50102C0440F551FBD
:1044E0008A95E2F7CA01922F982B91A392A1809509
:1044F000892382A30E94440A00C0E3E9F1E030E08E
:1045000020E0912C41914F3F09F46DC0A42FA2955A
:10451000AF70B0E090968C9190E04F7002C095958E
:1045200087954A95E2F780FD5EC08A2D022E01C074
:10453000880F0A94EAF7982A2F5F3F4F27303105FA
:1045400009F7F601319780818F3F11F00E94460AEA
:1045500050EA5A95F1F7F801EE0DFF1D90828FEFAA
:10456000E81AF80A95E0E916F10409F0A8CF4AE044
:1045700050E0B80187E692E00E944D2D7C01892B26
:1045800041F08AE0F801A7E6B2E001900D928A9529
:10459000E1F710917202E114F10439F181E08093A6
:1045A0002E020E942F1590932D0280932C02809151
:1045B0002C0290912D020E942015059778F0A7E615
:1045C000B2E0E12FF0E0EB58FD4F8CE692E02D9148
:1045D00021938A179B07D9F710922E02EF2849F0F2
:1045E00081E090E05EC080E0A6CF80912E02811134
:1045F000DECF0E941210D82EE0917202DE011B96CF
:104600007D01882309F485C085E01D928A95E9F72C
:104610000E2F10E00B581D4F809160028A3008F079
:1046200052C04DE753E1B701C8010E94CE0F882365
:1046300009F45EC045E15AE1B701C8010E94CE0FFE
:10464000882309F455C04EE552E1B701C8010E9424
:10465000CE0F882309F44CC04FEE51E1B701C801D9
:104660000E94CE0F882309F443C010926002E091AB
:104670007102F0E0BF016B587D4FD7019E01205FB2
:104680003F4F80E0FB014191BF019D91491731F0FF
:10469000AF0141505109FA0190838D2D2A173B0734
:1046A00089F72F960FB6F894DEBF0FBECDBFDF910E
:1046B000CF911F910F91FF90EF90DF90CF90BF901F
:1046C000AF909F90089580912F02909130020E94A8
:1046D0002015843F914008F0A4CFE0917102F0E0F2
:1046E000EB58FD4F1082118212821382148278CF10
:1046F000809160028F3F31F08F5F809360028A303B
:1047000008F4B5CF0E942F159093300280932F02AA
:10471000E4CFF0E0EB58FD4FF89485E0A8E4B2E078
:1047200001900D928A95E1F765E070E088E492E0EF
:104730000E946D08809347020E94440AF894E09119
:104740008202F0E0E158FD4F80818B8780934E021A
:1047500061E070E0C7010E946D0880934D020E94E5
:10476000440AF894C0904F02D0905002E090510259
:10477000F09052028091310290913202A091330266
:10478000B0913402C816D906EA06FB06D1F0C092F1
:104790003102D0923202E0923302F09234020E944F
:1047A000121081110EC00E941B08C61AD70AE80A0F
:1047B000F90AC0926102D0926202E0926302F09222
:1047C00064020E94440AF89480915A02882321F1DD
:1047D00084FF04C090915B029093C80280FF0DC0DB
:1047E000809153029091AF0380FF1AC09160909323
:1047F000AF0360E086950E94261180915A0281FFE6
:1048000009C020E040915602609155028091540207
:104810000E94571010925A020E94440A80E041CF31
:104820009E7F9093AF038091C70281608093C702FF
:10483000FFEF20E742E0F15020404040E1F700C0A8
:1048400000000E94D30ED9CF1F921FB61F921124D1
:104850008F939F93AF93BF938091C003811113C037
:104860008091C1039091C203A091C303B091C4038E
:104870004196A11DB11D8093C1039093C203A093E3
:10488000C303B093C403BF91AF919F918F911F90C9
:104890001FBE1F901895CDB7DEB762970FB6F8947C
:1048A000DEBF0FBECDBF84B7877F84BF0FB6F8943D
:1048B000A8958091600088618093600010926000EC
:1048C0000FBE80E890E00FB6F8948093610090935B
:1048D00061000FBE85B7806885BF85B7806885BFDA
:1048E00082E49AE09093B5018093B4010E948E0611
:1048F0000E9459078091E20084608093E2007894DE
:104900008091D5038823A1F01091E9001F70909148
:10491000EC00892F817090FD80E8182B1092E9003F
:104920008091E80083FD0E94E4151F701093E90058
:1049300082E084BD93E095BD9AEF97BD80936E00B1
:10494000109261021092620210926302109264024D
:104950002198299A259A2D9825E02A95F1F70000AB
:1049600083B18695817025982D9A30EA3A95F1F7B2
:1049700080933C0180913C01882309F429C3109263
:10498000500184E2809351010E94121081110E9413
:10499000492B80913C0180913C0195E0811190E090
:1049A0009093720285E0891B8093710209E811E0FF
:1049B0009EE8E92E91E0F92ED8018D918D018F3F6F
:1049C00011F00E94460AE016F106B1F703E911E082
:1049D0008AE9E82E81E0F82EF80181918F018F3F5E
:1049E00011F00E94460AE016F106B1F7E7E6F2E0A0
:1049F00081E792E0A5E7B2E011921D928E179F0722
:104A0000D9F790E080E00E94712D893E9E4F11F011
:104A10000E94BA1382E090E00E94632D8093AD0261
:104A20000E94E111909366028093650283E090E01A
:104A30000E94632D682F70E090E080E00E94CF1507
:104A40006091840270918502809186029091870224
:104A50000E946C110E941210811102C00E944C2B06
:104A60000E941210882309F4B8C283E08093A80240
:104A700080FDB5C280E88093E2030E94E1296DE0E9
:104A800070E08CE594E00E94FA0D892BE9F58091A5
:104A9000A80263E070E081FDA4C289E594E00E9471
:104AA000FA0D892B89F56DE070E089E494E00E94AD
:104AB000FA0D892B49F50E941B0868517C4F8F4FD6
:104AC0009F4F6093B4037093B5038093B6039093A4
:104AD000B703E5EEF3E080E092E0DF019C011D9278
:104AE00021503040E1F7F093EC05E093EB058FEFB8
:104AF0009FEF9093E4038093E30381E08093B903F5
:104B00008093B8031092A90280917302811139C079
:104B100090E080E00E94712D893E9E4F21F00E941E
:104B2000BA130E94CA1188E090E00E946B2D609336
:104B3000AF037093B0038093B1039093B20380915D
:104B4000C70283608093C7026E7F71F40E94CA110E
:104B500088E090E00E946B2D6093AF037093B003E8
:104B60008093B1039093B2030E9488088091AF03B1
:104B700080FF04C060E086950E94261181E080934A
:104B8000730280913C01811106C086E38093480145
:104B900086E68093470120914801A22FA295AF702D
:104BA000B0E091963C9191972F7081E090E0BC012C
:104BB000022E01C0660F0A94EAF7462F4095432360
:104BC00091964C93919792963C919297362B929610
:104BD0003C93929740914701E42FE295EF70F0E00B
:104BE00031A14F70042E01C0880F0A94EAF7982F64
:104BF0009095932391A392A1892B82A390968C9157
:104C000090E002C0959587952A95E2F7817020A1E2
:104C100030E002C0359527954A95E2F792E020FFF3
:104C200090E0892B8093830290913C0181E098274A
:104C300090938202891B8093740289E694E090939A
:104C4000CA028093C9028DE391E09093BD038093E3
:104C5000BC0300E4602E8091D50300E112E18530B1
:104C600009F4F9C10E943B22E82E81110E941B0821
:104C7000EEEAF2E0A5E7B2E010E000E0B02EDD9051
:104C800081918D1509F4F6C18D25C12CFF24F39473
:104C90009F2D982309F4E9C10E941210882399F0EE
:104CA000CF82B886DF2081E009F480E089870E9406
:104CB0002F158160782F9B878A874F81588569855A
:104CC0008B850E94AB21F801E255FD4F8081F826CB
:104CD000F08280918302E82FEE0FEE0F9091480151
:104CE000A92FA295AF70B0E090962C9130E09F7004
:104CF00002C0359527959A95E2F721703327909158
:104D00004701A92FA295AF70B0E090964C9150E06A
:104D10009F7002C0559547959A95E2F7CA01817038
:104D2000992740FF02C082E090E0822B8E2B809377
:104D30008302109182028F70E82FF0E0E656FE4F5A
:104D4000808190918102890F80938102F12C8230C1
:104D50006CF0E12FF0E0E158FD4F80818F5F8083A0
:104D600060E0812F0E94FC19FF24F394809181025E
:104D70008F3F6CF4E12FF0E0E158FD4F80818150CE
:104D8000808361E0812F0E94FC19FF24F3948091BD
:104D90008102082E000C990B62E070E00E942A2D1F
:104DA00080938102F1100E940F0C8091B903882337
:104DB000B1F18091AA029091AB020E942015C29796
:104DC00008F06FC12091E3033091E4032115310510
:104DD00009F0F4C18091B803882309F10E941B08EF
:104DE0000091B4031091B5032091B6033091B7033D
:104DF000601B710B820B930B6F3F7F4F8F4F9F4751
:104E000070F48091B903882351F063E070E08CEC7A
:104E100094E00E94FA0D892B11F41092B803E1106E
:104E200001C0F1100E942A0E86E0EFEBF2E0DE01F5
:104E3000119601900D928A95E1F7F090C102E090F1
:104E4000C2021091C3020091C4021092C1021092DA
:104E5000C2021092C3021092C4028F2D8E2909F44F
:104E600048C08091BD029091BE020E9420159C0115
:104E70009091B902992309F49FC223333105C8F1F7
:104E80009F3F19F09F5F9093B902FF2059F00E9455
:104E9000C8099FEF1F140CF491E0899F802D112405
:104EA0008093C102EE2059F00E94C8099FEF1E14A2
:104EB0000CF491E0899F802D11248093C2023091DF
:104EC000C1023323B1F02091C202222391F045EBBD
:104ED0003403C0011124992309F443C29093C10201
:104EE00045EB240390011124332309F43EC230938F
:104EF000C202812F802B09F448C08091BB0290919F
:104F0000BC020E9420159C019091B802992309F4DB
:104F10004EC225363105C8F19F3F19F09F5F90932F
:104F2000B802112359F00E94A6099FEF11160CF444
:104F300091E0899F802D11248093C302002359F0B2
:104F40000E94A6099FEF10160CF491E0899F802D16
:104F500011248093C4023091C3023323B1F0209115
:104F6000C402222391F045EB3403C001112499239C
:104F700009F4FFC19093C30245EB2403900111246F
:104F8000332309F4FAC13093C4028091C102909195
:104F9000C202892B9091C302892B9091C402892B64
:104FA00011F00E943B1586E0FE013196AFEBB2E0B6
:104FB00001900D928A95E1F70E9435109091AC0214
:104FC000891709F448CE0E9435108093AC0243CE75
:104FD00084E28093500188E2D5CC80E047CD80E226
:104FE0004ACD86E594E05BCD8091D503843019F1FC
:104FF0001092C00388E190E00FB6F894A8958093D2
:1050000060000FBE6092600083B7817F846083BFC1
:1050100083B7816083BF7894889583B78E7F83BF81
:105020000FB6F894A8958091600088618093600025
:10503000109260000FBE8091D403882361F00E941B
:105040003B22E5E7F2E0819181119BC1AFE7B2E03D
:10505000AE17BF07C1F78091D503853009F4C4CFDF
:105060000E94D9150E943510FDCDC394FF0C27E096
:10507000C2120ECE0F5F1F4F0A30110509F0FECD90
:105080008FEF8C878D871E860E942F158160782F69
:10509000988B8F874C855D856E8588890E94AB21B2
:1050A00018CE0E942F159093AB028093AA0285EE32
:1050B00093E09093EC058093EB050E9412108823F7
:1050C00009F46DC08BEC94E00E94F50D8AEC94E03D
:1050D0000E94F50D84EC94E00E94F50D409184024D
:1050E000509185026091860270918702CB01AA27B8
:1050F000BB270097A105B10509F447C0AC01BD016C
:1051000080E1052F162F272F3327011511052105C3
:10511000310519F0885FB901A8018A019B01A4E05B
:105120003695279517950795AA95D1F7011511057D
:105130002105310519F08C5FB901A8018A019B0195
:10514000F2E03695279517950795FA95D1F7011551
:1051500011052105310519F08E5FB901A801769579
:10516000679557954795452B462B472B09F08F5F41
:105170008130D9F0882359F08230D1F08330D9F0D2
:1051800080EB94E00E94B50D06C080E0BACF80ECC1
:1051900094E00E94F50D83E794E00E94B50D8091A4
:1051A000B903882309F416CE0DCE8CEB94E0F1CF31
:1051B00088EB94E0EECF84EB94E0EBCF8091A902F2
:1051C00061E070E0811106CE082F10E02B01082E5F
:1051D00002C0440C551C0A94E2F7A9014421552150
:1051E000452B09F448C09091A80290FD46C08295D5
:1051F000880F807680934B019801369527953695D8
:10520000279520934E01815E80934C0110924F01AF
:1052100024E630E047E050E069E471E088E70E946E
:10522000902A892B09F0D6CDA80195E0440F551F8F
:105230009A95E1F78091A80280FD2DC04B515C4FFB
:1052400004E610E020E230E060E488E70E94B72A3C
:10525000892B09F0BFCD0E942A0EC201809590953E
:105260004090E3035090E403482259225092E40313
:105270004092E303AFCD8F5FA7CF880F880F880FD1
:1052800080934B0110924E01895F80934C0183E023
:1052900080934F01BDCFE8E8F2E080E2DF011D928C
:1052A0008A95E9F7EEEAF1E0FA8BE98B0AEA11E078
:1052B00087E0A82E99249394A989BA892D91BA8B55
:1052C000A98BF80121908F01240E352E311CC101CC
:1052D0008B519C4F1C01E22FF0E0E857FD4F30E06E
:1052E00020E07A2C721AB92C022E01C0BB0C0A9451
:1052F000EAF7610190E0D6018D916D018B21672D58
:10530000691B6770862E062E000C770BB82F01C024
:10531000BB0F8A94EAF78B2E7195619571096770BE
:10532000772701C086956A95EAF7882A8081882ABE
:1053300080829F5F9830F9F62F5F3F4F319628307B
:10534000310579F6E2EBF1E029893A89E217F307B2
:1053500009F0B2CF04E610E020E230E048E852E085
:1053600073CF81E08093C102BBCD81E08093C20204
:10537000C0CD81E08093C302FFCD81E08093C40261
:1053800004CE09BD19BD09B400FEFDCF8091D8003F
:105390008F7D8093D8008091E00082608093E00050
:1053A0008091E00081FDFCCF0E94D91554CE2D32B2
:1053B000314008F0B3CDE9CD2D32314008F062CD57
:1053C00098CD1092B9008CE08093B80008959F9218
:1053D000AF92BF92CF92DF92EF92FF920F931F9303
:1053E000CF93DF93B82EEB010E942F156C01EE24B2
:1053F000E394F12CC431D10560F025E0E22EF12CCC
:10540000CF3FDC0731F0CE0164E170E00E940A2D4D
:105410007B0184EAA82E94E8992E1092BC00A092F9
:10542000BC000E942F158C018091BC0087FF0DC02D
:105430008091B900887F883039F18091B900887FE8
:10544000803111F10FEF1FEF09C00E942F15801B53
:10545000910B8E159F0540F30EEF1FEFCF3FDC073A
:10546000E1F2C6010E9420158C179D07B0F2C80119
:10547000DF91CF911F910F91FF90EF90DF90CF9030
:10548000BF90AF909F900895B092BB009092BC00E7
:105490000E942F158C018091BC0087FF0AC080916B
:1054A000B900887F883111F0803461F610E000E0A7
:1054B000DECF0E942F15801B910B8E159F0558F390
:1054C000CBCF0F931F93CF93DF93EB018093BB0060
:1054D00084E88093BC000E942F158C018091BC0051
:1054E00087FF11C02091B900287F81E090E0283229
:1054F00011F490E080E0919581959109DF91CF9131
:105500001F910F910895CF3FDC0741F30E942F15A3
:10551000801B910B8C179D0708F38EEF9FEFEECF4A
:10552000CF92DF92EF92FF920F931F93CF93DF936F
:105530006B018A017901B9010E94E729E6010C0D8E
:105540001D1DC017D10761F424E92093BC00DF9131
:10555000CF911F910F91FF90EF90DF90CF90089522
:1055600097FDF2CFB70189910E94612AEACFCF92CD
:10557000DF92EF92FF920F931F93CF93DF93C62F8B
:105580006A017901B8010E94E72997FD0CC0B801B2
:105590008C2F0E94612AE601EC0CFD1CCE15DF0564
:1055A00011F097FF0CC024E92093BC00DF91CF914C
:1055B0001F910F91FF90EF90DF90CF900895B80169
:1055C00089910E94612AEACF84E98093BC00089502
:1055D0008EE14A9B02C08150E1F74A9BFECF0895BD
:1055E0005A9880E28A95F1F75A9A0895FC013BE0B7
:1055F0003A95F1F798E020E080E031E040E14A950B
:10560000F1F7880F4A9B02C08160232742E04A9548
:10561000F1F7000040E14A95F1F7915079F790E1F8
:105620009A95F1F799B132E03A95F1F7000040E12F
:105630004A95F1F792FB992790F992272081920FD2
:1056400090830895EF92FF920F931F93CF93DF9370
:105650000F92CDB7DEB719828C017C01E60EF11CEA
:105660000E151F0561F481E09981911180E00F9082
:10567000DF91CF911F910F91FF90EF9008950E94BD
:10568000E82ACE0101960E94F62AF80181938F0143
:10569000E7CF529A5A9A089552985A9AEA9AE9E6A6
:1056A000F0E080818F7C808308956150770B91E0DA
:1056B00001C0990F6A95EAF720E031E0911108C026
:1056C000222391F05A9A80E28A95F1F75A98089528
:1056D000492F482339F05A9A232740E24A95F1F797
:1056E0009695ECCF5A98F9CF5A98EDCFFF920F9339
:1056F0001F93CF93DF93EC018C01060F111DC01790
:10570000D10731F4DF91CF911F910F91FF90089550
:10571000F9900E94F02A68E08F2D0E94552BEFCF60
:105720001F920F920FB60F921124EF92FF920F93D8
:105730001F932F933F934F935F936F937F938F9319
:105740009F93AF93BF93EF93FF93CF93DF930F920A
:10575000CDB7DEB719820E94E82ACE0101960E94D9
:10576000F62AA82FA695A695A695282F22952570EE
:105770009A2F9570290F922F937026952695920F48
:10578000982797708981982B09F075C0A73008F089
:1057900072C080E18A95F1F75A9A529AB2E0BA95AE
:1057A000F1F700C05A98EA2EF12CEAE0AE9FD00142
:1057B0001124A050BF4F1896ED91FC911997309786
:1057C000B1F0609187017091880116962D913C91FE
:1057D0001797260F371F13968D919C911497680F7A
:1057E000791F15964C91159712968C9109958AE020
:1057F0008E9DF0018F9DF00D1124E050FF4F6581CB
:10580000662351F02091870130918801868197812C
:10581000820F931F0E94762B0E94F02AF0E1FA95E6
:10582000F1F75A9852985A9A80E18A95F1F78AE0EE
:105830008E9D80018F9D100D112400501F4FD801A7
:1058400012966C911297662371F120918701309125
:10585000880113968D919C91820F931F0E94222B99
:10586000D801ED91FC91882311F088E001C082E01D
:1058700080830E94E82A0F90DF91CF91FF91EF91F2
:10588000BF91AF919F918F917F916F915F914F9158
:105890003F912F911F910F91FF90EF900F900FBEAE
:1058A0000F901F901895ED91FC91DFCF0F931F93F0
:1058B000CF93DF93EC0107970CF0A9C08AE08C9F8F
:1058C000F0018D9FF00D1124E050FF4F80819181F8
:1058D000892B09F49CC0F894529A5A9885E08A95CD
:1058E000F1F700008C2F869585709C2F9570890F9D
:1058F000982F937086958695890F8E0193E0000FFF
:10590000111F9A95E1F7082B0E94F02A00C068E069
:10591000802F0E94552BA0E1AA95F1F752985A9A30
:105920004A9B27C087E090E04A9925C08AE08C9F77
:1059300080018D9F100D112400501F4FF8016581CB
:105940006623A1F12091870130918801868197819A
:10595000820F931F0E94222B811128C0529A5A9ABB
:10596000D801ED91FC9182E08083789482E090E010
:1059700016C000C0D5CF0197B9F4529A5A9A8AE05E
:105980008C9FF0018D9FF00D1124E050FF4F01908E
:10599000F081E02D81E08083789481E090E0DF91D8
:1059A000CF911F910F91089500C0BECF0E94E82AA9
:1059B000B0E2BA95F1F75A98529AE0E1EA95F1F718
:1059C0008AE08C9FF0018D9FF00D1124E050FF4F75
:1059D0006281662351F02091870130918801838193
:1059E0009481820F931F0E94762B0E94F02A8AE0F6
:1059F0008C9FF0018D9FF00D1124E050FF4F01901E
:105A0000F081E02D1082789490E080E0C8CF84E0AF
:105A100090E0C5CFAA1BBB1B51E107C0AA1FBB1F4B
:105A2000A617B70710F0A61BB70B881F991F5A952A
:105A3000A9F780959095BC01CD010895991B79E057
:105A400004C0991F961708F0961B881F7A95C9F70E
:105A50008095089597FB072E16F4009407D077FDE4
:105A600009D00E940A2D07FC05D03EF4909581953F
:105A70009F4F0895709561957F4F0895EE0FFF1F1A
:105A80000590F491E02D0994FB01DC0102C0059022
:105A90000D9241505040D8F70895FB01DC0104C03D
:105AA0008D910190801921F441505040C8F7881B16
:105AB000990B0895FB01DC0102C001900D92415049
:105AC0005040D8F70895F999FECF92BD81BDF89A5C
:105AD000992780B50895A6E1B0E044E050E00C9429
