:100000000C9407060C944E060C944E060C94F22B9E
:100010000C944E060C944E060C944E060C944E0610
:100020000C944E060C944E060C94AA130C940018D3
:100030000C9471230C944E060C944E060C944E06B0
:100040000C944E060C944E060C944E060C944E06E0
:100050000C944E060C9481140C944E060C944E068F
:100060000C944E060C944E060C944E060C944E06C0
:100070000C944E060C944E060C944E060C944E06B0
:100080000C944E060C944E060C944E060C944E06A0
:100090000C944E060C944E060C944E060C944E0690
:1000A0000C944E060C944E060C944E060501090263
:1000B000A10185020901A1000509190129081500FE
:1000C0002501950875018102050109300931158165
:1000D000257F95027508810609381581257F9501D0
:1000E00075088106050C0A38021581257F95017572
:1000F000088106C0C005010980A101850319012AF4
:10010000B700150126B700950175108100C0050CD8
:100110000901A101850419012AA002150126A002E6
:10012000950175108100C00660FF0961A101096297
:10013000150026FF00952075088102096315002629
:10014000FF00952075089102C005010906A101056F
:100150000719E029E7150025019508750181029529
:1001600001750881010507190029FF150026FF0008
:100170009506750881000508190129059505750181
:100180009102950175039101C0000000000000007C
:10019000000000000000000000000000000000005F
:1001A000000000000000000000000000007E0F00C2
:1001B000D4FFFFFFC700000078000000000000002F
:1001C000002A2B28000000000000000000000000B2
:1001D0000000000029000000002C1E3420212224F1
:1001E000342627252E362D3738271E1F202122237F
:1001F0002425263333362E37381F04050607080911
:100200000A0B0C0D0E0F10111213141516171819D6
:100210001A1B1C1D2F3130232D3504050607080934
:100220000A0B0C0D0E0F10111213141516171819B6
:100230001A1B1C1D2F3130354C00DA0281FFD9F119
:10024000DB20A4A62EAF00A0C000A1C800AED580C0
:10025000A81FD300408D142000004C4544000055D9
:100260006E646566003474680033726400326E64D4
:1002700000317374004C41594552000080818283E3
:100280008485868788898A8B8C8D8E8F90919293B6
:1002900094A0A1A2A3A4A5A6A7A8A9AAABACADAE01
:1002A000AFB0B1B2B3B4C0C1C2C3C4C5C6C7C8C978
:1002B000CACBCCCDCECFD0D1D2D3D40000AE0001AA
:1002C0000101010101010101020202020202020216
:1002D00002030303030303030304040404040404E8
:1002E00005050505050606060606070707070708AC
:1002F000080808090909090A0A0A0B0B0B0C0C0C5F
:100300000D0D0D0E0E0E0F0F0F10101111111212F8
:1003100013131414151516161717181819191A1A75
:100320001B1B1C1D1D1E1E1F2020212222232424D6
:10033000252626272829292A2B2C2D2D2E2F303112
:100340003232333435363738393A3B3C3D3E3F4024
:100350004142434445464748494A4C4D4E4F50510F
:100360005354555658595A5B5D5E5F6162646566C9
:1003700068696B6C6D6F7072737577787A7B7D7E50
:100380008082838587888A8C8E8F91939596989AA0
:100390009C9EA0A2A3A5A7A9ABADAFB1B3B5B7BAB8
:1003A000BCBEC0C2C4C6C9CBCDCFD1D4D6D8DBDD8C
:1003B000DFE2E4E7E9EBEEF0F3F5F8FAFDFF06051E
:1003C00004030201000708090A0B0C1211100F0E9A
:1003D0000D1314151617181D1C1B1A1940414248FD
:1003E00047461E1F2021222324252D2C2B2A292875
:1003F00027262E2F30313233343B3A3938373635D1
:100400003C3D3E3F454443494A4B29001E001F00E6
:1004100020002100220023002B0014001A000800F5
:10042000150017000000E000040016000700090096
:100430000A000000E1001D001B0006001900050075
:100440000000E0000151E2002C002C0012500000DE
:1004500024002500260027002D002E0031001C005E
:1004600018000C00120013002F0030000B000D00CC
:100470000E000F0033003400280011001000360079
:1004800037003800E500015112502C002C00E60026
:10049000E70035002A0001003A003B003C003D0027
:1004A0003E003F0039000100C25CC55CC75CC95C0E
:1004B000000001000100C35CC65CC85CCA5C0000AF
:1004C0000100010001000100010001000000010025
:1004D0000100010001000100010000004000410096
:1004E000420043004400450049000100010046006D
:1004F0004700480052000100010001004A004B0083
:1005000050004F000100010001004D004E0051005D
:1005100001000100010001000100010001004C0088
:10052000010029001E001F002000210022002300DE
:100530002B0014001A000800150017000000E0004E
:1005400004001600070009000A000000E1001D0079
:100550001B000600190005000000E0000151E20048
:100560002C002C001350000024002500260027003A
:100570002D002E0031001C0018000C00120013008A
:100580002F0030000B000D000E000F003300340070
:10059000280011001000360037003800E500015136
:1005A00013502C002C00E600E70035002A0029003B
:1005B0001E001F0020002100220023002B00140039
:1005C0001A000800150017000000E00004001600E3
:1005D000070009000A000000E1001D001B000600E2
:1005E000190005000000E0000151E2002C002C0081
:1005F0001050000024002500260027002D002E00AA
:1006000031001C0018000C00120013002F003000F5
:100610000B000D000E000F00330034002800110005
:100620001000360037003800E500015110502C0052
:100630002C00E600E70035002A0000AF09025B004D
:10064000030100A0FA0904000001030101000921CF
:10065000110100012240000705810308000A090476
:100660000100020300000009211101000122220003
:100670000705820320000107050303200001090488
:1006800002000103000000092111010001227B008A
:100690000705840320000A12010002000000083848
:1006A0003934360200010200010A035200650036A7
:1006B000003400000012036B0075007300680069CD
:1006C000006D006100380000000403090400000010
:1006D0000000003E5B4F5B3E003E6B4F6B3E001CDC
:1006E0003E7C3E1C00183C7E3C18001C577D571C6D
:1006F000001C5E7F5E1C0000183C180000FFE7C372
:10070000E7FF00001824180000FFE7DBE7FF0030D8
:10071000483A060E00262979292600407F0505075C
:1007200000407F05253F005A3CE73C5A007F3E1CB5
:100730001C0800081C1C3E7F0014227F2214005F4E
:100740005F005F5F0006097F017F00006689956A90
:100750000060606060600094A2FFA2940008047EC4
:1007600004080010207E20100008082A1C08000839
:100770001C2A0808001E10101010000C1E0C1E0C65
:100780000030383E383000060E3E0E0600000000F5
:1007900000000000005F00000000070007000014D8
:1007A0007F147F1400242A7F2A1200231308646216
:1007B00000364956205000000807030000001C22A4
:1007C0004100000041221C00002A1C7F1C2A000856
:1007D000083E08080000807030000008080808087B
:1007E000000000606000002010080402003E514933
:1007F000453E0000427F40000072494949460021C1
:1008000041494D33001814127F10002745454539E2
:10081000003C4A4949310041211109070036494944
:10082000493600464949291E000000140000000016
:100830004034000000000814224100141414141461
:10084000000041221408000201590906003E415DE2
:10085000594E007C1211127C007F49494936003EF6
:1008600041414122007F4141413E007F4949494188
:10087000007F09090901003E41415173007F0808CA
:10088000087F0000417F4100002040413F01007F80
:1008900008142241007F40404040007F021C027F3C
:1008A000007F0408107F003E4141413E007F09095E
:1008B0000906003E4151215E007F091929460026A4
:1008C000494949320003017F0103003F4040403F56
:1008D000001F2040201F003F4038403F00631408A5
:1008E0001463000304780403006159494D43000078
:1008F0007F41414100020408102000004141417F36
:100900000004020102040040404040400000030790
:100910000800002054547840007F284444380038B0
:100920004444442800384444287F00385454541820
:100930000000087E0902001824241C78007F0804A7
:1009400004780000447D4000002040403D00007FCE
:10095000102844000000417F4000007C04780478A7
:10096000007C08040478003844444438007C18248F
:10097000241800182424187C007C0804040800486B
:10098000545454240004043F4424003C4040207C40
:10099000001C2040201C003C4030403C00442810FB
:1009A0002844004C9090907C004464544C440000D7
:1009B00008364100000000770000000041360800C2
:1009C000000201020402003C2623263C0000000035
:1009D0000000008000000000000000000000000097
:1009E0000000000000000000000000000000000007
:1009F000800103060C080808080818304080F01829
:100A000008080808080808080808080C0603010078
:100A10000000000000000000000000808081000055
:100A20000000000000000000000000000000206046
:100A300040C0808090D0D0F0FCFFFFFFFFFFFFFFA1
:100A4000FFFFFEFEE040408080800046C6C6C4F442
:100A5000FCFEFF7F4FCF7F7F7F7F7F7F7F47C74732
:100A60007FFFFFFFF999999919000000007FFFFFB0
:100A7000FFFEFEFEFEFEFEFEFEFEFEFEFEFEFEFF94
:100A8000FFFFFFC1E12101000000000000000000A5
:100A9000000000000000060C0D0F0707070F0F0FE6
:100AA0000F0F0F0F0F0F0F0707070B1B3B01000066
:100AB0000000000000000000008080C0C0C0C0C076
:100AC000C0C0C0C0C0808000000000000000000066
:100AD0000000000207070F0F1F1F1F1F1F1F1F1FF0
:100AE0001F1F1F1F0F0F070702000000000000005C
:100AF00000000000000000000000000000000000F6
:100B000000000000000000000000000000000000E5
:100B100000000000000000000000000000000000D5
:100B200000000000000000000000000000000000C5
:100B300000000000000000000000000000000000B5
:100B400000000000000000000000000000000000A5
:100B50000000000000000000000000000000000095
:100B60000000000000000000000000000000000085
:100B70000000000000000000000000000000000075
:100B80000000000000000000000000000000000065
:100B90000000000000000000000000000000000055
:100BA0000000000000000000000000000000000045
:100BB0000000000000000000000000000000000035
:100BC0000000000000000000000000000000000025
:100BD0000000000000000000000000000000000015
:100BE0000000000000000000000000000000000005
:100BF00000000000000000000000000000000000F5
:100C000000000000000000000000000000001124AF
:100C10001FBECFEFDAE0DEBFCDBF04B603FE27C0B4
:100C20008091E5059091E605A091E705B091E80572
:100C30008730904BA740B04BD1F41092E50510924D
:100C4000E6051092E7051092E80514BE84B7877F89
:100C500084BF0FB6F894A895809160008861809356
:100C60006000109260000FBEE0E0F8E3099511E02B
:100C7000A0E0B1E0E6E4F2E602C005900D92AA3BE6
:100C8000B107D9F725E0AAEBB1E001C01D92A53E5E
:100C9000B207E1F70E9498230C94EA300C9400000C
:100CA000FC01AC014B5F5F4F8FEF91E321918227F5
:100CB00028E030E087FF09C0880F892721503109DB
:100CC000C9F7E417F50791F70895880FF7CFE8ED16
:100CD000F0E080818E7F80831092E2001092DA0033
:100CE0001092E100A0EEB0E08C9181608C93808145
:100CF0008F77808319BCA7EDB0E08C918E7F8C93A9
:100D000080818F7E80831092BF0308952091E4003C
:100D10003091E50095E6A9012091EC00822F8170C9
:100D200020FF06C08091E80080FF06C080E00895A3
:100D30002091E80022FD1AC08091CC03882389F01D
:100D4000853089F08091EB0085FD0FC02091E40093
:100D50003091E50042175307F9F29150E1F684E033
:100D6000089582E0089583E0089581E00895EF9268
:100D7000FF920F931F93CF937C018B010E948606F5
:100D8000C82F811117C08091E80085FD0BC08091AC
:100D9000E8008E778093E8000E948606882399F306
:100DA000C82F08C0F70181917F018093F1000150A5
:100DB000110949F78C2FCF911F910F91FF90EF9060
:100DC00008958091CE0387FF13C08091E80082FFD1
:100DD00006C08091E8008B778093E80004C0809182
:100DE000CC038111F2CF08958091CC038823D9F3ED
:100DF0008091E80080FFF8CF8091E8008E77ECCFFB
:100E0000982F9093E900242F762F50E0891731F026
:100E10007091EC002091ED005091F00021FD07C091
:100E20009F5F973071F78093E90081E008953091DA
:100E3000EB003E7F3093EB003091ED003D7F30932F
:100E4000ED003091EB0031603093EB007093EC00DB
:100E50002093ED005093F0002091EE0027FDE0CFAD
:100E600080E00895CF92DF92EF92FF920F931F934D
:100E7000CF93DF93C8EDD0E088818F7E8883E7ED44
:100E8000F0E080818160808384E082BF81E0809394
:100E9000BF0388818E7F888302EE10E0F801108204
:100EA0001092DA0081EEC82ED12CF60110828881D2
:100EB0008F77888388818068888388818F7D888305
:100EC00019BC1092CC031092CD031092CB03109258
:100ED000CA0390EEE92EF12CF70180818B7F80838D
:100EE00088818160888342E060E080E00E940007A2
:100EF000F60180818E7F8083F8018081816080830C
:100F0000808188608083F70180818E7F80838881E3
:100F100080618883DF91CF911F910F91FF90EF90B7
:100F2000DF90CF900895FC018091D4039091D50378
:100F300086179707A0F06115710529F49091E800D4
:100F40009E779093E80090E06115710551F491113E
:100F500008C08091E80082FF34C080E00895BC01A1
:100F6000F2CF8091CC038823C1F18530C1F180910B
:100F7000E80083FD30C08091E80082FDEACF8091D7
:100F8000E80080FFE1CF8091F3002091F200382F3C
:100F90006115710519F02830310558F091E02830BD
:100FA000310509F090E02091E8002E772093E800C9
:100FB000CBCF81918093F100615071092F5F3F4F3A
:100FC000E7CF8091CC03882341F0853041F08091B8
:100FD000E80083FFBECF81E0089582E0089583E0BA
:100FE00008958091C103089587E797E790930108DA
:100FF0008093000888E19AE00FB6F894A895809352
:1010000060000FBE90936000FFCF2FB7F8946091FF
:10101000B8037091B9038091BA039091BB032FBFBD
:1010200008959C01FC0132969FEF80E041914617A4
:1010300051F09F3F19F4411101C0982F8F5F863006
:10104000A9F79F3F09F40895290F311D97FD3A959F
:10105000F901628308952091B5033091B6032817F2
:10106000390771F09093B6038093B503E091B30311
:10107000F091B403309721F00084F185E02D0994BC
:1010800008952091B1033091B2032817390771F008
:101090009093B2038093B103E091B303F091B40352
:1010A000309721F00680F781E02D09940895FA0128
:1010B000811101C0FB0109948091A603982F9E7FA6
:1010C00039F48091A603817082608093A60308950D
:1010D0008430B8F70895AF92BF92DF92EF92FF92FB
:1010E0000F931F93CF93DF93082F162FE901E42F5F
:1010F000F0E0E254FD4F611110C0E4915E2F4E2FDD
:101100004983E8835A83DF91CF911F910F91FF901C
:10111000EF90DF90BF90AF900895E62EF12C4491B0
:10112000D42EE42FF0E026E0829FC00111242FEF9F
:1011300030E0B9010E946C2D802F90E0880F991F3C
:1011400055E5569FD001579FB00D11248A1B9B0B6C
:10115000982F990F890F5901AE18BF08AE9ED00184
:10116000AF9EB00DBE9EB00D11245B2F189F800165
:101170001124012F11275901A01AB10AAE9E800136
:10118000AF9E100DBE9E100D11245901A81AB10872
:10119000AE9CC001AF9C900DBE9C900D1124892F78
:1011A0009927281B390B2E9FC0012F9F900D3E9F22
:1011B000900D1124E92F62307105A1F050F46115F2
:1011C000710509F49DCF6130710581F0EB2F512F2E
:1011D00097CF6430710569F080F06630710509F4CD
:1011E0008FCFF4CFE42F4B2F592F8ACFE42F412FED
:1011F00087CFEB2F542F492F83CF4B2F5D2DE12F1E
:101200007FCF4091BA02803F59F48091BB0287FFA3
:101210000DC01092BB0241110BC01092B20208C067
:10122000813F81F48091BB0218169CF3442381F026
:101230008091BC029091BD02892B09F05AC0109296
:10124000B1020895823F49F447FFF0CF1092BA02ED
:101250008091BB028111ECCFE0CF833F19F41416CB
:10126000ACF3E4CF9091BC02893F29F41916F4F64F
:101270001092BC02DBCF8A3F19F497FFD7CFF8CF8B
:101280009091BD028B3F29F497FFD0CF1092BD0201
:10129000CDCF8C3F19F41916CCF3C8CF9CE0980F32
:1012A000953090F4845F990B21E030E0B90102C0E1
:1012B000660F771F8A95E2F7CB0180959091B9026E
:1012C00089238093B902B2CF8D3F31F48091B3026C
:1012D0008E7F8093B302AACF8E3F21F48091B30218
:1012E0008D7FF7CF8F3F09F0A1CF8091B3028B7F25
:1012F000F0CF08958091B30280FD16C081FD16C025
:1013000082FD16C08091B1028823A1F0883280F45A
:1013100028E0829FC001112468E270E00E948C2DB9
:10132000862F672B39F0089582E0089584E00895B0
:1013300088E0089581E008958091B30280FD14C093
:1013400081FD14C082FD16C08091B202882381F015
:10135000843180F422E3829FC001112464E170E0B3
:101360000E948C2D862F08958CE0089589E10895C0
:1013700085E0089582E30895803F31F40E949C093E
:1013800081958093BB020895813F19F40E949C09C6
:10139000F8CF823F31F40E949C0981958093BA0274
:1013A0000895833F19F40E949C09F8CF893F29F4DE
:1013B0000E947A098093BC0208958A3F21F40E941A
:1013C0007A098195F7CF8B3F31F40E947A09819594
:1013D0008093BD0208958C3F19F40E947A09F8CFDA
:1013E0009CE0980F953070F4845F990B21E030E019
:1013F00001C0220F8A95EAF78091B902822B80936F
:10140000B90208958D3F31F48091B30281608093D9
:10141000B30208958E3F21F48091B3028260F7CF2A
:101420008F3FB9F78091B3028460F1CF80E00895D7
:1014300078940895F894E82FE295EF70F0E031A1E8
:10144000282F2F7081E090E001C0880F2A95EAF7DD
:10145000982F9095932391A392A1892B82A30C940A
:10146000180A9091500292FF06C0282F2871283048
:10147000F9F4877F846093FF06C0282F28712831F4
:10148000F1F4877E84612091510220FF06C0382F3D
:1014900038713830D9F4877F816021FF06C0282F4A
:1014A00028712831D1F4877E816194FD877E08956B
:1014B000282F24712430F9F68B7F8860DCCF282F09
:1014C0002471243101F78B7E8861DDCF382F317193
:1014D000313019F78E7F8860E0CF282F21712131BC
:1014E00021F78E7E8861E1CFCF93DF93EC018238C4
:1014F000910581F1B0F58133910509F491C020F592
:101500008932910509F485C08A9709F490C0C11504
:1015100020E5D20708F0A7C0C11530E4D30708F0D2
:10152000F6C0CF3BD10508F089C0C83AD10508F014
:10153000E1C0C53AD10508F0D5C0C430D105F8F4F2
:10154000C130D105E1F040C08533910509F45AC09E
:10155000C997E9F680915002837089F0C0EED0E01F
:101560000EC0833E910599F170F4803E910501F122
:10157000823E910561F68091500282FD21C0CE012C
:10158000DF91CF910895863E910561F1873E9105E7
:1015900071F1843E910509F0BACF8091510281FF2B
:1015A000EECF80915002C7EED0E084FD0DC0E7CFB2
:1015B0008091500280FDFEC09091510290FFDFCFDC
:1015C000C3EED0E084FFDBCFD0E0C0E0D8CF809185
:1015D000500282FDF2C09091510290FDBFCF84FF76
:1015E000CECFF2CF8091500283FDDDCFC8CF809166
:1015F000500283FDE5C09091510291FFF0CFC4EEFF
:10160000D0E0BDCF8091500285FFB9CFC9E2D0E0D4
:10161000B6CF8091500285FFB2CFC5E3D0E0AFCF07
:101620008091500286FFABCFCAE2D0E0A8CF809174
:10163000500286FFA4CFC1E3D0E0A1CFCF3FD105B8
:1016400009F058F4C03FD10508F05FC0CE01805EBC
:101650009109089708F493CFB7CFC11540E2D4079A
:1016600008F48DCFB1CFC11584E5D807A0F4C1151A
:1016700093E5D90708F07CC0C11522E5D20708F030
:1016800066C0C11531E5D30708F444C0DC2FCC2770
:10169000C16FD06A74CFC1154AE5D40778F4C1157B
:1016A00089E5D80708F078C0C11598E5D90708F48E
:1016B0008BCFDC2FCC27C06FD06A61CFCE01905684
:1016C0008115904208F080CF8D2F8F710E94310AD2
:1016D00090E0982F882788279F719C012C2BE90187
:1016E000D0624DCFC55AD0E0C45ADE4FC881D0E099
:1016F000D06445CFC85AD0E0CC0FDD1FC15ADE4FB1
:101700000990D881C02DD4643ACFD06538CFDF702E
:10171000D06A35CFCE0164E0969587956A95E1F75A
:1017200083702C2F26952695237040E2249F9001EC
:101730001124382B8C2F8370C1E0D0E002C0CC0F75
:10174000DD1F8A95E2F7C22BD32BDC6818CFCE01C0
:101750008370992721E030E002C0220F331F8A9561
:10176000E2F7C695C69580E2C89FE0011124EBCF51
:10177000CE018370992721E030E002C0220F331F91
:101780008A95E2F7C695C69590E2C99FE0011124BB
:10179000C22BD32BDA68F3CE8C2F8F700E94310AC4
:1017A00034E0D695C7953A95E1F7CF709C2FEC01C0
:1017B000D069E5CEC9E3D0E0E2CEC2EED0E0DFCE24
:1017C000C6EED0E0DCCE80911B0290911A02892BEC
:1017D00090911902892B8093BC01E091B303F091A1
:1017E000B403309731F00280F381E02D8CEB91E06F
:1017F00009940895809118029091E701981301C00F
:1018000008958F5F8770FACF27E0929F800D112493
:10181000982F977086958695869523E0829FF00194
:101820001124EA53FE4F50E040E080E0219130E087
:10183000092E02C0369527950A94E2F721703327C6
:10184000042E01C0220F0A94EAF7822B4F5F5F4FEC
:101850004330510559F7089527E0929F800D1124D8
:10186000982F977041E001C0440F9A95EAF786954A
:101870008695869593E0899FF0011124EA53FE4FE7
:1018800090E080E070E05191DF0111979B01082EFC
:1018900002C0369527950A94E2F7217021952527F5
:1018A000242325272C9301968330910561F7089511
:1018B000882341F0809590911B02892380931B021D
:1018C0000C94E30B0895882339F090911B02982B18
:1018D00090931B020C94E30B0895982F92959F70A0
:1018E00011F0892F94E0282F2695269511F09E5F00
:1018F000822F869509F09F5F892F0895CF93DF93FC
:10190000682F81E06A3019F06D3029F480E0DF91B2
:10191000CF910C940D0D8091E3059091E40526E0A4
:10192000FC01ADEDB5E001900D922A95E1F7603E26
:1019300008F45AC026E0FC0111922A95E9F7C091FB
:10194000E305D091E40546E050E0BE018DED95E061
:101950000E94ED2D9E012D5D3340892B41F1C9017F
:1019600045E0969587954A95E1F741E050E0BA0148
:1019700002C0660F771F8A95E2F7CB016091DB0307
:101980007091DC03862B972BB9016B5F7F4FE5E0ED
:1019900076956795EA95E1F702C0440F551F6A9561
:1019A000E2F7842B952B9093DC038093DB032A5F73
:1019B0003F4F4091DA03642F70E0C9010E946C2D03
:1019C000481B463010F4240F311D211572E03707F3
:1019D00010F030E020E023523C4F3093E405209398
:1019E000E305DF91CF910895F6E06F9FB0011124D8
:1019F0006353794F46E050E00E94E42DA0CFCF938F
:101A0000DF93EC01FE018491811103C0DF91CF913E
:101A100008950E947E0C2196F5CFCF93382FE09148
:101A2000E305F091E405ED5DF3402091DA03622FC8
:101A300070E0CF010E946C2D281B822F332361F0B0
:101A400066E00E94802DC82FC15010F4CF910895F8
:101A500080E20E947E0CF8CF9F01280F311D2115D6
:101A6000324018F080E0F0E0E0E08E0F9F2F911DF3
:101A700083529C4F9093E4058093E305E7CF0E9447
:101A8000FF0C81E00C940D0D0F931F93CF93DF9308
:101A9000EC01FC0101900020E9F78F0101501109D0
:101AA000C017D10728F0DF91CF911F910F910895B2
:101AB00089910E947E0CF4CFCF92DF92EF92FF9239
:101AC0000F931F93CF93DF936C017B0164E670E06B
:101AD00088E70E94492AEC0197FD12C010E000E05F
:101AE000F601E00FF11F849164E670E00E94C32AC2
:101AF000EC01892B29F40F5F1F4F0E151F0581F78D
:101B00000E94462BCE01DF91CF911F910F91FF9044
:101B1000EF90DF90CF900895CF93C091AF03809165
:101B2000B0038823D1F00E940508605A75418F4F99
:101B30009F4F6093AB037093AC038093AD0390937E
:101B4000AE03C11108C062E070E08AE396E00E9433
:101B50005C0D892B29F0C091AF038C2FCF91089594
:101B600081E08093AF03F7CF9091CC03943029F5B7
:101B70008093BC037093BE036093BD039093E90010
:101B80008FEF9091E800815095FD06C095ED9A95F4
:101B9000F1F700008111F5CF8091E80085FF0DC0BD
:101BA00050E040E063E070E08CEB93E00E94B70609
:101BB0008091E8008E778093E8000895BC0184E06E
:101BC0000C94B40DBC0183E00C94B40D9C0184E032
:101BD0008093E9009FEF8091E800915085FD06C059
:101BE00085ED8A95F1F700009111F5CF8091E8001D
:101BF00085FF0CC050E040E066E070E0C9010E9443
:101C0000B7068091E8008E778093E8000895CF931F
:101C1000DF93EC0181E08093E9008FEF9091E80081
:101C2000815095FD06C095ED9A95F1F70000811160
:101C3000F5CF8091E80085FF14C050E040E068E0F7
:101C400070E0CE010E94B7068091E8008E77809305
:101C5000E80088E0FE01A2ECB3E001900D928A95C5
:101C6000E1F7DF91CF910895CF92DF92EF920F933A
:101C70001F93CF93DF93CDB7DEB7C45ED1090FB604
:101C8000F894DEBF0FBECDBF60913B018091A603EB
:101C900080FF4CC0EEEBF3E09E012F5F3F4F8E01C3
:101CA0000B511F4FC901A4914A2F50E0DA01AA0F2E
:101CB000BB1FA40FB51FAE53BD4FCD90DD90EC9070
:101CC000D901CD92DD92ED929D013196A017B10719
:101CD00051F720913A0143E0249F800D911D11247A
:101CE000539A2BB1277F3BB138605FB7F894FC0162
:101CF000649FE00DF11D1124BF016817790749F5B4
:101D00005FBFEFE5F4E03197F1F700C00000CC5180
:101D1000DF4F0FB6F894DEBF0FBECDBFDF91CF917E
:101D20001F910F91EF90DF90CF90089580913C012B
:101D300090913D0123E0829FF0011124EE53FD4F6D
:101D4000891708F0A7CF1182108212828F5F339615
:101D5000F7CFDC014D91CD01E8E03BB9000000C0B8
:101D600047FF2BB9440F000000C000C000C02BB9D2
:101D700000C0EA9591F7C1CFE6EAF3E080818E7F5B
:101D80008083EEEBF2E08281816082832FEF80E737
:101D900092E0215080409040E1F700C000000C9498
:101DA000340E9F92AF92BF92CF92DF92EF92FF924A
:101DB0000F931F93CF93DF937C015B016A018091A6
:101DC0004B0201E010E08A3010F40AE010E0C1E0BC
:101DD000D0E0F894B501C701F6010995982E0E944C
:101DE000180A911004C021960C171D076CF4892D58
:101DF000DF91CF911F910F91FF90EF90DF90CF90E7
:101E0000BF90AF909F900895CC9F9001CD9F300DD3
:101E1000300D112490E080E045E34A95F1F7000091
:101E2000019682179307C1F7D4CF809126028111C2
:101E300010C08091D80080618093D8008AE18A9593
:101E4000F1F700C08091D90080FF0AC081E0809343
:101E5000260281E090912602913009F080E00895F9
:101E600082E0809326020E9467061092CC03F1CF95
:101E70000E94150F882351F0E091B303F091B40351
:101E8000309721F00190F081E02D099480E00895D1
:101E9000CF93DF93C7E5D2E060E0CE010E94B63079
:101EA0002196C11584E0D807B9F7DF91CF91089545
:101EB0006F927F928F929F92AF92BF92CF92DF925A
:101EC000EF92FF920F931F93CF93DF938AE0C82E78
:101ED00084E0D82E91ECE92EF12CE701CC58D10901
:101EE00036011BC0F50185909490692DC8010E94B0
:101EF000B630682DC80101960E94B63082E0A80E67
:101F0000B11C0E5F1F4FC017D10761F78EE0680E3E
:101F1000711C2E96CE15DF0529F08E010E50110989
:101F20005301E0CF7E018CE8E80EF11C8CE8C80E6E
:101F3000D11C81EFE81682E0F80679F6DF91CF91A7
:101F40001F910F91FF90EF90DF90CF90BF90AF90D7
:101F50009F908F907F906F900895CF93C82F6FEFD1
:101F6000811161E283E290E00E94B6306FEFC1110F
:101F700061E184E290E00E94B6306FEFC11160E34E
:101F800085E290E0CF910C94B63080E00E94AD0FD6
:101F900060E086E290E00E94B6300E94580F0E94F6
:101FA000480F81E00C94AD0F0F931F93CF93DF93F5
:101FB000C42FD0E0CC0FDD1F2EE0629FC00DD11DDD
:101FC00011243CE8839FC00DD11D1124CE018796BA
:101FD0000E94A230082F10E0102F0027CE01889613
:101FE0000E94A2309801282BC901DF91CF911F9147
:101FF0000F910895462F843038F47A3028F46730F2
:1020000018F4672F0C94D40F90E080E00895CF92DD
:10201000DF92FF920F931F93CF93DF936C01009198
:10202000D90380911C02082BC7E0D0E010E0FC2E01
:10203000C8010C2E02C0959587950A94E2F780FDA1
:102040000CC02197A0F7F12C8F2DDF91CF911F911C
:102050000F91FF90DF90CF900895B6018C2F0E94D2
:10206000FA0F0E94740A019761F3EECFCF93DF93CA
:10207000EC010E940710BE010E94FA0FDF91CF9180
:102080000C94740AFC01808191810E943610292FE2
:102090002F7092959F7092509E3078F4E92FF0E067
:1020A000E451FF4C0C94A02D803F19F020F4883EA1
:1020B00020F481E00895843FE1F380E00895883EB4
:1020C000C0F3813FD1F7F5CF822F8695869586950F
:1020D000089583E290E00E94A230813289F484E284
:1020E00090E00E94A230813159F485E290E00E9494
:1020F000A23091E0803309F090E0892F817008953B
:1021000080E0FCCFCF9384E090E00E94A230C82F03
:1021100082E290E00E94A230982F8C2FCF910895F8
:10212000CF92DF92EF92FF926B017C010E945C08DC
:10213000B701A60188E090E0FF90EF90DF90CF908C
:102140000C94C830EF92FF920F931F93CF93DF93BD
:1021500000D00F92CDB7DEB7F82E062F142FE22E47
:102160008091A60380FF49C0E82FE695F0E0E8558E
:10217000FE4F90819093BE028E7F8230D9F49E01F3
:102180002F5F3F4F8F2D0E946B088091A60380FF29
:1021900011C02B8139814A8180913C0190913D0190
:1021A00053E0859FF0011124EE53FD4F891778F11C
:1021B0000E94340E8091A7038F1108C08091A8035C
:1021C000801304C08091A903811729F08091C00277
:1021D00082608093C002F092A7030093A80310933B
:1021E000A903EE2051F06091A6037091A70380919E
:1021F000A8039091A9030E9490100F900F900F9048
:10220000DF91CF911F910F91FF90EF90089541833F
:10221000308322838F5F3396C9CFE6EAF3E04381B0
:1022200021E1421B08F440E021E0628181810C94AD
:10223000A210E6EAF3E0438121E1420F08F44FEFF8
:1022400021E0628181810C94A210E6EAF3E06281D0
:1022500021E1621B08F460E021E0438181810C945C
:10226000A210E6EAF3E0628121E1620F08F46FEF69
:1022700021E0438181810C94A210E6EAF3E08181A0
:1022800021E04381628188500C94A210E6EAF3E0D9
:10229000818121E043816281885F0C94A21080914A
:1022A000AA03882319F081508093AA036091A603A2
:1022B0007091A7038091A8039091A9030C949010AA
:1022C0008091AA03833018F48F5F8093AA036091F2
:1022D000A6037091A7038091A8039091A9030C9481
:1022E00090108091A60380FF1EC081708260809351
:1022F000A6038091C00281608093C002662351F0E2
:102300006091A6037091A7038091A8039091A903FF
:102310000E94901020E04091A9036091A803809151
:10232000A7030C94A21008958091A603869581506E
:1023300009F481E061E00C94711161E081E00C949A
:102340007111E6EAF3E083E0808311828FEF8283EC
:1023500083831482AEEBB2E012968C911297836065
:1023600012968C9360817181828193810C9490107C
:1023700069EE7EEF90E080E00E94D43060E082E081
:1023800090E00E94B63060E083E090E00E94B630BA
:1023900010921C0260E084E090E00E94B63060E0A1
:1023A00082E290E00E94B63060E085E090E00E941A
:1023B000B63060E086E090E00E94B6306FEF87E0D4
:1023C00090E00E94B63040E050E0BA0188E090E032
:1023D0000E94C83060E08DE090E00E94B63040E09E
:1023E00050E0BA0188E190E00E94C83060E087E1E7
:1023F00090E00E94B63040E050E0BA018CE190E0FD
:102400000E94C83070E060E080E290E00E94D4302A
:1024100040E050E0BA0188E190E00E94C83080E0DE
:102420000E94AD0F0E94C50F40E050E0BA018FE05E
:1024300090E00E94C83040E050E0BA0183E190E0B3
:102440000C94C8300F931F93CF93DF9300D000D02C
:10245000CDB7DEB740913002509131026091320227
:10246000709133022FB7F8948091B8039091B9031B
:10247000A091BA03B091BB032FBF841B950BA60B91
:10248000B70B84369105A105B10588F10E94150F9F
:10249000882379F10E9405086E5F7F4F8F4F9F4F11
:1024A00069837A838B839C838091170190911801B3
:1024B0008C5C9D4F4091160150E04530510510F065
:1024C00044E050E0BE016F5F7F4F0E94FA2D82E032
:1024D00090E00E94B82C892BD9F40E9405086093E3
:1024E000300270933102809332029093330281E084
:1024F00010C00E94050800914C0210914D022091DD
:102500004E0230914F02600F711F821F931FC4CF84
:1025100080E00F900F900F900F90DF91CF911F915F
:102520000F910895CF93DF93CDB7DEB729970FB6FC
:10253000F894DEBF0FBECDBF85E0E6EAF3E0DE0132
:10254000119601900D928A95E1F78091BE029091CB
:10255000BF02A091C002B091C1028E839F83A88761
:10256000B9872885409147025091480260914902FD
:1025700070914A023FB7F8948091B8039091B903E3
:10258000A091BA03B091BB033FBF841B950BA60B70
:10259000B70B84369105A105B10510F4222319F17A
:1025A00080912101909122018C5C9D4F40912001EE
:1025B00050E04A30510510F049E050E0BE016F5F35
:1025C0007F4F0E94FA2D83E090E00E94B82C892B67
:1025D000B1F40E940508609347027093480280930B
:1025E000490290934A021092C00281E029960FB6E8
:1025F000F894DEBF0FBECDBFDF91CF91089580E08C
:10260000F5CF0F931F93CF93DF9300D000D000D06E
:10261000CDB7DEB78B0190E080E00E94B82C892B0B
:1026200009F07EC04091050150E04115510511F0BF
:1026300041E050E060910601709107016C5C7D4FB4
:10264000CE0106960E94FA2D40912C0250912D0247
:1026500060912E0270912F022FB7F8948091B803E9
:102660009091B903A091BA03B091BB032FBF841B13
:10267000950BA60BB70B84369105A105B10540F467
:1026800085E392E00E9450069E81891709F455C0A7
:1026900081E090E00E94B82C892BA1F080E095E0C9
:1026A000E7E2F2E0D80101900D929A95E1F72696C3
:1026B0000FB6F894DEBF0FBECDBFDF91CF911F9153
:1026C0000F91089540910F0150E04630510510F0F0
:1026D00045E050E060911001709111016C5C7D4FFC
:1026E000CE0101960E94FA2D85E392E00E945006E9
:1026F0009E818913D3CF0E94050860932C027093AA
:102700002D0280932E0290932F0285E0FE013196D8
:10271000A7E2B2E001900D928A95E1F781E0BFCF88
:1027200080E095E0E5E3F2E0DE01119601900D9284
:102730009A95E1F78111E9CFB2CF81E0F2CF90E035
:1027400080E00E94B030893E9E4F11F40C946910D5
:1027500080E008951F920F920FB60F9211242F93CD
:102760003F934F935F936F937F938F939F93AF9319
:10277000BF93EF93FF938091E10082FF09C08091A6
:10278000E20082FF05C08091E1008B7F8093E10031
:102790008091DA0080FF24C08091D80080FF20C0A3
:1027A0008091DA008E7F8093DA008091D90080FFDB
:1027B0009BC080E189BD82E189BD09B400FEFDCFE7
:1027C00081E08093CC038091BF03811109C00E94F6
:1027D00067060E9432078091E20084608093E200E5
:1027E0008091E10080FF17C08091E20080FF13C05C
:1027F0008091E2008E7F8093E2008091E200806110
:102800008093E2008091D80080628093D80019BC48
:1028100085E08093CC038091E10084FF29C0809102
:10282000E20084FF25C080E189BD82E189BD89B5D0
:10283000982F917080FFFBCF8091D8008F7D80937F
:10284000D8008091E1008F7E8093E1008091E200CA
:102850008F7E8093E2008091E20081608093E200AD
:102860008091CD03882309F445C084E08093CC0394
:102870008091E10083FF27C08091E20083FF23C0A5
:102880008091E100877F8093E10082E08093CC0318
:102890001092CD038091E1008E7F8093E1008091C2
:1028A000E2008E7F8093E2008091E200806180935D
:1028B000E20042E060E080E00E9400078091F000CA
:1028C00088608093F000FF91EF91BF91AF919F914D
:1028D0008F917F916F915F914F913F912F910F90C9
:1028E0000FBE0F901F90189519BC1092CC03109238
:1028F000BF0376CF8091E30087FD93E09093CC03F4
:10290000B7CF78941F921FB61F9211248F939F9375
:10291000AF93BF938091B8039091B903A091BA038C
:10292000B091BB030196A11DB11D8093B803909394
:10293000B903A093BA03B093BB03BF91AF919F912A
:102940008F911F901FBE1F9018959C014FB7F89450
:102950008091B8039091B903A091BA03B091BB03E1
:102960004FBF821B930B08952FB7F8948091B80343
:102970009091B903A091BA03B091BB032FBF089502
:102980000E94B4149C019091BA028091BB02982BD2
:1029900021F03093B7022093B6029091BC0280914F
:1029A000BD02982B21F03093B5022093B402E09140
:1029B000B303F091B403309749F082E08093B802FA
:1029C0000480F581E02D88EB92E00994089590E071
:1029D00080E00E94410890E080E00E942B08109265
:1029E0001A02109219020E94E30B86E0E8EBF2E073
:1029F000DF011D928A95E9F71092B2021092B1029E
:102A00001092B3020C94C0148093D9030C94E71471
:102A10008091D903982F9670963019F488600C94A1
:102A20000415877FFCCF21E030E001C0220F8A959A
:102A3000EAF720958091D90382230C94041521E0B4
:102A400030E001C0220F8A95EAF78091D903822BEA
:102A50000C94041580931C020C94E71410921B0232
:102A6000EEEBF1E086E0DF011D928A95E9F70C9428
:102A7000E7141F93CF93DF93CDB7DEB7AA970FB6B6
:102A8000F894DEBF0FBECDBF8EEC93E02091F10035
:102A9000DC012D93CD01B3E0863D9B07B9F7809112
:102AA000CF03833009F471C0B8F4813009F448C011
:102AB000823009F4B2C08091E80083FF3AC180916E
:102AC000CE039091CF039A3008F033C1E92FF0E0A4
:102AD000E650FF4C0C94A02D8A3009F48DC08B3049
:102AE00009F470C0893039F78091CE03813219F72B
:102AF0008091D2039091D303009711F00297D9F6F9
:102B00008091E800877F8093E8008091E80082FF51
:102B100037C09091F3008091F200029729F48091E0
:102B2000F1008B7F813021F48091F1008093C1030B
:102B30008091E8008B778093E8000E94E106BBCF8C
:102B40008091CE03813A09F0B6CF8091E800877F6B
:102B50008093E8008091D2039091D303892B61F494
:102B600068E082EC93E070E00E9493078091E800B7
:102B70008B778093E8009FCF60E090E080E0F3CF18
:102B80008091CC038111C1CF96CF8091CE03813A41
:102B900009F091CF8091D2039091D303892B09F052
:102BA0008ACF8091E800877F8093E8008091E800D9
:102BB00080FFFCCF80913F018093F1008091E8007D
:102BC0008E77B9CF8091CE03813209F074CF809196
:102BD000D2039091D303892B09F06DCF8091E80047
:102BE000877F8093E8000E94E1068091D003809364
:102BF0003F010E942E155FCF8091CE03813209F0F4
:102C00005ACF8091E800877F8093E8000E94E10618
:102C10008091D1038093C0034ECF8091CE03813A3F
:102C200009F049CF8091E800877F8093E800809188
:102C3000E80080FFFCCF8091C003BECF803899F0C0
:102C4000823809F076C08091D2038F70873008F007
:102C500070C08093E9008091EB0085FB882780F9A4
:102C60001092E90006C08091CA039091CB039111A4
:102C700082609091E800977F9093E8008093F10044
:102C80001092F1008091E8008E77B5C1882309F495
:102C9000A2C1823009F04DC08091D0038111A6C13C
:102CA0008091D2038F702FEF280F263008F041C09B
:102CB0008093E9002091EB0020FF98C1933031F41C
:102CC0008091EB0080628093EB0090C19091EB00CB
:102CD00090619093EB0021E030E001C0220F8A95D3
:102CE000EAF72093EA001092EA008091EB008860F6
:102CF000EACF81111EC01091D0031F778091E300AD
:102D00008078812B8093E3008091E800877F809317
:102D1000E8000E94E1068091E80080FFFCCF8091EE
:102D2000E30080688093E30082E0111183E08093E8
:102D3000CC038091E80083FF0AC08091E800877F80
:102D40008093E8008091EB0080628093EB00AA966C
:102D50000FB6F894DEBF0FBECDBFDF91CF911F91AC
:102D600008958058823028F72091D0033091D10304
:102D70002C3DE3E03E07A1F583E08A838AE2898364
:102D80004FB7F894DE01139620E03EE051E2E32FC6
:102D9000F0E050935700E49120FF03C0E295EF70FC
:102DA0003F5FEF708E2F90E0EA30C0F0C7968D93B2
:102DB0009D932F5F243159F74FBF8091E800877FA3
:102DC0008093E8006AE270E0CE0101960E949307CA
:102DD0008091E8008B778093E800ABCFC096E7CF77
:102DE0008091D2039091D303432F5527433051054F
:102DF00009F44AC078F54130510509F47AC08BE5F1
:102E000090E0ECE3F6E04230510509F092CF2091DA
:102E1000E800277F2093E8002091D4033091D50368
:102E20008217930708F49C0140E02115310509F051
:102E300065C0411163C08091E80082FDC9CF8091D7
:102E4000CC03882329F2853019F28091E80083FFB2
:102E5000F2CFBECF4132510509F43CC04232510598
:102E600009F067CF8330910508F063CFFC01EE0FC6
:102E7000FF1FE355FE4F0190F081E02D86559E4FD8
:102E8000DC018C9190E01AC0332721303105D1F05C
:102E90002115310561F02230310509F04ACFE9EA08
:102EA000F6E0E4918E2F90E0E9EAF6E007C0E9EC65
:102EB000F6E0E4918E2F90E0E9ECF6E0009709F45B
:102EC00038CFA5CFE5EBF6E0E4918E2F90E0E5EB6F
:102ED000F6E0F4CF8330910508F02BCF880F991FCF
:102EE000FC01ED54FE4F0190F081E02D89E090E06F
:102EF0008ECF82E190E0E7E9F6E089CF8091CC03C4
:102F0000882309F465CF853009F462CF8091E80009
:102F100083FD5ECF8091E80082FD8DCF8091E80037
:102F200080FF83CF9091F3008091F200211531054D
:102F300019F08830910550F041E0089709F040E021
:102F40008091E8008E778093E8006FCF44914093A2
:102F5000F1003196215031090196E8CF803809F00F
:102F6000E8CE8091E800877F8093E8008091CD03D0
:102F70008093F10087CE8111DCCE1091D003123006
:102F800008F0D7CE8091E800877F8093E800109307
:102F9000CD030E94E106112311F084E005C0809169
:102FA000E30087FDFACF81E08093CC0342E061EC3F
:102FB00081E00E94000742E261EC84E00E94000789
:102FC00042E261EC82E00E94000742E260EC83E0B2
:102FD0000E940007AECE8091D003813009F0A9CEC7
:102FE00081E0933009F080E08093CB031092E900F8
:102FF0008091E800877F8093E8000E94E10699CEE7
:103000001F920F920FB60F9211242F933F934F935D
:103010005F936F937F938F939F93AF93BF93CF9360
:10302000DF93EF93FF93D091E900DF708091EC0084
:10303000C82FC17080FDC0E81092E9008091F000B7
:10304000877F8093F00078940E9439151092E900F0
:103050008091F00088608093F000CD2BCF70C093FA
:10306000E900FF91EF91DF91CF91BF91AF919F91D7
:103070008F917F916F915F914F913F912F910F9021
:103080000FBE0F901F9018958823F1F19CEF980FB9
:10309000913A78F4EEEBF1E024EC31E09191891370
:1030A00003C0DF0111971C922E173F07B9F70C944C
:1030B000E30B90E2980F983088F4877021E030E0BD
:1030C000A90102C0440F551F8A95E2F7CA018095F5
:1030D00090911B02892380931B02E9CF9BE5980FF7
:1030E000933020F490E080E00C94410898E5980F2C
:1030F000973120F490E080E00C942B08803F20F082
:103100000E9401090C94C0140895CF93C82F8823FE
:1031100009F456C08CEF8C0F813AF8F4EEEBF1E035
:1031200084EC91E0DF012D91C21759F08A179B07BB
:10313000D1F76C2F8CEB91E00E941108CF910C9489
:10314000E30B2191C21303C0DF0111971C928E176C
:103150009F07B9F70E94E30BECCF80E28C0F883019
:1031600068F4C77021E030E001C0220FCA95EAF789
:1031700080911B02822B80931B02E0CFEBE5EC0FCA
:10318000E33040F4F0E0E45AFE4F808190E0CF91CC
:103190000C944108E8E5EC0FE73150F4F0E0EE0F55
:1031A000FF1FE15AFE4F80819181CF910C942B0833
:1031B000C03F30F08C2F0E94BC09CF910C94C014FA
:1031C000CF9108951F93CF93DF93182FD0E0C0E0E5
:1031D000893311F4C0E5D0E0812F0E948518209733
:1031E00031F4812FDF91CF911F910C9444188FE916
:1031F0009FE00197F1F700C000002197F0CF0F93F7
:103200001F93CF93DF93C62FD42F022FFC0182810F
:103210008823A1F06093D8030E94B4149093D7033D
:103220008093D603C77081E001C0880FCA95EAF782
:10323000DF91CF911F910F910C94630C8091D80373
:10324000681335C08091D6039091D7030E94A514CE
:10325000883C910560F510E21D0FCD17B9F080E2B2
:103260008C0F883040F4C77081E001C0880FCA9588
:10327000EAF70E94580C183048F481E09D2F9770AF
:1032800001C0880F9A95EAF70E94630C802F0E9474
:10329000E218183098F4D77081E001C0880FDA95F1
:1032A000EAF7DF91CF911F910F910C94580CC770E2
:1032B00081E001C0880FCA95EAF7F3CFDF91CF9183
:1032C0001F910F9108955F926F927F928F929F92BC
:1032D000AF92BF92CF92DF92EF92FF920F931F9324
:1032E000CF93DF9300D000D00F92CDB7DEB77C0133
:1032F000FC0183819481892B31F080819181892324
:103300008F3F09F026C50F900F900F900F900F90F0
:10331000DF91CF911F910F91FF90EF90DF90CF90B1
:10332000BF90AF909F908F907F906F905F90089527
:103330000E940710182F682F89819A810E942C0CF7
:1033400069817A81812F0E94FA0F8C01F7019281A5
:10335000992309F4F3C4980122513F4520313105E6
:1033600008F0B2C48FEF93E00E94A230025197E5BB
:10337000A92E92E0B92E8111C6CF011134C01C8252
:103380001B82662463948AE0582E85010F5F1F4FCD
:10339000C5010E94A23089831A82882309F4B3CF21
:1033A0009FEF980F933070F58A83698232E0A30E05
:1033B000B11CC8010E94A2308B83882309F4A3CFDB
:1033C0008E010F5F1F4FF80120812223F1F221307F
:1033D00009F052C0918182819130B1F40E5F1F4F8C
:1033E0000E94E21817C0A114F4E0BF0609F48BCFC5
:1033F000C5010E94A230811101C001502FEFA21A15
:10340000B20ABBCF5801DCCF923039F40E5F1F4FA8
:103410000E9485180F5F1F4FD6CF933029F40E5F9F
:103420001F4F0E944418F6CF943019F00F5F1F4FC2
:10343000F1CF0E5F1F4F30E020E0B8016F5F7F4F8C
:10344000F80141818053990B8A30910550F0215049
:10345000310900F38FE99FE00197F1F700C0000008
:10346000F6CF529EF001539EF00D11249C012E0FB9
:103470003F1F842F8B01E1CFE22FF0E0E754FE4F96
:103480007490822F86958695869590E0FC01E7558D
:10349000FE4FE4902770F12C022E02C0F594E794C1
:1034A0000A94E2F7E1E0EE22FF24FC01E756FE4F2A
:1034B000C490D12C022E02C0D594C7940A94E2F78E
:1034C000F1E0CF22DD24FC01E757FE4F8490912CE0
:1034D00002C0959487942A95E2F721E082229924EC
:1034E000E114F10419F081EE0E948518C114D10491
:1034F00019F086EE0E948518872D0E94E218CD28CB
:1035000019F086EE0E944418EF2819F081EE0E940F
:103510004418892809F47ECF8CE262CF81E00E94B2
:103520001F1503C081E00E9413150F900F900F909C
:103530000F900F90DF91CF911F910F91FF90EF901F
:10354000DF90CF90BF90AF909F908F907F906F90C3
:103550005F900C94081582E0E2CF053FFCE51F0761
:1035600009F472C008F46CC027E245EE66EE063F2F
:103570003CE5130709F4CBC3992309F4FBC310926C
:10358000D80303304DE5140708F065C00A3F5CE539
:10359000150738F4980122503C452431310508F0D4
:1035A0005FC00E94821090935102809350020031BC
:1035B0009CE5190709F43CC108F0B4C00830FCE5EB
:1035C0001F0709F423C108F088C004303CE5130745
:1035D00009F40EC108F06EC002305CE5150709F46D
:1035E000FDC003301C4509F4FFC0609150021091EA
:1035F000510284E090E00E94B630612F82E290E0B8
:103600000E94B6300F900F900F900F900F90DF91A7
:10361000CF911F910F91FF90EF90DF90CF90BF90CF
:10362000AF909F908F907F906F905F900C942E152D
:1036300027E245EE65EE6BC326E241EE60EE67C31E
:1036400027E245EE64EE63C326E241EE62EE5FC31D
:1036500028E241E0EFCF01368DE5180709F4A1CF4C
:103660000631ECE51E0709F004C480911B028A7A3A
:1036700091E009F490E09093C50169E2811165E35E
:103680008CEB91E00E9411080F900F900F900F901B
:103690000F90DF91CF911F910F91FF90EF90DF90EE
:1036A000CF90BF90AF909F908F907F906F905F90E2
:1036B0000C94E30B80915002806106309CE5190761
:1036C00009F48FC080915002886007301C4508F4CF
:1036D00088C080915002806284C0809150028D7FAA
:1036E0000C30FCE51F0709F47CC070F48091500297
:1036F0008C600A303CE5130709F473C008F48AC0F3
:10370000809150028E7F6DC080915002877F0E3075
:103710005CE5150709F465C008F482C08091500289
:103720008F7E5FC00C3F9CE5190709F47DC068F5EA
:103730000431FCE51F0709F48FC080F402313CE539
:10374000130709F479C0809150028F7B03311C4527
:1037500008F447C080915002837F43C00A3F5CE574
:10376000150709F449C008F04DC005311C4509F0A2
:103770003CCF8091500282FB992790F921E092275B
:1037800090FB82F990FB83F92CC00115EDE51E0733
:1037900009F458C088F48091510283600E3F2CE5F3
:1037A000120769F1809151028D7F0F3F1C4538F15E
:1037B000809151028C7F23C002304DE5140709F43B
:1037C0005AC008F452C001361D4509F00ECF909141
:1037D0005002892F8F7E94FF806103C08091500238
:1037E00081608093500201CF809150028260F9CFB6
:1037F000809150028460F5CF809151028160809366
:103800005102F3CE809151028260F9CF8091500233
:103810008064E7CF0E942E15809150028068E1CF2E
:10382000809150028B7FDDCF809151028E7FE7CF58
:10383000809150028F7DD5CF0E942E15809150022D
:103840008F77CFCF80915102982F909591708E7F76
:10385000892B90FB81F9D3CF0E942E1590915002B5
:10386000892F97FB87F98058BCCF61E08EE090E00C
:103870000E94B630BACE60E0F9CF8091C5018111C7
:103880000FC089E2EEEBF1E024EC31E09191891375
:1038900003C0DF0111971C922E173F07B9F7F4CE32
:1038A00085E3F0CF8091A60380FF31C08E7F8093A7
:1038B000A6036091A6037091A7038091A80390913D
:1038C000A9030E9490108091C00281608093C00281
:1038D000FFEF20E732E0F15020403040E1F700C038
:1038E00000000F900F900F900F900F90DF91CF91ED
:1038F0001F910F91FF90EF90DF90CF90BF90AF900E
:103900009F908F907F906F905F900C94340E8160A9
:103910008093A60361E086950F900F900F900F9013
:103920000F90DF91CF911F910F91FF90EF90DF905B
:10393000CF90BF90AF909F908F907F906F905F904F
:103940000C94711144E951E16DE971E10F900F9010
:103950000F900F900F90DF91CF911F910F91FF90DB
:10396000EF90DF90CF90BF90AF909F908F907F901F
:103970006F905F900C9457084DE951E164E971E153
:10398000E5CF4DE351E166E471E1E0CF46E451E17A
:103990006DE371E1DBCF4DE051E169E171E1D6CF3B
:1039A00061E081E0B9CF0E942E154FEF54E38CE027
:1039B000415050408040E1F700C000000E94F407F1
:1039C000C8010E94040CD82E03C2092F0F70907FEB
:1039D00011F00295007F812F2223C9F0002369F0A6
:1039E00090E2910F983010F011110BC080911B02E2
:1039F000082B00931B020E94E30B812F0E94851865
:103A000017C080911A02082B00931A02F4CF0E946B
:103A10004418002369F00095105E183010F0B110C2
:103A200025C080911B02082300931B020E94E30B18
:103A300058E0C51AD10884E0C816D10408F063CC58
:103A40000F900F900F900F900F90DF91CF911F91DB
:103A50000F91FF90EF90DF90CF90BF90AF909F902D
:103A60008F907F906F905F900C94380F80911A0226
:103A7000082300931A02DACF892F8F70907F90323B
:103A800011F08295807FF1E0BF120CC0222329F053
:103A9000363070F60E94630CCBCF353048F60E946A
:103AA000580CC6CF222341F03323A1F340FFA5CF0A
:103AB0004F70F7014583EECF332389F3193349F46F
:103AC000FFEF27EE33E0F15020403040E1F700C037
:103AD0000000812F0E944418ABCF892F86958695D0
:103AE000837061F0813009F0A3CF812F9370211191
:103AF00002C090E080E00E942B089ACF812F937043
:103B0000211102C090E080E00E94410891CF812FF6
:103B1000222329F00E94BC090E94C01489CF0E9470
:103B20000109FACF892F8370A1F5211181CF812F4F
:103B3000829586958770880F880F412F4F70082EC9
:103B400001C0440F0A94EAF7212F207114FF07C027
:103B50002FE030E001C0220F8A95EAF72095969574
:103B600096959370923081F0822F842B933030F4AD
:103B700080911C02913029F0242B82230E942A1567
:103B800057CF842B822BFACF242B80911C028227C3
:103B9000F5CF8695222311F0892F8170882309F4AF
:103BA00047CF812F829586958770880F880F412F88
:103BB0004F70082E01C0440F0A94EAF7212F20719C
:103BC00014FF07C02FE030E001C0220F8A95EAF70A
:103BD0002095969596959370923081F0822F842B44
:103BE000933030F48091D903913029F0242B822333
:103BF0000E9404151DCF842B822BFACF242B809199
:103C0000D9038227F5CF092F0F70222329F0802FA7
:103C10000E941F15812F3ECF812F0E94580C802FAC
:103C20000E94131505CF812F41EF141789F1411719
:103C300050F050EF1517B9F02223B1F13111DDCE5C
:103C4000892F8F7129C0E2EF1E1749F1F3EF1F137F
:103C5000F3CF80E0222361F29F7181E001C0880FE1
:103C60009A95EAF7C5CF222379F0353008F0E0CEF7
:103C7000292F2F7181E090E001C0880F2A95EAF783
:103C80009091D9038927B4CF363008F0D1CEF0CF48
:103C9000892F8F71222321F20E941F15C9CE892FEF
:103CA0008F712223C9F3BCCF332359F0893309F034
:103CB00010CF2FEF37EE43E0215030404040E1F786
:103CC00006CF892F8F71ACCF0031EFE51E0709F4C5
:103CD00025CC0131FFE51F0709F43DCC033F3CE54E
:103CE000130709F4A9CC08F038CC083D5CE51507AA
:103CF00009F49ECC093D8CE5180709F4A9CC073DD1
:103D0000ECE51E0709F038CC26E241EE61EEC70172
:103D10000F900F900F900F900F90DF91CF911F9108
:103D20000F91FF90EF90DF90CF90BF90AF909F905A
:103D30008F907F906F905F900C94FF1800312FE56B
:103D4000120709F4EFCB01313FE5130739F682E0A2
:103D5000EACB85E0DE01119601900D928A95E1F79C
:103D6000F701228189819A812111E2CA0E94040C03
:103D7000182FE6CA0631FCE51F0709F47ECD8091B5
:103D80001B028272093C2CE5120709F404CE08F0EC
:103D90004AC0053C4CE5140709F4F3CDA0F5033CFB
:103DA000ECE51E0709F4CECD08F0E6CD023C1C453B
:103DB00009F478CDF70100811181992309F400CE2F
:103DC000C8010E940710D82E682FC8010E942C0C31
:103DD000B8018D2D0E94FA0F0E94740A182FB82E78
:103DE000F70122814581342F32953F70892F8295CA
:103DF0008F70C82ED12C8C3008F01ACEF601EC5FF3
:103E0000FE4C0C94A02D45E251E161E371E1073CC9
:103E10003CE5130709F49ACD08F4B8CD41E351E12C
:103E200065E271E193CD0D3C5CE5150709F4B8CD71
:103E3000B0F44FE451E160E671E10B3CFCE51F0793
:103E400009F484CD49E151E16DE071E10C3C1C4580
:103E500008F47CCD40E651E16FE471E177CD063D99
:103E60003CE5130708F44FCA0D351D4509F44BCA4C
:103E7000A1CF01155CE5150709F495CD0E3D1C4554
:103E800009F098CF0F900F900F900F900F90DF9147
:103E9000CF911F910F91FF90EF90DF90CF90BF9047
:103EA000AF909F908F907F906F905F900C94B8111F
:103EB0001F93CF93DF938091E601807FA9F48091D7
:103EC000E301882389F080911802D091E701609185
:103ED000E1017091E201A091E401B091E501C62FEA
:103EE000C72316E0D81304C0DF91CF911F91089526
:103EF00090E0109711F0CF3F19F401968770F2CF40
:103F0000189F9001199F300D1124F901E851FE4FBF
:103F100041814713F2CF40814613EFCF42814111D7
:103F2000ECCF438154814A1B5B0B483C510528F779
:103F30008091E6018F7080618093E601F901E35181
:103F4000FE4F80818F708061808381EE91E00E94BE
:103F50006319DF91CF911F910C94FA0BAF92BF922E
:103F6000CF92DF92EF92FF920F931F93CF93DF9345
:103F7000CDB7DEB761970FB6F894DEBF0FBECDBFE9
:103F80008C0185E0F801DE011D9601900D928A9565
:103F9000E1F7F801E28081EEA82E81E0B82E609171
:103FA000E4017091E5016115710509F432C1909148
:103FB000E1014091E201892F84238F3F09F429C157
:103FC00020813181C380D480F090E301F601E61BAB
:103FD000F70BFF2009F4E8C08091E601582F507FCD
:103FE000E83CF10508F0ABC0511177C0FE2C43133B
:103FF00021C092131FC0E1101DC08F70806180939B
:10400000E601C5010E9463198091E601F8018583EC
:104010008F2D61960FB6F894DEBF0FBECDBFDF9136
:10402000CF911F910F91FF90EF90DF90CF90BF90B5
:10403000AF900895CD2829F0822F83238F3F09F078
:1040400003C180E0F82FF170DF2E80FF3CC080912B
:1040500018024091E70156E0841315C02D873E8772
:104060008D859E850E943610292F22952F70223033
:10407000F0F0243018F59F70F1F0F8019581907FF1
:10408000D1F4D12C1EC090E0589FF001599FF00D43
:104090001124E851FE4F6181361306C0608126135A
:1040A00003C06281E6120FC001968770D5CF9F7062
:1040B00011F0882331F3805E883018F3C8010E9424
:1040C0006319FD2CA5CFEE2009F4A2CF8091E60163
:1040D00081608093E601F12C9BCF431306C09213BD
:1040E00004C0F801EE2009F479C0C8010E94421012
:1040F000882309F1EE20F9F08091E601803270F01A
:104100002091E1013091E20138872F831986DB8607
:10411000CA868C87CE0107960E94631986E0F80153
:10412000A1EEB1E001900D928A95E1F70E94581F2F
:10413000FF24F3946DCFC8010E946319F9CF511188
:104140000AC081EE91E00E94631986E0F5011192A8
:104150008A95E9F7C0CF43130FC092130DC0E11049
:104160000BC0F8018583C8010E94631986E0F50140
:1041700011928A95E9F74CCFC8010E94421088231A
:10418000D1F2EE20C1F28091E601803238F2209126
:10419000E1013091E2013A8329831B82DD82CC82E6
:1041A0008E83CE010196B8CFE83CF105F8F6FE2CDF
:1041B000EE2009F243131FC092131DC08091E60147
:1041C00080FD10C0982F907F69F0F8018583903FA3
:1041D00031F0982F907F905F8F70892B8583C80175
:1041E0000E94631986E0F801A1EEB1E001900D9202
:1041F0008A95E1F70DCFC8010E94421081118ECF40
:104200008091E60181608093E601C8010E946319F4
:10421000FFCEEE2009F48FCFC8010E944210F82E85
:10422000882309F488CF86E0F801A1EEB1E001907F
:104230000D928A95E1F78091E1019091E2010E944F
:1042400036100E94581FE4CE81E08E25FBCE1F93CE
:10425000CF93DF93CDB7DEB767970FB6F894DEBF85
:104260000FBECDBF4B8B5C8B6D8B7E8B8F8B6111AB
:1042700010921A021A8A198A85E0FE017396DE01ED
:104280001D9601900D928A95E1F786E0FE013D961C
:10429000DE01179601900D928A95E1F7CE010796FF
:1042A0000E94AE1F882389F016E080911802909139
:1042B000E701891349C067960FB6F894DEBF0FBEB9
:1042C000CDBFDF91CF911F91089586E0FE01379613
:1042D000DE01119601900D928A95E1F78A859B8502
:1042E000892B11F38F81988589238F3FE9F22091E3
:1042F000E70130E0C90101968770992740911802C3
:104300004817190671F40E942E151092E7011092B9
:10431000180286E0E1EEF1E0DF011D928A95E9F7EF
:10432000C3CF96E0929FD001939FB00D1124A85166
:10433000BE4FFE01319601900D929A95E1F7809360
:10434000E7010E94FA0BB0CF819FC0011124885170
:104350009E4F0E94AE1F882309F4ADCF80911802B2
:1043600090E0019687709927809318029ECF9F92C4
:10437000AF92BF92CF92DF92EF92FF920F931F9373
:10438000CF93DF93CDB7DEB72F970FB6F894DEBF8C
:104390000FBECDBF8E010F5F1F4F8AE0D8011D9267
:1043A0008A95E9F78FE8C82E81E0D82EF12CE12C10
:1043B000AA24A394B12CF60181916F018F3F09F4D7
:1043C0004AC0F894E82FE295EF70F0E021A18F70D9
:1043D000A50102C0440F551F8A95E2F7CA01922F2A
:1043E000982B91A392A18095892382A30E94180AF9
:1043F00000C0E9E9F1E030E020E0912C41914F3F2D
:1044000009F46DC0A42FA295AF70B0E090968C9186
:1044100090E04F7002C0959587954A95E2F780FD30
:104420005EC08A2D022E01C0880F0A94EAF7982AEE
:104430002F5F3F4F2730310509F7F6013197808113
:104440008F3F11F00E941A0A50EA5A95F1F7F801CD
:10445000EE0DFF1D90828FEFE81AF80AA5E0EA162C
:10446000F10409F0A8CF4AE050E0B80182E592E0FB
:104470000E94ED2D7C01892B41F08AE0F801A2E534
:10448000B2E001900D928A95E1F710915D02E1147E
:10449000F10439F181E080931F020E94B4149093DB
:1044A0001E0280931D0280911D0290911E020E94A7
:1044B000A514059778F0A2E5B2E0E12FF0E0E95508
:1044C000FD4F87E592E02D9121938A179B07D9F73D
:1044D00010921F02EF2849F081E090E055C080E083
:1044E000A6CF80911F028111DECF0E94150FD82E1A
:1044F000E0915D02882309F47FC07E01BBE0EB0EF2
:10450000F11C85E0D7011D928A95E9F70E2F10E086
:1045100009551D4F80914B028A3008F047C041E099
:1045200053E1B701C8010E94D10E882309F453C09A
:1045300042E252E1B701C8010E94D10E882309F47A
:104540004AC042E952E1B701C8010E94D10E882356
:1045500009F441C010924B02A0915C02B0E0A95551
:10456000BD4F9E01205F3F4F80E04D91F70191913B
:104570007F01491731F0AD0141505109FA01908393
:104580008D2D2E153F0589F72F960FB6F894DEBFB7
:104590000FBECDBFDF91CF911F910F91FF90EF9094
:1045A000DF90CF90BF90AF909F90089580912002B0
:1045B000909121020E94A514843F914008F0AFCF52
:1045C000E0915C02F0E0E955FD4F10821182128209
:1045D0001382148281CF80914B028F3F31F08F5F25
:1045E00080934B028A3008F4B7CF0E94B4149093A2
:1045F000210280932002E4CFF0E0E955FD4FF894CA
:1046000085E0A5E3B2E001900D928A95E1F785E39C
:1046100092E00E945006809334020E94180AF89497
:10462000C0903A02D0903B02E0903C02F0903D02F4
:104630008091220290912302A0912402B091250240
:10464000C816D906EA06FB06D1F0C0922202D09223
:104650002302E0922402F09225020E94150F81119C
:104660000EC00E940508C61AD70AE80AF90AC092C5
:104670004C02D0924D02E0924E02F0924F020E9404
:10468000180AF89480914502882321F184FF04C020
:10469000909146029093C10280FF0DC080913E022E
:1046A00080FF1CC09091A60391609093A60360E0E8
:1046B00086950E9471118091450281FF09C020E01A
:1046C000409141026091400280913F020E94A210FD
:1046D000109245020E94180A80E056CF0E94BC0E3C
:1046E000EACF1F921FB61F9211248F939F93AF930F
:1046F000BF938091B703811113C08091B80390914B
:10470000B903A091BA03B091BB034196A11DB11D9D
:104710008093B8039093B903A093BA03B093BB03FB
:10472000BF91AF919F918F911F901FBE1F901895C1
:10473000CDB7DEB7AC970FB6F894DEBF0FBECDBFD6
:1047400084B7877F84BF0FB6F894A89580916000E6
:10475000886180936000109260000FBE80E890E056
:104760000FB6F89480936100909361000FBE85B7F7
:10477000806885BF85B7806885BF86E19AE09093A1
:10478000BB018093BA010E9467060E9432078091A4
:10479000E20084608093E20078948091CC038823C7
:1047A000A1F01091E9001F709091EC00892F8170A9
:1047B00090FD80E8182B1092E9008091E80083FDBD
:1047C0000E9439151F701093E90082E084BD93E0C8
:1047D00095BD9AEF97BD80936E0010924C02109297
:1047E0004D0210924E0210924F020E9469108111E8
:1047F00002C00E94C50F0E94150F8093280180916E
:104800002801882309F46AC010923A0184E2809357
:104810003B010E94150F81110E94AB2B8091280152
:104820008091280195E0811190E090935D0285E0F0
:10483000891B80935C020FE811E084E9E82E81E097
:10484000F82ED8018D918D018F3F11F00E941A0A28
:10485000E016F106B1F709E911E0B0EAEB2EB1E09C
:10486000FB2EF80181918F018F3F11F00E941A0AEF
:10487000E016F106B1F7E2E5F2E08CE592E0A7EA96
:10488000B2E011921D928E179F07D9F70E949F13D5
:10489000811102C00E94B81182E090E00E94A23013
:1048A00080939C020E948210909351028093500248
:1048B0000E94B7218FE39CE90197F1F700C0000047
:1048C0000E94B7218091A70280FF0DC06FEF7FEF9C
:1048D00090E080E00E94D4300E94F40784E280934C
:1048E0003A0188E294CF83E090E00E94A2300E94D7
:1048F0002A150E94150F811102C00E94AE2B0E9442
:10490000150F882309F40EC283E08093970280FD7F
:104910000BC280E88093DA030E94432A6DE070E0C6
:104920008CE492E00E945C0D892BE9F5809197025E
:1049300063E070E081FDFAC189E492E00E945C0DC1
:10494000892B89F56DE070E089E392E00E945C0DAF
:10495000892B49F50E940508605A75418F4F9F4F7A
:104960006093AB037093AC038093AD039093AE035D
:10497000EDEDF3E080E092E0DF019C011D9221501B
:104980003040E1F7F093E405E093E3058FEF9FEF0C
:104990009093DC038093DB0381E08093B0038093EA
:1049A000AF031092980280915E02811136C00E947E
:1049B0009F13811104C00E94B8110E94A11188E0C8
:1049C00090E00E94AA306093A6037093A70380939F
:1049D000A8039093A9038091C00283608093C002D2
:1049E0006E7F71F40E94A11188E090E00E94AA30CD
:1049F0006093A6037093A7038093A8039093A903E1
:104A00000E945C088091A60380FF04C060E0869548
:104A10000E94711181E080935E0289E291E090939F
:104A2000B4038093B303A8E18A2E912C8091CC0328
:104A300000E112E1853009F4B2C10E94B721D82EFD
:104A400081110E940508EDE9F2E0A7EAB2E010E06A
:104A500000E0B02EED9081918E1509F4AFC18E2546
:104A6000C12CFF24F394982F9F2109F4A2C10E9426
:104A7000150F882399F0C9A2BAA2EF2081E009F4AA
:104A800080E08BA30E94B4148160782F9DA38CA337
:104A900049A15AA16BA18DA10E942721F801E356DB
:104AA000FD4F8081F826F0828091B0038823B1F118
:104AB0008091990290919A020E94A514C29708F0E1
:104AC00094C12091DB033091DC032115310509F0FD
:104AD00038C28091AF03882309F10E940508009134
:104AE000AB031091AC032091AD033091AE03601B7A
:104AF000710B820B930B6F3F7F4F8F4F9F4770F46B
:104B00008091B003882351F062E070E08CEB92E07A
:104B10000E945C0D892B11F41092AF03D1100E94FA
:104B20008C0D86E0E8EBF2E0DE01119601900D922B
:104B30008A95E1F7F090BA02E090BB021091BC02B6
:104B40000091BD021092BA021092BB021092BC02F8
:104B50001092BD028F2D8E2909F448C08091B602B3
:104B60009091B7020E94A5149C019091B2029923E2
:104B700009F484C423333105C8F19F3F19F09F5FC6
:104B80009093B202FF2059F00E949C099FEF1F14DE
:104B90000CF491E0899F802D11248093BA02EE20BD
:104BA00059F00E949C099FEF1E140CF491E0899F1C
:104BB000802D11248093BB023091BA023323B1F0CF
:104BC0002091BB02222391F045EB3403C001112454
:104BD000992309F488C29093BA0245EB240390010B
:104BE0001124332309F483C23093BB02812F802B1D
:104BF00009F448C08091B4029091B5020E94A514B6
:104C00009C019091B102992309F433C425363105F2
:104C1000C8F19F3F19F09F5F9093B102112359F0A3
:104C20000E947A099FEF11160CF491E0899F802D64
:104C300011248093BC02002359F00E947A099FEF4F
:104C400010160CF491E0899F802D11248093BD02F1
:104C50003091BC023323B1F02091BD02222391F0A8
:104C600045EB3403C0011124992309F444C2909305
:104C7000BC0245EB240390011124332309F43FC205
:104C80003093BD028091BA029091BB02892B909122
:104C9000BC02892B9091BD02892B11F00E94C01497
:104CA00086E0FE013196A8EBB2E001900D928A9564
:104CB000E1F70E94380F90919B02891721F00E9422
:104CC000380F80939B028091CC03843009F0AECEE4
:104CD00083E08093E9008091E80082FFA7CE809175
:104CE000E80090E085FF0CC00E94860630E2E32ECB
:104CF000F12C8E010F5F1F4F882309F40EC291E043
:104D00008091E8008B778093E800992309F48ECE98
:104D1000E981E150E33108F063C2F0E0E05FFE4C6E
:104D20000C94A02D80E0F1CD80E2F4CD86E492E0F9
:104D300005CE8091CC03843011F11092B70330E49A
:104D40000FB6F894A895809260000FBE3093600073
:104D500083B7817F846083BF83B7816083BF78948A
:104D6000889583B78E7F83BF0FB6F894A8958091FE
:104D70006000886180936000109260000FBE809197
:104D8000CB03882361F00E94B721E7EAF2E081912A
:104D9000811150C381EB92E08E179F07C1F780917C
:104DA000CC03853009F4C5CF0E942E150E94380F20
:104DB00044CEC394FF0C97E0C91255CE0F5F1F4F2E
:104DC0000A30110509F045CE8FEF8EA38FA318A6E8
:104DD0000E94B4148160782F9AA789A74EA15FA181
:104DE00068A58AA50E9427215FCE0E94B4149093E3
:104DF0009A0280939902ADEDB3E0B093E405A093DD
:104E0000E3050E94150F882309F496C08BE792E012
:104E10000E943F0D85E792E00E943F0D8091D903EB
:104E20000E946D0C813009F47CC0882359F08230D7
:104E300009F47AC0833009F47AC08FE592E00E94C9
:104E4000FF0C04C081E792E00E943F0D8EE592E0E6
:104E50000E943F0D8AE592E00E943F0D89E592E0B5
:104E60000E943F0D8091A60380FF64C086951F922B
:104E70008F9380E491E09F938F931F9216E01F938E
:104E800081E792E09F938F930E94032E81E792E047
:104E90000E94440D8091A7031F928F9387E491E0B5
:104EA0009F938F931F921F938BE692E09F938F9314
:104EB0000E94032E8BE692E00E94440D8091A8038D
:104EC0001F928F938EE491E09F938F931F921F9375
:104ED00085E692E09F938F930E94032E85E692E0F1
:104EE0000E94440D8091A9031F928F9385E591E064
:104EF0009F938F931F921F938FE592E09F938F93C1
:104F00000E94032E0FB6F894DEBF0FBECDBF8FE513
:104F100092E00E94440D8091B003882309F4D9CD1A
:104F2000D0CD8DE692E090CF89E692E08DCF85E6F8
:104F300092E08ACF80E09BCF8CE792E00E94FF0C4A
:104F4000EACF8091980261E070E08111C2CD082F14
:104F500010E07B01082E02C0EE0CFF1C0A94E2F761
:104F6000A9014E215F21452B09F447C0909197027A
:104F700090FD45C08295880F807680933501980119
:104F8000369527953695279520933801815E809335
:104F900036011092390124E630E047E050E063E347
:104FA00071E088E70E94F22A892B09F092CDA801CE
:104FB000E5E0440F551FEA95E1F78091970280FDE7
:104FC0002CC043525C4F04E610E020E230E060E485
:104FD00088E70E94192B892B09F07BCD0E948C0D4C
:104FE000E094F0948091DB039091DC03E822F922B5
:104FF000F092DC03E092DB036CCD8F5FA8CF880FCB
:10500000880F880F8093350110923801895F809353
:10501000360183E080933901BECFE7E7F2E080E21A
:10502000DF011D928A95E9F7E4EAF1E0FCA7EBA71E
:1050300000EA11E078EA272E71E0372EABA5BCA577
:105040002D91BCA7ABA7F80141908F01440E552EBE
:10505000511CC20183529C4F2C01E22FF0E0E95811
:10506000FD4F30E020E067E0662E621ACC24C39446
:10507000022E01C0CC0C0A94EAF7520190E0D5014F
:105080008D915D018C21662D691B6770762E062E31
:10509000000C770BB82F01C0BB0F7A94EAF77B2E78
:1050A0007195619571096770772701C086956A953A
:1050B000EAF7782A8081782A70829F5F9830F9F623
:1050C0002F5F3F4F31962830310569F6EBA5FCA5DF
:1050D0002E163F0609F0B2CF04E610E020E230E0E1
:1050E00047E752E074CF81E08093BA0276CD81E049
:1050F0008093BB027BCD81E08093BC02BACD81E07E
:105100008093BD02BFCD8091F100D8018D938D01B8
:10511000B1E0EB1AF10809F4F2CD8091E80085FDC9
:10512000F2CF8091E8008B778093E8000E9486069A
:10513000882399F3E4CD1A8289E08B8311C08A8198
:10514000823009F48DC1833091F1813009F048C07B
:105150000E9405080E94A62D6B837C838D839E830D
:105160008091CC03843009F061CC1091E9001F706C
:105170009091EC00892F817090FD80E8182B82E0DF
:105180008093E9008091E80080FF0DC050E040E08E
:1051900060E270E0CE0101960E94B7068091E800BF
:1051A0008E778093E8001F701093E9003FCCDE01FA
:1051B0001396E7EAF2E081918D9322E0E13BF2075A
:1051C000D1F7CECF8A81823059F46B817C818D8179
:1051D0009E810E94A62D86E290E00E94B630C0CF4C
:1051E0008FEF8983BDCF4C816B818A810E94D40F60
:1051F0009827892798279E838D83B2CF0D811E81A2
:105200001027012710278A81EB803EE0E39E700182
:1052100011244CE8849FE00CF11C11248C8190E057
:10522000880F991FE80EF91E612FC70187960E940B
:10523000B630602FC7018896D0CF0E94580F90CF0C
:105240008A818138C1F060F4803809F089CF20E08C
:105250004B816091A8038091A7030E94A21080CF88
:105260008238E9F0833809F07BCF20E04091A90330
:105270006C818B81F2CF60E08B810E9471118B81F8
:10528000811103C00E94BC0E6BCF8091A603816088
:105290008093A60360E086950E94711161CF8B8197
:1052A0008093AA035DCF8A81813899F030F48038E9
:1052B00009F056CF8091A90340CF823891F083380E
:1052C00009F04ECF8091A7038B838091A8038C8334
:1052D00047CF8091A60380FF02C086952ECF80E045
:1052E0002CCF8091AA0329CF6091A6037091A703C8
:1052F0008091A8039091A9030E94901031CF80E182
:105300008A832ECF81E08A8389EA17CF0A811B81A5
:10531000102701271027CE0101966C01EC80DC01DB
:10532000AE0DB11D7D01C801895A9D4FCE14DF0419
:1053300009F416CF093AB1E01B0750F40E94A230DD
:10534000F60184830F5F1F4FBFEFCB1ADB0AEBCF51
:10535000D60114961C92F6CF0A811B8110270127D3
:105360001027FE0131966F01EC80E00EF12EF11C4A
:10537000C801895A9D4FE016F10609F4F1CE093AA9
:10538000F1E01F0728F4D60114966C910E94B63004
:10539000BFEFCB1ADB0A0F5F1F4FEACF0E94480F07
:1053A000DFCE84E0ADCF0A811B81102701271027B3
:1053B000FE0131966F01EC809F012E0D311D7901A8
:1053C000C8018796EC14FD0409F4CACE003332E01C
:1053D000130758F40E94A230D60114968C930F5FE5
:1053E0001F4FFFEFCF1ADF0AEBCFF6011482F7CF82
:1053F0000A811B811027012710279E012F5F3F4F35
:105400006901EC80E00EF12EF11CC8018796E016D0
:10541000F10609F4A5CE003332E0130728F4D601D3
:1054200014966C910E94B630BFEFCB1ADB0A0F5F67
:105430001F4FEBCF09BD19BD09B400FEFDCF809110
:10544000D8008F7D8093D8008091E00082608093A7
:10545000E0008091E00081FDFCCF0E942E159FCCE2
:1054600086E290E00E94A2301B821C821D828E8305
:1054700077CE2D32314008F0CECB04CC2D323140E6
:1054800008F07DCBB3CB1092B9008CE08093B800CC
:1054900008959F92AF92BF92CF92DF92EF92FF92C8
:1054A0000F931F93CF93DF93B82EEB010E94B41498
:1054B0006C01EE24E394F12CC431D10560F025E0B9
:1054C000E22EF12CCF3FDC0731F0CE0164E170E039
:1054D0000E946C2D7B0184EAA82E94E8992E1092EC
:1054E000BC00A092BC000E94B4148C018091BC004E
:1054F00087FF0DC08091B900887F883039F1809195
:10550000B900887F803111F10FEF1FEF09C00E94B1
:10551000B414801B910B8E159F0540F30EEF1FEF07
:10552000CF3FDC07E1F2C6010E94A5148C179D074E
:10553000B0F2C801DF91CF911F910F91FF90EF90D2
:10554000DF90CF90BF90AF909F900895B092BB0036
:105550009092BC000E94B4148C018091BC0087FF23
:105560000AC08091B900887F883111F0803461F6DB
:1055700010E000E0DECF0E94B414801B910B8E156A
:105580009F0558F3CBCF0F931F93CF93DF93EB017E
:105590008093BB0084E88093BC000E94B4148C010B
:1055A0008091BC0087FF11C02091B900287F81E065
:1055B00090E0283211F490E080E091958195910976
:1055C000DF91CF911F910F910895CF3FDC0741F3F9
:1055D0000E94B414801B910B8C179D0708F38EEF6B
:1055E0009FEFEECFCF92DF92EF92FF920F931F9338
:1055F000CF93DF936B018A017901B9010E94492A97
:10560000E6010C0D1D1DC017D10761F424E920939C
:10561000BC00DF91CF911F910F91FF90EF90DF9031
:10562000CF90089597FDF2CFB70189910E94C32AC8
:10563000EACFCF92DF92EF92FF920F931F93CF9317
:10564000DF93C62F6A017901B8010E94492A97FDAC
:105650000CC0B8018C2F0E94C32AE601EC0CFD1C83
:10566000CE15DF0511F097FF0CC024E92093BC0094
:10567000DF91CF911F910F91FF90EF90DF90CF902E
:105680000895B80189910E94C32AEACF84E98093E2
:10569000BC0008958EE14A9B02C08150E1F74A9B0D
:1056A000FECF08955A9880E28A95F1F75A9A0895A4
:1056B000FC013BE03A95F1F798E020E080E031E032
:1056C00040E14A95F1F7880F4A9B02C08160232789
:1056D00042E04A95F1F7000040E14A95F1F7915018
:1056E00079F790E19A95F1F799B132E03A95F1F7AF
:1056F000000040E14A95F1F792FB992790F9922733
:105700002081920F90830895EF92FF920F931F9341
:10571000CF93DF930F92CDB7DEB719828C017C0156
:10572000E60EF11C0E151F0561F481E099819111BF
:1057300080E00F90DF91CF911F910F91FF90EF903C
:1057400008950E944A2BCE0101960E94582BF80121
:1057500081938F01E7CF529A5A9A089552985A9A94
:10576000EA9AE9E6F0E080818F7C808308956150B9
:10577000770B91E001C0990F6A95EAF720E031E0DC
:10578000911108C0222391F05A9A80E28A95F1F78C
:105790005A980895492F482339F05A9A232740E20E
:1057A0004A95F1F79695ECCF5A98F9CF5A98EDCFE4
:1057B000FF920F931F93CF93DF93EC018C01060FA1
:1057C000111DC017D10731F4DF91CF911F910F91B7
:1057D000FF900895F9900E94522B68E08F2D0E944F
:1057E000B72BEFCF1F920F920FB60F921124EF92AB
:1057F000FF920F931F932F933F934F935F936F935A
:105800007F938F939F93AF93BF93EF93FF93CF9328
:10581000DF930F92CDB7DEB719820E944A2BCE01DB
:1058200001960E94582BA82FA695A695A695282FDD
:10583000229525709A2F9570290F922F9370269597
:105840002695920F982797708981982B09F075C03B
:10585000A53008F072C080E18A95F1F75A9A529A01
:10586000B2E0BA95F1F700C05A98EA2EF12CEAE0BE
:10587000AE9FD0011124A050BF4F1896ED91FC911E
:1058800019973097B1F060918D0170918E01169645
:105890002D913C911797260F371F13968D919C9150
:1058A0001497680F791F15964C91159712968C9145
:1058B00009958AE08E9DF0018F9DF00D1124E05036
:1058C000FF4F6581662351F020918D0130918E014B
:1058D00086819781820F931F0E94D82B0E94522BA2
:1058E000F0E1FA95F1F75A9852985A9A80E18A9520
:1058F000F1F78AE08E9D80018F9D100D11240050DC
:105900001F4FD80112966C911297662371F1209166
:105910008D0130918E0113968D919C91820F931F72
:105920000E94842BD801ED91FC91882311F088E02E
:1059300001C082E080830E944A2B0F90DF91CF91BB
:10594000FF91EF91BF91AF919F918F917F916F9157
:105950005F914F913F912F911F910F91FF90EF9089
:105960000F900FBE0F901F901895ED91FC91DFCF17
:105970000F931F93CF93DF93EC0105970CF0A9C011
:105980008AE08C9FF0018D9FF00D1124E050FF4FB5
:1059900080819181892B09F49CC0F894529A5A987D
:1059A00085E08A95F1F700008C2F869585709C2FF5
:1059B0009570890F982F937086958695890F8E0123
:1059C00093E0000F111F9A95E1F7082B0E94522BCC
:1059D00000C068E0802F0E94B72BA0E1AA95F1F7E4
:1059E00052985A9A4A9B27C087E090E04A9925C06E
:1059F0008AE08C9F80018D9F100D112400501F4F55
:105A0000F80165816623A1F120918D0130918E010D
:105A100086819781820F931F0E94842B811128C059
:105A2000529A5A9AD801ED91FC9182E08083789441
:105A300082E090E016C000C0D5CF0197B9F4529A29
:105A40005A9A8AE08C9FF0018D9FF00D1124E0504E
:105A5000FF4F0190F081E02D81E08083789481E018
:105A600090E0DF91CF911F910F91089500C0BECFBC
:105A70000E944A2BB0E2BA95F1F75A98529AE0E1A7
:105A8000EA95F1F78AE08C9FF0018D9FF00D1124CB
:105A9000E050FF4F6281662351F020918D013091DB
:105AA0008E0183819481820F931F0E94D82B0E94C4
:105AB000522B8AE08C9FF0018D9FF00D1124E05055
:105AC000FF4F0190F081E02D1082789490E080E00B
:105AD000C8CF84E090E0C5CFAA1BBB1B51E107C033
