:100000000C9445060C948C060C948C060C943B2C9A
:100010000C948C060C948C060C948C060C948C0618
:100020000C948C060C948C060C9474140C94081983
:100030000C94DD240C948C060C948C060C948C0689
:100040000C948C060C948C060C948C060C948C06E8
:100050000C948C060C944B150C948C060C948C060A
:100060000C948C060C948C060C948C060C948C06C8
:100070000C948C060C948C060C948C060C948C06B8
:100080000C948C060C948C060C948C060C948C06A8
:100090000C948C060C948C060C948C060C948C0698
:1000A0000C948C060C948C060C948C06000100FFBA
:1000B000D6010600EBD10701C3EBD108051AFFE218
:1000C0000D01C3EBD10E054FFFB21301C3EBD114E9
:1000D0000566C7BC1905A7E3C11E0800EBD12607BA
:1000E0001AFFE22D01C3EBD12E064FFFB23401C33C
:1000F000EBD1350566C7BC3A02C3EBD13C04A7E39C
:10010000C140060000004306000000FF00000000A0
:10011000000100000001060000FF070100000008C8
:10012000050000FF0D010000000E050000FF130197
:1001300000000014050000FF19010000001A010072
:10014000FFD61B030000001E220000004006000036
:10015000004306000000FF00000000000100FFD681
:100160000104A7E3C10502C3EBD107010000FF08AA
:1001700005A7E3C10D0100EBD10E03A7E3C11102F6
:10018000C3EBD1130100EBD11403A7E3C11702C3E2
:10019000EBD1190100EBD11A010000FF1B0200EBAB
:1001A000D11D0100FFD61E22000000400600000005
:1001B0004306000000FF00000000000100FFD60120
:1001C0000466C7BC05021AFFE207010000FF08052C
:1001D00066C7BC0D0100EBD10E0366C7BC11021A45
:1001E000FFE2130100EBD1140366C7BC17021AFF2C
:1001F000E2190100EBD11A010000FF1B0200EBD154
:100200001D0100FFD61E2200000040060000004332
:1002100006000000FF0000000029001E001F002053
:1002200000210022002300115014001A00080015BC
:10023000001700000004001600070009000A000B68
:10024000000000E1001D001B000500060019000071
:1002500000E00002512C0035002800A60000002418
:10026000002500260027002D002E00310000000090
:10027000000000000000000000000000000000007E
:10028000000F003300340028000000000036003763
:10029000003800E5000000A7008A002C00E600E717
:1002A0000035002A0029001E002400250026002217
:1002B000002300105014001A000800150017000059
:1002C0000004001600070009000A000B000000E10E
:1002D00000110010000D00060019000000E00001F0
:1002E000002C0035002800A600000040004100421C
:1002F000004300440045004900000000004600475C
:1003000000480052000000000000004A000F0050AA
:10031000004F000000000000004D004E00510000A2
:10032000000000A700000000000000E7004C0000F3
:100330000029001E001F0020002100270046001396
:100340005018000C00120013000E00000004000FF3
:10035000002F0033000A000B000000E100340036DB
:10036000003700060019000000E00001002C0035F5
:10037000002800A600000024002500260027002DEC
:10038000002E0031001C0018000C00120013002F7A
:100390000030000B000D000E000F00330034002869
:1003A0000011001000360037003800E5001150A79A
:1003B000002C002C00E600E70035002A0029001E72
:1003C000001F0020002100220023002B0014001A2F
:1003D000000800150017000000E0000400160007E8
:1003E0000009000A000000E1001D001B00060019C2
:1003F0000005000000E0001050E20035002C00A6CF
:1004000000000024002500260027002D002E0031CA
:10041000001C0018000C00120013002F0030000B0D
:10042000000D000E000F00330034002800110010F2
:1004300000360037003800E5001150A7002C002CD2
:1004400000E600E70035002A0000DA0281FFD9F15A
:10045000DB20A4A62EAF00A0C000A1C800AED580AE
:10046000A81FD300408D142000BA015B011001AC1D
:100470000000008182838485868788898A8B8C8DA1
:100480008E8F909192939495969798999A9B9C9D14
:100490009EA1A2A3A4A5A6A7A8A9AAABACADAEAFE6
:1004A000B0B1B2B3B4B5B6B7B8B9BABBBCBDBE0093
:1004B0006E2F61003474680033726400326E640021
:1004C000317374004C415945520000000023210053
:1004D0000101010101010101010202020202020205
:1004E00002020303030303030303040404040404D8
:1004F000040505050505060606060607070707079E
:1005000008080808090909090A0A0A0B0B0B0C0C50
:100510000C0D0D0D0E0E0E0F0F0F101011111112EC
:100520001213131414151516161717181819191A6B
:100530001A1B1B1C1D1D1E1E1F20202122222324CE
:1005400024252626272829292A2B2C2D2D2E2F300D
:10055000313232333435363738393A3B3C3D3E3F21
:10056000404142434445464748494A4C4D4E4F500E
:10057000515354555658595A5B5D5E5F61626465CC
:100580006668696B6C6D6F7072737577787A7B7D56
:100590007E8082838587888A8C8E8F9193959698AA
:1005A0009A9C9EA0A2A3A5A7A9ABADAFB1B3B5B7C6
:1005B000BABCBEC0C2C4C6C9CBCDCFD1D4D6D8DB9D
:1005C000DDDFE2E4E7E9EBEEF0F3F5F8FAFDFF003A
:1005D0000102030405060708090A0B0C0D0E0F1093
:1005E0001112131415161718191A1B1C1D4041421D
:1005F0004647481E1F2021222324252D2C2B2A2943
:100600002827262E2F30313233343B3A39383736CB
:10061000353C3D3E3F454443494A4B0023000501DC
:100620000902A10185020901A10005091901290892
:100630001500250195087501810205010930093170
:100640001581257F95027508810609381581257F5A
:10065000950175088106050C0A38021581257F95DC
:100660000175088106C0C005010980A10185031933
:10067000012AB700150126B700950175108100C049
:10068000050C0901A101850419012AA00215012602
:10069000A002950175108100C005010906A10105A0
:1006A0000719E029E71500250195087501810295D4
:1006B00001750881010507190029FF150026FF00B3
:1006C000950675088100050819012905950575012C
:1006D0009102950175039101C009023B00020100DE
:1006E000A0FA090400000103010100092111010021
:1006F000012240000705810308000A0904010001E6
:1007000003000000092111010001227B000705827E
:100710000320000A120100020000000838393436B4
:100720000200010200010A03520065003600340095
:10073000000012036B0075007300680069006D0013
:1007400061003800000004030904000000000000FC
:100750003E5B4F5B3E003E6B4F6B3E001C3E7C3E63
:100760001C00183C7E3C18001C577D571C001C5E6A
:100770007F5E1C0000183C180000FFE7C3E7FF0085
:10078000001824180000FFE7DBE7FF0030483A06B6
:100790000E00262979292600407F05050700407FA5
:1007A00005253F005A3CE73C5A007F3E1C1C0800D0
:1007B000081C1C3E7F0014227F2214005F5F005F34
:1007C0005F0006097F017F00006689956A0060600E
:1007D0006060600094A2FFA2940008047E040800F8
:1007E00010207E20100008082A1C0800081C2A0877
:1007F00008001E10101010000C1E0C1E0C003038CB
:100800003E383000060E3E0E0600000000000000DC
:1008100000005F000000000700070000147F147F45
:100820001400242A7F2A1200231308646200364928
:1008300056205000000807030000001C2241000061
:100840000041221C00002A1C7F1C2A0008083E08C8
:100850000800008070300000080808080800000048
:10086000606000002010080402003E5149453E002F
:1008700000427F4000007249494946002141494DEC
:1008800033001814127F10002745454539003C4AB3
:1008900049493100412111090700364949493600CB
:1008A000464949291E0000001400000000403400A1
:1008B0000000000814224100141414141400004114
:1008C000221408000201590906003E415D594E00FC
:1008D0007C1211127C007F49494936003E4141415A
:1008E00022007F4141413E007F49494941007F0943
:1008F000090901003E41415173007F0808087F004B
:1009000000417F4100002040413F01007F08142248
:1009100041007F40404040007F021C027F007F0476
:1009200008107F003E4141413E007F090909060051
:100930003E4151215E007F09192946002649494957
:10094000320003017F0103003F4040403F001F2071
:1009500040201F003F4038403F00631408146300EC
:100960000304780403006159494D4300007F41416D
:100970004100020408102000004141417F000402B0
:10098000010204004040404040000003070800000E
:100990002054547840007F2844443800384444446C
:1009A0002800384444287F00385454541800000864
:1009B0007E0902001824241C78007F0804047800B3
:1009C00000447D4000002040403D00007F1028444E
:1009D000000000417F4000007C04780478007C081F
:1009E000040478003844444438007C182424180057
:1009F000182424187C007C0804040800485454542B
:100A0000240004043F4424003C4040207C001C207F
:100A100040201C003C4030403C004428102844004A
:100A20004C9090907C004464544C44000008364143
:100A300000000000770000000041360800000201BD
:100A4000020402003C2623263C00000000000000B7
:100A50008000000000000000000000000000000016
:100A60000000000000000000000000000080010302
:100A7000060C080808080818304080F01808080814
:100A800008080808080808080C0603010000000010
:100A900000000000000000008080810000000000D5
:100AA0000000000000000000000000206040C08046
:100AB0008090D0D0F0FCFFFFFFFFFFFFFFFFFFFEA5
:100AC000FEE040408080800046C6C6C4F4FCFEFFC5
:100AD0007F4FCF7F7F7F7F7F7F7F47C7477FFFFF2E
:100AE000FFF999999919000000007FFFFFFFFEFEB2
:100AF000FEFEFEFEFEFEFEFEFEFEFEFEFFFFFFFF12
:100B0000C1E1210100000000000000000000000021
:100B1000000000060C0D0F0707070F0F0F0F0F0F38
:100B20000F0F0F0F0707070B1B3B01000000000012
:100B30000000000000008080C0C0C0C0C0C0C0C0B5
:100B4000C0C0808000000000000000000000000025
:100B50000207070F0F1F1F1F1F1F1F1F1F1F1F1F12
:100B60001F0F0F0707020000000000000000000038
:100B70000000000000000000000000000000000075
:100B80000000000000000000000000000000000065
:100B90000000000000000000000000000000000055
:100BA0000000000000000000000000000000000045
:100BB0000000000000000000000000000000000035
:100BC0000000000000000000000000000000000025
:100BD0000000000000000000000000000000000015
:100BE0000000000000000000000000000000000005
:100BF00000000000000000000000000000000000F5
:100C000000000000000000000000000000000000E4
:100C100000000000000000000000000000000000D4
:100C200000000000000000000000000000000000C4
:100C300000000000000000000000000000000000B4
:100C400000000000000000000000000000000000A4
:100C50000000000000000000000000000000000094
:100C60000000000000000000000000000000000084
:100C70000000000000000000000000000000000074
:100C80000000000000000000000011241FBECFEF94
:100C9000DAE0DEBFCDBF04B603FE27C08091EF05CA
:100CA0009091F005A091F105B091F2058730904B3D
:100CB000A740B04BD1F41092EF051092F0051092BE
:100CC000F1051092F20514BE84B7877F84BF0FB67A
:100CD000F894A895809160008861809360001092DC
:100CE00060000FBEE0E0F8E3099511E0A0E0B1E09C
:100CF000E8EFFCE502C005900D92A43BB107D9F7DF
:100D000025E0A4EBB1E001C01D92AF3EB207E1F7D0
:100D10000E9404250C94562E0C940000E8EDF0E09F
:100D200080818E7F80831092E2001092DA00109210
:100D3000E100A0EEB0E08C9181608C9380818F7790
:100D4000808319BCA7EDB0E08C918E7F8C9380815D
:100D50008F7E80831092CA0308952091E400309121
:100D6000E50095E6A9012091EC00822F817020FF1B
:100D700006C08091E80080FF06C080E008952091C1
:100D8000E80022FD1AC08091D703882389F08530BE
:100D900089F08091EB0085FD0FC02091E400309137
:100DA000E50042175307F9F29150E1F684E0089507
:100DB00082E0089583E0089581E00895EF92FF9224
:100DC0000F931F93CF937C018B010E94AD06C82F18
:100DD000811117C08091E80085FD0BC08091E8006B
:100DE0008E778093E8000E94AD06882399F3C82F80
:100DF00008C0F70181917F018093F1000150110932
:100E000049F78C2FCF911F910F91FF90EF9008958C
:100E10008091D90387FF13C08091E80082FF06C04C
:100E20008091E8008B778093E80004C08091D7031D
:100E30008111F2CF08958091D7038823D9F380914F
:100E4000E80080FFF8CF8091E8008E77ECCF982FF4
:100E50009093E900242F762F50E0891731F070919C
:100E6000EC002091ED005091F00021FD07C09F5F44
:100E7000973071F78093E90081E008953091EB009D
:100E80003E7F3093EB003091ED003D7F3093ED00DD
:100E90003091EB0031603093EB007093EC002093C5
:100EA000ED005093F0002091EE0027FDE0CF80E0B0
:100EB0000895CF92DF92EF92FF920F931F93CF93FB
:100EC000DF93C8EDD0E088818F7E8883E7EDF0E086
:100ED00080818160808384E082BF81E08093CA0347
:100EE00088818E7F888302EE10E0F80110821092D4
:100EF000DA0081EEC82ED12CF601108288818F771E
:100F0000888388818068888388818F7D888319BCE5
:100F10001092D7031092D8031092D6031092D503E3
:100F200090EEE92EF12CF70180818B7F8083888100
:100F30008160888342E060E080E00E942707F6013C
:100F400080818E7F8083F8018081816080838081B1
:100F500088608083F70180818E7F808388818061B3
:100F60008883DF91CF911F910F91FF90EF90DF90D9
:100F7000CF900895FC018091DF039091E0038617E4
:100F80009707A0F06115710529F49091E8009E770C
:100F90009093E80090E06115710551F4911108C03B
:100FA0008091E80082FF34C080E00895BC01F2CF58
:100FB0008091D7038823C1F18530C1F18091E80089
:100FC00083FD30C08091E80082FDEACF8091E80087
:100FD00080FFE1CF8091F3002091F200382F61155E
:100FE000710519F02830310558F091E028303105AD
:100FF00009F090E02091E8002E772093E800CBCF15
:1010000081918093F100615071092F5F3F4FE7CFCD
:101010008091D703882341F0853041F08091E8002A
:1010200083FFBECF81E0089582E0089583E00895B4
:101030008091CC0308952FB7F8946091C303709109
:10104000C4038091C5039091C6032FBF08959C01EE
:10105000FC0132969FEF80E04191461751F09F3F8F
:1010600019F4411101C0982F8F5F8630A9F79F3F77
:1010700009F40895290F311D97FD3A95F90162830E
:1010800008952091C0033091C1032817390771F0EA
:101090009093C1038093C003E091BE03F091BF031E
:1010A000309721F00084F185E02D09940895209176
:1010B000BC033091BD032817390771F09093BD032D
:1010C0008093BC03E091BE03F091BF03309721F001
:1010D0000680F781E02D09940895FC01680F791FBF
:1010E0008FEF91E32191822728E030E087FF09C04C
:1010F000880F892721503109C9F7E617F70791F7BB
:101100000895880FF7CFFA01811101C0FB010994FE
:101110008091B103982F9E7F39F48091B103817043
:1011200082608093B10308958430B8F70895AF9238
:10113000BF92DF92EF92FF920F931F93CF93DF93B3
:10114000082F162FE901E42FF0E0E153FB4F611166
:1011500010C0E4915E2F4E2F4983E8835A83DF91BC
:10116000CF911F910F91FF90EF90DF90BF90AF90C4
:101170000895E62EF12C4491D42EE42FF0E026E0E1
:10118000829FC00111242FEF30E0B9010E94B52DDC
:10119000802F90E0880F991F55E5569FD001579FEB
:1011A000B00D11248A1B9B0B982F990F890F5901A1
:1011B000AE18BF08AE9ED001AF9EB00DBE9EB00D62
:1011C00011245B2F189F80011124012F1127590131
:1011D000A01AB10AAE9E8001AF9E100DBE9E100DEA
:1011E00011245901A81AB108AE9CC001AF9C900D02
:1011F000BE9C900D1124892F9927281B390B2E9FF7
:10120000C0012F9F900D3E9F900D1124E92F623059
:101210007105A1F050F46115710509F49DCF61309D
:10122000710581F0EB2F512F97CF6430710569F074
:1012300080F06630710509F48FCFF4CFE42F4B2F87
:10124000592F8ACFE42F412F87CFEB2F542F492FCF
:1012500083CF4B2F5D2DE12F7FCF4091C3028D3E79
:1012600059F48091C40287FF0DC01092C40241114D
:101270000BC01092BB0208C08E3E81F48091C40264
:1012800018169CF3442381F08091C5029091C60208
:10129000892B09F05AC01092BA0208958F3E49F482
:1012A00047FFF0CF1092C3028091C4028111ECCFAE
:1012B000E0CF803F19F41416ACF3E4CF9091C5024F
:1012C000893F29F41916F4F61092C502DBCF8A3F44
:1012D00019F497FFD7CFF8CF9091C6028B3F29F42E
:1012E00097FFD0CF1092C602CDCF8C3F19F41916BC
:1012F000CCF3C8CF9FE0980F983090F4815F990BA2
:1013000021E030E0B90102C0660F771F8A95E2F74D
:10131000CB0180959091C20289238093C202B2CF03
:101320008D3F31F48091BC028E7F8093BC02AACFA6
:101330008E3F21F48091BC028D7FF7CF8F3F09F063
:10134000A1CF8091BC028B7FF0CF08958091BC0229
:1013500080FD16C081FD16C082FD16C08091BA02C4
:101360008823A1F0883280F428E0829FC0011124F4
:1013700068E270E00E94D52D862F672B39F0089522
:1013800082E0089584E0089588E0089581E008955A
:101390008091BC0280FD14C081FD14C082FD16C086
:1013A0008091BB02882381F0843180F422E3829F04
:1013B000C001112464E170E00E94D52D862F0895AC
:1013C0008CE0089589E1089585E0089582E3089509
:1013D0008D3E31F40E94C80981958093C40208951E
:1013E0008E3E19F40E94C809F8CF8F3E31F40E9456
:1013F000C80981958093C3020895803F19F40E9423
:10140000C809F8CF893F29F40E94A6098093C50234
:1014100008958A3F21F40E94A6098195F7CF8B3F5A
:1014200031F40E94A60981958093C60208958C3FED
:1014300019F40E94A609F8CF9FE0980F983070F435
:10144000815F990B21E030E001C0220F8A95EAF715
:101450008091C202822B8093C20208958D3F31F4A5
:101460008091BC0281608093BC0208958E3F21F47C
:101470008091BC028260F7CF8F3FB9F78091BC02A8
:101480008460F1CF80E0089578940895F894E82F6F
:10149000E295EF70F0E031A1282F2F7081E090E00D
:1014A00001C0880F2A95EAF7982F9095932391A36E
:1014B00092A1892B82A30C94440A9091670292FF17
:1014C00006C0282F28712830F9F4877F846093FFA5
:1014D00006C0282F28712831F1F4877E846120917D
:1014E000680220FF06C0382F38713830D9F4877F62
:1014F000816021FF06C0282F28712831D1F4877E12
:10150000816194FD877E0895282F24712430F9F697
:101510008B7F8860DCCF282F2471243101F78B7EEC
:101520008861DDCF382F3171313019F78E7F8860B7
:10153000E0CF282F2171213121F78E7E8861E1CF04
:10154000CF93DF93EC0182389105A9F1D8F581336F
:10155000910509F496C048F58932910509F48AC0CD
:101560008A9709F495C0C11521E5D20708F0BCC0DF
:10157000C11530E5D30708F014C1C83ED10508F005
:101580009CC0C03ED10560F5C83AD10508F087C0BF
:10159000C53AD10508F0FDC0C130D10509F1209749
:1015A000F9F0C430D105E0F440C08533910509F469
:1015B0005AC0C997C1F680916702837089F0C0EE66
:1015C000D0E00EC0833E910599F170F4803E910504
:1015D00001F1823E910539F68091670282FD21C0BA
:1015E000CE01DF91CF910895863E910561F1873E4E
:1015F000910571F1843E910509F0B5CF80916802A3
:1016000081FFEECF80916702C7EED0E084FD0DC070
:10161000E7CF8091670280FD12C19091680290FF30
:10162000DFCFC3EED0E084FFDBCFD0E0C0E0D8CF87
:101630008091670282FD06C19091680290FDBFCF44
:1016400084FFCECFF2CF8091670283FDDDCFC8CF7C
:101650008091670283FDF9C09091680291FFF0CFFD
:10166000C4EED0E0BDCF8091670285FFB9CFC9E25B
:10167000D0E0B6CF8091670285FFB2CFC5E3D0E05E
:10168000AFCF8091670286FFABCFCAE2D0E0A8CF90
:101690008091670286FFA4CFC1E3D0E0A1CFCF3B0A
:1016A000D10518F6C85AD0E0CC0FDD1FC75ADE4F5F
:1016B0000990D881C02DD46493CFC11540E2D407DE
:1016C00058F4C11581E0D80708F08ACFCD3ED10586
:1016D00008F4ABCFD06584CFC11590E4D90708F4E6
:1016E000A4CFDF70D06A7CCFC11525E5D20700F505
:1016F000C11534E5D30708F08AC0C11543E5D40706
:1017000008F071C0C11582E5D80708F467C0CE01A2
:101710008370992721E030E002C0220F331F8A95A1
:10172000E2F7C695C69580E2C89FE001112452C039
:10173000C11599E5D907A8F4C11528E5D20708F025
:101740006BC0C11536E5D30708F06FCF8C2F0E9410
:101750005D0AC82FD0E0DC2FCC27CC27DF71D06208
:101760003FCFC1154AE5D40708F45BC0CE019056BF
:101770008115904208F059CF8D2F8F710E945D0A1C
:1017800090E0982F882788279F719C012C2BE901D6
:10179000E6CFC55AD0E0CA5ADE4FC881D0E0D06447
:1017A0001FCFCE01E4E096958795EA95E1F7837027
:1017B0002C2F26952695237040E2249F900111241A
:1017C000382B8C2F8370C1E0D0E002C0CC0FDD1F1E
:1017D0008A95E2F7C22BD32BDC6802CFDC2FCC2713
:1017E000C16FD06AFDCECE018370992721E030E031
:1017F00002C0220F331F8A95E2F7C695C69590E284
:10180000C99FE0011124C22BD32BDA68E9CEDC2F6B
:10181000CC27C46FD06AE4CEDC2FCC27C06FD06A4F
:10182000DFCE8C2F8F700E945D0A34E0D695C7956D
:101830003A95E1F7CF709C2FEC01D069D1CEC9E386
:10184000D0E0CECEC2EED0E0CBCEC6EED0E0C8CE59
:101850000C941B088091290281111092290208958D
:101860008091280290912702892B90912602892B42
:101870008093B60190912902992391F0892B80934E
:10188000B60120E088EB91E0FC013191CF013111EC
:101890002F5FF1E08E3B9F07B9F721110E942A0CC0
:1018A000E091BE03F091BF03309731F00280F381E5
:1018B000E02D86EB91E009940895809124029091A7
:1018C000F301981301C008958F5F8770FACFAF922C
:1018D000BF92CF92DF92EF92FF920F931F93CF931D
:1018E000DF93C0908602D0908702E0908802F0904B
:1018F000890240912A0250912B0260912C02709132
:101900002D02C42AD52AE62AF72ACFE1D0E0082FF3
:1019100010E027E0929F000D111D112496E4A92EDE
:10192000BC2ED701C6010C2E04C0B695A79597957D
:1019300087950A94D2F780FD0FC0219788F7B12CC4
:101940008B2DDF91CF911F910F91FF90EF90DF9042
:10195000CF90BF90AF900895AC9EF001AD9EF00D7A
:101960001124E00FF11FEE0FFF1FE75EFD4F859181
:1019700094910E94A00A019701F3E2CFCF93DF93E5
:10198000EC010E94670CEC2FF0E097E0D99FE00D8E
:10199000F11D112496E4899FE00DF11D1124EE0F35
:1019A000FF1FE75EFD4F85919491DF91CF910C94DD
:1019B000A00A27E0929F800D1124982F977086959A
:1019C0008695869525E0829FF0011124E054FE4F14
:1019D00050E040E080E0219130E0092E02C03695D1
:1019E00027950A94E2F721703327042E01C0220FB5
:1019F0000A94EAF7822B4F5F5F4F4530510559F744
:101A0000089527E0929F800D1124982F977041E050
:101A100001C0440F9A95EAF786958695869595E0DC
:101A2000899FF0011124E054FE4F90E080E070E0C7
:101A30005191DF0111979B01082E02C03695279521
:101A40000A94E2F7217021952527242325272C933A
:101A500001968530910561F70895FC01808191819F
:101A60000E94BE0C292F2F7092959F7092509E302D
:101A700078F4E92FF0E0E85AF14D0C94E92D803F1D
:101A800019F020F4883E20F481E00895843FE1F3CA
:101A900080E00895883EC0F3813FD1F7F5CF822FD3
:101AA0008695869586950895882341F08095909136
:101AB00028028923809328020C94300C08958823EF
:101AC00039F090912802982B909328020C94300CB6
:101AD0000895CF93DF93682F81E06A3019F06D305D
:101AE00029F480E0DF91CF910C94F80D8091ED0501
:101AF0009091EE0526E0FC01A7EEB5E001900D9275
:101B00002A95E1F7603E08F45AC026E0FC011192E4
:101B10002A95E9F7C091ED05D091EE0546E050E039
:101B2000BE0187EE95E00E94F82D9E01275E3340AE
:101B3000892B41F1C90145E0969587954A95E1F7D2
:101B400041E050E0BA0102C0660F771F8A95E2F7C4
:101B5000CB016091E5037091E603862B972BB901C9
:101B60006B5F7F4FE5E076956795EA95E1F702C0F8
:101B7000440F551F6A95E2F7842B952B9093E6034B
:101B80008093E5032A5F3F4F4091E403642F70E0A8
:101B9000C9010E94B52D481B463010F4240F311D99
:101BA000211572E0370710F030E020E029513C4F5A
:101BB0003093EE052093ED05DF91CF910895F6E087
:101BC0006F9FB0011124665B784F46E050E00E94A1
:101BD000EF2DA0CFCF93DF93EC01FE018491811113
:101BE00003C0DF91CF9108950E94690D2196F5CF32
:101BF000CF93382FE091ED05F091EE05E75EF340CD
:101C00002091E403622F70E0CF010E94B52D281BC4
:101C1000822F332361F066E00E94C92DC82FC15086
:101C200010F4CF91089580E20E94690DF8CF9F01D2
:101C3000280F311D2115324018F080E0F0E0E0E07F
:101C40008E0F9F2F911D89519C4F9093EE0580938D
:101C5000ED05E7CF0E94EA0D81E00C94F80DCF92DC
:101C6000DF92EF92FF920F931F93CF93DF936C015C
:101C70007B0164E670E088E70E94922AEC0197FD00
:101C800012C010E000E0F601E00FF11F849164E65D
:101C900070E00E940C2BEC01892B29F40F5F1F4F81
:101CA0000E151F0581F70E948F2BCE01DF91CF917A
:101CB0001F910F91FF90EF90DF90CF900895CF93F9
:101CC000C091BA038091BB038823D1F00E941B0806
:101CD0006856754C8F4F9F4F6093B6037093B70350
:101CE0008093B8039093B903C11108C063E070E01A
:101CF0008BE196E00E942F0E892B29F0C091BA0348
:101D00008C2FCF91089581E08093BA03F7CF909103
:101D1000D703943031F58093C7037093C903609360
:101D2000C80382E08093E9008FEF9091E800815032
:101D300095FD06C095ED9A95F1F700008111F5CF5C
:101D40008091E80085FF0DC050E040E063E070E066
:101D500087EC93E00E94DE068091E8008E77809306
:101D6000E8000895BC0184E00C94870EBC0183E078
:101D70000C94870E9C0182E08093E9009FEF809194
:101D8000E800915085FD06C085ED8A95F1F70000C9
:101D90009111F5CF8091E80085FF0CC050E040E044
:101DA00066E070E0C9010E94DE068091E8008E774F
:101DB0008093E8000895CF93DF93EC0181E0809356
:101DC000E9008FEF9091E800815095FD06C095EDF8
:101DD0009A95F1F700008111F5CF8091E80085FF19
:101DE00014C050E040E068E070E0CE010E94DE06E2
:101DF0008091E8008E778093E80088E0FE01ADECEA
:101E0000B3E001900D928A95E1F7DF91CF910895AB
:101E10004F925F926F927F928F929F92AF92BF92FA
:101E2000CF92DF92EF92FF920F931F93CF93DF93A6
:101E3000CDB7DEB7C45ED1090FB6F894DEBF0FBED2
:101E4000CDBF509051019091B10390FF5DC0809043
:101E5000CB029090CC028114910409F068C0EFECA1
:101E6000F5E09E012F5F3F4FBE016B517F4FC901CF
:101E7000A4914A2F50E0DA01AA0FBB1FA40FB51F8F
:101E8000A353BD4FCD90DD90EC90D901CD92DD9262
:101E9000ED929D0131966A177B0751F72091500111
:101EA00043E0249F800D911D1124539A2BB1277F6D
:101EB0003BB138605FB7F894BC01549E600D711D52
:101EC00011248617970709F08BC05FBF8FE594E058
:101ED0000197F1F700C00000CC51DF4F0FB6F89426
:101EE000DEBF0FBECDBFDF91CF911F910F91FF904D
:101EF000EF90DF90CF90BF90AF909F908F907F90AA
:101F00006F905F904F9008958091520120915301FE
:101F100033E0839FF0011124E353FD4F821708F053
:101F200096CF1182108212828F5F3396F7CF90FF87
:101F300096CFD12CC12C66246394712C53E0452E8E
:101F40008091CA0293010C2C01C0220F0A94EAF777
:101F5000822309F43CC0F601EE0FFF1FE80DF91DC6
:101F6000E590F490E114F10409F479CF45E050E0F4
:101F7000B701CE0101960E94EF2D09810F3F39F183
:101F80008A81800F9927991F8D34910514F08CE474
:101F900090E05C01AA0CBB1C8A0D9B1DDC01A353C5
:101FA000BD4F5D01049D8001112403531D4F0A158F
:101FB0001B0520F0B5E0EB0EF11CD8CF98014D8148
:101FC0006C818B810E9497080D5F1F4FF0CFEFEF60
:101FD000CE1ADE0AF4E0CF16D10409F0B1CF3FCF1C
:101FE000FC014191CF01E8E03BB9000000C047FF90
:101FF0002BB9440F000000C000C000C02BB900C0C6
:10200000EA9591F75ECF9F92AF92BF92CF92DF9207
:10201000EF92FF920F931F93CF93DF937C015B01AD
:102020006A018091620201E010E08A3010F40AE057
:1020300010E0C1E0D0E0F894B501C701F6010995C0
:10204000982E0E94440A911004C021960C171D0777
:102050006CF4892DDF91CF911F910F91FF90EF903C
:10206000DF90CF90BF90AF909F900895CC9F90014C
:10207000CD9F300D300D112490E080E045E34A956E
:10208000F1F70000019682179307C1F7D4CF809132
:102090003702811110C08091D80080618093D800F0
:1020A0008AE18A95F1F700C08091D90080FF0AC0CB
:1020B00081E08093370281E090913702913009F0FE
:1020C00080E0089582E0809337020E948E0610928D
:1020D000D703F1CF0E944710882351F0E091BE034F
:1020E000F091BF03309721F00190F081E02D099429
:1020F00080E00895CF92DF92EF92FF926B017C0116
:102100000E948808B701A60188E090E0FF90EF9058
:10211000DF90CF900C94342EEF92FF920F931F9389
:10212000CF93DF9300D00F92CDB7DEB7F82E062FF6
:10213000142FE22E8091B10380FF49C0E82FE6956D
:10214000F0E0EE54FE4F90819093C7028E7F823074
:10215000D9F49E012F5F3F4F8F2D0E9497088091E9
:10216000B10380FF11C02B8139814A8180915201D6
:102170009091530153E0859FF0011124E353FD4FEB
:10218000891778F10E94080F8091B2038F1108C05F
:102190008091B303801304C08091B403811729F0A8
:1021A0008091C90282608093C902F092B2030093C9
:1021B000B3031093B403EE2051F06091B10370911A
:1021C000B2038091B3039091B4030E947A100F90F0
:1021D0000F900F90DF91CF911F910F91FF90EF9093
:1021E00008954183308322838F5F3396C9CFE1EB1B
:1021F000F3E0438121E1421B08F440E021E06281E9
:1022000081810C948C10E1EBF3E0438121E1420FDA
:1022100008F44FEF21E0628181810C948C10E1EB96
:10222000F3E0628121E1621B08F460E021E0438178
:1022300081810C948C10E1EBF3E0628121E1620F6B
:1022400008F46FEF21E0438181810C948C10E1EB65
:10225000F3E0818121E04381628188500C948C10ED
:10226000E1EBF3E0818121E043816281885F0C949E
:102270008C108091B503882319F081508093B503A9
:102280006091B1037091B2038091B3039091B40354
:102290000C947A108091B503833018F48F5F80938B
:1022A000B5036091B1037091B2038091B303909133
:1022B000B4030C947A108091B10380FF1EC081702A
:1022C00082608093B1038091C90281608093C902CA
:1022D000662351F06091B1037091B2038091B30312
:1022E0009091B4030E947A1020E04091B403609171
:1022F000B3038091B2030C948C10089521E030E078
:10230000A90102C0440F551F8A95E2F7CA01209126
:10231000CA02662391F0822B8093CA028091C9027F
:1023200080618093C9028091C802811109C08091A7
:10233000B10360E086950C945B1180958223ECCF0D
:102340000895CF92DF92EF92FF926B017C0161E0E2
:10235000C114D104E104F10409F06C2D617080E036
:102360000E947E1160E0C114D104E104F10441F047
:10237000D701C601B695A79597958795682F617087
:1023800081E00E947E1160E0C114D104E104F104F7
:1023900059F0D701C60132E0B695A7959795879574
:1023A0003A95D1F7682F617082E00E947E1160E05B
:1023B000C114D104E104F10459F0D701C60123E0AE
:1023C000B695A795979587952A95D1F7682F61704F
:1023D00083E00E947E11C701B601FF90EF90DF906D
:1023E000CF9008958091B1038695815009F481E0E2
:1023F00061E00C945B1161E081E00C945B11E1EB16
:10240000F3E083E0808311828FEF828383831482E1
:10241000A7ECB2E012968C911297836012968C937F
:1024200060817181828193810C947A10CF9384E0D2
:1024300090E00E940E2EC82F82E290E00E940E2EA5
:10244000982F8C2FCF910895CF93DF93CDB7DEB720
:1024500029970FB6F894DEBF0FBECDBF85E0E1EB44
:10246000F3E0DE01119601900D928A95E1F78091DB
:10247000C7029091C802A091C902B091CA028E838E
:102480009F83A887B987288540915E0250915F029B
:1024900060916002709161023FB7F8948091C3032C
:1024A0009091C403A091C503B091C6033FBF841BA4
:1024B000950BA60BB70B84369105A105B10510F459
:1024C000222319F18091350190913601875B9D4F50
:1024D0004091340150E04A30510510F049E050E09D
:1024E000BE016F5F7F4F0E94052E85E090E00E9445
:1024F000012D892BB1F40E941B0860935E0270933A
:102500005F0280936002909361021092C90281E0A1
:1025100029960FB6F894DEBF0FBECDBFDF91CF91E5
:10252000089580E0F5CF0F931F93CF93DF9300D0F2
:1025300000D0CDB7DEB74091450250914602609180
:102540004702709148022FB7F8948091C30390918D
:10255000C403A091C503B091C6032FBF841B950B84
:10256000A60BB70B84369105A105B10588F10E9431
:102570004710882379F10E941B086E5F7F4F8F4FB1
:102580009F4F69837A838B839C8380912B019091E9
:102590002C01875B9D4F40912A0150E04530510549
:1025A00010F044E050E0BE016F5F7F4F0E94052EA7
:1025B00084E090E00E94012D892BD9F40E941B0831
:1025C00060934502709346028093470290934802BD
:1025D00081E010C00E941B08009163021091640208
:1025E0002091650230916602600F711F821F931F58
:1025F000C4CF80E00F900F900F900F90DF91CF919C
:102600001F910F9108956F927F928F929F92AF9238
:10261000BF92CF92DF92EF92FF920F931F93CF93CF
:10262000DF930F92CDB7DEB7862E5A016901682E6F
:10263000880F7708C3010E94012D892B09F088C0FB
:102640008AE0869DF001879DF00D1124E050FF4F38
:10265000458150E04115510511F041E050E08AE01C
:10266000869DF001879DF00D1124E050FF4F66819B
:102670007781675B7D4FCE0101960E94052EF501A3
:1026800040815181628173812FB7F8948091C30397
:102690009091C403A091C503B091C6032FBF841BC2
:1026A000950BA60BB70B84369105A105B10540F437
:1026B000B701C8010E946D089981891709F44FC0BC
:1026C000082C000C9908C4010E94012D892B91F05F
:1026D000B12C8B2D0F90DF91CF911F910F91FF9017
:1026E000EF90DF90CF90BF90AF909F908F907F90B2
:1026F0006F9008958AE0889DF001899DF00D112466
:10270000E050FF4F458150E0E416F50608F4A701BC
:102710008AE0889DF001899DF00D1124E050FF4F63
:1027200066817781675B7D4FC6010E94052EB701E8
:10273000C8010E946D0899818913CACF0E941B08A5
:10274000F5016083718382839383BB24B394C1CFEB
:10275000B12CA701B801C6010E94052EBACFBB2437
:10276000B394F7CFCF92DF92EF92FF920F931F9324
:10277000CF93DF9300D000D00F92CDB7DEB76B01BF
:1027800085E0E82EF12C0AE412E09E012F5F3F4F16
:102790004DE352E061E080E00E940313882349F09A
:1027A00095E0FE013196A8E3B2E001900D929A9572
:1027B000E1F795E0E8E3F2E0D60101900D929A95F9
:1027C000E1F70F900F900F900F900F90DF91CF9146
:1027D0001F910F91FF90EF90DF90CF90089569EED9
:1027E0007EEF90E080E00E94402E60E082E090E08A
:1027F0000E94222E60E083E090E00E94222E109240
:102800002A0210922B0210922C0210922D0260E0EC
:1028100084E090E00E94222E60E082E290E00E943C
:10282000222E60E085E090E00E94222E60E086E0AB
:1028300090E00E94222E6FEF87E090E00E94222E0F
:1028400040E050E0BA0188E090E00E94342E60E061
:102850008DE090E00E94222E40E050E0BA0188E135
:1028600090E00E94342E60E087E190E00E94222EEA
:1028700040E050E0BA018CE190E00E94342E70E01C
:1028800060E080E290E00E94402E40E050E0BA011B
:1028900088E190E00E94342E40E050E0BA018FE0E1
:1028A00090E00E94342E40E050E0BA0183E190E0D5
:1028B0000C94342ECF93C0916802C2FB992790F9F3
:1028C000981781F080FBC2F9C0936802609167029B
:1028D00084E090E00E94222E6C2F82E290E0CF9163
:1028E0000C94222ECF9108951F920F920FB60F9243
:1028F00011242F933F934F935F936F937F938F9305
:102900009F93AF93BF93EF93FF938091E10082FF7A
:1029100009C08091E20082FF05C08091E1008B7FB9
:102920008093E1008091DA0080FF24C08091D8007C
:1029300080FF20C08091DA008E7F8093DA00809142
:10294000D90080FF9BC080E189BD82E189BD09B4C7
:1029500000FEFDCF81E08093D7038091CA038111EF
:1029600009C00E948E060E9459078091E20084608F
:102970008093E2008091E10080FF17C08091E20027
:1029800080FF13C08091E2008E7F8093E2008091EF
:10299000E20080618093E2008091D80080628093A1
:1029A000D80019BC85E08093D7038091E10084FFB3
:1029B00029C08091E20084FF25C080E189BD82E1C9
:1029C00089BD89B5982F917080FFFBCF8091D80089
:1029D0008F7D8093D8008091E1008F7E8093E1000D
:1029E0008091E2008F7E8093E2008091E20081601E
:1029F0008093E2008091D803882309F445C084E0E5
:102A00008093D7038091E10083FF27C08091E2008B
:102A100083FF23C08091E100877F8093E10082E003
:102A20008093D7031092D8038091E1008E7F80932A
:102A3000E1008091E2008E7F8093E2008091E200CD
:102A400080618093E20042E060E080E00E9427071E
:102A50008091F00088608093F000FF91EF91BF912A
:102A6000AF919F918F917F916F915F914F913F9126
:102A70002F910F900FBE0F901F90189519BC1092B8
:102A8000D7031092CA0376CF8091E30087FD93E0CD
:102A90009093D703B7CF78941F921FB61F9211243B
:102AA0008F939F93AF93BF938091C3039091C4037F
:102AB000A091C503B091C6030196A11DB11D8093DD
:102AC000C3039093C403A093C503B093C603BF91FF
:102AD000AF919F918F911F901FBE1F9018959C01E1
:102AE0004FB7F8948091C3039091C403A091C5039C
:102AF000B091C6034FBF821B930B08952FB7F89474
:102B00008091C3039091C403A091C503B091C60303
:102B10002FBF08950E947E159C019091C302809161
:102B2000C402982B21F03093C0022093BF029091F1
:102B3000C5028091C602982B21F03093BE022093EB
:102B4000BD02E091BE03F091BF03309749F082E0EF
:102B50008093C1020480F581E02D81EC92E009941C
:102B6000089590E080E00E94570890E080E00E9485
:102B7000410810922702109226020E94300C86E033
:102B8000E1ECF2E0DF011D928A95E9F71092BB02B9
:102B90001092BA021092BC020C948A150E94A111E4
:102BA00060938602709387028093880290938902D3
:102BB0000C94B1150F931F9341E050E060E070E07A
:102BC00004C0440F551F661F771F8A95D2F7CB01AB
:102BD000BA0160957095809590950091860210914C
:102BE0008702209188023091890260237123822319
:102BF00093231F910F910C94CE15909125028095EF
:102C0000892380932502282F277039F4282F082E36
:102C1000000C330B9217130621F49091680292FF77
:102C200007C08595859585950E94DA151092250235
:102C300008950F931F9341E050E060E070E004C0FE
:102C4000440F551F661F771F8A95D2F78091860221
:102C500090918702A0918802B09189028A019B011C
:102C6000082B192B2A2B3B2BC901B8011F910F915F
:102C70000C94CE1560932A0270932B0280932C0241
:102C800090932D020C94B11510922802E8EBF1E01C
:102C900086E0DF011D928A95E9F70C94B1151F9328
:102CA000CF93DF93CDB7DEB7AA970FB6F894DEBF08
:102CB0000FBECDBF89ED93E02091F100FC0121937F
:102CC000CF01F3E0813E9F07B9F78091DA038330AB
:102CD00009F46FC0B8F4813009F446C0823009F4B9
:102CE000B0C08091E80083FF7BC28091D9039091AE
:102CF000DA039A3008F074C2E92FF0E0EA59F14D96
:102D00000C94E92D8A3009F48BC08B3009F46EC025
:102D1000893039F78091D903813219F78091DD0329
:102D20009091DE030297E8F68091E800877F809318
:102D3000E8008091E80082FF37C09091F300809115
:102D4000F200029729F48091F1008B7F813021F409
:102D50008091F1008093CC038091E8008B77809381
:102D6000E8000E940807BDCF8091D903813A09F09D
:102D7000B8CF8091E800877F8093E8008091DD03E1
:102D80009091DE03892B61F468E08DEC93E070E0B4
:102D90000E94BA078091E8008B778093E800A1CF6A
:102DA00060E090E080E0F3CF8091D7038111C1CF44
:102DB00098CF8091D903813A09F093CF8091DD03B8
:102DC0009091DE03892B09F08CCF8091E800877FFA
:102DD0008093E8008091E80080FFFCCF809155014E
:102DE0008093F1008091E8008E77B9CF8091D9036C
:102DF000813209F076CF8091DD039091DE03892B3B
:102E000009F06FCF8091E800877F8093E8000E94EF
:102E100008078091DB03809355010E94441661CF1F
:102E20008091D903813209F05CCF8091E800877FDF
:102E30008093E8000E9408078091DC038093CB0315
:102E400050CF8091D903813A09F04BCF8091E800AF
:102E5000877F8093E8008091E80080FFFCCF80911D
:102E6000CB03BECF803899F0823809F0B9C1809188
:102E7000DD038F70873008F0B3C18093E900809143
:102E8000EB0085FB882780F91092E90006C080914D
:102E9000D5039091D603911182609091E800977FBD
:102EA0009093E8008093F1001092F1008091E80087
:102EB0008E7792C1882309F480C1823009F090C1D5
:102EC0008091DB03811183C18091DD038F702FEF2F
:102ED000280F263008F084C18093E9002091EB0090
:102EE00020FF75C1933031F48091EB0080628093B4
:102EF000EB006DC19091EB0090619093EB0021E0AD
:102F000030E001C0220F8A95EAF72093EA00109280
:102F1000EA008091EB008860EACF811161C11091D5
:102F2000DB031F778091E3008078812B8093E3009F
:102F30008091E800877F8093E8000E9408078091D5
:102F4000E80080FFFCCF8091E30080688093E3007D
:102F500082E0111183E08093D70342C18058823010
:102F600008F03EC18091DB039091DC038C3D23E0AF
:102F70009207A1F583E08A838AE289834FB7F894A8
:102F8000DE01139620E03EE051E2E32FF0E05093A3
:102F90005700E49120FF03C0E295EF703F5FEF70B0
:102FA0008E2F90E0EA30C0F0C7968D939D932F5FEF
:102FB000243159F74FBF8091E800877F8093E80064
:102FC0006AE270E0CE0101960E94BA078091E800A3
:102FD0008B778093E80004C1C096E7CF4091DD0372
:102FE0005091DE03292F33272330310509F444C0E3
:102FF00078F52130310509F46FC08BE390E0E9EDFD
:10300000F6E02230310509F0EBC02091E800277F7F
:103010002093E8002091DF033091E00382179307AB
:1030200008F49C0140E02115310509F064C041110C
:1030300062C08091E80082FDC9CF8091D7038823C8
:1030400029F2853019F28091E80083FFF2CFBECFDC
:1030500021323105A9F12232310509F0C1C04115F3
:10306000510509F443C04130510509F0B9C08BE75F
:1030700090E0EEE1F6E0C9CF992781309105C1F0EB
:10308000009759F0029709F0ABC0E6E2F7E0E4914F
:103090008E2F90E0E6E2F7E007C0E6E4F7E0E49187
:1030A0008E2F90E0E6E4F7E0009709F499C0ADCFE9
:1030B000E2E3F7E0E4918E2F90E0E2E3F7E0F4CF73
:1030C0004115510571F04130510509F089C089E081
:1030D00090E0E4E0F7E099CF82E190E0E4E1F7E00E
:1030E00094CF89E090E0EBEEF6E08FCF80E490E0C3
:1030F000E9E9F6E08ACF8091D703882309F466CF07
:10310000853009F463CF8091E80083FD5FCF809123
:10311000E80082FD8ECF8091E80080FF84CF9091FF
:10312000F3008091F2002115310519F088309105E6
:1031300050F041E0089709F040E08091E8008E7778
:103140008093E80070CF44914093F1003196215074
:1031500031090196E8CF803809F042C08091E8003B
:10316000877F8093E8008091D8038093F1009ECE02
:10317000811136C01091DB03123090F58091E80088
:10318000877F8093E8001093D8030E9408071123DB
:1031900011F084E005C08091E30087FDFACF81E063
:1031A0008093D70342E061EC81E00E94270742E26E
:1031B00061EC82E00E94270713C08091DB0381301D
:1031C00079F481E0933009F080E08093D603109287
:1031D000E9008091E800877F8093E8000E9408075B
:1031E0008091E80083FF0AC08091E800877F809388
:1031F000E8008091EB0080628093EB00AA960FB606
:10320000F894DEBF0FBECDBFDF91CF911F9108951F
:103210001F920F920FB60F9211242F933F934F934B
:103220005F936F937F938F939F93AF93BF93CF934E
:10323000DF93EF93FF93D091E900DF708091EC0072
:10324000C82FC17080FDC0E81092E9008091F000A5
:10325000877F8093F00078940E944F161092E900C7
:103260008091F00088608093F000CD2BCF70C093E8
:10327000E900FF91EF91DF91CF91BF91AF919F91C5
:103280008F917F916F915F914F913F912F910F900F
:103290000FBE0F901F9018958823F1F19CEF980FA7
:1032A000913A78F4E8EBF1E02EEB31E0919189135B
:1032B00003C0DF0111971C922E173F07B9F70C943A
:1032C000300C90E2980F983088F4877021E030E05D
:1032D000A90102C0440F551F8A95E2F7CA018095E3
:1032E00090912802892380932802E9CF9BE5980FCB
:1032F000933020F490E080E00C94570898E5980F04
:10330000973120F490E080E00C9441088D3E20F04D
:103310000E942D090C948A150895CF93C82F8823F5
:1033200009F456C08CEF8C0F813AF8F4E8EBF1E029
:103330008EEB91E0DF012D91C21759F08A179B07A0
:10334000D1F76C2F86EB91E00E942708CF910C9467
:10335000300C2191C21303C0DF0111971C928E170C
:103360009F07B9F70E94300CECCF80E28C0F8830B9
:1033700068F4C77021E030E001C0220FCA95EAF777
:1033800080912802822B80932802E0CFEBE5EC0F9E
:10339000E33040F4F0E0EA5AFE4F808190E0CF91B4
:1033A0000C945708E8E5EC0FE73150F4F0E0EE0F2D
:1033B000FF1FE75AFE4F80819181CF910C94410805
:1033C000CD3E30F08C2F0E94E809CF910C948A15E5
:1033D000CF9108951F93CF93DF93182FEB010E9495
:1033E0008D19209731F4812FDF91CF911F910C948B
:1033F0004C198FE99FE00197F1F700C00000219779
:10340000F0CF0F931F93CF93DF93C62FD42F022FAC
:10341000FC0182818823A1F06093E3030E947E1562
:103420009093E2038093E103C77081E001C0880FAD
:10343000CA95EAF7DF91CF911F910F910C945F0D20
:103440008091E303681337C08091E1039091E20318
:103450000E946F15883C910570F510E21D0FCD1785
:10346000B9F080E28C0F883040F4C77081E001C071
:10347000880FCA95EAF70E94540D183048F481E08D
:103480009D2F977001C0880F9A95EAF70E945F0DF3
:1034900070E060E0802F0E94EA19183098F4D7702D
:1034A00081E001C0880FDA95EAF7DF91CF911F9193
:1034B0000F910C94540DC77081E001C0880FCA951C
:1034C000EAF7F3CFDF91CF911F910F91089581110A
:1034D0000CC070E0662331F060E08AEF0E94EA19C8
:1034E00081E0089560E089EFF9CF8130C9F770E09D
:1034F000662319F060E089EAF1CF60E08AEAEECF56
:10350000CF92DF92EF92FF920F931F93CF93DF93AF
:103510000F92CDB7DEB7EE24E394F12C00E512E074
:103520009E012F5F3F4F41E452E063E082E00E9442
:103530000313082F882321F1C09076028C2D90E090
:103540009C012F573D4F79011981F9018081181B8A
:10355000D12E80E00AC0DA94F70180818F5F8083EA
:1035600060E08C2D0E94671A802F1D14A4F3912F08
:1035700017FD90E0191B11110EC081110E94280C3B
:10358000802F0F90DF91CF911F910F91FF90EF90BF
:10359000DF90CF9008951F5FF70180818150808375
:1035A00061E08C2D0E94671A802FE5CF4F925F92C9
:1035B0006F927F928F929F92AF92BF92CF92DF9243
:1035C000EF92FF920F931F93CF93DF9300D000D021
:1035D0000F92CDB7DEB77C01FC0183819481892BEA
:1035E00039F01081D180812F8D218F3F09F085C462
:1035F0000F900F900F900F900F90DF91CF911F9130
:103600000F91FF90EF90DF90CF90BF90AF909F9081
:103610008F907F906F905F904F9008950E94670CFD
:10362000082F682F89819A810E94010DE12FF0E017
:1036300027E0D29EE00DF11D112436E4039FE00D3A
:10364000F11D1124EE0FFF1FE75EFD4F0591149150
:10365000043F8CE5180709F496C0B0F5093DECE588
:103660001E0709F48CC00A3DFCE51F0709F497C04A
:10367000083D2CE51207B1F526E241EE61EEC701E7
:103680000E94011A80912502877009F4B1CFF701D9
:103690008281882309F4ACCF82E00F900F900F90C5
:1036A0000F900F90DF91CF911F910F91FF90EF90AE
:1036B000DF90CF90BF90AF909F908F907F906F9052
:1036C0005F904F900C94FD15063F3CE5130709F4FD
:1036D00062C008F45CC027E245EE66EE073F9CE559
:1036E000190769F2F7018281882309F417C410923F
:1036F000E3030430FDE51F0708F054C00B3F2CE541
:10370000120730F4C80182509C45449708F04FC01E
:103710000E941612909368028093670200318CE534
:10372000180709F417C108F093C00830ECE51E072C
:1037300009F4FEC008F065C004302CE5120709F456
:10374000E9C008F04BC002308CE5180709F4DCC072
:1037500080916702826003301C4509F4D8C06091F3
:1037600067021091680284E090E00E94222E612F8F
:1037700082E290E00E94222E0E94441683CF27E22C
:1037800045EE65EE7CCF26E241EE60EE78CF27E293
:1037900045EE64EE74CF26E241EE62EE70CF28E291
:1037A00041E0EFCF02363DE5130709F4B1CF063112
:1037B000ECE51E0709F0CAC3809128028A7A91E0DD
:1037C00009F490E09093BF0169E2811165E386EB13
:1037D00091E00E9427080E94300C54CF809167022C
:1037E00080610630ECE51E0709F491C08091670204
:1037F000886007301C4508F48AC0809167028062A7
:1038000086C0809167028D7F0C302CE5120709F489
:103810007EC058F40A308CE5180709F493C008F408
:103820008BC0809167028E7F72C080916702877F14
:103830000E30ECE51E0709F46AC0809167028B7FA9
:103840000F301C4508F463C0809167028F7E5FC013
:103850000D3F2CE5120709F479C068F504318CE5B9
:10386000180709F48BC080F40231ECE51E0709F457
:1038700075C0809167028F7B03311C4508F447C0F7
:1038800080916702837F43C00B3F2CE5120709F448
:1038900045C008F049C005311C4509F060CF809152
:1038A000670282FB992790F921E0922790FB82F929
:1038B00090FB83F92CC001309DE5190709F454C031
:1038C00088F48091680283600F3FFCE51F0749F18F
:1038D000809168028D7F01151D4518F18091680265
:1038E0008C7F1FC003303DE5130709F456C008F470
:1038F0004EC002361D4509F032CF90916702892FE4
:103900008F7E94FF806103C0809167028160809305
:10391000670225CF809167028460F9CF80916802A9
:103920008160809368021BCF809168028260F9CF2A
:10393000809167028064EBCF0E94441680916702F9
:103940008068E5CF809167028C60E1CF809168024A
:103950008E7FE7CF809167028F7DD9CF0E9444167A
:10396000809167028F77D3CF80916802982F9095CE
:1039700091708E7F892B90FB81F9D3CF0E944416E2
:1039800090916702892F97FB87F98058C0CF61E03B
:103990008EE090E00E94222EE2CE60E0F9CF85E337
:1039A000C7C281608093B10361E086950E945B117C
:1039B00069CE42EF51E16BEF71E10E94830862CE64
:1039C0004BEF51E162EF71E1F8CF47E251E160E383
:1039D00071E1F3CF47EF50E163E071E1EECF61E0D9
:1039E00081E0E4CF0E9444168FEF94E3ECE0815035
:1039F0009040E040E1F700C0000087E797E7909330
:103A000001088093000888E19AE00FB6F894A89521
:103A1000809360000FBE90936000FFCF81E0B6C23C
:103A200080E0B4C2812F902F0E94D90CD82EC1C241
:103A3000212F2F70A22E107F19F0A29420EFA22226
:103A4000DD20C9F0AA2069F080E2800F883010F0F4
:103A500081100BC080912802A82AA09228020E94FF
:103A6000300C802F0E948D1918C080912702A82A3F
:103A7000A0922702F4CF802F0E944C19AA2069F04F
:103A8000A094005E083010F0811045C0809128029B
:103A9000A822A09228020E94300CEB2DE850FF0BC8
:103AA000349710F40E946A10CC20A9F0809125026E
:103AB00080FD11C0F70112828595859585950E943C
:103AC0001916C7010E94D61A809125028595859501
:103AD00085950E94DA1585E0F701DE0111960190C7
:103AE0000D928A95E1F789819A810E94D90C9A8179
:103AF000E981F0E027E0929FE00DF11D112436E40A
:103B0000839FE00DF11D1124EE0FFF1FE75EFD4FB7
:103B1000859194916DCD80912702A822A0922702D1
:103B2000BACF312F3F70932E107F103219F092943C
:103B300090EF9922882071F081E0881681F1DD20D4
:103B4000D9F1AA2091F1F701858180FF8ACF8F708A
:103B500085832BC0DD20B1F090912902892D892B1E
:103B6000A11003C00E945F0D98CFE1E0AE12FACF22
:103B70002091680222FD91CF981709F48ECF80938F
:103B800029028BCFA11006C00E942A0C892D0E9409
:103B9000540D83CFF1E0AF1609F47FCFF5CFDD20D0
:103BA00031F025E02A1508F478CF892DDBCF34E0F9
:103BB0003A1508F472CFEACFAA2041F3F9E38F1245
:103BC00095C12FEF37EE83E0215030408040E1F780
:103BD00000C000008BC1812F86958695837061F0AF
:103BE000813009F05ACFC8019370D11002C090E023
:103BF00080E00E94410851CFC8019370D11002C0EB
:103C000090E080E00E94570848CF802FDD2029F007
:103C10000E94E8090E948A1540CF0E942D09FACF20
:103C2000812F837009F066C0D11037CF802F829525
:103C300086958770880F880F602F6F70462E512CE5
:103C4000712C612C082E04C0440C551C661C771C7A
:103C50000A94D2F740E050E0BA0104FF0FC04FE0F1
:103C600050E060E070E004C0440F551F661F771FEE
:103C70008A95D2F74095509560957095812F8695DD
:103C800086958370823019F1D8F400912A02109140
:103C90002B0220912C0230912D02813069F04429B1
:103CA000552966297729CB01BA0160237123822324
:103CB00093230E943A16F1CE402A512A622A732A8F
:103CC000CB01BA016429752986299729F2CF4429A5
:103CD00055296629772900912A0210912B022091FB
:103CE0002C0230912D02CB01BA0160277127822767
:103CF0009327DFCF8695DD2011F0812F81708823F7
:103D000009F4CBCE802F829586958770880F880F17
:103D1000602F6F70462E512C712C612C082E04C020
:103D2000440C551C661C771C0A94D2F740E050E006
:103D3000BA0104FF0FC04FE050E060E070E004C043
:103D4000440F551F661F771F8A95D2F740955095EF
:103D500060957095812F869586958370823019F1D4
:103D6000D8F4009186021091870220918802309148
:103D70008902813069F04429552966297729CB01C8
:103D8000BA0160237123822393230E94CE1585CE2E
:103D9000402A512A622A732ACB01BA016429752963
:103DA00086299729F2CF4429552966297729009138
:103DB0008602109187022091880230918902CB01FE
:103DC000BA016027712782279327DFCF1F70DD207C
:103DD00029F0812F0E941916802FC4CE802F0E94B7
:103DE000540D812F0E94DA1558CE802F92EF89163C
:103DF00009F454C0981578F0E0EF8E1639F1F1EF20
:103E00008F1609F443C0DD2009F46BC0A11029CE40
:103E1000812F8F7140C023EF821609F444C034EF24
:103E20008312F1CFDD2009F451C01F71812F0E9450
:103E300019168091680282FD07C0E8E01E9FC0014C
:103E40001124836080932502812F25C0DD20C9F0D5
:103E500084E08A1508F421CE1F7161E070E080E0F3
:103E600090E004C0660F771F881F991F1A95D2F73C
:103E70000091860210918702209188023091890278
:103E8000A0CF95E09A1508F408CEE6CF812F8F7168
:103E9000DD2009F4A7CF0E941916FFCD812F8F7165
:103EA000DD20C9F39FCF60E070E0CB01DD2009F495
:103EB0006CCF1F7161E070E080E090E004C0660F9D
:103EC000771F881F991F1A95D2F75FCF81E00E9454
:103ED000FD15F1E0FA1508F0E0CD82E00E94FD1535
:103EE000DCCDAA2039F0893309F46BCE802F0E94F3
:103EF0004C19D3CD812F8F7175CF85E0DE011196DE
:103F000001900D928A95E1F7F701228189819A81CA
:103F1000211184CB0E94D90C082F88CB0631FCE5F7
:103F20001F0709F089C08091BF01811138CD89E256
:103F3000E8EBF1E02EEB31E09191891303C0DF0152
:103F400011971C922E173F07B9F745CC0B352DE57D
:103F5000120709F463CD58F401158CE5180709F42C
:103F600041CD0F3D1C45A1F40E94EF138BCB0C35C6
:103F7000EDE51E0709F454CD0D351D4549F480913A
:103F8000680282FB882780F991E089270E945A14F1
:103F9000F701828110810181882309F443CD812FAB
:103FA000902F0E94670CD82E682F812F902F0E948F
:103FB000010DE12FF0E027E0029FE00DF11D11243B
:103FC00036E4D39EE00DF11D1124EE0FFF1FE75ED6
:103FD000FD4F859194910E94A00A8C01882EF701D3
:103FE000D280A580A2945FE0A522809125028770EF
:103FF000A1F0CD2CDD2091F0812F807F803421F045
:1040000080E2800F883048F082E00E94FD158091A8
:1040100025028770CC24C3948111C12CB12EB29497
:104020003FE0B322FBE0FB1508F437CDEB2DF0E0C9
:10403000E059F14D0C94E92D8091280282720A3CDE
:104040002CE5120709F4C6CC08F049C0063C9CE5F3
:10405000190709F4BACC68F5043CFCE51F0709F41C
:10406000A8CC08F0ADCC033C1C4509F091CF809161
:10407000B10380FF96CC8E7F8093B1036091B10332
:104080007091B2038091B3039091B4030E947A10AF
:104090008091C90281608093C902FFEF20E732E07E
:1040A000F15020403040E1F700C000000E94080FAE
:1040B000E9CA4FE051E16BE171E1083C9CE5190769
:1040C00009F47BCC40E351E167E271E1093C1C4516
:1040D00008F473CC4BE151E16FE071E16ECC0E3C22
:1040E000FCE51F0709F47BCCB0F449E351E16AE435
:1040F00071E10C3C3CE5130709F45FCC43E051E16E
:1041000067EF70E10D3C1C4508F457CC4AE451E1DF
:1041100069E371E152CC073DECE51E0708F4B2CA31
:104120000E351D4509F4AECA33CF1F93CF93DF93ED
:104130008091F201807FA9F48091EF01882389F0BA
:1041400080912402D091F3016091ED017091EE0114
:10415000A091F001B091F101C62FC72316E0D8134A
:1041600004C0DF91CF911F91089590E0109711F056
:10417000CF3F19F401968770F2CF189F9001199FD5
:10418000300D1124F901EC50FE4F41814713F2CF5D
:1041900040814613EFCF42814111ECCF43815481DE
:1041A0004A1B5B0B483C510528F78091F2018F7048
:1041B00080618093F201F901E750FE4F80818F709A
:1041C000806180838DEE91E00E94D61ADF91CF91BD
:1041D0001F910C945D0CAF92BF92CF92DF92EF9241
:1041E000FF920F931F93CF93DF93CDB7DEB7619705
:1041F0000FB6F894DEBF0FBECDBF8C0185E0F8018D
:10420000DE011D9601900D928A95E1F7F801E2809A
:104210008DEEA82E81E0B82E6091F0017091F10131
:104220006115710509F432C19091ED014091EE01E3
:10423000892F84238F3F09F429C120813181C380D4
:10424000D480F090EF01F601E61BF70BFF2009F494
:10425000E8C08091F201582F507FE83CF10508F04A
:10426000ABC0511177C0FE2C431321C092131FC065
:10427000E1101DC08F7080618093F201C5010E9422
:10428000D61A8091F201F80185838F2D61960FB6C1
:10429000F894DEBF0FBECDBFDF91CF911F910F917C
:1042A000FF90EF90DF90CF90BF90AF900895CD2812
:1042B00029F0822F83238F3F09F003C180E0F82F7C
:1042C000F170DF2E80FF3CC0809124024091F30109
:1042D00056E0841315C02D873E878D859E850E94EC
:1042E000BE0C292F22952F702230F0F0243018F5C3
:1042F0009F70F1F0F8019581907FD1F4D12C1EC010
:1043000090E0589FF001599FF00D1124EC50FE4FA2
:104310006181361306C06081261303C06281E612F4
:104320000FC001968770D5CF9F7011F0882331F3AD
:10433000805E883018F3C8010E94D61AFD2CA5CFE4
:10434000EE2009F4A2CF8091F20181608093F20106
:10435000F12C9BCF431306C0921304C0F801EE204A
:1043600009F479C0C8010E942D0D882309F1EE20BF
:10437000F9F08091F201803270F02091ED013091DE
:10438000EE0138872F831986DB86CA868C87CE019B
:1043900007960E94D61A86E0F801ADEEB1E00190D2
:1043A0000D928A95E1F70E949520FF24F3946DCF3A
:1043B000C8010E94D61AF9CF51110AC08DEE91E0C2
:1043C0000E94D61A86E0F50111928A95E9F7C0CFCE
:1043D00043130FC092130DC0E1100BC0F801858389
:1043E000C8010E94D61A86E0F50111928A95E9F774
:1043F0004CCFC8010E942D0D8823D1F2EE20C1F2CE
:104400008091F201803238F22091ED013091EE017D
:104410003A8329831B82DD82CC828E83CE01019672
:10442000B8CFE83CF105F8F6FE2CEE2009F2431374
:104430001FC092131DC08091F20180FD10C0982F03
:10444000907F69F0F8018583903F31F0982F907F3D
:10445000905F8F70892B8583C8010E94D61A86E0F1
:10446000F801ADEEB1E001900D928A95E1F70DCF24
:10447000C8010E942D0D81118ECF8091F2018160C3
:104480008093F201C8010E94D61AFFCEEE2009F4F3
:104490008FCFC8010E942D0DF82E882309F488CFF4
:1044A00086E0F801ADEEB1E001900D928A95E1F75A
:1044B0008091ED019091EE010E94BE0C0E9495202A
:1044C000E4CE81E08E25FBCE1F93CF93DF93CDB753
:1044D000DEB767970FB6F894DEBF0FBECDBF4B8B2C
:1044E0005C8B6D8B7E8B8F8B6111109227021A8AE9
:1044F000198A85E0FE017396DE011D9601900D92EA
:104500008A95E1F786E0FE013D96DE01179601905F
:104510000D928A95E1F7CE0107960E94EB20882341
:1045200089F016E0809124029091F301891349C02B
:1045300067960FB6F894DEBF0FBECDBFDF91CF9167
:104540001F91089586E0FE013796DE0111960190D5
:104550000D928A95E1F78A859B85892B11F38F81CE
:10456000988589238F3FE9F22091F30130E0C9015A
:10457000019687709927409124024817190671F413
:104580000E9444161092F3011092240286E0EDEE90
:10459000F1E0DF011D928A95E9F7C3CF96E0929F83
:1045A000D001939FB00D1124AC50BE4FFE01319647
:1045B00001900D929A95E1F78093F3010E945D0CB2
:1045C000B0CF819FC00111248C509E4F0E94EB20E0
:1045D000882309F4ADCF8091240290E00196877082
:1045E0009927809324029ECF9F92AF92BF92CF9241
:1045F000DF92EF92FF920F931F93CF93DF93CDB78C
:10460000DEB72F970FB6F894DEBF0FBECDBF8E0179
:104610000F5F1F4F8AE0D8011D928A95E9F789E85C
:10462000C82E81E0D82EF12CE12CAA24A394B12C21
:10463000F60181916F018F3F09F44AC0F894E82F89
:10464000E295EF70F0E021A18F70A50102C0440F48
:10465000551F8A95E2F7CA01922F982B91A392A138
:104660008095892382A30E94440A00C0E3E9F1E017
:1046700030E020E0912C41914F3F09F46DC0A42F10
:10468000A295AF70B0E090968C9190E04F7002C010
:10469000959587954A95E2F780FD5EC08A2D022E9A
:1046A00001C0880F0A94EAF7982A2F5F3F4F2730FE
:1046B000310509F7F601319780818F3F11F00E9493
:1046C000460A50EA5A95F1F7F801EE0DFF1D908267
:1046D0008FEFE81AF80A95E0E916F10409F0A8CF7F
:1046E0004AE050E0B80189E692E00E94F82D7C0192
:1046F000892B41F08AE0F801A9E6B2E001900D9221
:104700008A95E1F710917402E114F10439F181E026
:10471000809330020E947E1590932F0280932E0288
:1047200080912E0290912F020E946F15059778F0CC
:10473000A9E6B2E0E12FF0E0E958FD4F8EE692E005
:104740002D9121938A179B07D9F710923002EF28F9
:1047500049F081E090E05EC080E0A6CF8091300219
:104760008111DECF0E944710D82EE0917402DE0145
:104770001B967D01882309F485C085E01D928A95EA
:10478000E9F70E2F10E009581D4F809162028A3020
:1047900008F052C042EB53E1B701C8010E94031078
:1047A000882309F45EC040E85AE1B701C8010E94BD
:1047B0000310882309F455C043E952E1B701C80149
:1047C0000E940310882309F44CC044E252E1B7016F
:1047D000C8010E940310882309F443C010926202AA
:1047E000E0917302F0E0BF0169587D4FD7019E014F
:1047F000205F3F4F80E0FB014191BF019D91491730
:1048000031F0AF0141505109FA0190838D2D2A17E3
:104810003B0789F72F960FB6F894DEBF0FBECDBFCA
:10482000DF91CF911F910F91FF90EF90DF90CF908C
:10483000BF90AF909F900895809131029091320285
:104840000E946F15843F914008F0A4CFE09173025D
:10485000F0E0E958FD4F1082118212821382148217
:1048600078CF809162028F3F31F08F5F8093620238
:104870008A3008F4B5CF0E947E159093320280935F
:104880003102E4CFF0E0E958FD4FF89485E0AAE466
:10489000B2E001900D928A95E1F765E070E08AE45C
:1048A00092E00E946D08809349020E94440AF894A5
:1048B000E0918402F0E0EF57FD4F80818B87809379
:1048C000500261E070E0C7010E946D0880934F02C2
:1048D0000E94440AF894C0905102D0905202E09095
:1048E0005302F09054028091330290913402A091CF
:1048F0003502B0913602C816D906EA06FB06D1F099
:10490000C0923302D0923402E0923502F092360225
:104910000E94471081110EC00E941B08C61AD70AB8
:10492000E80AF90AC0926302D0926402E09265023A
:10493000F09266020E94440AF89480915C028823F7
:1049400021F184FF04C090915D029093CA0280FF20
:104950000DC0809155029091B10380FF1AC0916003
:104960009093B10360E086950E945B1180915C0298
:1049700081FF09C020E04091580260915702809168
:1049800056020E948C1010925C020E94440A80E041
:1049900041CF9E7F9093B1038091C9028160809343
:1049A000C902FFEF20E742E0F15020404040E1F72C
:1049B00000C000000E94080FD9CF1F921FB61F929F
:1049C00011248F939F93AF93BF938091C203811162
:1049D00013C08091C3039091C403A091C503B0910B
:1049E000C6034196A11DB11D8093C3039093C403D8
:1049F000A093C503B093C603BF91AF919F918F91D0
:104A00001F901FBE1F901895CDB7DEB762970FB6E7
:104A1000F894DEBF0FBECDBF84B7877F84BF0FB6CB
:104A2000F894A8958091600088618093600010924E
:104A300060000FBE80E890E00FB6F89480936100AC
:104A4000909361000FBE85B7806885BF85B7806889
:104A500085BF82E49AE09093B5018093B4010E94EF
:104A60008E060E9459078091E20084608093E200E4
:104A700078948091D7038823A1F01091E9001F70EA
:104A80009091EC00892F817090FD80E8182B109296
:104A9000E9008091E80083FD0E944F161F7010937B
:104AA000E90082E084BD93E095BD9AEF97BD8093C5
:104AB0006E001092630210926402109265021092CE
:104AC00066020E94471080933C0180913C0188233C
:104AD00009F429C31092500184E2809351010E948D
:104AE000471081110E94F42B80913C0180913C0180
:104AF00095E0811190E09093740285E0891B80938A
:104B0000730209E811E09EE8E92E91E0F92ED80140
:104B10008D918D018F3F11F00E94460AE016F1063B
:104B2000B1F703E911E08AE9E82E81E0F82EF801F7
:104B300081918F018F3F11F00E94460AE016F10625
:104B4000B1F7E9E6F2E083E792E0A7E7B2E011927D
:104B50001D928E179F07D9F790E080E00E941C2ECF
:104B6000893E9E4F11F00E94EF1382E090E00E9478
:104B70000E2E8093AF020E941612909368028093CB
:104B8000670283E090E00E940E2E682F70E090E0B4
:104B900080E00E943A1660918602709187028091AF
:104BA0008802909189020E94A1110E9447108111F0
:104BB00002C00E94F72B0E944710882309F4B8C254
:104BC00083E08093AA0280FDB5C280E88093E4036D
:104BD0000E948C2A6DE070E08CE594E00E942F0E1C
:104BE000892BE9F58091AA0263E070E081FDA4C2FF
:104BF00089E594E00E942F0E892B89F56DE070E025
:104C000089E494E00E942F0E892B49F50E941B082D
:104C10006856754C8F4F9F4F6093B6037093B703E0
:104C20008093B8039093B903E7EEF3E080E092E05D
:104C3000DF019C011D9221503040E1F7F093EE0519
:104C4000E093ED058FEF9FEF9093E6038093E503EC
:104C500081E08093BB038093BA031092AB028091F2
:104C60007502811139C090E080E00E941C2E893EBF
:104C70009E4F21F00E94EF130E94FF1188E090E008
:104C80000E94162E6093B1037093B2038093B30316
:104C90009093B4038091C90283608093C9026E7FB0
:104CA00071F40E94FF1188E090E00E94162E60933C
:104CB000B1037093B2038093B3039093B4030E9443
:104CC00088088091B10380FF04C060E086950E944F
:104CD0005B1181E08093750280913C01811106C0D7
:104CE00086E38093480186E680934701209148013E
:104CF000A22FA295AF70B0E091963C9191972F7042
:104D000081E090E0BC01022E01C0660F0A94EAF730
:104D1000462F4095432391964C93919792963C91C0
:104D20009297362B92963C93929740914701E42FAD
:104D3000E295EF70F0E031A14F70042E01C0880FB2
:104D40000A94EAF7982F9095932391A392A1892B27
:104D500082A390968C9190E002C0959587952A95B4
:104D6000E2F7817020A130E002C0359527954A9581
:104D7000E2F792E020FF90E0892B809385029091EA
:104D80003C0181E0982790938402891B80937602EE
:104D900089E694E09093CC028093CB028DE391E07E
:104DA0009093BF038093BE0300E4602E8091D703ED
:104DB00000E112E1853009F4F9C10E94F422E82EE5
:104DC00081110E941B08E0EBF2E0A7E7B2E010E0DF
:104DD00000E0B02EDD9081918D1509F4F6C18D258E
:104DE000C12CFF24F394982F9F2109F4E9C10E945C
:104DF0004710882399F0CF82B886DF2081E009F43C
:104E000080E089870E947E158160782F9B878A8742
:104E10004F81588569858B850E946422F801E05591
:104E2000FD4F8081F826F08280918502E82FEE0FF9
:104E3000EE0F90914801A92FA295AF70B0E0909627
:104E40002C9130E09F7002C0359527959A95E2F736
:104E50002170332790914701A92FA295AF70B0E040
:104E600090964C9150E09F7002C0559547959A9549
:104E7000E2F7CA018170992740FF02C082E090E00A
:104E8000822B8E2B80938502109184028F70E82FE5
:104E9000F0E0E656FE4F808190918302890F809367
:104EA0008302F12C82306CF0E12FF0E0EF57FD4FE0
:104EB00080818F5F808360E0812F0E94671AFF24CA
:104EC000F394809183028F3F6CF4E12FF0E0EF5771
:104ED000FD4F80818150808361E0812F0E94671A9D
:104EE000FF24F39480918302082E000C990B62E05A
:104EF00070E00E94D52D80938302F1100E94280C4F
:104F00008091BB038823B1F18091AC029091AD02F6
:104F10000E946F15C29708F06FC12091E503309190
:104F2000E6032115310509F0F4C18091BA03882305
:104F300009F10E941B080091B6031091B70320915C
:104F4000B8033091B903601B710B820B930B6F3F59
:104F50007F4F8F4F9F4770F48091BB03882351F0A0
:104F600063E070E08CEC94E00E942F0E892B11F42A
:104F70001092BA03E11001C0F1100E945F0E86E0AA
:104F8000E1ECF2E0DE01119601900D928A95E1F7D5
:104F9000F090C302E090C4021091C5020091C602D5
:104FA0001092C3021092C4021092C5021092C6025F
:104FB0008F2D8E2909F448C08091BF029091C002C4
:104FC0000E946F159C019091BB02992309F49FC226
:104FD00023333105C8F19F3F19F09F5F9093BB02C7
:104FE000FF2059F00E94C8099FEF1F140CF491E0B4
:104FF000899F802D11248093C302EE2059F00E94D6
:10500000C8099FEF1E140CF491E0899F802D112494
:105010008093C4023091C3023323B1F02091C402C3
:10502000222391F045EB3403C0011124992309F4A4
:1050300043C29093C30245EB240390011124332310
:1050400009F43EC23093C402812F802B09F448C07A
:105050008091BD029091BE020E946F159C019091BB
:10506000BA02992309F44EC225363105C8F19F3F93
:1050700019F09F5F9093BA02112359F00E94A6097C
:105080009FEF11160CF491E0899F802D11248093DD
:10509000C502002359F00E94A6099FEF10160CF4D8
:1050A00091E0899F802D11248093C6023091C50222
:1050B0003323B1F02091C602222391F045EB340353
:1050C000C0011124992309F4FFC19093C50245EB57
:1050D000240390011124332309F4FAC13093C6024A
:1050E0008091C3029091C402892B9091C502892BB3
:1050F0009091C602892B11F00E948A1586E0FE016C
:105100003196A1ECB2E001900D928A95E1F70E94F0
:105110006A109091AE02891709F448CE0E946A1075
:105120008093AE0243CE84E28093500188E2D5CCD6
:1051300080E047CD80E24ACD86E594E05BCD80916A
:10514000D703843019F11092C20388E190E00FB6C2
:10515000F894A895809360000FBE6092600083B7BA
:10516000817F846083BF83B7816083BF7894889593
:1051700083B78E7F83BF0FB6F894A89580916000A7
:10518000886180936000109260000FBE8091D6030A
:10519000882361F00E94F422E7E7F2E08191811117
:1051A0009BC1A1E8B2E0AE17BF07C1F78091D7035A
:1051B000853009F4C4CF0E9444160E946A10FDCDC8
:1051C000C394FF0C27E0C2120ECE0F5F1F4F0A30B0
:1051D000110509F0FECD8FEF8C878D871E860E940A
:1051E0007E158160782F988B8F874C855D856E85C5
:1051F00088890E94642218CE0E947E159093AD0289
:105200008093AC0287EE93E09093EE058093ED05DA
:105210000E944710882309F46DC08BEC94E00E9433
:105220002A0E8AEC94E00E942A0E84EC94E00E94FC
:105230002A0E4091860250918702609188027091F7
:105240008902CB01AA27BB270097A105B10509F464
:1052500047C0AC01BD0180E1052F162F272F332752
:10526000011511052105310519F0885FB901A80163
:105270008A019B01A4E03695279517950795AA9575
:10528000D1F7011511052105310519F08C5FB90120
:10529000A8018A019B01F2E036952795179507959D
:1052A000FA95D1F7011511052105310519F08E5F29
:1052B000B901A8017695679557954795452B462BDB
:1052C000472B09F08F5F8130D9F0882359F0823065
:1052D000D1F08330D9F080EB94E00E94EA0D06C053
:1052E00080E0BACF80EC94E00E942A0E83E794E03D
:1052F0000E94EA0D8091BB03882309F416CE0DCEDF
:105300008CEB94E0F1CF88EB94E0EECF84EB94E06B
:10531000EBCF8091AB0261E070E0811106CE082FE7
:1053200010E02B01082E02C0440C551C0A94E2F731
:10533000A90144215521452B09F448C09091AA02A6
:1053400090FD46C08295880F807680934B0198012E
:10535000369527953695279520934E01815E80934B
:105360004C0110924F0124E630E047E050E069E440
:1053700071E088E70E943B2B892B09F0D6CDA8016C
:1053800095E0440F551F9A95E1F78091AA0280FDA0
:105390002DC049515C4F04E610E020E230E060E4AB
:1053A00088E70E94622B892B09F0BFCD0E945F0E17
:1053B000C201809590954090E5035090E603482205
:1053C00059225092E6034092E503AFCD8F5FA7CFFD
:1053D000880F880F880F80934B0110924E01895FD0
:1053E00080934C0183E080934F01BDCFEAE8F2E067
:1053F00080E2DF011D928A95E9F7EEEAF1E0FA8B8F
:10540000E98B0AEA11E087E0A82E99249394A989F0
:10541000BA892D91BA8BA98BF80121908F01240EA6
:10542000352E311CC10189519C4F1C01E22FF0E047
:10543000E657FD4F30E020E07A2C721AB92C022E8C
:1054400001C0BB0C0A94EAF7610190E0D6018D918E
:105450006D018B21672D691B6770862E062E000C4F
:10546000770BB82F01C0BB0F8A94EAF78B2E71958A
:10547000619571096770772701C086956A95EAF78B
:10548000882A8081882A80829F5F9830F9F62F5F72
:105490003F4F31962830310579F6E2EBF1E029896A
:1054A0003A89E217F30709F0B2CF04E610E020E2F0
:1054B00030E04AE852E073CF81E08093C302BBCD75
:1054C00081E08093C402C0CD81E08093C502FFCD0E
:1054D00081E08093C60204CE09BD19BD09B400FE67
:1054E000FDCF8091D8008F7D8093D8008091E0001F
:1054F00082608093E0008091E00081FDFCCF0E94FB
:10550000441654CE2D32314008F0B3CDE9CD2D32C2
:10551000314008F062CD98CD1092B9008CE08093B4
:10552000B80008959F92AF92BF92CF92DF92EF9210
:10553000FF920F931F93CF93DF93B82EEB010E943E
:105540007E156C01EE24E394F12CC431D10560F09A
:1055500025E0E22EF12CCF3FDC0731F0CE0164E1F3
:1055600070E00E94B52D7B0184EAA82E94E8992E64
:105570001092BC00A092BC000E947E158C0180910C
:10558000BC0087FF0DC08091B900887F883039F159
:105590008091B900887F803111F10FEF1FEF09C0B2
:1055A0000E947E15801B910B8E159F0540F30EEF18
:1055B0001FEFCF3FDC07E1F2C6010E946F158C1789
:1055C0009D07B0F2C801DF91CF911F910F91FF901D
:1055D000EF90DF90CF90BF90AF909F900895B092E2
:1055E000BB009092BC000E947E158C018091BC0093
:1055F00087FF0AC08091B900887F883111F080341C
:1056000061F610E000E0DECF0E947E15801B910B5A
:105610008E159F0558F3CBCF0F931F93CF93DF9336
:10562000EB018093BB0084E88093BC000E947E1550
:105630008C018091BC0087FF11C02091B900287FA8
:1056400081E090E0283211F490E080E0919581951E
:105650009109DF91CF911F910F910895CF3FDC0702
:1056600041F30E947E15801B910B8C179D0708F358
:105670008EEF9FEFEECFCF92DF92EF92FF920F93DC
:105680001F93CF93DF936B018A017901B9010E94C7
:10569000922AE6010C0D1D1DC017D10761F424E903
:1056A0002093BC00DF91CF911F910F91FF90EF905D
:1056B000DF90CF90089597FDF2CFB70189910E94B6
:1056C0000C2BEACFCF92DF92EF92FF920F931F93B2
:1056D000CF93DF93C62F6A017901B8010E94922A05
:1056E00097FD0CC0B8018C2F0E940C2BE601EC0C2E
:1056F000FD1CCE15DF0511F097FF0CC024E92093A7
:10570000BC00DF91CF911F910F91FF90EF90DF9040
:10571000CF900895B80189910E940C2BEACF84E9BB
:105720008093BC0008958EE14A9B02C08150E1F74E
:105730004A9BFECF08955A9880E28A95F1F75A9ACB
:105740000895FC013BE03A95F1F798E020E080E015
:1057500031E040E14A95F1F7880F4A9B02C0816031
:10576000232742E04A95F1F7000040E14A95F1F71E
:10577000915079F790E19A95F1F799B132E03A9525
:10578000F1F7000040E14A95F1F792FB992790F973
:1057900092272081920F90830895EF92FF920F93AA
:1057A0001F93CF93DF930F92CDB7DEB719828C0191
:1057B0007C01E60EF11C0E151F0561F481E0998154
:1057C000911180E00F90DF91CF911F910F91FF9089
:1057D000EF9008950E94932BCE0101960E94A12B79
:1057E000F80181938F01E7CF529A5A9A08955298FF
:1057F0005A9AEA9AE9E6F0E080818F7C80830895E6
:105800006150770B91E001C0990F6A95EAF720E0AB
:1058100031E0911108C0222391F05A9A80E28A95D2
:10582000F1F75A980895492F482339F05A9A2327B7
:1058300040E24A95F1F79695ECCF5A98F9CF5A98ED
:10584000EDCFFF920F931F93CF93DF93EC018C0169
:10585000060F111DC017D10731F4DF91CF911F91B1
:105860000F91FF900895F9900E949B2B68E08F2D77
:105870000E94002CEFCF1F920F920FB60F921124AF
:10588000EF92FF920F931F932F933F934F935F934A
:105890006F937F938F939F93AF93BF93EF93FF93F8
:1058A000CF93DF930F92CDB7DEB719820E94932B6F
:1058B000CE0101960E94A12BA82FA695A695A6958C
:1058C000282F229525709A2F9570290F922F93706B
:1058D00026952695920F982797708981982B09F025
:1058E00075C0A73008F072C080E18A95F1F75A9A26
:1058F000529AB2E0BA95F1F700C05A98EA2EF12C0C
:10590000EAE0AE9FD0011124A050BF4F1896ED9150
:10591000FC9119973097B1F06091870170918801DF
:1059200016962D913C911797260F371F13968D9140
:105930009C911497680F791F15964C9115971296A4
:105940008C9109958AE08E9DF0018F9DF00D1124B8
:10595000E050FF4F6581662351F02091870130911F
:10596000880186819781820F931F0E94212C0E94BB
:105970009B2BF0E1FA95F1F75A9852985A9A80E1E8
:105980008A95F1F78AE08E9D80018F9D100D11247C
:1059900000501F4FD80112966C911297662371F137
:1059A000209187013091880113968D919C91820FEF
:1059B000931F0E94CD2BD801ED91FC91882311F00B
:1059C00088E001C082E080830E94932B0F90DF91DA
:1059D000CF91FF91EF91BF91AF919F918F917F9167
:1059E0006F915F914F913F912F911F910F91FF9078
:1059F000EF900F900FBE0F901F901895ED91FC91B6
:105A0000DFCF0F931F93CF93DF93EC0107970CF039
:105A1000A9C08AE08C9FF0018D9FF00D1124E05009
:105A2000FF4F80819181892B09F49CC0F894529A90
:105A30005A9885E08A95F1F700008C2F869585703D
:105A40009C2F9570890F982F937086958695890F56
:105A50008E0193E0000F111F9A95E1F7082B0E9429
:105A60009B2B00C068E0802F0E94002CA0E1AA952B
:105A7000F1F752985A9A4A9B27C087E090E04A99DA
:105A800025C08AE08C9F80018D9F100D112400504D
:105A90001F4FF80165816623A1F1209187013091A4
:105AA000880186819781820F931F0E94CD2B8111DF
:105AB00028C0529A5A9AD801ED91FC9182E08083D5
:105AC000789482E090E016C000C0D5CF0197B9F479
:105AD000529A5A9A8AE08C9FF0018D9FF00D112402
