:100000000C942D070C9474070C9474070C94BB305B
:100010000C9474070C9474070C9474070C94740774
:100020000C9474070C9474070C940B180C94D51C46
:100030000C94B5260C9474070C9474070C947407F4
:100040000C9474070C9474070C9474070C94740744
:100050000C9474070C94E2180C9474070C947407B5
:100060000C9474070C9474070C9474070C94740724
:100070000C9474070C9474070C9474070C94740714
:100080000C9474070C9474070C9474070C94740704
:100090000C9474070C9474070C9474070C947407F4
:1000A0000C9474070C9474070C947407000100FFFF
:1000B000FF0106EA80FF0701BFFFFF08052BFFFFD6
:1000C0000D01BFFFFF0E0555FFFF1301BFFFFF141A
:1000D0000580FFFF1905AAFFFF1E08EA80FF26071B
:1000E0002BFFFF2D01BFFFFF2E0655FFFF3401BF81
:1000F000FFFF350580FFFF3A02BFFFFF3C04AAFF68
:10010000FF40060000FF43060000FFFF0000000064
:10011000000100000001060000FF070100000008C8
:10012000050000FF0D010000000E050000FF130197
:1001300000000014050000FF19010000001A010072
:10014000FFFF1B030000001E22000000400600000D
:10015000FF43060000FFFF00000000000100FFFF5A
:100160000104AAFFFF0502BFFFFF07010000FF080F
:1001700005AAFFFF0D01D5FFFF0E03AAFFFF110225
:10018000BFFFFF1301D5FFFF1403AAFFFF1702BF34
:10019000FFFF1901D5FFFF1A010000FF1B02D5FF69
:1001A000FF1D0100FFFF1E2200000040060000FFAF
:1001B00043060000FFFF00000000000100FFFF01F8
:1001C0000480FFFF05022BFFFF07010000FF080569
:1001D00080FFFF0D01D5FFFF0E0380FFFF11022BF3
:1001E000FFFF1301D5FFFF140380FFFF17022BFF52
:1001F000FF1901D5FFFF1A010000FF1B02D5FFFF09
:100200001D0100FFFF1E2200000040060000FF430A
:10021000060000FFFF0000000005010902A10185A2
:10022000020901A1000509190129081500250195F8
:1002300008750181020501093009311581257F9575
:10024000027508810609381581257F950175088199
:1002500006050C0A38021581257F9501750881066F
:10026000C0C005010980A101850319012AB7001545
:100270000126B700950175108100C0050C0901A188
:1002800001850419012AA002150126A00295017515
:10029000108100C00660FF0961A1010962150026F6
:1002A000FF009520750881020963150026FF00955F
:1002B0002075089102C005010906A101050719E092
:1002C00029E715002501950875018102950175083A
:1002D00081010507190029FF150026FF0095067505
:1002E00008810005081901290595057501910295F8
:1002F0000175039101C00000000000000000000033
:1003000000000000000000000000000000000000ED
:10031000000000000000000000007E0F00D4FFFF7E
:10032000FFC70000007800000000000000002A2B3A
:100330002800000000000000000000000000000095
:100340000029000000002C1E3420212224342627FE
:10035000252E362D3738271E1F202122232425261F
:100360003333362E37381F0405060708090A0B0CED
:100370000D0E0F101112131415161718191A1B1C35
:100380001D2F3130232D350405060708090A0B0CF3
:100390000D0E0F101112131415161718191A1B1C15
:1003A0001D2F3130354C00DA0281FFD9F1DB20A45A
:1003B000A62EAF00A0C000A1C800AED580A81FD354
:1003C00000408D142000BA015B011001AC00000058
:1003D00000047F3F1F643214643214783C1E1E14E4
:1003E0000A05004C454400006E2F6100347468001B
:1003F00033726400326E6400317374004C415945AD
:1004000052000000AE0001010101010101010102E1
:1004100002020202020202020303030303030303B4
:10042000040404040404040505050505060606067F
:1004300006070707070708080808090909090A0A3B
:100440000A0B0B0B0C0C0C0D0D0D0E0E0E0F0F0FDF
:10045000101011111112121313141415151616176A
:1004600017181819191A1A1B1B1C1D1D1E1E1F20D8
:1004700020212222232424252626272829292A2B25
:100480002C2D2D2E2F30313232333435363738394A
:100490003A3B3C3D3E3F4041424344454647484944
:1004A0004A4C4D4E4F50515354555658595A5B5D16
:1004B0005E5F616264656668696B6C6D6F707273B4
:1004C0007577787A7B7D7E8082838587888A8C8E1B
:1004D0008F91939596989A9C9EA0A2A3A5A7A9AB4D
:1004E000ADAFB1B3B5B7BABCBEC0C2C4C6C9CBCD3F
:1004F000CFD1D4D6D8DBDDDFE2E4E7E9EBEEF0F3F1
:10050000F5F8FAFDFFFFAA7F554006050403020136
:10051000000708090A0B0C1211100F0E0D13141509
:100520001617181D1C1B1A194041424847461E1F2A
:100530002021222324252D2C2B2A292827262E2F43
:1005400030313233343B3A39383736353C3D3E3F33
:10055000454443494A4B2223252628292A2C2D2F5E
:100560003032333536383A3B3D3E404243454749C9
:100570004A4C4E5051535557595A5C5E60626466FE
:1005800068696B6D6F71737577797B7D7F8183850A
:1005900087898A8C8E90929496989A9C9E9FA1A30C
:1005A000A5A7A8AAACAEAFB1B3B4B6B8B9BBBCBE30
:1005B000BFC1C2C3C5C6C7C9CACBCCCDCED0D1D2AC
:1005C000D2D3D4D5D6D7D7D8D9D9DADADBDBDBDCAE
:1005D000DCDCDCDCDDDDDDDDDCDCDCDCDCDBDBDB5A
:1005E000DADAD9D9D8D7D7D6D5D4D3D2D2D1D0CEBA
:1005F000CDCCCBCAC9C7C6C5C3C2C1BFBEBCBBB9BF
:10060000B8B6B4B3B1AFAEACAAA8A7A5A3A19F9E3C
:100610009C9A98969492908E8C8A89878583817F04
:100620007D7B79777573716F6D6B696866646260E5
:100630005E5C5A5957555351504E4C4A49474543B1
:1006400042403E3D3B3A3836353332302F2D2C2A4E
:1006500029282625232229001E001F002000210012
:1006600022002300115014001A0008001500170082
:10067000000004001600070009000A000B0000003B
:10068000E1001D001B000500060019000000E0004D
:1006900002512C0035002800A6000000240025008F
:1006A000260027002D002E00310000000000000071
:1006B00000000000000000000000000000000F002B
:1006C00033003400280000000000360037003800F6
:1006D000E5000000A7008A002C00E600E7003500D6
:1006E0002A0029001E0024002500260022002300E5
:1006F000105014001A001C00150017000000040020
:100700001600070009000A000B000000E1001100BC
:1007100010000D00060019000000E00002512C003E
:1007200035002800A60000004000410042004300C0
:100730004400450049000000000046004700480012
:1007400052000000000000004A000F0050004F005F
:100750000000000000004D004E00510000000000AD
:10076000A700000000000000E7004C000000290086
:100770001E001F0020002100270046001350180013
:100780000C00120013000E00000004000F002F00E8
:1007900033000A000B000000E1003400360037008F
:1007A000060019000000E00002512C00350028006E
:1007B000A600000024002500260027002D002E00A2
:1007C00031001C0018000C00120013002F00300034
:1007D0000B000D000E000F00330034002800110044
:1007E0001000360037003800E5000151A7002C004A
:1007F0002C00E600E70035002A0029001E001F003B
:1008000020002100220023002B0014001A00080001
:10081000150017000000E0000400160007000900A2
:100820000A000000E1001D001B0006001900050081
:100830000000E0001050E20035002C00A60000008F
:1008400024002500260027002D002E0031001C006A
:1008500018000C00120013002F0030000B000D00D8
:100860000E000F0033003400280011001000360085
:1008700037003800E5000151A7002C002C00E600ED
:10088000E70035002A0000AF09025B00030100A069
:10089000FA0904000001030101000921110100010E
:1008A0002240000705810308000A09040100020331
:1008B0000000000921110100012222000705820326
:1008C00020000107050303200001090402000103C1
:1008D000000000092111010001227B0007058403AB
:1008E00020000A12010002000000083839343602E4
:1008F00000010200010A03520065003600340000C6
:100900000012036B0075007300680069006D0061E0
:1009100000380000000403090407087F0807003EB0
:100920005B4F5B3E003E6B4F6B3E001C3E7C3E1CB3
:1009300000183C7E3C18001C577D571C001C5E7F35
:100940005E1C0000183C180000FFE7C3E7FF000032
:100950001824180000FFE7DBE7FF0030483A060ED6
:1009600000262979292600407F05050700407F05DC
:10097000253F005A3CE73C5A007F3E1C1C080008FB
:100980001C1C3E7F0014227F2214005F5F005F5F0B
:100990000006097F017F00006689956A006060603B
:1009A00060600094A2FFA2940008047E0408001076
:1009B000207E20100008082A1C0800081C2A0808AD
:1009C000001E10101010000C1E0C1E0C0030383EC3
:1009D000383000060E3E0E06000000000000000049
:1009E000005F000000000700070000147F147F1460
:1009F00000242A7F2A120023130864620036495615
:100A0000205000000807030000001C2241000000E5
:100A100041221C00002A1C7F1C2A0008083E0808EE
:100A2000000080703000000808080808000000601E
:100A30006000002010080402003E5149453E0000BD
:100A4000427F4000007249494946002141494D33E7
:100A5000001814127F10002745454539003C4A49CB
:100A600049310041211109070036494949360046FC
:100A70004949291E00000014000000004034000015
:100A80000000081422410014141414140000412220
:100A90001408000201590906003E415D594E007CD0
:100AA0001211127C007F49494936003E41414122E2
:100AB000007F4141413E007F49494941007F09098A
:100AC0000901003E41415173007F0808087F000082
:100AD000417F4100002040413F01007F0814224136
:100AE000007F40404040007F021C027F007F0408DE
:100AF000107F003E4141413E007F09090906003E4A
:100B00004151215E007F0919294600264949493291
:100B10000003017F0103003F4040403F001F204091
:100B2000201F003F4038403F006314081463000357
:100B300004780403006159494D4300007F4141415D
:100B400000020408102000004141417F000402011E
:100B5000020400404040404000000307080000201D
:100B600054547840007F2844443800384444442892
:100B700000384444287F0038545454180000087E3C
:100B800009020018A4A49C78007F080404780000DF
:100B9000447D4000002040403D00007F102844007C
:100BA0000000417F4000007C04780478007C080449
:100BB000047800384444443800FC182424180018F1
:100BC000242418FC007C08040408004854545424CD
:100BD0000004043F4424003C4040207C001C204092
:100BE000201C003C4030403C004428102844004C6D
:100BF0009090907C004464544C44000008364100BE
:100C000000000077000000004136080000020102E9
:100C10000402003C2623263C0000000000000040A7
:100C20004040F0F8F8FF38FFF8F83FF8F8FF38FFD9
:100C3000F8F8F040404000000000000080C0C0C054
:100C4000800000C0C08000000080C0C000C0C000A4
:100C50000080C0C00000000000C0C0C0C0C000C014
:100C6000C0000000000000000000000000000000C4
:100C70000000000000000000000000000000000074
:100C80000000000000000000000000000000000064
:100C90000000000000000000C0F0F8FC3E1E06014D
:100CA0000000007F4141417F007F4141417F0000C2
:100CB00080C0E07E5B4F5BFEC00000C000DCD7DE82
:100CC000DEDED7DC00C000000000000000000000F5
:100CD00000000000000000000000000000000049CB
:100CE0004949FFFFFFFFE0DFBFBF00BFBFDFE0FFFD
:100CF000FFFFFF49494900000000001F3F6060E01E
:100D0000BF1F007F7F071E381E077F7F007F7F0E7B
:100D10001F3B716000000000007F7F0C0C0C007E08
:100D20007E007F7E0303007F7E03037E7E03037FBE
:100D30007E000F3E703C063C703E0F00327B4949FE
:100D40003F7E007F7E0303001E3F69696F2600001F
:100D50000000000000000000030F1F3F3C7870609F
:100D60000000007F4141417F007F4141417F0030D1
:100D70007B7F7830202030787F3B0003000F7F0F8F
:100D80000F0F7F0F000300000000000000000000B4
:100D90000000000000000000000000000000000152
:100DA0000101070F0F7F0F7F0F0F7E0F0F7F0F7F48
:100DB0000F0F07010101000000000000000000000B
:100DC0000101000000000000000000000000000021
:100DD0000000000000000000000000000000000013
:100DE0000000000000000000000000000000000003
:100DF00000000000000000000000000000000000F3
:100E000000000000000000000000000000000000E2
:100E100000000000000000000000000000000000D2
:100E200000000000000000000000000000000000C2
:100E300000000000000000000000000000000000B2
:100E400000000000000000000000000000000000A2
:100E50000000000000000000000011241FBECFEFC2
:100E6000DAE0DEBFCDBF04B603FE27C080913106B5
:100E700090913206A0913306B09134068730904BA2
:100E8000A740B04BD1F41092310610923206109266
:100E900033061092340614BE84B7877F84BF0FB622
:100EA000F894A8958091600088618093600010920A
:100EB00060000FBEE0E0F8E3099512E0A0E0B1E0C9
:100EC000E0E8FCE602C005900D92A432B107D9F724
:100ED00026E0A4E2B2E001C01D92A133B207E1F71F
:100EE0000E94DC260C9421360C940000E8EDF0E022
:100EF00080818E7F80831092E2001092DA0010923F
:100F0000E100A0EEB0E08C9181608C9380818F77BE
:100F1000808319BCA7EDB0E08C918E7F8C9380818B
:100F20008F7E808310920B0408952091E40030910D
:100F3000E50095E6A9012091EC00822F817020FF49
:100F400006C08091E80080FF06C080E008952091EF
:100F5000E80022FD1AC080911804882389F08530AA
:100F600089F08091EB0085FD0FC02091E400309165
:100F7000E50042175307F9F29150E1F684E0089535
:100F800082E0089583E0089581E00895EF92FF9252
:100F90000F931F93CF937C018B010E949507C82F5D
:100FA000811117C08091E80085FD0BC08091E80099
:100FB0008E778093E8000E949507882399F3C82FC5
:100FC00008C0F70181917F018093F1000150110960
:100FD00049F78C2FCF911F910F91FF90EF900895BB
:100FE00080911A0487FF13C08091E80082FF06C039
:100FF0008091E8008B778093E80004C0809118040A
:101000008111F2CF0895809118048823D9F380913B
:10101000E80080FFF8CF8091E8008E77ECCF982F22
:101020009093E900242F762F50E0891731F07091CA
:10103000EC002091ED005091F00021FD07C09F5F72
:10104000973071F78093E90081E008953091EB00CB
:101050003E7F3093EB003091ED003D7F3093ED000B
:101060003091EB0031603093EB007093EC002093F3
:10107000ED005093F0002091EE0027FDE0CF80E0DE
:101080000895CF92DF92EF92FF920F931F93CF9329
:10109000DF93C8EDD0E088818F7E8883E7EDF0E0B4
:1010A00080818160808384E082BF81E080930B0433
:1010B00088818E7F888302EE10E0F8011082109202
:1010C000DA0081EEC82ED12CF601108288818F774C
:1010D000888388818068888388818F7D888319BC14
:1010E000109218041092190410921704109216040A
:1010F00090EEE92EF12CF70180818B7F808388812F
:101100008160888342E060E080E00E940F08F60181
:1011100080818E7F8083F8018081816080838081DF
:1011200088608083F70180818E7F808388818061E1
:101130008883DF91CF911F910F91FF90EF90DF9007
:10114000CF900895FC01809120049091210486178E
:101150009707A0F06115710529F49091E8009E773A
:101160009093E80090E06115710551F4911108C069
:101170008091E80082FF34C080E00895BC01F2CF86
:10118000809118048823C1F18530C1F18091E80075
:1011900083FD30C08091E80082FDEACF8091E800B5
:1011A00080FFE1CF8091F3002091F200382F61158C
:1011B000710519F02830310558F091E028303105DB
:1011C00009F090E02091E8002E772093E800CBCF43
:1011D00081918093F100615071092F5F3F4FE7CFFC
:1011E00080911804882341F0853041F08091E80017
:1011F00083FFBECF81E0089582E0089583E00895E3
:1012000080910D04089587E797E7909301088093F4
:10121000000888E19AE00FB6F894A89580936000E2
:101220000FBE90936000FFCF2FB7F8946091040435
:101230007091050480910604909107042FBF0895D2
:101240009C01FC0132969FEF80E04191461751F0DE
:101250009F3F19F4411101C0982F8F5F8630A9F785
:101260009F3F09F40895290F311D97FD3A95F90123
:10127000628308952091FD033091FE0328173907FA
:1012800071F09093FE038093FD03E091FB03F091D6
:10129000FC03309721F00084F185E02D0994089536
:1012A0002091F9033091FA032817390771F09093D0
:1012B000FA038093F903E091FB03F091FC0330976C
:1012C00021F00680F781E02D09940895FC01680F54
:1012D000791F8FEF91E32191822728E030E087FF8B
:1012E00009C0880F892721503109C9F7E617F70788
:1012F00091F70895880FF7CFFA01811101C0FB0122
:1013000009940895E3E0F3E011828281846082838E
:10131000089580910A0380FF02C08695089580E0B9
:10132000089580910A03982F9E7F61F481708260F6
:1013300080930A0380910D03893718F088E7809322
:101340000D0308958A34B0F381708864F1CFAF92B1
:10135000BF92DF92EF92FF920F931F93CF93DF9391
:10136000182F062FE901493708F048E7E42FF0E08D
:10137000EB5FFB4F011110C0E4915E2F4E2F4983AC
:10138000E8835A83DF91CF911F910F91FF90EF90E7
:10139000DF90BF90AF900895202F30E04491D42E7D
:1013A000E42EF12C56E0159FC0011124EFEFF0E080
:1013B000BF010E943532812F90E0880F991F55E5BB
:1013C000569FD001579FB00D11248A1B9B0B982F5D
:1013D000990F890F5F01A21AB30AAE9CD001AF9C8E
:1013E000B00DBE9CB00D11245B2F089F800111240D
:1013F000012F11275F01A01AB10AAE9C8001AF9C9A
:10140000100DBE9C100D11245F01A81AB108A29EF8
:10141000C001A39E900DB29E900D1124892F992793
:10142000E81BF90BEE9DC001EF9D900DFE9D900D08
:101430001124E92F62307105A1F050F46115710596
:1014400009F49DCF6130710581F0EB2F512F97CFBB
:101450006430710569F080F06630710509F48FCF52
:10146000F4CFE42F4B2F592F8ACFE42F412F87CF72
:10147000EB2F542F492F83CF4B2F5D2DE12F7FCFA3
:101480004091F702803F59F48091F80287FF0DC028
:101490001092F80241110BC01092EF0208C0813F78
:1014A00081F48091F80218169CF3442381F0809116
:1014B000F9029091FA02892B09F05AC01092EE02BB
:1014C0000895823F49F447FFF0CF1092F7028091D0
:1014D000F8028111ECCFE0CF833F19F41416ACF37E
:1014E000E4CF9091F902893F29F41916F4F610928D
:1014F000F902DBCF8A3F19F497FFD7CFF8CF90914D
:10150000FA028B3F29F497FFD0CF1092FA02CDCF89
:101510008C3F19F41916CCF3C8CF9CE0980F953086
:1015200090F4845F990B21E030E0B90102C0660FAE
:10153000771F8A95E2F7CB0180959091F602892377
:101540008093F602B2CF8D3F31F48091F0028E7F0E
:101550008093F002AACF8E3F21F48091F0028D7F1C
:10156000F7CF8F3F09F0A1CF8091F0028B7FF0CFB2
:1015700008958091F00280FD16C081FD16C082FDA5
:1015800016C08091EE028823A1F0883280F428E012
:10159000829FC001112468E270E00E946332862FAE
:1015A000672B39F0089582E0089584E0089588E07B
:1015B000089581E008958091F00280FD14C081FDBE
:1015C00014C082FD16C08091EF02882381F084311F
:1015D00080F422E3829FC001112464E170E00E9444
:1015E0006332862F08958CE0089589E1089585E09F
:1015F000089582E30895803F31F40E94DB0A8195CB
:101600008093F8020895813F19F40E94DB0AF8CF15
:10161000823F31F40E94DB0A81958093F70208959E
:10162000833F19F40E94DB0AF8CF893F29F40E9416
:10163000B90A8093F90208958A3F21F40E94B90AF9
:101640008195F7CF8B3F31F40E94B90A8195809341
:10165000FA0208958C3F19F40E94B90AF8CF9CE071
:10166000980F953070F4845F990B21E030E001C051
:10167000220F8A95EAF78091F602822B8093F60278
:1016800008958D3F31F48091F00281608093F002E3
:1016900008958E3F21F48091F0028260F7CF8F3F52
:1016A000B9F78091F0028460F1CF80E008957894DA
:1016B0000895F894E82FE295EF70F0E031A1282F1B
:1016C0002F7081E090E001C0880F2A95EAF7982FEB
:1016D0009095932391A392A1892B82A30C94570BED
:1016E0008238910591F1C0F58133910509F490C0DC
:1016F00028F58932910509F484C08A32910509F4EC
:101700008EC0811520E5920708F0A6C0811540E43F
:10171000940708F02CC18F3B910508F087C0883AE8
:10172000910508F017C1853A910508F00AC1843087
:10173000910500F581309105E9F03CC085339105B4
:1017400009F458C089339105E1F620918402237091
:1017500089F080EE90E00895833E910571F158F490
:10176000803E9105E9F0823E910559F62091840270
:1017700022FD1EC00895863E910551F1873E9105D8
:1017800071F1843E910509F0BCCF2091850221FFC3
:10179000F1CF8091840284FD0DC087EE90E0089522
:1017A0002091840220FD0FC13091850230FFE2CFED
:1017B00024FF0CC190E080E0DDCF2091840222FD67
:1017C00008C13091850230FDC4CF24FFD3CFF2CFC2
:1017D0002091840223FFCECF24FDECCFDECF2091D9
:1017E000840223FDF9C03091850231FFEECF84EEF3
:1017F00090E008952091840225FFBCCF89E290E01B
:1018000008952091840225FFB5CF85E390E00895E7
:101810002091840226FFAECF8AE290E008952091C5
:10182000840226FFA7CF81E390E008958F3F9105C2
:1018300009F060F4803F910508F097C09C01215E9B
:1018400031092730310508F495CFB4CF811520E256
:10185000920708F48FCFAECF811543E5940740F58A
:10186000811522E5920708F08AC0811541E59407A9
:1018700008F080C09C0164E0369527956A95E1F7F1
:10188000922F9370282F26952695237040E2249F4F
:1018900090011124392B482F437081E090E002C061
:1018A000880F991F4A95E2F7822B932B9C68089525
:1018B000811529E59207F0F4811548E5940708F0B1
:1018C0006FC0811524E5920708F074CFAC01437016
:1018D000552721E030E002C0220F331F4A95E2F77E
:1018E0008695869540E2849FC0011124822B932B1C
:1018F0009A68089581154AE5940708F05BCF282F70
:101900002F704091840242FF05C083FF4EC0282FF4
:10191000277024603091850230FF07C0322F387164
:10192000383009F048C0277F216044FD277E34E02D
:10193000969587953A95E1F78F70982F822F906949
:101940000895855AE82FF0E0EC56FE4F808190E034
:1019500090640895885AE82FF0E0EE0FFF1FE956D3
:10196000FE4F8081918194640895906508959F70E1
:10197000906A0895982F8827816F906A0895AC0126
:101980004370552721E030E002C0220F331F4A95F3
:10199000E2F78695869540E2849FC001112484CFAA
:1019A000982F8827806F906A089582FFB3CF282FE1
:1019B0002B702860AFCF322F3171313009F0B5CFA5
:1019C0002E7F2860B2CF89E390E0089583EE90E007
:1019D000089582EE90E0089586EE90E008950C94CC
:1019E000140980914D0290914C02892B90914B02E9
:1019F000892B80932602E091FB03F091FC03309742
:101A000031F00280F381E02D86E292E0099408959E
:101A100027E0929F800D1124982F977086958695C8
:101A2000869523E0829FF0011124E05DFD4F50E098
:101A300040E080E0219130E0092E02C036952795E4
:101A40000A94E2F721703327042E01C0220F0A9472
:101A5000EAF7822B4F5F5F4F4330510559F70895E6
:101A600027E0929F800D1124982F977041E001C0CC
:101A7000440F9A95EAF786958695869593E0899F17
:101A8000F0011124E05DFD4F90E080E070E05191A5
:101A9000DF0111979B01082E02C0369527950A9405
:101AA000E2F7217021952527242325272C930196E1
:101AB0008330910561F70895882341F080959091D6
:101AC0004D02892380934D020C94F10C08958823D4
:101AD00039F090914D02982B90934D020C94F10C9B
:101AE0000895982F92959F7011F0892F94E0282FD8
:101AF0002695269511F09E5F822F869509F09F5FAF
:101B0000892F0895CF93DF93682F81E06A3019F011
:101B10006D3029F480E0DF91CF910C94110E80910B
:101B20002F069091300626E0FC01A9E2B6E0019074
:101B30000D922A95E1F7603E08F45AC026E0FC01B8
:101B400011922A95E9F7C0912F06D091300646E010
:101B500050E0BE0189E296E00E9424339E012952A2
:101B60003440892B41F1C90145E0969587954A9506
:101B7000E1F741E050E0BA0102C0660F771F8A9595
:101B8000E2F7CB016091270470912804862B972BF4
:101B9000B9016B5F7F4FE5E076956795EA95E1F7D0
:101BA00002C0440F551F6A95E2F7842B952B909342
:101BB0002804809327042A5F3F4F40912604642F16
:101BC00070E0C9010E943532481B463010F4240FE2
:101BD000311D211572E0370710F030E020E0275D5D
:101BE0003B4F3093300620932F06DF91CF9108951D
:101BF000F6E06F9FB0011124675E764F46E050E03B
:101C00000E940E33A0CFCF93DF93EC01FE018491AD
:101C1000811103C0DF91CF9108950E94820D21961A
:101C2000F5CFCF93382FE0912F06F0913006E9528F
:101C3000F44020912604622F70E0CF010E943532DB
:101C4000281B822F332361F066E00E944932C82F9F
:101C5000C15010F4CF91089580E20E94820DF8CF18
:101C60009F01280F311D2115324018F080E0F0E06F
:101C7000E0E08E0F9F2F911D875D9B4F9093300664
:101C800080932F06E7CF0E94030E81E00C94110E83
:101C90000F931F93CF93DF93EC01FC010190002081
:101CA000E9F78F0101501109C017D10728F0DF9122
:101CB000CF911F910F91089589910E94820DF4CFC9
:101CC000CF92DF92EF92FF920F931F93CF93DF9308
:101CD0006C017B0164E670E088E70E94122FEC0142
:101CE00097FD12C010E000E0F601E00FF11F8491B3
:101CF00064E670E00E948C2FEC01892B29F40F5FC1
:101D00001F4F0E151F0581F70E940F30CE01DF9186
:101D1000CF911F910F91FF90EF90DF90CF9008959A
:101D2000CF93C091F7038091F8038823D1F00E94EC
:101D30001409605A75418F4F9F4F6093F30370935E
:101D4000F4038093F5039093F603C11108C062E099
:101D500070E086E898E00E94600E892B29F0C0911F
:101D6000F7038C2FCF91089581E08093F703F7CF8D
:101D700090911804943029F58093080470930A0414
:101D8000609309049093E9008FEF9091E8008150EF
:101D900095FD06C095ED9A95F1F700008111F5CFFC
:101DA0008091E80085FF0DC050E040E063E070E006
:101DB00088E094E00E94C6078091E8008E778093C7
:101DC000E8000895BC0184E00C94B80EBC0183E0E7
:101DD0000C94B80E9C0184E08093E9009FEF809101
:101DE000E800915085FD06C085ED8A95F1F7000069
:101DF0009111F5CF8091E80085FF0CC050E040E0E4
:101E000066E070E0C9010E94C6078091E8008E7705
:101E10008093E8000895CF93DF93EC0181E08093F5
:101E2000E9008FEF9091E800815095FD06C095ED97
:101E30009A95F1F700008111F5CF8091E80085FFB8
:101E400014C050E040E068E070E0CE010E94C60798
:101E50008091E8008E778093E80088E0FE01AEE094
:101E6000B4E001900D928A95E1F7DF91CF9108954A
:101E70004F925F926F927F928F929F92AF92BF929A
:101E8000CF92DF92EF92FF920F931F93CF93DF9346
:101E9000CDB7DEB7C45ED1090FB6F894DEBF0FBE72
:101EA000CDBF5090730190910A0390FF5DC0809068
:101EB000FB029090FC028114910409F068C0EAE0F2
:101EC000F5E09E012F5F3F4FBE016B517F4FC9016F
:101ED000A4914A2F50E0DA01AA0FBB1FA40FB51F2F
:101EE000A15FBC4FCD90DD90EC90D901CD92DD92F9
:101EF000ED929D0131966A177B0751F7209172018F
:101F000043E0249F800D911D1124539A2BB1277F0C
:101F10003BB138605FB7F894BC01549E600D711DF1
:101F200011248617970709F08BC05FBF8FE594E0F7
:101F30000197F1F700C00000CC51DF4F0FB6F894C5
:101F4000DEBF0FBECDBFDF91CF911F910F91FF90EC
:101F5000EF90DF90CF90BF90AF909F908F907F9049
:101F60006F905F904F90089580917401209175015A
:101F700033E0839FF0011124E15FFC4F821708F0EA
:101F800096CF1182108212828F5F3396F7CF90FF27
:101F900096CFD12CC12C66246394712C53E0452E2E
:101FA0008091060393010C2C01C0220F0A94EAF7DA
:101FB000822309F43CC0F601EE0FFF1FE80DF91D66
:101FC000E590F490E114F10409F479CF45E050E094
:101FD000B701CE0101960E940E3309810F3F39F1FE
:101FE0008A81800F9927991F8D34910514F08CE414
:101FF00090E05C01AA0CBB1C8A0D9B1DDC01A15F5B
:10200000BC4F5D01049D80011124015F1C4F0A1526
:102010001B0520F0B5E0EB0EF11CD8CF98014D81E7
:102020006C818B810E94A7090D5F1F4FF0CFEFEFEE
:10203000CE1ADE0AF4E0CF16D10409F0B1CF3FCFBB
:10204000FC014191CF01E8E03BB9000000C047FF2F
:102050002BB9440F000000C000C000C02BB900C065
:10206000EA9591F75ECF0F931F93CF93DF93EC0127
:1020700010E000E0909176019017110609F06CF4E1
:102080000E94380F8C8190E00196817099278C8393
:10209000DF91CF911F910F91089520917401A801B4
:1020A000420F511D9A01220F331F240F351F215F4C
:1020B0003C4F4C8160910C0380910B0396959017D7
:1020C000110651F04CF0442349F040910D030E9459
:1020D000A7090F5F1F4FCECF4423B9F340E0F7CFDE
:1020E0008F929F92AF92BF92CF92DF92EF92FF9228
:1020F0000F931F93CF93DF93EC014C81042F10E0DB
:102100009801D8010E94AE329B01AC010E94C432FA
:102110004B015C01E0E2F0E0E01BF10BA5E5B0E073
:10212000AC019B010E94C4326B017C019F01DF0165
:102130000E94A6329B01AC010E94CF329B01AC01F0
:10214000280D391D4A1D5B1DC701B6010E9477325B
:10215000F22E822F90E039E23F1560F143E0249F98
:102160009001112435952795122F109500E085E5F3
:10217000E82EEF1880917601081758F10E94380F69
:102180009C8181E0992319F0903219F48FEF8093AC
:10219000710180917101890F8C83DF91CF911F9123
:1021A0000F91FF90EF90DF90CF90BF90AF909F90F6
:1021B0008F90089525E530E0B901681B790B9B01EC
:1021C000220F331F260F371F37FFCCCF2F5F3F4F14
:1021D000C9CF8E2D01FD8F2D20917401622F600FCC
:1021E0007727771F9B01220F331F260F371F215F91
:1021F0003C4F412F60910C030E94A7090F5FBACF9B
:10220000EF92FF920F931F93CF93DF93EC018C819A
:10221000811109C081E08C831092080392E09093B1
:10222000700180936F01809174019091750123E09A
:10223000829FF0011124E15FFC4F891768F110E0E3
:1022400003E060917601161768F10E94380F8091C3
:102250006F0120910803280F2093080390917001CB
:10226000980F90937001191654F4022E000C330B42
:10227000409176014150550B2417350734F0819574
:1022800080936F01813009F41C82DF91CF911F91FF
:102290000F91FF90EF9008951182108212828F5F4C
:1022A0003396CBCFE12EF12C70E0C7010E94633250
:1022B00020917401820F482F50E020910803022ED4
:1022C000000C330BE216F306BCF020917001022ED5
:1022D000000C330B2E153F057CF0809F90011124DC
:1022E000215F3C4F40910D0360910C0380910B03E3
:1022F0000E94A7091F5FA5CFFA01EE0FFF1FE40F91
:10230000F51FE15FFC4F118210821282F3CF8F9292
:102310009F92AF92BF92CF92DF92EF92FF920F9374
:102320001F93CF93DF93EC018A81BB24BA9480FD85
:1023300002C0BB24B394A09076018C81811109C0A6
:1023400081E0B81228C08FEF8A0D8093070381E0E7
:102350008C83F12CE12C4CE4942EEA14F8F00E94CA
:10236000380F8091070391E0B9125FC0811158C006
:10237000809176018150809307031C82DF91CF9179
:102380001F910F91FF90EF90DF90CF90BF90AF9093
:102390009F908F90089510920703D9CF00917401F8
:1023A0000E0D1F2D111DC801880F991F080F191F31
:1023B000015F1C4FF80111821082128234E0C32E9B
:1023C000D12C812C80910703880D8D342CF1692D3F
:1023D0000E945532892F082E000C990B8E159F05EF
:1023E00091F480910D038C9DA0018D9D500D1124C1
:1023F0005595479555954795980160910C038091A7
:102400000B030E94A7098B0CF1E0CF1AD108D1F67B
:102410008FEFE81AF80AA1CF87FFDDCF8A0DDBCF57
:10242000815080930703BC82A9CF90E00196609110
:10243000760170E00E946332809307038C839ECF05
:10244000EF92FF921F93CF93DF93EC0110E0EE2405
:10245000EA94F12C60917601161770F00E94380F03
:102460009A818C8190FF27C08F5F8C83DF91CF9101
:102470001F91FF90EF90089520917401422F410F1A
:102480005527551FCA019A01220F331F280F391FE4
:10249000215F3C4F70E0C7010E946332962F8C8110
:1024A00040910D0360910C03199F800D11240E942F
:1024B000A7091F5FCFCF8150D8CF90910A0390FF1B
:1024C00014C0909174012091750133E0939FF00145
:1024D0001124E15FFC4F921710F00C94380F8183A8
:1024E000608342839F5F3396F6CF08950F931F93C7
:1024F000CF93DF9300D00F92CDB7DEB78C018091E0
:10250000090381110AC09E012F5F3F4F48E76FEF1B
:102510000E94A7098A8180930903F80164816130D0
:1025200069F08091090340E0662361F040E0623089
:1025300011F44091090380E060E004C06091090358
:1025400040E080E00E945D12F801848190E00196F5
:1025500063E070E00E94633284830F900F900F90CD
:10256000DF91CF911F910F910895CF93DF9300D00A
:102570000F92CDB7DEB790910A0390FF0AC09E017B
:102580002F5F3F4F0E94A7094B8169818A810E947A
:102590005D120F900F900F90DF91CF910895CF9320
:1025A000DF93EC01EAE0F3E0438162818C810E94D9
:1025B000B5128C818F5F8C83DF91CF910895CF937B
:1025C000DF93EC01EC81F0E0EA5AFA4F4491EAE043
:1025D000F3E0628181810E94B5128C818F5F8C83D0
:1025E000DF91CF910895EAE0F3E080818E7F8083D0
:1025F0000E948209E3E0F3E08281816082832FEF11
:1026000080E792E0215080409040E1F700C0000058
:102610000C94380F9F92AF92BF92CF92DF92EF92BD
:10262000FF920F931F93CF93DF937C015B016A01AD
:102630008091830201E010E08A3010F40AE010E09B
:10264000C1E0D0E0F894B501C701F6010995982ED4
:102650000E94570B911004C021960C171D076CF4B3
:10266000892DDF91CF911F910F91FF90EF90DF9017
:10267000CF90BF90AF909F900895CC9F9001CD9F39
:10268000300D300D112490E080E045E34A95F1F7DC
:102690000000019682179307C1F7D4CF80915802AA
:1026A000811110C08091D80080618093D8008AE1A8
:1026B0008A95F1F700C08091D90080FF0AC081E0BF
:1026C0008093580281E090915802913009F080E0A7
:1026D000089582E0809358020E94760710921804B1
:1026E000F1CF0F931F930E944E13882321F01F9167
:1026F0000F910C9414090E9414090091FF0310918A
:1027000000042091010430910204600F711F821FA8
:10271000931F1F910F9108950E944E13882351F02B
:10272000E091FB03F091FC03309721F00190F081E0
:10273000E02D099480E00895CF93DF93C7E5D2E0C0
:1027400060E0CE010E94ED352196C11584E0D807E6
:10275000B9F7DF91CF9108956F927F928F929F92F8
:10276000AF92BF92CF92DF92EF92FF920F931F939F
:10277000CF93DF9386E5C82E86E0D82E91ECE92E24
:10278000F12CE701CC58D10936011BC0F501859029
:102790009490692DC8010E94ED35682DC8010196FD
:1027A0000E94ED3582E0A80EB11C0E5F1F4FC017CE
:1027B000D10761F78EE0680E711C2E96CE15DF05ED
:1027C00029F08E010E5011095301E0CF7E018CE8F3
:1027D000E80EF11C8CE8C80ED11C81EFE81682E0EF
:1027E000F80679F6DF91CF911F910F91FF90EF904E
:1027F000DF90CF90BF90AF909F908F907F906F9021
:102800000895CF93C82F6FEF811161E283E290E0CA
:102810000E94ED356FEFC11161E184E290E00E940A
:10282000ED356FEFC11169E285E290E0CF910C9434
:10283000ED3580E00E94011460E086E290E00E94A5
:10284000ED350E94AC130E949C1381E00C9401149E
:102850000F931F93CF93DF93C42FD0E0CC0FDD1FD6
:102860002EE0629FC00DD11D11243CE8839FC00D56
:10287000D11D1124CE0187960E94D935082F10E072
:10288000102F0027CE0188960E94D9359801282B59
:10289000C901DF91CF911F910F910895462F843088
:1028A00038F47A3028F4673018F4672F0C94281421
:1028B00090E080E00895CF92DF92FF920F931F93F4
:1028C000CF93DF936C010091220480914E02082B7C
:1028D000C7E0D0E010E0FC2EC8010C2E02C0959598
:1028E00087950A94E2F780FD0CC02197A0F7F12CA0
:1028F0008F2DDF91CF911F910F91FF90DF90CF909F
:102900000895B6018C2F0E944E140E94700B0197FF
:1029100061F3EECF83E290E00E94D935813289F4F1
:1029200084E290E00E94D935813159F485E290E04B
:102930000E94D93591E0893209F090E0892F8170A9
:10294000089580E0FCCFCF9384E090E00E94D935D9
:10295000C82F82E290E00E94D935982F8C2FCF911A
:102960000895CF92DF92EF92FF926B017C010E945B
:102970009109B701A60188E090E0FF90EF90DF9009
:10298000CF900C94FF35AF92BF92CF92DF92EF922F
:10299000FF920F931F93CF93DF9300D00F92CDB789
:1029A000DEB7182FF62E042FE22E90910A0390FF27
:1029B0003AC0E92FE695AE2FB0E0A051BE4F8C9102
:1029C000809303039E7F9230E1F59E012F5F3F4F7E
:1029D000812F0E94A7094B8169818A810E945D1223
:1029E00080910B03811308C080910C038F1104C0E8
:1029F00080910D03801729F08091050382608093F8
:102A0000050310930B03F0920C0300930D03EE20CB
:102A100051F060910A0370910B0380910C03909127
:102A20000D030E94B1140F900F900F90DF91CF9182
:102A30001F910F91FF90EF90DF90CF90BF90AF90DC
:102A40000895823019F400910D03CACF863019F42D
:102A500010910B03C5CF8930D9F3893109F6E951BB
:102A60008E2F8170D82EE695F0E0EB5FFA4FA5909F
:102A7000B490C12CBB2460917601C61618F00E9458
:102A8000380FAECF2C2D30E0A29EC001A39E900D3A
:102A9000B29E900D112470E00E943532812FD1102A
:102AA00013C0860F40917401420F532F511D9A019C
:102AB000220F331F240F351F215F3C4F402F6F2DF6
:102AC0000E94A709C394D7CF861BECCFEAE0F3E0BE
:102AD000438128E0421B08F440E021E062818181CB
:102AE0000C94C314EAE0F3E0438128E0420F08F4B9
:102AF0004FEF21E0628181810C94C314EAE0F3E09E
:102B0000628128E0621B08F460E021E0438181815A
:102B10000C94C314EAE0F3E0628128E0620F08F449
:102B20006FEF21E0438181810C94C314EAE0F3E06C
:102B3000818121E04381628188500C94C314EAE0D2
:102B4000F3E0818121E043816281885F0C94C314AA
:102B500080910E03882319F0815080930E036091B9
:102B60000A0370910B0380910C0390910D030C9458
:102B7000B11480910E03833018F48F5F80930E039D
:102B800060910A0370910B0380910C0390910D03E7
:102B90000C94B114EAE0F3E083E0808311828FEFBC
:102BA000828388E783831482A3E0B3E012968C913A
:102BB0001297836012968C936081718182819381D8
:102BC0000C94B11469EE7EEF90E080E00E940B3629
:102BD00060E082E090E00E94ED3560E083E090E00C
:102BE0000E94ED3510924E0260E084E090E00E9479
:102BF000ED3560E082E290E00E94ED3560E085E036
:102C000090E00E94ED3560E086E090E00E94ED35B6
:102C10006FEF87E090E00E94ED3540E050E0BA01B0
:102C200088E090E00E94FF3560E08DE090E00E9437
:102C3000ED3540E050E0BA0188E190E00E94FF35B8
:102C400060E087E190E00E94ED3540E050E0BA019D
:102C50008CE190E00E94FF3570E060E080E290E05F
:102C60000E940B3640E050E0BA0188E190E00E94FB
:102C7000FF3580E00E9401140E94191440E050E0EA
:102C8000BA018FE090E00E94FF3540E050E0BA01C9
:102C900083E190E00C94FF35CF93DF93CDB7DEB79F
:102CA00029970FB6F894DEBF0FBECDBF85E0EAE0EE
:102CB000F3E0DE01119601900D928A95E1F7809183
:102CC000030390910403A0910503B09106038E8342
:102CD0009F83A887B987288540917F025091800201
:102CE00060918102709182023FB7F8948091040450
:102CF00090910504A0910604B09107043FBF841B86
:102D0000950BA60BB70B84369105A105B10510F400
:102D1000222319F18091490190914A0186599D4FD2
:102D20004091480150E04A30510510F049E050E030
:102D3000BE016F5F7F4F0E94313385E090E00E94BB
:102D40008131892BB1F40E94140960937F02709342
:102D5000800280938102909382021092050381E0A9
:102D600029960FB6F894DEBF0FBECDBFDF91CF918D
:102D7000089580E0F5CFCF93DF9300D000D0CDB79A
:102D8000DEB74091660250916702609168027091CF
:102D900069022FB7F8948091040490910504A091E2
:102DA0000604B09107042FBF841B950BA60BB70B2D
:102DB00084369105A105B10568F10E9471136E5F1B
:102DC0007F4F8F4F9F4F69837A838B839C83809142
:102DD0003F019091400186599D4F40913E0150E046
:102DE0004530510510F044E050E0BE016F5F7F4F69
:102DF0000E94313384E090E00E948131892B61F49C
:102E00000E941409609366027093670280936802BF
:102E10009093690281E001C080E00F900F900F90C5
:102E20000F90DF91CF9108956F927F928F929F9232
:102E3000AF92BF92CF92DF92EF92FF920F931F93C8
:102E4000CF93DF930F92CDB7DEB7862E5A0169017B
:102E5000682E880F7708C3010E948131892B09F001
:102E600088C08AE0869DF001879DF00D1124EC5EFC
:102E7000FE4F458150E04115510511F041E050E011
:102E80008AE0869DF001879DF00D1124EC5EFE4FD7
:102E90006681778166597D4FCE0101960E9431335C
:102EA000F50140815181628173812FB7F89480913F
:102EB000040490910504A0910604B09107042FBF6B
:102EC000841B950BA60BB70B84369105A105B105A4
:102ED00040F4B701C8010E9466099981891709F475
:102EE0004FC0082C000C9908C4010E948131892B25
:102EF00091F0B12C8B2D0F90DF91CF911F910F91FD
:102F0000FF90EF90DF90CF90BF90AF909F908F9009
:102F10007F906F9008958AE0889DF001899DF00D63
:102F20001124EC5EFE4F458150E0E416F50608F4EE
:102F3000A7018AE0889DF001899DF00D1124EC5EC7
:102F4000FE4F6681778166597D4FC6010E943133FD
:102F5000B701C8010E94660999818913CACF0E94EE
:102F60001409F5016083718382839383BB24B39436
:102F7000C1CFB12CA701B801C6010E943133BACF2D
:102F8000BB24B394F7CFCF92DF92EF92FF920F93CF
:102F90001F93CF93DF9300D000D00F92CDB7DEB751
:102FA0006B0185E0E82EF12C0BE612E09E012F5F0D
:102FB0003F4F4EE552E061E080E00E941417882305
:102FC00049F095E0FE013196A9E5B2E001900D923D
:102FD0009A95E1F795E0E9E5F2E0D60101900D92CE
:102FE0009A95E1F70F900F900F900F900F90DF914F
:102FF000CF911F910F91FF90EF90DF90CF900895A8
:1030000090E080E00E94E735893E9E4F11F40C94D9
:103010008A1480E008951F920F920FB60F92112428
:103020002F933F934F935F936F937F938F939F93D0
:10303000AF93BF93EF93FF938091E10082FF09C0AC
:103040008091E20082FF05C08091E1008B7F809338
:10305000E1008091DA0080FF24C08091D80080FFD9
:1030600020C08091DA008E7F8093DA008091D900B1
:1030700080FF9BC080E189BD82E189BD09B400FE6B
:10308000FDCF81E08093180480910B04811109C069
:103090000E9476070E9441088091E200846080933C
:1030A000E2008091E10080FF17C08091E20080FF84
:1030B00013C08091E2008E7F8093E2008091E20055
:1030C00080618093E2008091D80080628093D80074
:1030D00019BC85E0809318048091E10084FF29C029
:1030E0008091E20084FF25C080E189BD82E189BD35
:1030F00089B5982F917080FFFBCF8091D8008F7D8C
:103100008093D8008091E1008F7E8093E1008091D0
:10311000E2008F7E8093E2008091E20081608093E4
:10312000E20080911904882309F445C084E080936B
:1031300018048091E10083FF27C08091E20083FFA3
:1031400023C08091E100877F8093E10082E080933B
:103150001804109219048091E1008E7F8093E100A1
:103160008091E2008E7F8093E2008091E200806196
:103170008093E20042E060E080E00E940F088091CE
:10318000F00088608093F000FF91EF91BF91AF91C4
:103190009F918F917F916F915F914F913F912F916F
:1031A0000F900FBE0F901F90189519BC1092180425
:1031B00010920B0476CF8091E30087FD93E090930B
:1031C0001804B7CF78941F921FB61F9211248F93C3
:1031D0009F93AF93BF938091040490910504A091B5
:1031E0000604B09107040196A11DB11D809304044B
:1031F00090930504A0930604B0930704BF91AF9188
:103200009F918F911F901FBE1F9018959C014FB7E3
:10321000F8948091040490910504A0910604B09163
:1032200007044FBF821B930B08952FB7F89480912A
:10323000040490910504A0910604B09107042FBFE7
:1032400008950E944E1381110C9415190E94711358
:10325000CB01089560910A03669570E04BE050E061
:1032600084E691E00E941733892B19F481E0809362
:1032700004030E9421199093FE028093FD02809125
:103280000503846080930503089590910A0390FFDD
:103290003BC0917081112EC0926090930A0380917F
:1032A0000503816080930503662351F060910A0352
:1032B00070910B0380910C0390910D030E94B11447
:1032C00060910A03669570E04BE050E084E691E07F
:1032D0000E941733892BA9F00E94820981E0809314
:1032E000000320E040910D0360910C0380910B03DB
:1032F0000C94C314853210F09864CFCF880F982BAC
:10330000CCCF0E942A19EACF089580910A038695AE
:10331000815009F484E261E00C94451980910A031C
:1033200086958F5F853208F081E061E00C94451945
:10333000CF93DF93C82FD62F0E9489098C1730F0C6
:103340008D1720F4DF91CF910C948E1961E08C2FB2
:10335000DF91CF910C9445190E9415199C01909111
:10336000F7028091F802982B21F03093F402209319
:10337000F3029091F9028091FA02982B21F0309398
:10338000F2022093F102E091FB03F091FC033097ED
:1033900049F082E08093F5020480F581E02D85EF0D
:1033A00092E00994089590E080E00E94500990E036
:1033B00080E00E943A0910924C0210924B020E9447
:1033C000F10C86E0E5EFF2E0DF011D928A95E9F766
:1033D0001092EF021092EE021092F0020C94AC19CF
:1033E000809322040C94D31980912204982F967014
:1033F000963019F488600C94F019877FFCCF809385
:103400004E020C94D31910924D02E8E2F2E086E0ED
:10341000DF011D928A95E9F70C94D3191F93CF937E
:10342000DF93CDB7DEB7AA970FB6F894DEBF0FBE15
:10343000CDBF8AE194E02091F100DC012D93CD0114
:10344000B4E082329B07B9F780911B04833009F402
:1034500071C0B8F4813009F448C0823009F4B2C0B8
:103460008091E80083FF3AC180911A0490911B0477
:103470009A3008F033C1E92FF0E0ED5DF94C0C947F
:1034800099328A3009F48DC08B3009F470C08930CC
:1034900039F780911A04813219F780911E049091B6
:1034A0001F04009711F00297D9F68091E800877FFA
:1034B0008093E8008091E80082FF37C09091F3008C
:1034C0008091F200029729F48091F1008B7F813086
:1034D00021F48091F10080930D048091E8008B77B6
:1034E0008093E8000E94F007BBCF80911A04813AD4
:1034F00009F0B6CF8091E800877F8093E800809143
:103500001E0490911F04892B61F468E08EE094E022
:1035100070E00E94A2088091E8008B778093E80019
:103520009FCF60E090E080E0F3CF8091180481119C
:10353000C1CF96CF80911A04813A09F091CF809142
:103540001E0490911F04892B09F08ACF8091E80016
:10355000877F8093E8008091E80080FFFCCF809116
:1035600077018093F1008091E8008E77B9CF809148
:103570001A04813209F074CF80911E0490911F04C7
:10358000892B09F06DCF8091E800877F8093E80058
:103590000E94F00780911C04809377010E94031A17
:1035A0005FCF80911A04813209F05ACF8091E800F0
:1035B000877F8093E8000E94F00780911D0480932C
:1035C0000C044ECF80911A04813A09F049CF8091C2
:1035D000E800877F8093E8008091E80080FFFCCFBF
:1035E00080910C04BECF803899F0823809F076C003
:1035F00080911E048F70873008F070C08093E900BE
:103600008091EB0085FB882780F91092E90006C0C5
:103610008091160490911704911182609091E800B6
:10362000977F9093E8008093F1001092F1008091D1
:10363000E8008E77B5C1882309F4A2C1823009F071
:103640004DC080911C048111A6C180911E048F7011
:103650002FEF280F263008F041C08093E900209119
:10366000EB0020FF98C1933031F48091EB00806231
:103670008093EB0090C19091EB0090619093EB00F0
:1036800021E030E001C0220F8A95EAF72093EA009A
:103690001092EA008091EB008860EACF81111EC091
:1036A00010911C041F778091E3008078812B809318
:1036B000E3008091E800877F8093E8000E94F00794
:1036C0008091E80080FFFCCF8091E30080688093C8
:1036D000E30082E0111183E0809318048091E800F8
:1036E00083FF0AC08091E800877F8093E800809183
:1036F000EB0080628093EB00AA960FB6F894DEBFD1
:103700000FBECDBFDF91CF911F91089580588230B9
:1037100028F720911C0430911D042C3DE3E03E0766
:10372000A1F583E08A838AE289834FB7F894DE01AA
:10373000139620E03EE051E2E32FF0E05093570073
:10374000E49120FF03C0E295EF703F5FEF708E2F92
:1037500090E0EA30C0F0C7968D939D932F5F24319F
:1037600059F74FBF8091E800877F8093E8006AE2B5
:1037700070E0CE0101960E94A2088091E8008B774C
:103780008093E800ABCFC096E7CF80911E04909164
:103790001F04432F55274330510509F44AC078F5DB
:1037A0004130510509F47AC08BE590E0E8E8F8E093
:1037B0004230510509F092CF2091E800277F2093F5
:1037C000E80020912004309121048217930708F427
:1037D0009C0140E02115310509F065C0411163C02D
:1037E0008091E80082FDC9CF80911804882329F2D6
:1037F000853019F28091E80083FFF2CFBECF4132CD
:10380000510509F43CC04232510509F067CF8330BD
:10381000910508F063CFFC01EE0FFF1FE85EFD4F3E
:103820000190F081E02D8B5E9D4FDC018C9190E04A
:103830001AC0332721303105D1F02115310561F04F
:103840002230310509F04ACFE5EFF8E0E4918E2F00
:1038500090E0E5EFF8E007C0E5E1F9E0E4918E2FB4
:1038600090E0E5E1F9E0009709F438CFA5CFE1E079
:10387000F9E0E4918E2F90E0E1E0F9E0F4CF8330BD
:10388000910508F02BCF880F991FFC01E25EFD4FD8
:103890000190F081E02D89E090E08ECF82E190E010
:1038A000E3EEF8E089CF80911804882309F465CF0E
:1038B000853009F462CF8091E80083FD5ECF80916E
:1038C000E80082FD8DCF8091E80080FF83CF90914A
:1038D000F3008091F2002115310519F0883091052F
:1038E00050F041E0089709F040E08091E8008E77C1
:1038F0008093E8006FCF44914093F10031962150BE
:1039000031090196E8CF803809F0E8CE8091E800CF
:10391000877F8093E800809119048093F10087CE1F
:103920008111DCCE10911C04123008F0D7CE8091AA
:10393000E800877F8093E800109319040E94F00745
:10394000112311F084E005C08091E30087FDFACFD8
:1039500081E08093180442E061EC81E00E940F084E
:1039600042E261EC84E00E940F0842E261EC82E0F6
:103970000E940F0842E260EC83E00E940F08AECE86
:1039800080911C04813009F0A9CE81E0933009F0C8
:1039900080E0809317041092E9008091E800877F0F
:1039A0008093E8000E94F00799CE1F920F920FB605
:1039B0000F9211242F933F934F935F936F937F93B5
:1039C0008F939F93AF93BF93CF93DF93EF93FF9327
:1039D000D091E900DF708091EC00C82FC17080FDAC
:1039E000C0E81092E9008091F000877F8093F0009A
:1039F00078940E940E1A1092E9008091F00088607D
:103A00008093F000CD2BCF70C093E900FF91EF9130
:103A1000DF91CF91BF91AF919F918F917F916F91E6
:103A20005F914F913F912F910F900FBE0F901F907C
:103A300018958823F1F19CEF980F913A78F4E8E219
:103A4000F2E02EE232E09191891303C0DF01119779
:103A50001C922E173F07B9F70C94F10C90E2980FC7
:103A6000983088F4877021E030E0A90102C0440F4B
:103A7000551F8A95E2F7CA01809590914D028923DE
:103A800080934D02E9CF9BE5980F933020F490E0AE
:103A900080E00C94500998E5980F973120F490E05D
:103AA00080E00C943A09803F20F00E94400A0C9478
:103AB000AC190895CF93C82F882309F456C08CEF12
:103AC0008C0F813AF8F4E8E2F2E08EE292E0DF0156
:103AD0002D91C21759F08A179B07D1F76C2F86E2F8
:103AE00092E00E942009CF910C94F10C2191C21315
:103AF00003C0DF0111971C928E179F07B9F70E9430
:103B0000F10CECCF80E28C0F883068F4C77021E0B4
:103B100030E001C0220FCA95EAF780914D02822B56
:103B200080934D02E0CFEBE5EC0FE33040F4F0E0A2
:103B3000EC56FE4F808190E0CF910C945009E8E55F
:103B4000EC0FE73150F4F0E0EE0FFF1FE956FE4FA7
:103B500080819181CF910C943A09C03F30F08C2F35
:103B60000E94FB0ACF910C94AC19CF9108951F933A
:103B7000CF93DF93182FD0E0C0E0893311F4C0E574
:103B8000D0E0812F0E945A1D209731F4812FDF91C0
:103B9000CF911F910C94191D8FE99FE00197F1F7C8
:103BA00000C000002197F0CF0F931F93CF93DF93B6
:103BB000C62FD42F022FFC0182818823A1F06093AD
:103BC00025040E9415199093240480932304C77040
:103BD00081E001C0880FCA95EAF7DF91CF911F916C
:103BE0000F910C94670D80912504681335C0809166
:103BF0002304909124040E940619883C910560F5E5
:103C000010E21D0FCD17B9F080E28C0F883040F420
:103C1000C77081E001C0880FCA95EAF70E945C0D69
:103C2000183048F481E09D2F977001C0880F9A9555
:103C3000EAF70E94670D802F0E94B71D183098F494
:103C4000D77081E001C0880FDA95EAF7DF91CF9154
:103C50001F910F910C945C0DC77081E001C0880F1B
:103C6000CA95EAF7F3CFDF91CF911F910F91089595
:103C70005F926F927F928F929F92AF92BF92CF92FC
:103C8000DF92EF92FF920F931F93CF93DF93CDB705
:103C9000DEB72F970FB6F894DEBF0FBECDBF4B87B0
:103CA0005C876D877E878F87611110924C0285E05B
:103CB000FE013B96DE01169601900D928A95E1F782
:103CC00089859A85892B31F08E819F8189238F3F49
:103CD00009F00DC42F960FB6F894DEBF0FBECDBF0E
:103CE000DF91CF911F910F91FF90EF90DF90CF90D8
:103CF000BF90AF909F908F907F906F905F9008954E
:103D00000E945B14182F682F89819A810E94300DC0
:103D100069817A81812F0E944E148C0198859923A4
:103D200009F4D5C3980122513F452031310508F0EF
:103D3000A7C38FEF93E00E94D935025127E5C22E29
:103D400022E0D22E8111C6CF011134C01C821B8209
:103D5000662463949AE0592E86010F5F1F4FC601B7
:103D60000E94D93589831A82882309F4B3CF9FEF43
:103D7000980F933070F58A83698282E0C80ED11C57
:103D8000C8010E94D9358B83882309F4A3CF8E0103
:103D90000F5F1F4FF80120812223F1F2213009F03B
:103DA00052C0918182819130B1F40E5F1F4F0E9409
:103DB000B71D17C0C11424E0D20609F48BCFC60189
:103DC0000E94D935811101C001503FEFC31AD30AB7
:103DD000BBCF6801DCCF923039F40E5F1F4F0E94D9
:103DE0005A1D0F5F1F4FD6CF933029F40E5F1F4F20
:103DF0000E94191DF6CF943019F00F5F1F4FF1CFBD
:103E00000E5F1F4F30E020E0B8016F5F7F4FF80179
:103E100041818053990B8A30910550F0215031092E
:103E200000F38FE99FE00197F1F700C00000F6CFA3
:103E3000529EF001539EF00D11249C012E0F3F1F46
:103E4000842F8B01E1CFE22FF0E0EA5DFC4F74900C
:103E5000822F86958695869590E0FC01EA5EFC4F60
:103E6000E4902770F12C022E02C0F594E7940A9496
:103E7000E2F7E1E0EE22FF24FC01EA5FFC4FA490B0
:103E8000B12C022E02C0B594A7940A94E2F7F1E097
:103E9000AF22BB24FC01EA50FD4F8490912C02C05C
:103EA000959487942A95E2F721E082229924E114DF
:103EB000F10419F081EE0E945A1DA114B10419F009
:103EC00086EE0E945A1D872D0E94B71DAB2819F05F
:103ED00086EE0E94191DEF2819F081EE0E94191D2F
:103EE000892809F47ECF8CE262CF8091220482601F
:103EF0000E94F0190E94F419EDCE809122048D7F6A
:103F0000F7CF8B7FF5CF053F3CE5130709F462C07F
:103F100008F45CC027E245EE66EE063FECE51E07BE
:103F200009F4D0C2992309F4F3C210922504033096
:103F3000FDE51F0708F055C00A3F2CE5120738F4CD
:103F4000980122503C452431310508F04FC00E94B1
:103F5000A314909385028093840200318CE51807A6
:103F600009F417C108F093C00830ECE51E0709F406
:103F7000FEC008F065C004302CE5120709F4E9C062
:103F800008F04BC002308CE5180709F4DCC08091C2
:103F90008402826003301C4509F4D8C06091840219
:103FA0001091850284E090E00E94ED35612F82E25D
:103FB00090E00E94ED350E94031A8CCE27E245EE78
:103FC00065EE80C226E241EE60EE7CC227E245EE5D
:103FD00064EE78C226E241EE62EE74C228E241E06D
:103FE000EFCF01363DE5130709F4B1CF0631ECE51B
:103FF0001E0709F0A5C280914D028A7A91E009F46A
:1040000090E090932F0269E2811165E386E292E0ED
:104010000E9420090E94F10C5DCE80918402806193
:104020000630ECE51E0709F491C080918402886097
:1040300007301C4508F48AC080918402806286C0E3
:10404000809184028D7F0C302CE5120709F47EC02C
:1040500058F40A308CE5180709F493C008F48BC0B3
:10406000809184028E7F72C080918402877F0E309F
:10407000ECE51E0709F46AC0809184028B7F0F3043
:104080001C4508F463C0809184028F7E5FC00C3FA2
:104090002CE5120709F479C068F504318CE518079E
:1040A00009F48BC080F40231ECE51E0709F475C0F9
:1040B000809184028F7B03311C4508F447C08091B6
:1040C0008402837F43C00A3F2CE5120709F445C0F0
:1040D00008F049C005311C4509F060CF8091840289
:1040E00082FB992790F921E0922790FB82F990FBBF
:1040F00083F92CC001159DE5190709F454C088F413
:104100008091850283600E3FFCE51F0749F1809195
:1041100085028D7F0F3F1C4518F1809185028C7FB1
:104120001FC002303DE5130709F456C008F44EC025
:1041300001361D4509F032CF90918402892F8F7E80
:1041400094FF806103C08091840281608093840227
:1041500025CF809184028460F9CF809185028160AF
:10416000809385021BCF809185028260F9CF809178
:1041700084028064EBCF0E94031A809184028068DD
:10418000E5CF809184028C60E1CF809185028E7FA3
:10419000E7CF809184028F7DD9CF0E94031A80914E
:1041A00084028F77D3CF80918502982F909591705C
:1041B0008E7F892B90FB81F9D3CF0E94031A9091B7
:1041C0008402892F97FB87F98058C0CF61E08EE089
:1041D00090E00E94ED35E2CE60E0F9CF85E3A2C128
:1041E000816080930A0361E086950E94451972CD33
:1041F00045E859E16EE879E10E947C096BCD4EE813
:1042000059E165E879E1F8CF4FE955E166E975E1F3
:10421000F3CF4EE755E16AE875E1EECF46E655E1AA
:1042200062E775E1E9CF42E755E166E675E1E4CF83
:1042300049EB55E168EA75E1DFCF61E081E0D5CF78
:1042400065E082E00E94981945CD68E086E0FACFEB
:1042500064E18FE0F7CF67E185E1F4CF62E289E1C5
:10426000F1CF61E083E2C1CF0E94031A8FEF94E3A4
:10427000ECE081509040E040E1F700C000000E9477
:1042800003090E94E21526CDC8010E94080DF82EF0
:104290006DC1083009F468C0093009F4D6C0053092
:1042A00009F078C1222309F45CC00E94FB0A0E9435
:1042B000AC1970C1F92FFF70FF2E907F19F0F294A6
:1042C00080EFF822812F2223C9F0FF2069F090E2CD
:1042D000910F983010F011110BC080914D02F82A07
:1042E000F0924D020E94F10C812F0E945A1D52C182
:1042F00080914C02F82AF0924C02F4CF0E94191DD2
:10430000FF2009F447C1F094105E183010F0E1105E
:1043100008C080914D02F822F0924D020E94F10CEB
:1043200039C180914C02F822F0924C02F7CF892FCC
:1043300086958695837061F0813009F02BC1812FBD
:104340009370211102C090E080E00E943A0922C1DE
:10435000812F9370211102C090E080E00E945009EB
:1043600019C10E94400AA3CF892F8370A1F52111A2
:1043700011C1812F829586958770880F880F412FF4
:104380004F70082E01C0440F0A94EAF7212F2071C4
:1043900014FF07C02FE030E001C0220F8A95EAF732
:1043A0002095969596959370923081F0822F842B6C
:1043B000933030F480914E02913029F0242B8223E7
:1043C0000E94FF19E7C0842B822BFACF242B809107
:1043D0004E028227F5CF8695222311F0892F817016
:1043E000882309F4D7C0812F829586958770880F1E
:1043F000880F412F4F70082E01C0440F0A94EAF72E
:10440000212F207114FF07C02FE030E001C0220FE0
:104410008A95EAF72095969596959370923081F05B
:10442000822F842B933030F480912204913029F034
:10443000242B82230E94F019ADC0842B822BFACF4B
:10444000242B809122048227F5CF9F7041E050E019
:104450007A0101C0EE0C9A95EAF7222349F0809187
:1044600022048E290E94F019812F0E94670D92C0AC
:10447000812F0E945C0DE094809122048E21DACF7E
:1044800000312FE5120709F430CD01313FE5130764
:1044900039F1033F3CE5130709F494CD08F033CD1F
:1044A000083DECE51E0709F489CD093DFCE51F0731
:1044B00009F494CD073D2CE5120709F033CD26E22F
:1044C00041EE61EECE0106960E94D41D03CC003170
:1044D0008FE5180709F411CD0131EFE51E07C9F684
:1044E00080912204992309F40CCD846001CD85E0EC
:1044F000FE013696DE01119601900D928A95E1F744
:1045000089819A816111FCCB0E94080D182F00CC83
:104510000631FCE51F0709F046C080912F0281118A
:104520005DCE89E2E8E2F2E02EE232E09191891379
:1045300003C0DF0111971C922E173F07B9F76ACD10
:1045400001152CE5120709F48FCE0E3D1C4509F428
:1045500098CE0E811F81992309F496CEC8010E943E
:104560005B14F82E682FC8010E94300DB8018F2D02
:104570000E944E140E94700B182FE82E2885092FD8
:1045800002950F70043009F4D2CE08F082CE0230CA
:1045900008F490CE0850110B0230110508F09ACBA8
:1045A0000E948C1397CB80914D0282720C3CECE5FB
:1045B0001E0709F43DCE08F064C0063C2CE5120746
:1045C00009F422CEE0F5033CECE51E0709F410CE19
:1045D00040F5023C1C4509F0BCCF80910A0380FFE6
:1045E000FFCD8E7F80930A0360910A0370910B03C5
:1045F00080910C0390910D030E94B1140E948209D6
:1046000080910503816080930503FFEF20E732E08E
:10461000F15020403040E1F700C000000E94380F08
:1046200059CB043C3CE5130709F4E9CD46E955E1D3
:104630006FE975E1053C1C4509F4DECD8ACF093CE4
:10464000FCE51F0709F4EACD70F4073C3CE51307CD
:1046500009F4DFCD4AE855E16EE775E1083C1C45F9
:1046600009F4CACD76CF0A3CFCE51F0709F4DBCD7F
:1046700048EA55E169EB75E10B3C1C4509F4BCCDFA
:1046800068CF013D3CE5130709F4E2CD98F40E3CF8
:10469000ECE51E0709F4D4CD08F4CFCD0F3C2CE592
:1046A000120709F4D2CD6EE089E0003D1C4509F403
:1046B000C9CD4FCF043D8CE5180709F4CFCD60F488
:1046C000023DFCE51F0709F4C6CD61E088E1033D2A
:1046D0001C4509F48ACD3DCF053D3CE5130709F49F
:1046E000C0CD0D351D4509F4F5CA33CF9F92AF9269
:1046F000BF92CF92DF92EF92FF920F931F93CF93CF
:10470000DF93CDB7DEB72F970FB6F894DEBF0FBE9D
:10471000CDBF8E010F5F1F4F8AE0D8011D928A9591
:10472000E9F787ECC82E81E0D82EF12CE12CAA24E1
:10473000A394B12CF60181916F018F3F09F44AC017
:10474000F894E82FE295EF70F0E021A18F70A501B9
:1047500002C0440F551F8A95E2F7CA01922F982B89
:1047600091A392A18095892382A30E94570B00C038
:10477000E1EDF1E030E020E0912C41914F3F09F470
:104780007DC0A42FA295AF70B0E090968C9190E080
:104790004F7002C0959587954A95E2F780FD6EC0EF
:1047A0008A2D022E01C0880F0A94EAF7982A2F5FFB
:1047B0003F4F2730310509F7F601319780818F3F50
:1047C00011F00E94590B50EA5A95F1F7F801EE0DDD
:1047D000FF1D90828FEFE81AF80A95E0E916F104C0
:1047E00009F0A8CF4AE050E0B80186E892E00E94C4
:1047F00024337C01892B41F08AE0F801A6E8B2E07D
:1048000001900D928A95E1F710919102E114F10463
:10481000B9F181E0809351020E94151990935002E2
:1048200080934F0280914F02909150020E9406198E
:10483000059770F0A6E8B2E0E12FF0E0EC51FD4FF3
:104840008D91819322E0AB38B207D1F710925102DB
:1048500081E090E0EF28C1F02F960FB6F894DEBF0C
:104860000FBECDBFDF91CF911F910F91FF90EF90C1
:10487000DF90CF90BF90AF909F90089580E096CF4B
:10488000809151028111CECF0E944E13B82EE0913B
:1048900091028E01055F1F4F882309F4B2C085E0A5
:1048A000D8011D928A95E9F7F0E09F012C513D4F08
:1048B000790180918302AE01405F5F4F6A018A30C7
:1048C00008F077C043EC57E1B801C7010E940A1312
:1048D000882309F485C04FE556E2B801C7010E945C
:1048E0000A13882309F47CC04BEB56E1B801C701D9
:1048F0000E940A13882309F473C04CE456E1B801FE
:10490000C7010E940A13882309F46AC01092830227
:10491000E0919002F0E0AF014C515D4FD80110E002
:10492000FA019191AF018D91981731F09F012150BB
:104930003109F90180831B2DAC15BD0589F78091E4
:10494000120190911301892B41F080910F019091F8
:10495000100189238F3F09F040C180910D01909192
:104960000E01892B41F080910B0190910A0189235E
:104970008F3F09F018C18091080190910901892B9E
:1049800041F0809105019091060189238F3F09F044
:10499000F0C08091030190910401892B41F0809136
:1049A00000019091010189238F3F09F0C8C0812F38
:1049B00053CF80915202909153020E940619843F76
:1049C000914008F07FCFE0919002F0E0EC51FD4F74
:1049D000D80111921D92CA16DB06D9F71B2DAFCF55
:1049E000809183028F3F31F08F5F809383028A3002
:1049F00008F48ECF0E9415199093530280935202AF
:104A0000E2CFF0E0EC51FD4FF89485E0ABE6B2E088
:104A100001900D928A95E1F765E070E08BE692E0F7
:104A20000E94660980936A020E94570BF894E091F5
:104A30009A02F0E0E956FD4F80818B8780937102E6
:104A400061E070E0C8010E946609809370020E94D4
:104A5000570BF894C0907202D0907302E0907402E9
:104A6000F09075028091540290915502A0915602E7
:104A7000B0915702C816D906EA06FB06D1F0C092DB
:104A80005402D0925502E0925602F09257020E94D0
:104A90004E1381110EC00E941409C61AD70AE80AE3
:104AA000F90AC092FF03D0920004E0920104F09250
:104AB00002040E94570BF89480917D028823A9F18B
:104AC00084FF04C090917E029093060380FF0DC086
:104AD0008091760280FF2DC090910A03916090939F
:104AE0000A0360E086950E94451980917D0281FF4E
:104AF00009C020E0409179026091780280917702AC
:104B00000E94C31480917D0282FF06C080917C02C6
:104B1000882391F00E942A1980917D0283FF03C0AF
:104B200081E08093000310927D020E94570B80E089
:104B300093CE0E94F312D9CF0E948209EDCF8091CB
:104B40000201882309F433CF109202010E94151943
:104B50008160782F909304018093030140910001BC
:104B60005091010160910201809104010E94381E60
:104B70001ECF80910701882309F40BCF1092070103
:104B80000E9415198160782F909309018093080184
:104B90004091050150910601609107018091090142
:104BA0000E94381EF6CE80910C01882309F4E3CED2
:104BB00010920C010E9415198160782F90930E01BC
:104BC00080930D0140910A0150910B0160910C01FD
:104BD00080910E010E94381ECECE80911101882353
:104BE00009F4BBCE109211010E9415198160782F33
:104BF000909313018093120140910F015091100185
:104C000060911101809113010E94381EA6CE81117E
:104C10002CC081E0611116C080930C010E9415190F
:104C20008160782F90930E0180930D0140910A01CD
:104C300050910B0160910C0180910E010E94381E71
:104C400081E00895809311010E9415198160782FE9
:104C5000909313018093120140910F015091100124
:104C60006091110180911301E9CF813049F7611101
:104C700013C0809302010E9415198160782F9093D0
:104C80000401809303014091000150910101609162
:104C9000020180910401D2CF809307010E9415196F
:104CA0008160782F9093090180930801409105015C
:104CB000509106016091070180910901BFCFCF9209
:104CC000DF92EF92FF920F931F93CF93DF930F9298
:104CD000CDB7DEB7EE24E394F12C01E712E09E019C
:104CE0002F5F3F4F42E652E063E082E00E941417DC
:104CF000082F882321F1C09093028C2D90E09C0115
:104D000029563D4F79011981F9018081181BD12E57
:104D100080E00AC0DA94F70180818F5F808360E0D1
:104D20008C2D0E940726802F1D14A4F3912F17FDB0
:104D300090E0191B11110EC081110E94EF0C802F01
:104D40000F90DF91CF911F910F91FF90EF90DF9027
:104D5000CF9008951F5FF70180818150808361E0CB
:104D60008C2D0E940726802FE5CF1F921FB61F9221
:104D700011248F939F93AF93BF938091030481116C
:104D800013C08091040490910504A0910604B09191
:104D900007044196A11DB11D80930404909305045E
:104DA000A0930604B0930704BF91AF919F918F9198
:104DB0001F901FBE1F901895CDB7DEB7AC970FB6EA
:104DC000F894DEBF0FBECDBF84B7877F84BF0FB618
:104DD000F894A8958091600088618093600010929B
:104DE00060000FBE80E890E00FB6F89480936100F9
:104DF000909361000FBE85B7806885BF85B78068D6
:104E000085BF85E59BE090932502809324020E9454
:104E100076070E9441088091E20084608093E2005E
:104E20007894809118048823A1F01091E9001F70F4
:104E30009091EC00892F817090FD80E8182B1092E2
:104E4000E9008091E80083FD0E940E1A1F70109304
:104E5000E90082E084BD93E095BD9AEF97BD809311
:104E60006E001092FF031092000410920104109241
:104E700002040E948A14811102C00E9419140E9427
:104E80004E138093500180915001882309F46AC029
:104E90001092720184E2809373010E944E1381117B
:104EA0000E947430809150018091500195E08111F1
:104EB00090E09093910285E0891B8093900207EC2B
:104EC00011E07CECE72E71E0F72ED8018D918D0179
:104ED0008F3F11F00E94590BE016F106B1F701ED7A
:104EE00011E068EDE62E61E0F62EF80181918F0168
:104EF0008F3F11F00E94590BE016F106B1F7E6E87A
:104F0000F2E080E992E0A4EEB2E011921D928E17D9
:104F10009F07D9F70E940018811102C00E94E21574
:104F200082E090E00E94D9358093D9020E94A314B8
:104F300090938502809384020E9476238FE39CE9FC
:104F40000197F1F700C000000E9476238091E402EF
:104F500080FF0DC06FEF7FEF90E080E00E940B3686
:104F60000E94030984E28093720188E294CF83E077
:104F700090E00E94D9350E94FF190E944E138111C2
:104F800002C00E9477300E944E13882309F442C366
:104F900083E08093D40280FD3FC380E880932604A1
:104FA0000E940C2F6DE070E089EB93E00E94600E90
:104FB000892BE9F58091D40263E070E081FD2EC376
:104FC00086EB93E00E94600E892B89F56DE070E01E
:104FD00086EA93E00E94600E892B49F50E9414092D
:104FE000605A75418F4F9F4F6093F3037093F403A2
:104FF0008093F5039093F603E9E2F4E080E092E019
:10500000DF019C011D9221503040E1F7F093300602
:10501000E0932F068FEF9FEF90932804809327044F
:1050200081E08093F8038093F7031092D50280917A
:105030009202811138C00E940018811104C00E94A0
:10504000E2150E94CA1588E090E00E94E135609365
:105050000A0370930B0380930C0390930D038091CC
:1050600005038360809305036E7F71F40E94CA1567
:1050700088E090E00E94E13560930A0370930B038F
:1050800080930C0390930D030E9491090E94820962
:1050900080910A0380FF04C060E086950E94451954
:1050A00081E08093920280915001811106C086E3D5
:1050B00080935C0186E680935B0120915C01A22FC6
:1050C000A295AF70B0E091963C9191972F7081E0DE
:1050D00090E0BC01022E01C0660F0A94EAF7462F49
:1050E0004095432391964C93919792963C91929739
:1050F000362B92963C93929740915B01E42FE29578
:10510000EF70F0E031A14F70042E01C0880F0A94B7
:10511000EAF7982F9095932391A392A1892B82A3CC
:1051200090968C9190E002C0959587952A95E2F72C
:10513000817020A130E002C0359527954A95E2F7AD
:1051400092E020FF90E0892B80939B029091500188
:1051500081E0982790939A02891B8093930286ECB2
:1051600093E09093FC028093FB0281E591E09093A1
:10517000FC038093FB0350E4652E8091180400E14A
:1051800012E1853009F484C20E947623E82E811151
:105190000E941409EAEDF2E0A4EEB2E010E000E0B3
:1051A000B02EDD9081918D1509F481C28D25C12C21
:1051B000FF24F394982F9F2109F474C20E944E1388
:1051C000882399F0C9A2BAA2DF2081E009F480E027
:1051D0008BA30E9415198160782F9DA38CA349A1F0
:1051E0005AA16BA18DA10E94381EF801E652FD4F15
:1051F0008081F826F08280910403882309F464C03A
:1052000080910303E0910A03E695E81BE093FF0217
:10521000823009F063C2F0E0E252FC4FE4910E2FBD
:1052200010E04FEDC42E42E1D42E8091000388237C
:1052300061F0109200030E9421199093FE02809366
:10524000FD0210920203109201030E942119E091C5
:10525000FD02F091FE029C012E1B3F0B2F3F3F47AA
:1052600098F5209196022223B1F010929602209197
:10527000940230919502821B930B8F3F9F4758F405
:10528000205D3A4830939502209394028091050363
:10529000886080930503A0900103B0900203E00FA3
:1052A000F11FF093FE02E093FD028DEF92E0F60114
:1052B00009958091010390910203892B29F4AB2871
:1052C00019F081E08093960280919B02E82FEE0F07
:1052D000EE0F90915C01A92FA295AF70B0E090966F
:1052E0002C9130E09F7002C0359527959A95E2F792
:1052F0002170332790915B01A92FA295AF70B0E088
:1053000090964C9150E09F7002C0559547959A95A4
:10531000E2F7CA018170992740FF02C082E090E065
:10532000822B8E2B80939B0210919A028F70E82F14
:10533000F0E0E852FE4F808190919902890F8093AE
:105340009902F12C82306CF0E12FF0E0E956FD4F2C
:1053500080818F5F808360E0812F0E940726FF2479
:10536000F394809199028F3F6CF4E12FF0E0E956BD
:10537000FD4F80818150808361E0812F0E9407264C
:10538000FF24F39480919902082E000C990B62E09F
:1053900070E00E94633280939902F1100E94EF0C3A
:1053A0008091F8038823B1F18091D6029091D702C1
:1053B0000E940619C29708F0EBC120912704309192
:1053C00028042115310509F085C28091F70388234F
:1053D00009F10E9414090091F3031091F403209144
:1053E000F5033091F603601B710B820B930B6F3F3B
:1053F0007F4F8F4F9F4770F48091F803882351F0BF
:1054000062E070E083E094E00E94600E892B11F46A
:105410001092F703E11001C0F1100E94900E86E097
:10542000E5EFF2E0DE01119601900D928A95E1F729
:10543000F090F702E090F8021091F9020091FA0260
:105440001092F7021092F8021092F9021092FA02EA
:105450008F2D8E2909F448C08091F3029091F402B7
:105460000E9406199C019091EF02992309F4CFC480
:1054700023333105C8F19F3F19F09F5F9093EF02EE
:10548000FF2059F00E94DB0A9FEF1F140CF491E0FB
:10549000899F802D11248093F702EE2059F00E94FD
:1054A000DB0A9FEF1E140CF491E0899F802D1124DC
:1054B0008093F8023091F7023323B1F02091F80283
:1054C000222391F045EB3403C0011124992309F400
:1054D000D4C29093F70245EB2403900111243323A7
:1054E00009F4CFC23093F802812F802B09F448C011
:1054F0008091F1029091F2020E9406199C01909114
:10550000EE02992309F47EC425363105C8F19F3F88
:1055100019F09F5F9093EE02112359F00E94B90A8F
:105520009FEF11160CF491E0899F802D1124809338
:10553000F902002359F00E94B90A9FEF10160CF4EB
:1055400091E0899F802D11248093FA023091F90215
:105550003323B1F02091FA02222391F045EB34037A
:10556000C0011124992309F490C29093F90245EBEC
:10557000240390011124332309F48BC23093FA02DF
:105580008091F7029091F802892B9091F902892B72
:105590009091FA02892B11F00E94AC1986E0FE016D
:1055A0003196A5EFB2E001900D928A95E1F70E9445
:1055B0008C139091D802891721F00E948C1380934C
:1055C000D80280911804843009F0D7CD83E080930D
:1055D000E9008091E80082FFD0CD8091E80090E062
:1055E00085FF06C00E949507882309F456C291E002
:1055F0008091E8008B778093E800992309F4BDCD72
:10560000E981E150E33108F0B9C2F0E0E35DF94C23
:105610000C94993280E0BDCC80E2C0CC83EB93E067
:10562000D1CC80911804843019F11092030488E1E0
:1056300090E00FB6F894A895809360000FBE60923A
:10564000600083B7817F846083BF83B7816083BF3D
:105650007894889583B78E7F83BF0FB6F894A8950A
:1056600080916000886180936000109260000FBE9E
:1056700080911704882361F00E947623E4EEF2E023
:1056800081918111A0C3AEEEB2E0AE17BF07C1F7A2
:1056900080911804853009F4C4CF0E94031A0E9437
:1056A0008C1372CDC394FF0C27E0C21283CD0F5F21
:1056B0001F4F0A30110509F073CD8FEF8EA38FA312
:1056C00018A60E9415198160782F9AA789A74EA164
:1056D0005FA168A58AA50E94381E8DCD863059F439
:1056E000F0E0E552FC4FE4910E2F10E03FECC32EAA
:1056F00032E1D32E9ACD893061F4E695F0E0E8529C
:10570000FC4FE4910E2F10E020E2C22E22E1D22EB7
:105710008CCD8F3061F4E695F0E0EB52FC4FE491D4
:105720000E2F10E097E8C92E91E1D92E7ECD85315C
:1057300059F4F0E0EE52FC4FE4910E2F10E080E0BF
:10574000C82E81E1D82E71CD08E210E0F0E7CF2E0F
:10575000F0E1DF2E883109F468CD833249F4E0EDC1
:10576000F3E005911491B6E7CB2EB2E1DB2E5DCDCF
:1057700004EF11E0A3E3CA2EA0E1DA2E843209F48B
:1057800054CD00ED17E0E1E8CE2EE9E0DE2E4DCD60
:105790000E9415199093D7028093D60289E294E073
:1057A0009093300680932F060E944E13882309F4AD
:1057B00082C082E094E00E94430E8CEF93E00E944E
:1057C000430E809122040E94710D813009F479C04A
:1057D000882359F0823009F477C0833009F477C008
:1057E00088EE93E00E94030E04C088EF93E00E94CD
:1057F000430E87EE93E00E94430E83EE93E00E94F7
:10580000430E82EE93E00E94430E0E9489091F928C
:105810008F9388E791E09F938F931F9216E01F93D9
:105820008EEA92E09F938F930E943A338EEA92E041
:105830000E94480E80910B031F928F938FE791E097
:105840009F938F931F921F9388EA92E09F938F9369
:105850000E943A3388EA92E00E94480E80910C033D
:105860001F928F9386E891E09F938F931F921F93CF
:1058700082EA92E09F938F930E943A3382EA92E009
:105880000E94480E80910D031F928F938DE891E046
:105890009F938F931F921F938CE992E09F938F9316
:1058A0000E943A330FB6F894DEBF0FBECDBF8CE92D
:1058B00092E00E94480E8091F803882309F485CD78
:1058C0007CCD84EF93E093CF80EF93E090CF8CEE8C
:1058D00093E08DCF8091D50261E070E0811175CDAC
:1058E000082F10E02B01082E02C0440C551C0A940E
:1058F000E2F7A90144215521452B09F448C09091B4
:10590000D40290FD46C08295880F807680935F0117
:105910009801369527953695279520936201815EEB
:10592000809360011092630124E630E047E050E08C
:105930006DE571E088E70E94BB2F892B09F045CD0A
:10594000A80165E0440F551F6A95E1F78091D402E4
:1059500080FD2DC0475D5B4F04E610E020E230E0A3
:1059600060E488E70E94E22F892B09F02ECD0E9487
:10597000900EC20180959095409027045090280485
:105980004822592250922804409227041ECD8F5F4E
:10599000A7CF880F880F880F80935F011092620154
:1059A000895F8093600183E080936301BDCFE4EB66
:1059B000F2E080E2DF011D928A95E9F7ECEEF1E07A
:1059C000FCA7EBA708EE11E037E0A32E99249394EF
:1059D000ABA5BCA52D91BCA7ABA7F80121908F0169
:1059E000240E352E311CC101875D9B4F1C01E22F17
:1059F000F0E0EC54FD4F30E020E07A2C721AB92C24
:105A0000022E01C0BB0C0A94EAF7610190E0D601B6
:105A10008D916D018B21672D691B6770862E062E77
:105A2000000C770BB82F01C0BB0F8A94EAF78B2EBE
:105A30007195619571096770772701C086956A95A0
:105A4000EAF7882A8081882A80829F5F9830F9F659
:105A50002F5F3F4F31962830310579F6E0EFF1E0C6
:105A60002BA53CA5E217F30709F0B2CF04E610E03E
:105A700020E230E044EB52E073CF81E08093F70204
:105A80002ACD81E08093F8022FCD81E08093F90246
:105A90006ECD81E08093FA0273CD00E210E0CE017A
:105AA00001967C018091E80085FD0AC08091E800A4
:105AB0008B778093E8000E949507882399F397CD10
:105AC0008091F100D7018D937D010150110951F7AB
:105AD0008ECD1A8289E08B8311C08A81823009F4CD
