:100000000C94BD060C9404070C9404070C944E2E1B
:100010000C9404070C9404070C9404070C94040734
:100020000C9404070C9404070C9419150C946F1984
:100030000C945C250C9404070C9404070C9404079E
:100040000C9404070C9404070C9404070C94040704
:100050000C9404070C94F0150C9404070C940407FA
:100060000C9404070C9404070C9404070C940407E4
:100070000C9404070C9404070C9404070C940407D4
:100080000C9404070C9404070C9404070C940407C4
:100090000C9404070C9404070C9404070C940407B4
:1000A0000C9404070C9404070C940407000100FF4F
:1000B000FF0106EA80FF0701BFFFFF08052BFFFFD6
:1000C0000D01BFFFFF0E0555FFFF1301BFFFFF141A
:1000D0000580FFFF1905AAFFFF1E08EA80FF26071B
:1000E0002BFFFF2D01BFFFFF2E0655FFFF3401BF81
:1000F000FFFF350580FFFF3A02BFFFFF3C04AAFF68
:10010000FF40060000FF43060000FFFF0000000064
:10011000000100000001060000FF070100000008C8
:10012000050000FF0D010000000E050000FF130197
:1001300000000014050000FF19010000001A010072
:10014000FFFF1B030000001E22000000400600000D
:10015000FF43060000FFFF00000000000100FFFF5A
:100160000104AAFFFF0502BFFFFF07010000FF080F
:1001700005AAFFFF0D01D5FFFF0E03AAFFFF110225
:10018000BFFFFF1301D5FFFF1403AAFFFF1702BF34
:10019000FFFF1901D5FFFF1A010000FF1B02D5FF69
:1001A000FF1D0100FFFF1E2200000040060000FFAF
:1001B00043060000FFFF00000000000100FFFF01F8
:1001C0000480FFFF05022BFFFF07010000FF080569
:1001D00080FFFF0D01D5FFFF0E0380FFFF11022BF3
:1001E000FFFF1301D5FFFF140380FFFF17022BFF52
:1001F000FF1901D5FFFF1A010000FF1B02D5FFFF09
:100200001D0100FFFF1E2200000040060000FF430A
:10021000060000FFFF0000000005010902A10185A2
:10022000020901A1000509190129081500250195F8
:1002300008750181020501093009311581257F9575
:10024000027508810609381581257F950175088199
:1002500006050C0A38021581257F9501750881066F
:10026000C0C005010980A101850319012AB7001545
:100270000126B700950175108100C0050C0901A188
:1002800001850419012AA002150126A00295017515
:10029000108100C00660FF0961A1010962150026F6
:1002A000FF009520750881020963150026FF00955F
:1002B0002075089102C005010906A101050719E092
:1002C00029E715002501950875018102950175083A
:1002D00081010507190029FF150026FF0095067505
:1002E00008810005081901290595057501910295F8
:1002F0000175039101C00000000000000000000033
:1003000000000000000000000000000000000000ED
:10031000000000000000000000007E0F00D4FFFF7E
:10032000FFC70000007800000000000000002A2B3A
:100330002800000000000000000000000000000095
:100340000029000000002C1E3420212224342627FE
:10035000252E362D3738271E1F202122232425261F
:100360003333362E37381F0405060708090A0B0CED
:100370000D0E0F101112131415161718191A1B1C35
:100380001D2F3130232D350405060708090A0B0CF3
:100390000D0E0F101112131415161718191A1B1C15
:1003A0001D2F3130354C00DA0281FFD9F1DB20A45A
:1003B000A62EAF00A0C000A1C800AED580A81FD354
:1003C00000408D142000BA015B011001AC00000058
:1003D0008182838485868788898A8B8C8D8E8F9095
:1003E0009192939495969798999A9B9C9D9EA1A281
:1003F000A3A4A5A6A7A8A9AAABACADAEAFB0B1B255
:10040000B3B4B5B6B7B8B9BABBBCBDBE006E2F6148
:10041000003474680033726400326E6400317374A7
:10042000004C4159455200000000AE00010101019D
:10043000010101010102020202020202020203039F
:10044000030303030303040404040404040505056F
:100450000505060606060607070707070808080831
:10046000090909090A0A0A0B0B0B0C0C0C0D0D0DDE
:100470000E0E0E0F0F0F1010111111121213131474
:1004800014151516161717181819191A1A1B1B1CEC
:100490001D1D1E1E1F202021222223242425262646
:1004A000272829292A2B2C2D2D2E2F30313232337B
:1004B0003435363738393A3B3C3D3E3F4041424384
:1004C0004445464748494A4C4D4E4F505153545568
:1004D0005658595A5B5D5E5F616264656668696B18
:1004E0006C6D6F7072737577787A7B7D7E80828396
:1004F0008587888A8C8E8F91939596989A9C9EA0DA
:10050000A2A3A5A7A9ABADAFB1B3B5B7BABCBEC0E6
:10051000C2C4C6C9CBCDCFD1D4D6D8DBDDDFE2E4AF
:10052000E7E9EBEEF0F3F5F8FAFDFF060504030248
:1005300001000708090A0B0C1211100F0E0D1314FD
:10054000151617181D1C1B1A194041424847461E14
:100550001F2021222324252D2C2B2A292827262E33
:100560002F30313233343B3A39383736353C3D3E23
:100570003F454443494A4B29001E001F00200021EB
:100580000022002300115014001A00080015001763
:1005900000000004001600070009000A000B00001C
:1005A00000E1001D001B000500060019000000E02E
:1005B0000002512C0035002800A600000024002570
:1005C00000260027002D002E003100000000000052
:1005D0000000000000000000000000000000000F0C
:1005E00000330034002800000000003600370038D7
:1005F00000E5000000A7008A002C00E600E70035B7
:10060000002A0029001E00240025002600220023C5
:1006100000105014001A0008001500170000000414
:10062000001600070009000A000B000000E100119D
:100630000010000D00060019000000E00001002C71
:100640000035002800A600000040004100420043A1
:1006500000440045004900000000004600470048F3
:100660000052000000000000004A000F0050004F40
:10067000000000000000004D004E0051000000008E
:1006800000A700000000000000E7004C0000002967
:10069000001E001F002000210027004600135018F4
:1006A000000C00120013000E00000004000F002FC9
:1006B0000033000A000B000000E100340036003770
:1006C00000060019000000E00001002C00350028A1
:1006D00000A600000024002500260027002D002E83
:1006E0000031001C0018000C00120013002F003015
:1006F000000B000D000E000F003300340028001125
:10070000001000360037003800E5001150A7002C1B
:10071000002C00E600E70035002A0029001E001F1B
:100720000020002100220023002B0014001A0008E2
:1007300000150017000000E0000400160007000983
:10074000000A000000E1001D001B00060019000562
:10075000000000E0001050E20035002C00A6000070
:100760000024002500260027002D002E0031001C4B
:100770000018000C00120013002F0030000B000DB9
:10078000000E000F00330034002800110010003666
:100790000037003800E5001150A7002C002C00E6BF
:1007A00000E70035002A0000AF09025B00030100EA
:1007B000A0FA090400000103010100092111010050
:1007C000012240000705810308000A090401000214
:1007D0000300000009211101000122220007058207
:1007E00003200001070503032000010904020001A2
:1007F00003000000092111010001227B000705848C
:100800000320000A120100020000000838393436C3
:100810000200010200010A035200650036003400A4
:10082000000012036B0075007300680069006D0022
:10083000610038000000040309040000000000000B
:100840003E5B4F5B3E003E6B4F6B3E001C3E7C3E72
:100850001C00183C7E3C18001C577D571C001C5E79
:100860007F5E1C0000183C180000FFE7C3E7FF0094
:10087000001824180000FFE7DBE7FF0030483A06C5
:100880000E00262979292600407F05050700407FB4
:1008900005253F005A3CE73C5A007F3E1C1C0800DF
:1008A000081C1C3E7F0014227F2214005F5F005F43
:1008B0005F0006097F017F00006689956A0060601D
:1008C0006060600094A2FFA2940008047E04080007
:1008D00010207E20100008082A1C0800081C2A0886
:1008E00008001E10101010000C1E0C1E0C003038DA
:1008F0003E383000060E3E0E0600000000000000EC
:1009000000005F000000000700070000147F147F54
:100910001400242A7F2A1200231308646200364937
:1009200056205000000807030000001C2241000070
:100930000041221C00002A1C7F1C2A0008083E08D7
:100940000800008070300000080808080800000057
:10095000606000002010080402003E5149453E003E
:1009600000427F4000007249494946002141494DFB
:1009700033001814127F10002745454539003C4AC2
:1009800049493100412111090700364949493600DA
:10099000464949291E0000001400000000403400B0
:1009A0000000000814224100141414141400004123
:1009B000221408000201590906003E415D594E000B
:1009C0007C1211127C007F49494936003E41414169
:1009D00022007F4141413E007F49494941007F0952
:1009E000090901003E41415173007F0808087F005A
:1009F00000417F4100002040413F01007F08142258
:100A000041007F40404040007F021C027F007F0485
:100A100008107F003E4141413E007F090909060060
:100A20003E4151215E007F09192946002649494966
:100A3000320003017F0103003F4040403F001F2080
:100A400040201F003F4038403F00631408146300FB
:100A50000304780403006159494D4300007F41417C
:100A60004100020408102000004141417F000402BF
:100A7000010204004040404040000003070800001D
:100A80002054547840007F2844443800384444447B
:100A90002800384444287F00385454541800000873
:100AA0007E0902001824241C78007F0804047800C2
:100AB00000447D4000002040403D00007F1028445D
:100AC000000000417F4000007C04780478007C082E
:100AD000040478003844444438007C182424180066
:100AE000182424187C007C0804040800485454543A
:100AF000240004043F4424003C4040207C001C208F
:100B000040201C003C4030403C0044281028440059
:100B10004C9090907C004464544C44000008364152
:100B200000000000770000000041360800000201CC
:100B3000020402003C2623263C00000000000000C6
:100B40008000000000000000000000000000000025
:100B50000000000000000000000000000080010311
:100B6000060C080808080818304080F01808080823
:100B700008080808080808080C060301000000001F
:100B800000000000000000008080810000000000E4
:100B90000000000000000000000000206040C08055
:100BA0008090D0D0F0FCFFFFFFFFFFFFFFFFFFFEB4
:100BB000FEE040408080800046C6C6C4F4FCFEFFD4
:100BC0007F4FCF7F7F7F7F7F7F7F47C7477FFFFF3D
:100BD000FFF999999919000000007FFFFFFFFEFEC1
:100BE000FEFEFEFEFEFEFEFEFEFEFEFEFFFFFFFF21
:100BF000C1E1210100000000000000000000000031
:100C0000000000060C0D0F0707070F0F0F0F0F0F47
:100C10000F0F0F0F0707070B1B3B01000000000021
:100C20000000000000008080C0C0C0C0C0C0C0C0C4
:100C3000C0C0808000000000000000000000000034
:100C40000207070F0F1F1F1F1F1F1F1F1F1F1F1F21
:100C50001F0F0F0707020000000000000000000047
:100C60000000000000000000000000000000000084
:100C70000000000000000000000000000000000074
:100C80000000000000000000000000000000000064
:100C90000000000000000000000000000000000054
:100CA0000000000000000000000000000000000044
:100CB0000000000000000000000000000000000034
:100CC0000000000000000000000000000000000024
:100CD0000000000000000000000000000000000014
:100CE0000000000000000000000000000000000004
:100CF00000000000000000000000000000000000F4
:100D000000000000000000000000000000000000E3
:100D100000000000000000000000000000000000D3
:100D200000000000000000000000000000000000C3
:100D300000000000000000000000000000000000B3
:100D400000000000000000000000000000000000A3
:100D50000000000000000000000000000000000093
:100D60000000000000000000000000000000000083
:100D70000000000000000000000011241FBECFEFA3
:100D8000DAE0DEBFCDBF04B603FE27C08091E505E3
:100D90009091E605A091E705B091E8058730904B6A
:100DA000A740B04BD1F41092E5051092E6051092E1
:100DB000E7051092E80514BE84B7877F84BF0FB69D
:100DC000F894A895809160008861809360001092EB
:100DD00060000FBEE0E0F8E3099511E0A0E0B1E0AB
:100DE000E2E5F1E602C005900D92A43CB107D9F707
:100DF00025E0A4ECB1E001C01D92A53EB207E1F7E9
:100E00000E9483250C9470300C940000E8EDF0E013
:100E100080818E7F80831092E2001092DA0010921F
:100E2000E100A0EEB0E08C9181608C9380818F779F
:100E3000808319BCA7EDB0E08C918E7F8C9380816C
:100E40008F7E80831092BF0308952091E40030913B
:100E5000E50095E6A9012091EC00822F817020FF2A
:100E600006C08091E80080FF06C080E008952091D0
:100E7000E80022FD1AC08091CC03882389F08530D8
:100E800089F08091EB0085FD0FC02091E400309146
:100E9000E50042175307F9F29150E1F684E0089516
:100EA00082E0089583E0089581E00895EF92FF9233
:100EB0000F931F93CF937C018B010E942507C82FAE
:100EC000811117C08091E80085FD0BC08091E8007A
:100ED0008E778093E8000E942507882399F3C82F16
:100EE00008C0F70181917F018093F1000150110941
:100EF00049F78C2FCF911F910F91FF90EF9008959C
:100F00008091CE0387FF13C08091E80082FF06C066
:100F10008091E8008B778093E80004C08091CC0337
:100F20008111F2CF08958091CC038823D9F3809169
:100F3000E80080FFF8CF8091E8008E77ECCF982F03
:100F40009093E900242F762F50E0891731F07091AB
:100F5000EC002091ED005091F00021FD07C09F5F53
:100F6000973071F78093E90081E008953091EB00AC
:100F70003E7F3093EB003091ED003D7F3093ED00EC
:100F80003091EB0031603093EB007093EC002093D4
:100F9000ED005093F0002091EE0027FDE0CF80E0BF
:100FA0000895CF92DF92EF92FF920F931F93CF930A
:100FB000DF93C8EDD0E088818F7E8883E7EDF0E095
:100FC00080818160808384E082BF81E08093BF0361
:100FD00088818E7F888302EE10E0F80110821092E3
:100FE000DA0081EEC82ED12CF601108288818F772D
:100FF000888388818068888388818F7D888319BCF5
:101000001092CC031092CD031092CB031092CA031E
:1010100090EEE92EF12CF70180818B7F808388810F
:101020008160888342E060E080E00E949F07F601D3
:1010300080818E7F8083F8018081816080838081C0
:1010400088608083F70180818E7F808388818061C2
:101050008883DF91CF911F910F91FF90EF90DF90E8
:10106000CF900895FC018091D4039091D503861709
:101070009707A0F06115710529F49091E8009E771B
:101080009093E80090E06115710551F4911108C04A
:101090008091E80082FF34C080E00895BC01F2CF67
:1010A0008091CC038823C1F18530C1F18091E800A3
:1010B00083FD30C08091E80082FDEACF8091E80096
:1010C00080FFE1CF8091F3002091F200382F61156D
:1010D000710519F02830310558F091E028303105BC
:1010E00009F090E02091E8002E772093E800CBCF24
:1010F00081918093F100615071092F5F3F4FE7CFDD
:101100008091CC03882341F0853041F08091E80044
:1011100083FFBECF81E0089582E0089583E00895C3
:101120008091C103089587E797E790930108809322
:10113000000888E19AE00FB6F894A89580936000C3
:101140000FBE90936000FFCF2FB7F8946091B80363
:101150007091B9038091BA039091BB032FBF08959A
:101160009C01FC0132969FEF80E04191461751F0BF
:101170009F3F19F4411101C0982F8F5F8630A9F766
:101180009F3F09F40895290F311D97FD3A95F90104
:10119000628308952091B5033091B603281739076B
:1011A00071F09093B6038093B503E091B303F0918F
:1011B000B403309721F00084F185E02D099408955F
:1011C0002091B1033091B2032817390771F0909341
:1011D000B2038093B103E091B303F091B40330976D
:1011E00021F00680F781E02D09940895FC01680F35
:1011F000791F8FEF91E32191822728E030E087FF6C
:1012000009C0880F892721503109C9F7E617F70768
:1012100091F70895880FF7CFFA01811101C0FB0102
:1012200009948091A603982F9E7F71F48091A60364
:10123000817082608093A6038091A903893718F09A
:1012400088E78093A9030895843080F7F5CFAF92A3
:10125000BF92DF92EF92FF920F931F93CF93DF9392
:10126000082F162FE901E42FF0E0E55DFB4F611137
:1012700010C0E4915E2F4E2F4983E8835A83DF919B
:10128000CF911F910F91FF90EF90DF90BF90AF90A3
:101290000895E62EF12C4491D42EE42FF0E026E0C0
:1012A000829FC00111242FEF30E0B9010E94C82FA6
:1012B000802F90E0880F991F55E5569FD001579FCA
:1012C000B00D11248A1B9B0B982F990F890F590180
:1012D000AE18BF08AE9ED001AF9EB00DBE9EB00D41
:1012E00011245B2F189F80011124012F1127590110
:1012F000A01AB10AAE9E8001AF9E100DBE9E100DC9
:1013000011245901A81AB108AE9CC001AF9C900DE0
:10131000BE9C900D1124892F9927281B390B2E9FD5
:10132000C0012F9F900D3E9F900D1124E92F623038
:101330007105A1F050F46115710509F49DCF61307C
:10134000710581F0EB2F512F97CF6430710569F053
:1013500080F06630710509F48FCFF4CFE42F4B2F66
:10136000592F8ACFE42F412F87CFEB2F542F492FAE
:1013700083CF4B2F5D2DE12F7FCF4091B802803F6F
:1013800059F48091B90287FF0DC01092B902411142
:101390000BC01092B00208C0813F81F48091B90265
:1013A00018169CF3442381F08091BA029091BB02FD
:1013B000892B09F05AC01092AF020895823F49F478
:1013C00047FFF0CF1092B8028091B9028111ECCFA3
:1013D000E0CF833F19F41416ACF3E4CF9091BA0236
:1013E000893F29F41916F4F61092BA02DBCF8A3F2E
:1013F00019F497FFD7CFF8CF9091BB028B3F29F418
:1014000097FFD0CF1092BB02CDCF8C3F19F41916A5
:10141000CCF3C8CF9CE0980F953090F4845F990B83
:1014200021E030E0B90102C0660F771F8A95E2F72C
:10143000CB0180959091B70289238093B702B2CFF8
:101440008D3F31F48091B1028E7F8093B102AACF9B
:101450008E3F21F48091B1028D7FF7CF8F3F09F04D
:10146000A1CF8091B1028B7FF0CF08958091B1021E
:1014700080FD16C081FD16C082FD16C08091AF02AE
:101480008823A1F0883280F428E0829FC0011124D3
:1014900068E270E00E94E82F862F672B39F00895EC
:1014A00082E0089584E0089588E0089581E0089539
:1014B0008091B10280FD14C081FD14C082FD16C070
:1014C0008091B002882381F0843180F422E3829FEE
:1014D000C001112464E170E00E94E82F862F089576
:1014E0008CE0089589E1089585E0089582E30895E8
:1014F000803F31F40E94580A81958093B902089583
:10150000813F19F40E94580AF8CF823F31F40E94BB
:10151000580A81958093B8020895833F19F40E9478
:10152000580AF8CF893F29F40E94360A8093BA02FC
:1015300008958A3F21F40E94360A8195F7CF8B3FA8
:1015400031F40E94360A81958093BB0208958C3F46
:1015500019F40E94360AF8CF9CE0980F953070F489
:10156000845F990B21E030E001C0220F8A95EAF7F1
:101570008091B702822B8093B70208958D3F31F49A
:101580008091B10281608093B10208958E3F21F471
:101590008091B1028260F7CF8F3FB9F78091B1029D
:1015A0008460F1CF80E0089578940895F894E82F4E
:1015B000E295EF70F0E031A1282F2F7081E090E0EC
:1015C00001C0880F2A95EAF7982F9095932391A34D
:1015D00092A1892B82A30C94D40A9091600292FF6D
:1015E00006C0282F28712830F9F4877F846093FF84
:1015F00006C0282F28712831F1F4877E846120915C
:10160000610220FF06C0382F38713830D9F4877F47
:10161000816021FF06C0282F28712831D1F4877EF0
:10162000816194FD877E0895282F24712430F9F676
:101630008B7F8860DCCF282F2471243101F78B7ECB
:101640008861DDCF382F3171313019F78E7F886096
:10165000E0CF282F2171213121F78E7E8861E1CFE3
:10166000CF93DF93EC018238910581F1B0F581339E
:10167000910509F491C020F58932910509F485C0DE
:101680008A9709F490C0C11520E5D20708F0A7C0D9
:10169000C11530E4D30708F0F6C0CF3BD10508F000
:1016A00089C0C83AD10508F0E1C0C53AD10508F0B3
:1016B000D5C0C430D105F8F4C130D105E1F040C047
:1016C0008533910509F45AC0C997E9F68091600203
:1016D000837089F0C0EED0E00EC0833E910599F191
:1016E00070F4803E910501F1823E910561F6809192
:1016F000600282FD21C0CE01DF91CF910895863E28
:10170000910561F1873E910571F1843E910509F0E3
:10171000BACF8091610281FFEECF80916002C7EE67
:10172000D0E084FD0DC0E7CF8091600280FDFEC057
:101730009091610290FFDFCFC3EED0E084FFDBCF5A
:10174000D0E0C0E0D8CF8091600282FDF2C09091DD
:10175000610290FDBFCF84FFCECFF2CF80916002B7
:1017600083FDDDCFC8CF8091600283FDE5C09091FD
:10177000610291FFF0CFC4EED0E0BDCF8091600256
:1017800085FFB9CFC9E2D0E0B6CF8091600285FF76
:10179000B2CFC5E3D0E0AFCF8091600286FFABCF80
:1017A000CAE2D0E0A8CF8091600286FFA4CFC1E357
:1017B000D0E0A1CFCF3FD10509F058F4C03FD1050B
:1017C00008F05FC0CE01805E9109089708F493CFBE
:1017D000B7CFC11540E2D40708F48DCFB1CFC11502
:1017E00084E5D807A0F4C11593E5D90708F07CC0BB
:1017F000C11522E5D20708F066C0C11531E5D3074F
:1018000008F444C0DC2FCC27C16FD06A74CFC11557
:101810004AE5D40778F4C11589E5D80708F078C0FF
:10182000C11598E5D90708F48BCFDC2FCC27C06F02
:10183000D06A61CFCE0190568115904208F080CFDA
:101840008D2F8F710E94ED0A90E0982F88278827AE
:101850009F719C012C2BE901D0624DCFC55AD0E07D
:10186000CA5ADE4FC881D0E0D06445CFC85AD0E014
:10187000CC0FDD1FC75ADE4F0990D881C02DD4642C
:101880003ACFD06538CFDF70D06A35CFCE0164E073
:10189000969587956A95E1F783702C2F2695269566
:1018A000237040E2249F90011124382B8C2F8370E9
:1018B000C1E0D0E002C0CC0FDD1F8A95E2F7C22B59
:1018C000D32BDC6818CFCE018370992721E030E05C
:1018D00002C0220F331F8A95E2F7C695C69580E2B3
:1018E000C89FE0011124EBCFCE018370992721E03E
:1018F00030E002C0220F331F8A95E2F7C695C695E5
:1019000090E2C99FE0011124C22BD32BDA68F3CEF9
:101910008C2F8F700E94ED0A34E0D695C7953A95CA
:10192000E1F7CF709C2FEC01D069E5CEC9E3D0E0A0
:10193000E2CEC2EED0E0DFCEC6EED0E0DCCE0C943C
:10194000A4088091250290912402892B9091230272
:10195000892B8093C601E091B303F091B4033097D3
:1019600031F00280F381E02D86EC91E00994089536
:10197000809122029091F101981301C008958F5F28
:101980008770FACF27E0929F800D1124982F9770CF
:1019900086958695869523E0829FF0011124E05379
:1019A000FE4F50E040E080E0219130E0092E02C07F
:1019B000369527950A94E2F721703327042E01C04B
:1019C000220F0A94EAF7822B4F5F5F4F4330510595
:1019D00059F7089527E0929F800D1124982F977052
:1019E00041E001C0440F9A95EAF786958695869561
:1019F00093E0899FF0011124E053FE4F90E080E0D6
:101A000070E05191DF0111979B01082E02C03695BD
:101A100027950A94E2F7217021952527242325276D
:101A20002C9301968330910561F70895882341F046
:101A30008095909125028923809325020C94A10C16
:101A40000895882339F090912502982B90932502D0
:101A50000C94A10C0895982F92959F7011F0892FE6
:101A600094E0282F2695269511F09E5F822F86956B
:101A700009F09F5F892F0895CF93DF93682F81E04E
:101A80006A3019F06D3029F480E0DF91CF910C9429
:101A9000CB0D8091E3059091E40526E0FC01ADEDCE
:101AA000B5E001900D922A95E1F7603E08F45AC026
:101AB00026E0FC0111922A95E9F7C091E305D09147
:101AC000E40546E050E0BE018DED95E00E94123045
:101AD0009E012D5D3340892B41F1C90145E096956A
:101AE00087954A95E1F741E050E0BA0102C0660FE0
:101AF000771F8A95E2F7CB016091DB037091DC03DD
:101B0000862B972BB9016B5F7F4FE5E07695679544
:101B1000EA95E1F702C0440F551F6A95E2F7842B5E
:101B2000952B9093DC038093DB032A5F3F4F40911A
:101B3000DA03642F70E0C9010E94C82F481B4630A9
:101B400010F4240F311D211572E0370710F030E03A
:101B500020E023523C4F3093E4052093E305DF91CE
:101B6000CF910895F6E06F9FB0011124665C774F26
:101B700046E050E00E940930A0CFCF93DF93EC0104
:101B8000FE018491811103C0DF91CF9108950E94DD
:101B90003C0D2196F5CFCF93382FE091E305F091DE
:101BA000E405ED5DF3402091DA03622F70E0CF0190
:101BB0000E94C82F281B822F332361F066E00E9409
:101BC000DC2FC82FC15010F4CF91089580E20E94FD
:101BD0003C0DF8CF9F01280F311D2115324018F020
:101BE00080E0F0E0E0E08E0F9F2F911D83529C4F2C
:101BF0009093E4058093E305E7CF0E94BD0D81E05B
:101C00000C94CB0DCF92DF92EF92FF920F931F9324
:101C1000CF93DF936C017B0164E670E088E70E945C
:101C2000A52CEC0197FD12C010E000E0F601E00FDA
:101C3000F11F849164E670E00E941F2DEC01892B56
:101C400029F40F5F1F4F0E151F0581F70E94A22D6B
:101C5000CE01DF91CF911F910F91FF90EF90DF9018
:101C6000CF900895CF93C091AF038091B0038823A4
:101C7000D1F00E94A408605A75418F4F9F4F609326
:101C8000AB037093AC038093AD039093AE03C1118B
:101C900008C062E070E087EA97E00E94020E892B9C
:101CA00029F0C091AF038C2FCF91089581E08093EC
:101CB000AF03F7CF9091CC03943029F58093BC0308
:101CC0007093BE036093BD039093E9008FEF9091F2
:101CD000E800815095FD06C095ED9A95F1F700005A
:101CE0008111F5CF8091E80085FF0DC050E040E004
:101CF00063E070E08CEB93E00E9456078091E8006F
:101D00008E778093E8000895BC0184E00C945A0E0D
:101D1000BC0183E00C945A0E9C0184E08093E9009E
:101D20009FEF8091E800915085FD06C085ED8A9572
:101D3000F1F700009111F5CF8091E80085FF0CC00C
:101D400050E040E066E070E0C9010E9456078091D3
:101D5000E8008E778093E8000895CF93DF93EC013D
:101D600081E08093E9008FEF9091E800815095FD2C
:101D700006C095ED9A95F1F700008111F5CF80919D
:101D8000E80085FF14C050E040E068E070E0CE015C
:101D90000E9456078091E8008E778093E80088E0E3
:101DA000FE01A2ECB3E001900D928A95E1F7DF917C
:101DB000CF9108954F925F926F927F928F929F92F0
:101DC000AF92BF92CF92DF92EF92FF920F931F9349
:101DD000CF93DF93CDB7DEB7C45ED1090FB6F894C9
:101DE000DEBF0FBECDBF509051019091A60390FF72
:101DF0005DC08090C0029090C1028114910409F0EE
:101E000068C0EBE2F5E09E012F5F3F4FBE016B51D2
:101E10007F4FC901A4914A2F50E0DA01AA0FBB1FDE
:101E2000A40FB51FAE53BD4FCD90DD90EC90D901FE
:101E3000CD92DD92ED929D0131966A177B0751F7A5
:101E40002091500143E0249F800D911D1124539A4D
:101E50002BB1277F3BB138605FB7F894BC01549E2B
:101E6000600D711D11248617970709F08EC05FBFA2
:101E70008FE594E00197F1F700C00000CC51DF4FEF
:101E80000FB6F894DEBF0FBECDBFDF91CF911F918B
:101E90000F91FF90EF90DF90CF90BF90AF909F9009
:101EA0008F907F906F905F904F9008958091520136
:101EB0002091530133E0839FF0011124EE53FD4F35
:101EC000821708F096CF1182108212828F5F3396AC
:101ED000F7CF90FF96CFD12CC12C66246394712C40
:101EE00053E0452E8091BF0293010C2C01C0220FBC
:101EF0000A94EAF7822309F43FC0F601EE0FFF1FB0
:101F0000E80DF91DE590F490E114F10409F479CF9E
:101F100045E050E0B701CE0101960E9409300981E9
:101F20000F3F51F18A81800F9927991F8D349105B8
:101F300014F08CE490E05C01AA0CBB1C8A0D9B1D84
:101F4000DC01AE53BD4F5D01049D800111240E5391
:101F50001D4F0A151B0520F0B5E0EB0EF11CD8CF84
:101F60004D81493708F048E798016C818B810E94C8
:101F700027090D5F1F4FEDCFEFEFCE1ADE0AF4E019
:101F8000CF16D10409F0AECF3CCFFC014191CF0177
:101F9000E8E03BB9000000C047FF2BB9440F000048
:101FA00000C000C000C02BB900C0EA9591F75BCF1C
:101FB000E6EAF3E080818E7F8083ECEBF2E08281C1
:101FC000816082832FEF80E792E021508040904033
:101FD000E1F700C000000C94DA0E9F92AF92BF921E
:101FE000CF92DF92EF92FF920F931F93CF93DF93E5
:101FF0007C015B016A0180915B0201E010E08A30A4
:1020000010F40AE010E0C1E0D0E0F894B501C70197
:10201000F6010995982E0E94D40A911004C02196C9
:102020000C171D076CF4892DDF91CF911F910F9133
:10203000FF90EF90DF90CF90BF90AF909F9008956A
:10204000CC9F9001CD9F300D300D112490E080E0A9
:1020500045E34A95F1F70000019682179307C1F70F
:10206000D4CF80913002811110C08091D80080615E
:102070008093D8008AE18A95F1F700C08091D90059
:1020800080FF0AC081E08093300281E090913002AD
:10209000913009F080E0089582E0809330020E9440
:1020A00006071092CC03F1CF0E943110882351F023
:1020B000E091B303F091B403309721F00190F081E7
:1020C000E02D099480E00895CF93DF93C7E5D2E037
:1020D00060E0CE010E943C302196C11584E0D80713
:1020E000B9F7DF91CF9108956F927F928F929F926F
:1020F000AF92BF92CF92DF92EF92FF920F931F9316
:10210000CF93DF9387E7C82E85E0D82E91ECE92E98
:10211000F12CE701CC58D10936011BC0F50185909F
:102120009490692DC8010E943C30682DC801019629
:102130000E943C3082E0A80EB11C0E5F1F4FC017FA
:10214000D10761F78EE0680E711C2E96CE15DF0563
:1021500029F08E010E5011095301E0CF7E018CE869
:10216000E80EF11C8CE8C80ED11C81EFE81682E065
:10217000F80679F6DF91CF911F910F91FF90EF90C4
:10218000DF90CF90BF90AF909F908F907F906F9097
:102190000895CF93C82F6FEF811161E283E290E041
:1021A0000E943C306FEFC11161E184E290E00E9437
:1021B0003C306FEFC11160E385E290E0CF910C9469
:1021C0003C3080E00E94C91060E086E290E00E940E
:1021D0003C300E9474100E94641081E00C94C9107D
:1021E0000F931F93CF93DF93C42FD0E0CC0FDD1F4D
:1021F0002EE0629FC00DD11D11243CE8839FC00DCD
:10220000D11D1124CE0187960E942830082F10E09E
:10221000102F0027CE0188960E9428309801282B85
:10222000C901DF91CF911F910F910895462F8430FE
:1022300038F47A3028F4673018F4672F0C94F010D3
:1022400090E080E00895CF92DF92FF920F931F936A
:10225000CF93DF936C010091D90380912602082B64
:10226000C7E0D0E010E0FC2EC8010C2E02C095950E
:1022700087950A94E2F780FD0CC02197A0F7F12C16
:102280008F2DDF91CF911F910F91FF90DF90CF9015
:102290000895B6018C2F0E9416110E94300B0197F1
:1022A00061F3EECFCF93DF93EC010E942311BE01C7
:1022B0000E941611DF91CF910C94300BFC018081AC
:1022C00091810E945211292F2F7092959F709250E8
:1022D0009E3078F4E92FF0E0EE58FF4C0C94FC2F80
:1022E000803F19F020F4883E20F481E00895843F77
:1022F000E1F380E00895883EC0F3813FD1F7F5CF48
:10230000822F869586958695089583E290E00E94B7
:102310002830813289F484E290E00E9428308131B3
:1023200059F485E290E00E94283091E0803309F072
:1023300090E0892F8170089580E0FCCFCF9384E0F6
:1023400090E00E942830C82F82E290E00E9428305E
:10235000982F8C2FCF910895CF92DF92EF92FF921A
:102360006B017C010E941109B701A60188E090E091
:10237000FF90EF90DF90CF900C944E30EF92FF9251
:102380000F931F93CF93DF9300D00F92CDB7DEB79B
:10239000F82E062F142FE22E8091A60380FF4DC049
:1023A000E82FE695F0E0EE54FE4F90819093BC024A
:1023B0008E7F8230F9F4493708F048E79E012F5F9D
:1023C0003F4F602F8F2D0E9427098091A60380FF29
:1023D00011C02B8139814A81809152019091530122
:1023E00053E0859FF0011124EE53FD4F891778F1DA
:1023F0000E94DA0E8091A7038F1108C08091A80374
:10240000801304C08091A903811729F08091BE0236
:1024100082608093BE02F092A7030093A8031093FA
:10242000A903EE2051F06091A6037091A70380915B
:10243000A8039091A9030E94AC110F900F900F90E8
:10244000DF91CF911F910F91FF90EF9008954183FD
:10245000308322838F5F3396C9CFE6EAF3E043816E
:1024600028E0421B08F440E021E0628181810C9465
:10247000BE11E6EAF3E0438128E0420F08F44FEF93
:1024800021E0628181810C94BE11E6EAF3E0628171
:1024900028E0621B08F460E021E0438181810C9414
:1024A000BE11E6EAF3E0628128E0620F08F46FEF04
:1024B00021E0438181810C94BE11E6EAF3E0818141
:1024C00021E04381628188500C94BE11E6EAF3E07A
:1024D000818121E043816281885F0C94BE118091EB
:1024E000AA03882319F081508093AA036091A60360
:1024F0007091A7038091A8039091A9030C94AC114B
:102500008091AA03833018F48F5F8093AA036091AF
:10251000A6037091A7038091A8039091A9030C943E
:10252000AC118091A60380FF1EC0817082608093F1
:10253000A6038091BE0281608093BE02662351F0A3
:102540006091A6037091A7038091A8039091A903BD
:102550000E94AC1120E04091A9036091A8038091F2
:10256000A7030C94BE1108958091A603869581500F
:1025700009F481E061E00C94911261E081E00C9437
:102580009112E6EAF3E083E0808311828FEF828389
:1025900088E783831482ACEBB2E012968C91129799
:1025A000836012968C9360817181828193810C94F7
:1025B000AC1169EE7EEF90E080E00E945A3060E05E
:1025C00082E090E00E943C3060E083E090E00E9476
:1025D0003C301092260260E084E090E00E943C30A3
:1025E00060E082E290E00E943C3060E085E090E0B4
:1025F0000E943C3060E086E090E00E943C306FEF4B
:1026000087E090E00E943C3040E050E0BA0188E072
:1026100090E00E944E3060E08DE090E00E943C30FF
:1026200040E050E0BA0188E190E00E944E3060E066
:1026300087E190E00E943C3040E050E0BA018CE13C
:1026400090E00E944E3070E060E080E290E00E94F6
:102650005A3040E050E0BA0188E190E00E944E30EC
:1026600080E00E94C9100E94E11040E050E0BA01F1
:102670008FE090E00E944E3040E050E0BA0183E1EC
:1026800090E00C944E30CF93DF93CDB7DEB729970F
:102690000FB6F894DEBF0FBECDBF85E0E6EAF3E0EB
:1026A000DE01119601900D928A95E1F78091BC02AE
:1026B0009091BD02A091BE02B091BF028E839F8314
:1026C000A887B98728854091570250915802609198
:1026D000590270915A023FB7F8948091B8039091D3
:1026E000B903A091BA03B091BB033FBF841B950B04
:1026F000A60BB70B84369105A105B10510F4222372
:1027000019F180913501909136018E5B9D4F40917A
:10271000340150E04A30510510F049E050E0BE016C
:102720006F5F7F4F0E941F3085E090E00E94142F62
:10273000892BB1F40E94A408609357027093580249
:102740008093590290935A021092BE0281E029961A
:102750000FB6F894DEBF0FBECDBFDF91CF910895C5
:1027600080E0F5CF0F931F93CF93DF9300D000D07D
:10277000CDB7DEB740913E0250913F0260914002DA
:10278000709141022FB7F8948091B8039091B903EA
:10279000A091BA03B091BB032FBF841B950BA60B6E
:1027A000B70B84369105A105B10588F10E9431105F
:1027B000882379F10E94A4086E5F7F4F8F4F9F4F4F
:1027C00069837A838B839C8380912B0190912C0168
:1027D0008E5B9D4F40912A0150E04530510510F02D
:1027E00044E050E0BE016F5F7F4F0E941F3084E0E5
:1027F00090E00E94142F892BD9F40E94A4086093C2
:102800003E0270933F02809340029093410281E028
:1028100010C00E94A40800915C0210915D022091FA
:102820005E0230915F02600F711F821F931FC4CF41
:1028300080E00F900F900F900F90DF91CF911F913C
:102840000F9108956F927F928F929F92AF92BF9255
:10285000CF92DF92EF92FF920F931F93CF93DF936C
:102860000F92CDB7DEB7862E5A016901682E880F08
:102870007708C3010E94142F892B09F088C08AE0D1
:10288000869DF001879DF00D1124E050FF4F45819A
:1028900050E04115510511F041E050E08AE0869D7D
:1028A000F001879DF00D1124E050FF4F6681778184
:1028B0006E5B7D4FCE0101960E941F30F501408175
:1028C0005181628173812FB7F8948091B803909100
:1028D000B903A091BA03B091BB032FBF841B950B22
:1028E000A60BB70B84369105A105B10540F4B701DD
:1028F000C8010E94F6089981891709F44FC0082C75
:10290000000C9908C4010E94142F892B91F0B12C5E
:102910008B2D0F90DF91CF911F910F91FF90EF9032
:10292000DF90CF90BF90AF909F908F907F906F90EF
:1029300008958AE0889DF001899DF00D1124E050F2
:10294000FF4F458150E0E416F50608F4A7018AE040
:10295000889DF001899DF00D1124E050FF4F6681A4
:1029600077816E5B7D4FC6010E941F30B701C801A1
:102970000E94F60899818913CACF0E94A408F50124
:102980006083718382839383BB24B394C1CFB12CC2
:10299000A701B801C6010E941F30BACFBB24B3946F
:1029A000F7CFCF92DF92EF92FF920F931F93CF93C7
:1029B000DF9300D000D00F92CDB7DEB76B0185E07A
:1029C000E82EF12C03E412E09E012F5F3F4F46E317
:1029D00052E061E080E00E942214882349F095E0F3
:1029E000FE013196A1E3B2E001900D929A95E1F7D4
:1029F00095E0E1E3F2E0D60101900D929A95E1F7BE
:102A00000F900F900F900F900F90DF91CF911F912B
:102A10000F91FF90EF90DF90CF90089590E080E0CD
:102A20000E943630893E9E4F11F40C94851180E04F
:102A300008951F920F920FB60F9211242F933F9378
:102A40004F935F936F937F938F939F93AF93BF93B6
:102A5000EF93FF938091E10082FF09C08091E20033
:102A600082FF05C08091E1008B7F8093E10080911F
:102A7000DA0080FF24C08091D80080FF20C08091C0
:102A8000DA008E7F8093DA008091D90080FF9BC0AE
:102A900080E189BD82E189BD09B400FEFDCF81E0FE
:102AA0008093CC038091BF03811109C00E94060767
:102AB0000E94D1078091E20084608093E2008091BF
:102AC000E10080FF17C08091E20080FF13C0809179
:102AD000E2008E7F8093E2008091E200806180932B
:102AE000E2008091D80080628093D80019BC85E014
:102AF0008093CC038091E10084FF29C08091E200A3
:102B000084FF25C080E189BD82E189BD89B5982F08
:102B1000917080FFFBCF8091D8008F7D8093D8008B
:102B20008091E1008F7E8093E1008091E2008F7EB2
:102B30008093E2008091E20081608093E2008091C6
:102B4000CD03882309F445C084E08093CC038091B1
:102B5000E10083FF27C08091E20083FF23C08091C2
:102B6000E100877F8093E10082E08093CC031092A4
:102B7000CD038091E1008E7F8093E1008091E2009F
:102B80008E7F8093E2008091E20080618093E2007A
:102B900042E060E080E00E949F078091F000886042
:102BA0008093F000FF91EF91BF91AF919F918F9132
:102BB0007F916F915F914F913F912F910F900FBE39
:102BC0000F901F90189519BC1092CC031092BF0360
:102BD00076CF8091E30087FD93E09093CC03B7CF4D
:102BE00078941F921FB61F9211248F939F93AF93D7
:102BF000BF938091B8039091B903A091BA03B091AB
:102C0000BB030196A11DB11D8093B8039093B90336
:102C1000A093BA03B093BB03BF91AF919F918F91E3
:102C20001F901FBE1F9018959C014FB7F89480917C
:102C3000B8039091B903A091BA03B091BB034FBF01
:102C4000821B930B08952FB7F8948091B80390914D
:102C5000B903A091BA03B091BB032FBF08950E949E
:102C600023169C019091B8028091B902982B21F013
:102C70003093B5022093B4029091BA028091BB02C6
:102C8000982B21F03093B3022093B202E091B3036A
:102C9000F091B403309749F082E08093B60204804B
:102CA000F581E02D86EB92E00994089590E080E0B4
:102CB0000E94E00890E080E00E94CA08109224027E
:102CC000109223020E94A10C86E0E6EBF2E0DF0105
:102CD0001D928A95E9F71092B0021092AF021092FD
:102CE000B1020C942F168093D9030C945616809140
:102CF000D903982F9670963019F488600C94731647
:102D0000877FFCCF21E030E001C0220F8A95EAF7EF
:102D100020958091D90382230C94731621E030E032
:102D200001C0220F8A95EAF78091D903822B0C9477
:102D30007316809326020C94561610922502E8EC26
:102D4000F1E086E0DF011D928A95E9F70C945616B2
:102D50001F93CF93DF93CDB7DEB7AA970FB6F89442
:102D6000DEBF0FBECDBF8EEC93E02091F100DC0101
:102D70002D93CD01B3E0863D9B07B9F78091CF033A
:102D8000833009F471C0B8F4813009F448C082304E
:102D900009F4B2C08091E80083FF3AC18091CE036C
:102DA0009091CF039A3008F033C1E92FF0E0E0585A
:102DB000FF4C0C94FC2F8A3009F48DC08B3009F441
:102DC00070C0893039F78091CE03813219F7809134
:102DD000D2039091D303009711F00297D9F6809116
:102DE000E800877F8093E8008091E80082FF37C089
:102DF0009091F3008091F200029729F48091F10004
:102E00008B7F813021F48091F1008093C103809108
:102E1000E8008B778093E8000E948007BBCF809109
:102E2000CE03813A09F0B6CF8091E800877F809386
:102E3000E8008091D2039091D303892B61F468E07C
:102E400082EC93E070E00E9432088091E8008B777A
:102E50008093E8009FCF60E090E080E0F3CF809126
:102E6000CC038111C1CF96CF8091CE03813A09F076
:102E700091CF8091D2039091D303892B09F08ACF0F
:102E80008091E800877F8093E8008091E80080FFD0
:102E9000FCCF809155018093F1008091E8008E77FE
:102EA000B9CF8091CE03813209F074CF8091D203E3
:102EB0009091D303892B09F06DCF8091E800877F33
:102EC0008093E8000E9480078091D0038093550191
:102ED0000E949D165FCF8091CE03813209F05ACFB8
:102EE0008091E800877F8093E8000E9480078091AE
:102EF000D1038093C0034ECF8091CE03813A09F075
:102F000049CF8091E800877F8093E8008091E800B6
:102F100080FFFCCF8091C003BECF803899F082380B
:102F200009F076C08091D2038F70873008F070C0AE
:102F30008093E9008091EB0085FB882780F910924F
:102F4000E90006C08091CA039091CB039111826081
:102F50009091E800977F9093E8008093F1001092A1
:102F6000F1008091E8008E77B5C1882309F4A2C1F1
:102F7000823009F04DC08091D0038111A6C18091AB
:102F8000D2038F702FEF280F263008F041C08093B6
:102F9000E9002091EB0020FF98C1933031F480913B
:102FA000EB0080628093EB0090C19091EB00906108
:102FB0009093EB0021E030E001C0220F8A95EAF700
:102FC0002093EA001092EA008091EB008860EACF3B
:102FD00081111EC01091D0031F778091E30080788B
:102FE000812B8093E3008091E800877F8093E80045
:102FF0000E9480078091E80080FFFCCF8091E30071
:1030000080688093E30082E0111183E08093CC0319
:103010008091E80083FF0AC08091E800877F809359
:10302000E8008091EB0080628093EB00AA960FB6D7
:10303000F894DEBF0FBECDBFDF91CF911F910895F1
:103040008058823028F72091D0033091D1032C3D55
:10305000E3E03E07A1F583E08A838AE289834FB7E4
:10306000F894DE01139620E03EE051E2E32FF0E019
:1030700050935700E49120FF03C0E295EF703F5F4B
:10308000EF708E2F90E0EA30C0F0C7968D939D933D
:103090002F5F243159F74FBF8091E800877F8093DD
:1030A000E8006AE270E0CE0101960E943208809149
:1030B000E8008B778093E800ABCFC096E7CF809194
:1030C000D2039091D303432F55274330510509F480
:1030D0004AC078F54130510509F47AC08BE590E09B
:1030E000E9EAF7E04230510509F092CF2091E8007B
:1030F000277F2093E8002091D4033091D5038217D5
:10310000930708F49C0140E02115310509F065C0E2
:10311000411163C08091E80082FDC9CF8091CC034A
:10312000882329F2853019F28091E80083FFF2CFDD
:10313000BECF4132510509F43CC04232510509F07D
:1031400067CF8330910508F063CFFC01EE0FFF1FBE
:10315000E954FE4F0190F081E02D8C549E4FDC012C
:103160008C9190E01AC0332721303105D1F0211520
:10317000310561F02230310509F04ACFE6E1F8E08F
:10318000E4918E2F90E0E6E1F8E007C0E6E3F8E096
:10319000E4918E2F90E0E6E3F8E0009709F438CF51
:1031A000A5CFE2E2F8E0E4918E2F90E0E2E2F8E0D1
:1031B000F4CF8330910508F02BCF880F991FFC01C5
:1031C000E354FE4F0190F081E02D89E090E08ECF36
:1031D00082E190E0E4E0F8E089CF8091CC0388239D
:1031E00009F465CF853009F462CF8091E80083FD52
:1031F0005ECF8091E80082FD8DCF8091E80080FF56
:1032000083CF9091F3008091F2002115310519F0E0
:103210008830910550F041E0089709F040E0809136
:10322000E8008E778093E8006FCF44914093F100DF
:103230003196215031090196E8CF803809F0E8CE67
:103240008091E800877F8093E8008091CD03809390
:10325000F10087CE8111DCCE1091D003123008F03E
:10326000D7CE8091E800877F8093E8001093CD034C
:103270000E948007112311F084E005C08091E300D3
:1032800087FDFACF81E08093CC0342E061EC81E0DE
:103290000E949F0742E261EC84E00E949F0742E2A5
:1032A00061EC82E00E949F0742E260EC83E00E94B2
:1032B0009F07AECE8091D003813009F0A9CE81E086
:1032C000933009F080E08093CB031092E900809165
:1032D000E800877F8093E8000E94800799CE1F92C4
:1032E0000F920FB60F9211242F933F934F935F933A
:1032F0006F937F938F939F93AF93BF93CF93DF93FE
:10330000EF93FF93D091E900DF708091EC00C82F1C
:10331000C17080FDC0E81092E9008091F000877FC5
:103320008093F00078940E94A8161092E900809192
:10333000F00088608093F000CD2BCF70C093E9003F
:10334000FF91EF91DF91CF91BF91AF919F918F91BD
:103350007F916F915F914F913F912F910F900FBE91
:103360000F901F9018958823F1F19CEF980F913AD8
:1033700078F4E8ECF1E02EEC31E09191891303C090
:10338000DF0111971C922E173F07B9F70C94A10C7F
:1033900090E2980F983088F4877021E030E0A9011E
:1033A00002C0440F551F8A95E2F7CA01809590919B
:1033B0002502892380932502E9CF9BE5980F93305E
:1033C00020F490E080E00C94E00898E5980F9731A5
:1033D00020F490E080E00C94CA08803F20F00E9426
:1033E000BD090C942F160895CF93C82F882309F494
:1033F00056C08CEF8C0F813AF8F4E8ECF1E08EECDB
:1034000091E0DF012D91C21759F08A179B07D1F780
:103410006C2F86EC91E00E94B008CF910C94A10C27
:103420002191C21303C0DF0111971C928E179F07D1
:10343000B9F70E94A10CECCF80E28C0F883068F4C1
:10344000C77021E030E001C0220FCA95EAF78091F1
:103450002502822B80932502E0CFEBE5EC0FE330D1
:1034600040F4F0E0EA5AFE4F808190E0CF910C9456
:10347000E008E8E5EC0FE73150F4F0E0EE0FFF1F55
:10348000E75AFE4F80819181CF910C94CA08C03FCA
:1034900030F08C2F0E94780ACF910C942F16CF9188
:1034A00008951F93CF93DF93182FD0E0C0E08933A6
:1034B00011F4C0E5D0E0812F0E94F419209731F477
:1034C000812FDF91CF911F910C94B3198FE99FE069
:1034D0000197F1F700C000002197F0CF0F931F93E1
:1034E000CF93DF93C62FD42F022FFC018281882334
:1034F000A1F06093D8030E9423169093D703809382
:10350000D603C77081E001C0880FCA95EAF7DF9142
:10351000CF911F910F910C94210D8091D8036813C6
:1035200035C08091D6039091D7030E941416883C31
:10353000910560F510E21D0FCD17B9F080E28C0FF8
:10354000883040F4C77081E001C0880FCA95EAF75F
:103550000E94160D183048F481E09D2F977001C02D
:10356000880F9A95EAF70E94210D802F0E94511A28
:10357000183098F4D77081E001C0880FDA95EAF727
:10358000DF91CF911F910F910C94160DC77081E0C0
:1035900001C0880FCA95EAF7F3CFDF91CF911F9151
:1035A0000F910895CF92DF92EF92FF920F931F93A6
:1035B000CF93DF930F92CDB7DEB7EE24E394F12CD7
:1035C00009E412E09E012F5F3F4F4AE352E063E0BF
:1035D00082E00E942214D82E882341F100916F02CC
:1035E000802F90E09C0120593D4F79011981F9010C
:1035F0008081181BC12E80E00EC0CA94F701808123
:103600008F5F80838AEF002319F0013019F48AEA72
:103610000E94511A8D2D1C1484F3912F17FD90E0F8
:10362000191B11110EC081110E949F0C8D2D0F903E
:10363000DF91CF911F910F91FF90EF90DF90CF908E
:1036400008951F5FF70180818150808389EF0023F7
:1036500019F0013019F489EA0E94511A8D2DE1CF39
:103660005F926F927F928F929F92AF92BF92CF9212
:10367000DF92EF92FF920F931F93CF93DF9300D0CF
:1036800000D00F92CDB7DEB77C01FC01838194811D
:10369000892B31F08081918189238F3F09F026C5E4
:1036A0000F900F900F900F900F90DF91CF911F917F
:1036B0000F91FF90EF90DF90CF90BF90AF909F90D1
:1036C0008F907F906F905F9008950E942311182F24
:1036D000682F89819A810E94EA0C69817A81812F01
:1036E0000E9416118C01F7019281992309F4F3C409
:1036F000980122513F452031310508F0B2C48FEFC7
:1037000093E00E942830025197E5A92E92E0B92E4D
:103710008111C6CF011134C01C821B8266246394C0
:103720008AE0582E85010F5F1F4FC5010E94283087
:1037300089831A82882309F4B3CF9FEF980F9330BF
:1037400070F58A83698232E0A30EB11CC8010E9421
:1037500028308B83882309F4A3CF8E010F5F1F4F7E
:10376000F80120812223F1F2213009F052C0918129
:1037700082819130B1F40E5F1F4F0E94511A17C021
:10378000A114F4E0BF0609F48BCFC5010E942830D4
:10379000811101C001502FEFA21AB20ABBCF58010C
:1037A000DCCF923039F40E5F1F4F0E94F4190F5F87
:1037B0001F4FD6CF933029F40E5F1F4F0E94B319CD
:1037C000F6CF943019F00F5F1F4FF1CF0E5F1F4FF0
:1037D00030E020E0B8016F5F7F4FF80141818053F6
:1037E000990B8A30910550F02150310900F38FE98F
:1037F0009FE00197F1F700C00000F6CF529EF00164
:10380000539EF00D11249C012E0F3F1F842F8B011E
:10381000E1CFE22FF0E0EA5DFC4F7490822F8695B5
:103820008695869590E0FC01EA5EFC4FE490277057
:10383000F12C022E02C0F594E7940A94E2F7E1E03D
:10384000EE22FF24FC01EA5FFC4FC490D12C022E33
:1038500002C0D594C7940A94E2F7F1E0CF22DD24A8
:10386000FC01EA50FD4F8490912C02C095948794FE
:103870002A95E2F721E082229924E114F10419F05B
:1038800081EE0E94F419C114D10419F086EE0E9451
:10389000F419872D0E94511ACD2819F086EE0E9446
:1038A000B319EF2819F081EE0E94B319892809F4A1
:1038B0007ECF8CE262CF81E00E948E1603C081E051
:1038C0000E9482160F900F900F900F900F90DF9133
:1038D000CF911F910F91FF90EF90DF90CF90BF900D
:1038E000AF909F908F907F906F905F900C94771621
:1038F00082E0E2CF053FFCE51F0709F472C008F43F
:103900006CC027E245EE66EE063F3CE5130709F47E
:10391000CBC3992309F4FBC31092D80303304DE5C0
:10392000140708F065C00A3F5CE5150738F49801F4
:1039300022503C452431310508F05FC00E949E11A1
:10394000909361028093600200319CE5190709F4AD
:103950003CC108F0B4C00830FCE51F0709F423C1DE
:1039600008F088C004303CE5130709F40EC108F0E4
:103970006EC002305CE5150709F4FDC003301C453C
:1039800009F4FFC0609160021091610284E090E050
:103990000E943C30612F82E290E00E943C300F9008
:1039A0000F900F900F900F90DF91CF911F910F917B
:1039B000FF90EF90DF90CF90BF90AF909F908F904F
:1039C0007F906F905F900C949D1627E245EE65EE18
:1039D0006BC326E241EE60EE67C327E245EE64EE7C
:1039E00063C326E241EE62EE5FC328E241E0EFCF1F
:1039F00001368DE5180709F4A1CF0631ECE51E0765
:103A000009F004C4809125028A7A91E009F490E0DB
:103A10009093CF0169E2811165E386EC91E00E9409
:103A2000B0080F900F900F900F900F90DF91CF91F3
:103A30001F910F91FF90EF90DF90CF90BF90AF90CC
:103A40009F908F907F906F905F900C94A10C8091CD
:103A50006002806106309CE5190709F48FC08091EF
:103A60006002886007301C4508F488C080916002BD
:103A7000806284C0809160028D7F0C30FCE51F075E
:103A800009F47CC070F4809160028C600A303CE5DF
:103A9000130709F473C008F48AC0809160028E7F16
:103AA0006DC080916002877F0E305CE5150709F4D8
:103AB00065C008F482C0809160028F7E5FC00C3FB9
:103AC0009CE5190709F47DC068F50431FCE51F0782
:103AD00009F48FC080F402313CE5130709F479C082
:103AE000809160028F7B03311C4508F447C08091B0
:103AF0006002837F43C00A3F5CE5150709F449C0B3
:103B000008F04DC005311C4509F03CCF80916002A2
:103B100082FB992790F921E0922790FB82F990FB94
:103B200083F92CC00115EDE51E0709F458C088F48F
:103B30008091610283600E3F2CE5120769F180914C
:103B400061028D7F0F3F1C4538F1809161028C7FAF
:103B500023C002304DE5140709F45AC008F452C0DE
:103B600001361D4509F00ECF90916002892F8F7E9E
:103B700094FF806103C08091600281608093600245
:103B800001CF809160028260F9CF809160028460F1
:103B9000F5CF80916102816080936102F3CE8091C4
:103BA00061028260F9CF809160028064E7CF0E9459
:103BB0009D16809160028068E1CF809160028B7FCA
:103BC000DDCF809161028E7FE7CF809160028F7D93
:103BD000D5CF0E949D16809160028F77CFCF8091C4
:103BE0006102982F909591708E7F892B90FB81F9BF
:103BF000D3CF0E949D1690916002892F97FB87F981
:103C00008058BCCF61E08EE090E00E943C30BACE9C
:103C100060E0F9CF8091CF0181110FC089E2E8EC1B
:103C2000F1E02EEC31E09191891303C0DF0111978F
:103C30001C922E173F07B9F7F4CE85E3F0CF8091A1
:103C4000A60380FF31C08E7F8093A6036091A603F8
:103C50007091A7038091A8039091A9030E94AC11D1
:103C60008091BE0281608093BE02FFEF20E732E0C8
:103C7000F15020403040E1F700C000000F900F905D
:103C80000F900F900F90DF91CF911F910F91FF90A8
:103C9000EF90DF90CF90BF90AF909F908F907F90EC
:103CA0006F905F900C94DA0E81608093A60361E0C0
:103CB00086950F900F900F900F900F90DF91CF91FE
:103CC0001F910F91FF90EF90DF90CF90BF90AF903A
:103CD0009F908F907F906F905F900C94911244EB27
:103CE00052E16DEB72E10F900F900F900F900F90DB
:103CF000DF91CF911F910F91FF90EF90DF90CF90C8
:103D0000BF90AF909F908F907F906F905F900C943A
:103D10000C094DEB52E164EB72E1E5CF4DE552E168
:103D200066E672E1E0CF46E652E16DE572E1DBCF97
:103D30004DE252E169E372E1D6CF61E081E0B9CFB3
:103D40000E949D164FEF54E38CE04150504080405C
:103D5000E1F700C000000E949308C8010E94C20C55
:103D6000D82E03C2092F0F70907F11F00295007FAB
:103D7000812F2223C9F0002369F090E2910F98303F
:103D800010F011110BC080912502082B0093250221
:103D90000E94A10C812F0E94F41917C08091240267
:103DA000082B00932402F4CF0E94B319002369F07A
:103DB0000095105E183010F0B11025C080912502DA
:103DC0000823009325020E94A10C58E0C51AD108CF
:103DD00084E0C816D10408F063CC0F900F900F90C8
:103DE0000F900F90DF91CF911F910F91FF90EF9067
:103DF000DF90CF90BF90AF909F908F907F906F900B
:103E00005F900C94541080912402082300932402A4
:103E1000DACF892F8F70907F903211F08295807F5A
:103E2000F1E0BF120CC0222329F0363070F60E9458
:103E3000210DCBCF353048F60E94160DC6CF222378
:103E400041F03323A1F340FFA5CF4F70F701458325
:103E5000EECF332389F3193349F4FFEF27EE33E034
:103E6000F15020403040E1F700C00000812F0E9457
:103E7000B319ABCF892F86958695837061F0813019
:103E800009F0A3CF812F9370211102C090E080E050
:103E90000E94CA089ACF812F9370211102C090E02E
:103EA00080E00E94E00891CF812F222329F00E9418
:103EB000780A0E942F1689CF0E94BD09FACF892F58
:103EC0008370A1F5211181CF812F8295869587700E
:103ED000880F880F412F4F70082E01C0440F0A949D
:103EE000EAF7212F207114FF07C02FE030E001C056
:103EF000220F8A95EAF720959695969593709230C1
:103F000081F0822F842B933030F4809126029130FF
:103F100029F0242B82230E94991657CF842B822BC1
:103F2000FACF242B809126028227F5CF8695222373
:103F300011F0892F8170882309F447CF812F829552
:103F400086958770880F880F412F4F70082E01C00B
:103F5000440F0A94EAF7212F207114FF07C02FE0C5
:103F600030E001C0220F8A95EAF720959695969544
:103F70009370923081F0822F842B933030F48091B3
:103F8000D903913029F0242B82230E9473161DCF70
:103F9000842B822BFACF242B8091D9038227F5CF53
:103FA000092F0F70222329F0802F0E948E16812F57
:103FB0003ECF812F0E94160D802F0E94821605CFC2
:103FC000812F41EF141789F1411750F050EF151769
:103FD000B9F02223B1F13111DDCE892F8F7129C0C3
:103FE000E2EF1E1749F1F3EF1F13F3CF80E0222316
:103FF00061F29F7181E001C0880F9A95EAF7C5CF01
:10400000222379F0353008F0E0CE292F2F7181E09E
:1040100090E001C0880F2A95EAF79091D90389278B
:10402000B4CF363008F0D1CEF0CF892F8F71222354
:1040300021F20E948E16C9CE892F8F712223C9F3D7
:10404000BCCF332359F0893309F010CF2FEF37EE6F
:1040500043E0215030404040E1F706CF892F8F7177
:10406000ACCF0031EFE51E0709F425CC0131FFE5A7
:104070001F0709F43DCC033F3CE5130709F4A9CC25
:1040800008F038CC083D5CE5150709F49ECC093DE5
:104090008CE5180709F4A9CC073DECE51E0709F0EB
:1040A00038CC26E241EE61EEC7010F900F900F90E1
:1040B0000F900F90DF91CF911F910F91FF90EF9094
:1040C000DF90CF90BF90AF909F908F907F906F9038
:1040D0005F900C946E1A00312FE5120709F4EFCBB4
:1040E00001313FE5130739F682E0EACB85E0DE01D6
:1040F000119601900D928A95E1F7F701228189814D
:104100009A812111E2CA0E94C20C182FE6CA063118
:10411000FCE51F0709F47ECD809125028272093CDF
:104120002CE5120709F404CE08F04AC0053C4CE522
:10413000140709F4F3CDA0F5033CECE51E0709F4E0
:10414000CECD08F0E6CD023C1C4509F478CDF70150
:1041500000811181992309F400CEC8010E94231126
:10416000D82E682FC8010E94EA0CB8018D2D0E943C
:1041700016110E94300B182FB82EF70122814581AD
:10418000342F32953F70892F82958F70C82ED12C95
:104190008C3008F01ACEF601E657FF4C0C94FC2F39
:1041A00045E452E161E572E1073C3CE5130709F49F
:1041B0009ACD08F4B8CD41E552E165E472E193CDC2
:1041C0000D3C5CE5150709F4B8CDB0F44FE652E1BB
:1041D00060E872E10B3CFCE51F0709F484CD49E37C
:1041E00052E16DE272E10C3C1C4508F47CCD40E8E4
:1041F00052E16FE672E177CD063D3CE5130708F426
:104200004FCA0D351D4509F44BCAA1CF01155CE518
:10421000150709F495CD0E3D1C4509F098CF0F9078
:104220000F900F900F900F90DF91CF911F910F91F2
:10423000FF90EF90DF90CF90BF90AF909F908F90C6
:104240007F906F905F900C94D9121F93CF93DF9360
:104250008091F001807FA9F48091ED01882389F09D
:1042600080912202D091F1016091EB017091EC01FB
:10427000A091EE01B091EF01C62FC72316E0D8132D
:1042800004C0DF91CF911F91089590E0109711F035
:10429000CF3F19F401968770F2CF189F9001199FB4
:1042A000300D1124F901EE50FE4F41814713F2CF3A
:1042B00040814613EFCF42814111ECCF43815481BD
:1042C0004A1B5B0B483C510528F78091F0018F7029
:1042D00080618093F001F901E950FE4F80818F7079
:1042E000806180838BEE91E00E94301BDF91CF9143
:1042F0001F910C94B80CAF92BF92CF92DF92EF92C5
:10430000FF920F931F93CF93DF93CDB7DEB76197E3
:104310000FB6F894DEBF0FBECDBF8C0185E0F8016B
:10432000DE011D9601900D928A95E1F7F801E28079
:104330008BEEA82E81E0B82E6091EE017091EF0116
:104340006115710509F432C19091EB014091EC01C6
:10435000892F84238F3F09F429C120813181C380B3
:10436000D480F090ED01F601E61BF70BFF2009F475
:10437000E8C08091F001582F507FE83CF10508F02B
:10438000ABC0511177C0FE2C431321C092131FC044
:10439000E1101DC08F7080618093F001C5010E9403
:1043A000301B8091F001F80185838F2D61960FB647
:1043B000F894DEBF0FBECDBFDF91CF911F910F915B
:1043C000FF90EF90DF90CF90BF90AF900895CD28F1
:1043D00029F0822F83238F3F09F003C180E0F82F5B
:1043E000F170DF2E80FF3CC0809122024091F101EC
:1043F00056E0841315C02D873E878D859E850E94CB
:104400005211292F22952F702230F0F0243018F508
:104410009F70F1F0F8019581907FD1F4D12C1EC0EE
:1044200090E0589FF001599FF00D1124EE50FE4F7F
:104430006181361306C06081261303C06281E612D3
:104440000FC001968770D5CF9F7011F0882331F38C
:10445000805E883018F3C8010E94301BFD2CA5CF68
:10446000EE2009F4A2CF8091F00181608093F001E9
:10447000F12C9BCF431306C0921304C0F801EE2029
:1044800009F479C0C8010E945E11882309F1EE2069
:10449000F9F08091F001803270F02091EB013091C1
:1044A000EC0138872F831986DB86CA868C87CE017C
:1044B00007960E94301B86E0F801ABEEB1E0019058
:1044C0000D928A95E1F70E942521FF24F3946DCF88
:1044D000C8010E94301BF9CF51110AC08BEE91E048
:1044E0000E94301B86E0F50111928A95E9F7C0CF52
:1044F00043130FC092130DC0E1100BC0F801858368
:10450000C8010E94301B86E0F50111928A95E9F7F7
:104510004CCFC8010E945E118823D1F2EE20C1F277
:104520008091F001803238F22091EB013091EC0162
:104530003A8329831B82DD82CC828E83CE01019651
:10454000B8CFE83CF105F8F6FE2CEE2009F2431353
:104550001FC092131DC08091F00180FD10C0982FE4
:10456000907F69F0F8018583903F31F0982F907F1C
:10457000905F8F70892B8583C8010E94301B86E075
:10458000F801ABEEB1E001900D928A95E1F70DCF05
:10459000C8010E945E1181118ECF8091F00181606F
:1045A0008093F001C8010E94301BFFCEEE2009F479
:1045B0008FCFC8010E945E11F82E882309F488CF9E
:1045C00086E0F801ABEEB1E001900D928A95E1F73B
:1045D0008091EB019091EC010E9452110E942521E3
:1045E000E4CE81E08E25FBCE1F93CF93DF93CDB732
:1045F000DEB767970FB6F894DEBF0FBECDBF4B8B0B
:104600005C8B6D8B7E8B8F8B6111109224021A8ACA
:10461000198A85E0FE017396DE011D9601900D92C8
:104620008A95E1F786E0FE013D96DE01179601903E
:104630000D928A95E1F7CE0107960E947B2188238F
:1046400089F016E0809122029091F101891349C00E
:1046500067960FB6F894DEBF0FBECDBFDF91CF9146
:104660001F91089586E0FE013796DE0111960190B4
:104670000D928A95E1F78A859B85892B11F38F81AD
:10468000988589238F3FE9F22091F10130E0C9013B
:10469000019687709927409122024817190671F4F4
:1046A0000E949D161092F1011092220286E0EBEE1C
:1046B000F1E0DF011D928A95E9F7C3CF96E0929F62
:1046C000D001939FB00D1124AE50BE4FFE01319624
:1046D00001900D929A95E1F78093F1010E94B80C38
:1046E000B0CF819FC00111248E509E4F0E947B212C
:1046F000882309F4ADCF8091220290E00196877063
:104700009927809322029ECF9F92AF92BF92CF9221
:10471000DF92EF92FF920F931F93CF93DF93CDB76A
:10472000DEB72F970FB6F894DEBF0FBECDBF8E0158
:104730000F5F1F4F8AE0D8011D928A95E9F789E83B
:10474000C82E81E0D82EF12CE12CAA24A394B12C00
:10475000F60181916F018F3F09F44AC0F894E82F68
:10476000E295EF70F0E021A18F70A50102C0440F27
:10477000551F8A95E2F7CA01922F982B91A392A117
:104780008095892382A30E94D40A00C0E3E9F1E066
:1047900030E020E0912C41914F3F09F46DC0A42FEF
:1047A000A295AF70B0E090968C9190E04F7002C0EF
:1047B000959587954A95E2F780FD5EC08A2D022E79
:1047C00001C0880F0A94EAF7982A2F5F3F4F2730DD
:1047D000310509F7F601319780818F3F11F00E9472
:1047E000D60A50EA5A95F1F7F801EE0DFF1D9082B6
:1047F0008FEFE81AF80A95E0E916F10409F0A8CF5E
:104800004AE050E0B80182E692E00E9412307C015A
:10481000892B41F08AE0F801A2E6B2E001900D9206
:104820008A95E1F710916D02E114F10439F181E00C
:10483000809329020E9423169093280280932702D6
:1048400080912702909128020E941416059778F013
:10485000A2E6B2E0E12FF0E0EB55FD4F87E692E0F3
:104860002D9121938A179B07D9F710922902EF28DF
:1048700049F081E090E05EC080E0A6CF80912902FF
:104880008111DECF0E943110D82EE0916D02DE0141
:104890001B967D01882309F485C085E01D928A95C9
:1048A000E9F70E2F10E00B551D4F80915B028A3007
:1048B00008F052C041ED54E1B701C8010E94ED0F6C
:1048C000882309F45EC042ED5AE1B701C8010E9495
:1048D000ED0F882309F455C042EB53E1B701C8013D
:1048E0000E94ED0F882309F44CC043E453E1B70163
:1048F000C8010E94ED0F882309F443C010925B02A7
:10490000E0916C02F0E0BF016B557D4FD7019E0135
:10491000205F3F4F80E0FB014191BF019D9149170E
:1049200031F0AF0141505109FA0190838D2D2A17C2
:104930003B0789F72F960FB6F894DEBF0FBECDBFA9
:10494000DF91CF911F910F91FF90EF90DF90CF906B
:10495000BF90AF909F90089580912A0290912B0272
:104960000E941416843F914008F0A4CFE0916C029D
:10497000F0E0EB55FD4F10821182128213821482F7
:1049800078CF80915B028F3F31F08F5F80935B0225
:104990008A3008F4B5CF0E94231690932B0280939F
:1049A0002A02E4CFF0E0EB55FD4FF89485E0A3E454
:1049B000B2E001900D928A95E1F765E070E083E442
:1049C00092E00E94F608809342020E94D40AF89472
:1049D000E0917302F0E0E059FD4F80818B87809376
:1049E000490261E070E0C7010E94F6088093480226
:1049F0000E94D40AF894C0904A02D0904B02E090F2
:104A00004C02F0904D0280912C0290912D02A091C9
:104A10002E02B0912F02C816D906EA06FB06D1F085
:104A2000C0922C02D0922D02E0922E02F0922F0220
:104A30000E94311081110EC00E94A408C61AD70A24
:104A4000E80AF90AC0925C02D0925D02E0925E022E
:104A5000F0925F020E94D40AF89480915502882354
:104A600021F184FF04C0909156029093BF0280FF11
:104A70000DC080914E0280FF1CC09091A6039160F2
:104A80009093A60360E086950E9491128091550252
:104A900081FF09C020E04091510260915002809155
:104AA0004F020E94BE11109255020E94D40A80E06B
:104AB00041CF0E94D80FEACF1F921FB61F92112438
:104AC0008F939F93AF93BF938091B703811113C0CE
:104AD0008091B8039091B903A091BA03B091BB0340
:104AE0004196A11DB11D8093B8039093B903A09383
:104AF000BA03B093BB03BF91AF919F918F911F9069
:104B00001FBE1F901895CDB7DEB7AC970FB6F894BF
:104B1000DEBF0FBECDBF84B7877F84BF0FB6F894CA
:104B2000A895809160008861809360001092600079
:104B30000FBE80E890E00FB6F894809361009093E8
:104B400061000FBE85B7806885BF85B7806885BF67
:104B500082ED9AE09093C5018093C4010E940607FC
:104B60000E94D1078091E20084608093E2007894F3
:104B70008091CC038823A1F01091E9001F709091DF
:104B8000EC00892F817090FD80E8182B1092E900CD
:104B90008091E80083FD0E94A8161F701093E90021
:104BA00082E084BD93E095BD9AEF97BD80936E003F
:104BB00010925C0210925D0210925E0210925F02EF
:104BC0000E948511811102C00E94E1100E943110E3
:104BD00080933C0180913C01882309F46AC01092C3
:104BE000500184E2809351010E94311081110E9492
:104BF000072E80913C0180913C0195E0811190E06D
:104C000090936D0285E0891B80936C0209E811E0A6
:104C1000BEE8EB2EB1E0FB2ED8018D918D018F3FC8
:104C200011F00E94D60AE016F106B1F703E911E08F
:104C3000AAE9EA2EA1E0FA2EF80181918F018F3FB7
:104C400011F00E94D60AE016F106B1F7E2E6F2E0B2
:104C50008CE692E0A5EAB2E011921D928E179F07B2
:104C6000D9F70E940E15811102C00E94D91282E06C
:104C700090E00E94283080939A020E949E119093A7
:104C80006102809360020E9484238FE39CE9019774
:104C9000F1F700C000000E9484238091A50280FFEC
:104CA0000DC06FEF7FEF90E080E00E945A300E94CD
:104CB000930884E28093500188E294CF83E090E0EF
:104CC0000E9428300E9499160E943110811102C062
:104CD0000E940A2E0E943110882309F4E5C283E065
:104CE0008093950280FDE2C280E88093DA030E94FF
:104CF0009F2C6DE070E089EB93E00E94020E892BFF
:104D0000E9F58091950263E070E081FDD1C286EB08
:104D100093E00E94020E892B89F56DE070E086EA2F
:104D200093E00E94020E892B49F50E94A408605A64
:104D300075418F4F9F4F6093AB037093AC0380938B
:104D4000AD039093AE03EDEDF3E080E092E0DF0180
:104D50009C011D9221503040E1F7F093E405E0936F
:104D6000E3058FEF9FEF9093DC038093DB0381E0FB
:104D70008093B0038093AF031092960280916E02ED
:104D8000811136C00E940E15811104C00E94D912F3
:104D90000E94C11288E090E00E9430306093A60328
:104DA0007093A7038093A8039093A9038091BE02F8
:104DB00083608093BE026E7F71F40E94C11288E00E
:104DC00090E00E9430306093A6037093A703809315
:104DD000A8039093A9030E9411098091A60380FF64
:104DE00004C060E086950E94911281E080936E027B
:104DF00080913C01811106C086E38093480186E6DC
:104E00008093470120914801A22FA295AF70B0E096
:104E100091963C9191972F7081E090E0BC01022E19
:104E200001C0660F0A94EAF7462F409543239196F6
:104E30004C93919792963C919297362B92963C93F5
:104E4000929740914701E42FE295EF70F0E031A195
:104E50004F70042E01C0880F0A94EAF7982F90959E
:104E6000932391A392A1892B82A390968C9190E099
:104E700002C0959587952A95E2F7817020A130E0D0
:104E800002C0359527954A95E2F792E020FF90E021
:104E9000892B8093740290913C0181E09827909334
:104EA0007302891B80936F0286EC93E09093C1029A
:104EB0008093C0028DE391E09093B4038093B30399
:104EC000F0E46F2E8091CC0300E112E1853009F40B
:104ED00029C20E948423E82E81110E94A408EBE9D4
:104EE000F2E0A5EAB2E010E000E0B02EDD908191A2
:104EF0008D1509F426C28D25C12CFF24F394982F1B
:104F00009F2109F419C20E943110882399F0C9A287
:104F1000BAA2DF2081E009F480E08BA30E9423166F
:104F20008160782F9DA38CA349A15AA16BA18DA16B
:104F30000E94F422F801E556FD4F8081F826F082A8
:104F400080917402E82FEE0FEE0F90914801A92F87
:104F5000A295AF70B0E090962C9130E09F7002C0A7
:104F6000359527959A95E2F721703327909147015F
:104F7000A92FA295AF70B0E090964C9150E09F7031
:104F800002C0559547959A95E2F7CA018170992715
:104F900040FF02C082E090E0822B8E2B809374024F
:104FA000109173028F70E82FF0E0E656FE4F80817B
:104FB00090917202890F80937202F12C82308CF0F2
:104FC000E12FF0E0E059FD4F80818F5F80838AEF11
:104FD000112319F0113019F48AEA0E94511AFF24A2
:104FE000F394809172028F3F8CF4E12FF0E0E0594E
:104FF000FD4F80818150808389EF112319F011309A
:1050000019F489EA0E94511AFF24F39480917202E4
:10501000082E000C990B62E070E00E94E82F80934C
:105020007202F1100E949F0C8091B0038823B1F1AD
:1050300080919702909198020E941416C29708F0EE
:1050400097C12091DB033091DC032115310509F074
:10505000D3C18091AF03882309F10E94A408009175
:10506000AB031091AC032091AD033091AE03601BF4
:10507000710B820B930B6F3F7F4F8F4F9F4770F4E5
:105080008091B003882351F062E070E089E294E0FF
:105090000E94020E892B11F41092AF03E11001C09F
:1050A000F1100E94320E86E0E6EBF2E0DE0111968E
:1050B00001900D928A95E1F7F090B802E090B90264
:1050C0001091BA020091BB021092B8021092B9027C
:1050D0001092BA021092BB028F2D8E2909F448C09B
:1050E0008091B4029091B5020E9414169C01909197
:1050F000B002992309F41EC423333105C8F19F3F40
:1051000019F09F5F9093B002FF2059F00E94580A57
:105110009FEF1F140CF491E0899F802D1124809340
:10512000B802EE2059F00E94580A9FEF1E140CF4AA
:1051300091E0899F802D11248093B9023091B802AB
:105140003323B1F02091B902222391F045EB3403CF
:10515000C0011124992309F422C29093B80245EBAF
:10516000240390011124332309F41DC23093B902A2
:10517000812F802B09F448C08091B2029091B30234
:105180000E9414169C019091AF02992309F4CDC39B
:1051900025363105C8F19F3F19F09F5F9093AF020C
:1051A000112359F00E94360A9FEF11160CF491E07A
:1051B000899F802D11248093BA02002359F00E9408
:1051C000360A9FEF10160CF491E0899F802D112470
:1051D0008093BB023091BA023323B1F02091BB021D
:1051E000222391F045EB3403C0011124992309F4E3
:1051F000DEC19093BA0245EB2403900111243323BE
:1052000009F4D9C13093BB028091B8029091B902E0
:10521000892B9091BA02892B9091BB02892B11F0B6
:105220000E942F1686E0FE013196A6EBB2E00190B7
:105230000D928A95E1F70E94541090919902891776
:1052400021F00E945410809399028091CC03843005
:1052500009F038CE83E08093E9008091E80082FF76
:1052600031CE8091E80090E085FF0CC00E942507B8
:1052700030E2E32EF12C8E010F5F1F4F882309F4DB
:10528000A8C191E08091E8008B778093E800992392
:1052900009F418CEE981E150E33108F0FDC1F0E0F6
:1052A000EA56FF4C0C94FC2F80E01ACD80E21DCD15
:1052B00083EB93E02ECD8091CC03843019F11092D2
:1052C000B70388E190E00FB6F894A895809360004A
:1052D0000FBE6092600083B7817F846083BF83B715
:1052E000816083BF7894889583B78E7F83BF0FB624
:1052F000F894A89580916000886180936000109276
:1053000060000FBE8091CB03882361F00E9484234C
:10531000E5EAF2E081918111E9C2AFEAB2E0AE17AD
:10532000BF07C1F78091CC03853009F4C4CF0E9438
:105330009D160E945410CDCDC394FF0C27E0C212DD
:10534000DECD0F5F1F4F0A30110509F0CECD8FEF74
:105350008EA38FA318A60E9423168160782F9AA788
:1053600089A74EA15FA168A58AA50E94F422E8CD75
:105370000E94231690939802809397028DED93E0FC
:105380009093E4058093E3050E943110882329F16E
:1053900088E294E00E94FD0D87E294E00E94FD0DFA
:1053A00081E294E00E94FD0D8091D9030E942B0DB3
:1053B0008130C9F0882349F08230C1F08330C9F0D0
:1053C0008DE094E00E94BD0D04C08DE194E00E9448
:1053D000FD0D80ED93E00E94BD0D8091B003882308
:1053E00009F437CE2ECE89E194E0F1CF85E194E047
:1053F000EECF81E194E0EBCF8091960261E070E026
:10540000811127CE082F10E02B01082E02C0440C7A
:10541000551C0A94E2F7A90144215521452B09F4B2
:1054200048C09091950290FD46C08295880F807685
:1054300080934B01980136952795369527952093B3
:105440004E01815E80934C0110924F0124E630E0C2
:1054500047E050E069E471E088E70E944E2D892B17
:1054600009F0F7CDA80175E0440F551F7A95E1F7D3
:105470008091950280FD2DC043525C4F04E610E000
:1054800020E230E060E488E70E94752D892B09F066
:10549000E0CD0E94320EC201809590954090DB03D2
:1054A0005090DC03482259225092DC034092DB03E7
:1054B000D0CD8F5FA7CF880F880F880F80934B01C7
:1054C00010924E01895F80934C0183E080934F01DD
:1054D000BDCFE5E7F2E080E2DF011D928A95E9F7B2
:1054E000EEEAF1E0FCA7EBA70AEA11E067E0A62EDE
:1054F00099249394ABA5BCA52D91BCA7ABA7F801AB
:1055000021908F01240E352E311CC10183529C4FF6
:105510001C01E22FF0E0EB58FD4F30E020E07A2C48
:10552000721AB92C022E01C0BB0C0A94EAF7610171
:1055300090E0D6018D916D018B21672D691B6770FD
:10554000862E062E000C770BB82F01C0BB0F8A9455
:10555000EAF78B2E7195619571096770772701C005
:1055600086956A95EAF7882A8081882A80829F5FDB
:105570009830F9F62F5F3F4F31962830310579F694
:10558000E2EBF1E02BA53CA5E217F30709F0B2CF5F
:1055900004E610E020E230E045E752E073CF81E01E
:1055A0008093B802DCCD81E08093B902E1CD81E047
:1055B0008093BA0220CE81E08093BB0225CE8091F9
:1055C000F100D8018D938D01B1E0EB1AF10809F4D7
:1055D00058CE8091E80085FDF2CF8091E8008B776E
:1055E0008093E8000E942507882399F34ACE1A8207
:1055F00089E08B8311C08A81823009F48DC18330A8
:1056000091F1813009F048C00E94A4080E94023044
:105610006B837C838D839E838091CC03843009F0DF
:1056200051CC1091E9001F709091EC00892F81708E
:1056300090FD80E8182B82E08093E9008091E800DB
:1056400080FF0DC050E040E060E270E0CE010196C6
:105650000E9456078091E8008E778093E8001F70C3
:105660001093E9002FCCDE011396E5EAF2E0819178
:105670008D9322E0EF3AF207D1F7CECF8A818230C4
:1056800059F46B817C818D819E810E94023086E27B
:1056900090E00E943C30C0CF8FEF8983BDCF4C811A
:1056A0006B818A810E94F0109827892798279E8312
:1056B0008D83B2CF0D811E811027012710278A818B
:1056C000EB803EE0E39E700111244CE8849FE00CE7
:1056D000F11C11248C8190E0880F991FE80EF91EAF
:1056E000612FC70187960E943C30602FC7018896C2
:1056F000D0CF0E94741090CF8A818138C1F060F4BD
:10570000803809F089CF20E04B816091A803809117
:10571000A7030E94BE1180CF8238E9F0833809F0D8
:105720007BCF20E04091A9036C818B81F2CF60E0B8
:105730008B810E9491128B81811103C00E94D80F2E
:105740006BCF8091A60381608093A60360E086956D
:105750000E94911261CF8B818093AA035DCF8A81D1
:10576000813899F030F4803809F056CF8091A90340
:1057700040CF823891F0833809F04ECF8091A70353
:105780008B838091A8038C8347CF8091A60380FFF1
:1057900002C086952ECF80E02CCF8091AA0329CF1E
:1057A0006091A6037091A7038091A8039091A9032B
:1057B0000E94AC1131CF80E18A832ECF81E08A83B1
:1057C00089EA17CF0A811B81102701271027CE01F4
:1057D00001966C01EC80DC01AE0DB11D7D01C801AC
:1057E000895A9D4FCE14DF0409F416CF093AB1E06F
:1057F0001B0750F40E942830F60184830F5F1F4F6F
:10580000BFEFCB1ADB0AEBCFD60114961C92F6CF72
:105810000A811B81102701271027FE0131966F0195
:10582000EC80E00EF12EF11CC801895A9D4FE01664
:10583000F10609F4F1CE093AF1E01F0728F4D60188
:1058400014966C910E943C30BFEFCB1ADB0A0F5FBD
:105850001F4FEACF0E946410DFCE84E0ADCF0A81F3
:105860001B81102701271027FE0131966F01EC8064
:105870009F012E0D311D7901C8018796EC14FD049E
:1058800009F4CACE003332E0130758F40E942830DE
:10589000D60114968C930F5F1F4FFFEFCF1ADF0ACC
:1058A000EBCFF6011482F7CF0A811B811027012765
:1058B00010279E012F5F3F4F6901EC80E00EF12E13
:1058C000F11CC8018796E016F10609F4A5CE003355
:1058D00032E0130728F4D60114966C910E943C30F4
:1058E000BFEFCB1ADB0A0F5F1F4FEBCF09BD19BD0E
:1058F00009B400FEFDCF8091D8008F7D8093D80041
:105900008091E00082608093E0008091E00081FD62
:10591000FCCF0E949D1606CD86E290E00E942830C2
:105920001B821C821D828E8377CE2D32314008F07F
:1059300034CC6ACC2D32314008F0E3CB19CC109234
:10594000B9008CE08093B80008959F92AF92BF9207
:10595000CF92DF92EF92FF920F931F93CF93DF933B
:10596000B82EEB010E9423166C01EE24E394F12C77
:10597000C431D10560F025E0E22EF12CCF3FDC07E9
:1059800031F0CE0164E170E00E94C82F7B0184EA0F
:10599000A82E94E8992E1092BC00A092BC000E9400
:1059A00023168C018091BC0087FF0DC08091B90047
:1059B000887F883039F18091B900887F803111F17A
:1059C0000FEF1FEF09C00E942316801B910B8E154D
:1059D0009F0540F30EEF1FEFCF3FDC07E1F2C6015A
:1059E0000E9414168C179D07B0F2C801DF91CF9169
:1059F0001F910F91FF90EF90DF90CF90BF90AF90ED
:105A00009F900895B092BB009092BC000E94231614
:105A10008C018091BC0087FF0AC08091B900887F0B
:105A2000883111F0803461F610E000E0DECF0E9492
:105A30002316801B910B8E159F0558F3CBCF0F9328
:105A40001F93CF93DF93EB018093BB0084E8809397
:105A5000BC000E9423168C018091BC0087FF11C0FE
:105A60002091B900287F81E090E0283211F490E085
:105A700080E0919581959109DF91CF911F910F91D0
:105A80000895CF3FDC0741F30E942316801B910B42
:105A90008C179D0708F38EEF9FEFEECFCF92DF922A
:105AA000EF92FF920F931F93CF93DF936B018A01C5
:105AB0007901B9010E94A52CE6010C0D1D1DC0172E
:105AC000D10761F424E92093BC00DF91CF911F91AD
:105AD0000F91FF90EF90DF90CF90089597FDF2CF58
